{"contracts/CryptoEscrow.sol":{"CryptoEscrow":{"abi":[{"inputs":[{"internalType":"uint256","name":"_feePercentage","type":"uint256"},{"internalType":"uint256","name":"_disputeFee","type":"uint256"},{"internalType":"address","name":"_feeCollector","type":"address"},{"internalType":"address[]","name":"_initialTokens","type":"address[]"},{"internalType":"address","name":"_chxTokenAddress","type":"address"}],"stateMutability":"nonpayable","type":"constructor"},{"inputs":[],"name":"AmountTooSmall","type":"error"},{"inputs":[],"name":"AmountsExceedEscrowBalance","type":"error"},{"inputs":[],"name":"DisputeTimeframeExpired","type":"error"},{"inputs":[],"name":"EscrowNotFunded","type":"error"},{"inputs":[],"name":"EscrowNotInDisputedState","type":"error"},{"inputs":[],"name":"IncorrectNativeTokenAmount","type":"error"},{"inputs":[],"name":"InvalidAddress","type":"error"},{"inputs":[],"name":"InvalidFeeConfiguration","type":"error"},{"inputs":[],"name":"InvalidSellerAddress","type":"error"},{"inputs":[],"name":"InvalidTokenAmount","type":"error"},{"inputs":[],"name":"InvalidTokenOperation","type":"error"},{"inputs":[],"name":"NativeTokensNotRequiredForERC20","type":"error"},{"inputs":[],"name":"ReentrancyGuardReentrantCall","type":"error"},{"inputs":[],"name":"TokenAlreadySupported","type":"error"},{"inputs":[],"name":"TokenNotSupported","type":"error"},{"inputs":[],"name":"TokenNotWrappable","type":"error"},{"inputs":[],"name":"UnauthorizedAccess","type":"error"},{"inputs":[],"name":"WrappedTokenExists","type":"error"},{"anonymous":false,"inputs":[{"indexed":true,"internalType":"address","name":"newAdmin","type":"address"}],"name":"AdminUpdated","type":"event"},{"anonymous":false,"inputs":[{"indexed":true,"internalType":"address","name":"arbitrator","type":"address"}],"name":"ArbitratorAdded","type":"event"},{"anonymous":false,"inputs":[{"indexed":true,"internalType":"address","name":"arbitrator","type":"address"}],"name":"ArbitratorRemoved","type":"event"},{"anonymous":false,"inputs":[{"indexed":true,"internalType":"uint256","name":"escrowId","type":"uint256"},{"indexed":true,"internalType":"address","name":"arbitrator","type":"address"}],"name":"DisputeArbitratorAssigned","type":"event"},{"anonymous":false,"inputs":[{"indexed":true,"internalType":"uint256","name":"escrowId","type":"uint256"},{"indexed":true,"internalType":"address","name":"submittedBy","type":"address"},{"indexed":false,"internalType":"string","name":"evidenceURL","type":"string"}],"name":"DisputeEvidenceSubmitted","type":"event"},{"anonymous":false,"inputs":[{"indexed":false,"internalType":"uint256","name":"newFee","type":"uint256"}],"name":"DisputeFeeUpdated","type":"event"},{"anonymous":false,"inputs":[{"indexed":true,"internalType":"uint256","name":"escrowId","type":"uint256"},{"indexed":true,"internalType":"address","name":"raisedBy","type":"address"},{"indexed":false,"internalType":"string","name":"reason","type":"string"}],"name":"DisputeRaised","type":"event"},{"anonymous":false,"inputs":[{"indexed":true,"internalType":"uint256","name":"escrowId","type":"uint256"},{"indexed":true,"internalType":"address","name":"arbitrator","type":"address"},{"indexed":false,"internalType":"bool","name":"buyerWon","type":"bool"},{"indexed":false,"internalType":"uint256","name":"buyerAmount","type":"uint256"},{"indexed":false,"internalType":"uint256","name":"sellerAmount","type":"uint256"}],"name":"DisputeResolved","type":"event"},{"anonymous":false,"inputs":[{"indexed":true,"internalType":"uint256","name":"escrowId","type":"uint256"},{"indexed":true,"internalType":"address","name":"buyer","type":"address"},{"indexed":false,"internalType":"uint256","name":"amount","type":"uint256"}],"name":"EscrowCancelled","type":"event"},{"anonymous":false,"inputs":[{"indexed":true,"internalType":"uint256","name":"escrowId","type":"uint256"},{"indexed":true,"internalType":"address","name":"buyer","type":"address"},{"indexed":true,"internalType":"address","name":"seller","type":"address"},{"indexed":false,"internalType":"address","name":"token","type":"address"},{"indexed":false,"internalType":"uint256","name":"amount","type":"uint256"},{"indexed":false,"internalType":"string","name":"paymentDetails","type":"string"}],"name":"EscrowCreated","type":"event"},{"anonymous":false,"inputs":[{"indexed":true,"internalType":"address","name":"newCollector","type":"address"}],"name":"FeeCollectorUpdated","type":"event"},{"anonymous":false,"inputs":[{"indexed":true,"internalType":"uint256","name":"escrowId","type":"uint256"},{"indexed":true,"internalType":"address","name":"buyer","type":"address"},{"indexed":false,"internalType":"uint256","name":"amount","type":"uint256"}],"name":"FundsDeposited","type":"event"},{"anonymous":false,"inputs":[{"indexed":true,"internalType":"uint256","name":"escrowId","type":"uint256"},{"indexed":true,"internalType":"address","name":"seller","type":"address"},{"indexed":false,"internalType":"uint256","name":"amount","type":"uint256"}],"name":"FundsReleased","type":"event"},{"anonymous":false,"inputs":[{"indexed":false,"internalType":"uint256","name":"newFee","type":"uint256"}],"name":"PlatformFeeUpdated","type":"event"},{"anonymous":false,"inputs":[{"indexed":true,"internalType":"address","name":"token","type":"address"}],"name":"TokenSupportRemoved","type":"event"},{"anonymous":false,"inputs":[{"indexed":true,"internalType":"address","name":"token","type":"address"}],"name":"TokenSupported","type":"event"},{"anonymous":false,"inputs":[{"indexed":true,"internalType":"address","name":"wrappedToken","type":"address"},{"indexed":true,"internalType":"address","name":"originalToken","type":"address"},{"indexed":false,"internalType":"uint256","name":"amount","type":"uint256"}],"name":"TokenUnwrapped","type":"event"},{"anonymous":false,"inputs":[{"indexed":true,"internalType":"address","name":"originalToken","type":"address"},{"indexed":true,"internalType":"address","name":"wrappedToken","type":"address"},{"indexed":false,"internalType":"uint256","name":"amount","type":"uint256"}],"name":"TokenWrapped","type":"event"},{"inputs":[],"name":"DISPUTE_TIMEFRAME","outputs":[{"internalType":"uint256","name":"","type":"uint256"}],"stateMutability":"view","type":"function"},{"inputs":[],"name":"MAX_PLATFORM_FEE","outputs":[{"internalType":"uint256","name":"","type":"uint256"}],"stateMutability":"view","type":"function"},{"inputs":[],"name":"MIN_DISPUTE_FEE","outputs":[{"internalType":"uint256","name":"","type":"uint256"}],"stateMutability":"view","type":"function"},{"inputs":[],"name":"MIN_ESCROW_AMOUNT","outputs":[{"internalType":"uint256","name":"","type":"uint256"}],"stateMutability":"view","type":"function"},{"inputs":[{"internalType":"address","name":"arbitrator","type":"address"}],"name":"addArbitrator","outputs":[],"stateMutability":"nonpayable","type":"function"},{"inputs":[{"internalType":"address","name":"tokenAddress","type":"address"}],"name":"addSupportedToken","outputs":[],"stateMutability":"nonpayable","type":"function"},{"inputs":[],"name":"admin","outputs":[{"internalType":"address","name":"","type":"address"}],"stateMutability":"view","type":"function"},{"inputs":[{"internalType":"address","name":"","type":"address"}],"name":"allowedTokens","outputs":[{"internalType":"bool","name":"","type":"bool"}],"stateMutability":"view","type":"function"},{"inputs":[{"internalType":"address","name":"","type":"address"}],"name":"arbitrators","outputs":[{"internalType":"bool","name":"","type":"bool"}],"stateMutability":"view","type":"function"},{"inputs":[{"internalType":"uint256","name":"amount","type":"uint256"}],"name":"calculatePlatformFee","outputs":[{"internalType":"uint256","name":"","type":"uint256"}],"stateMutability":"view","type":"function"},{"inputs":[{"internalType":"uint256","name":"escrowId","type":"uint256"}],"name":"cancelEscrow","outputs":[],"stateMutability":"nonpayable","type":"function"},{"inputs":[{"internalType":"address","name":"seller","type":"address"},{"internalType":"address","name":"tokenAddress","type":"address"},{"internalType":"uint256","name":"amount","type":"uint256"},{"internalType":"string","name":"paymentDetails","type":"string"}],"name":"createEscrow","outputs":[],"stateMutability":"payable","type":"function"},{"inputs":[],"name":"disputeFeeFixed","outputs":[{"internalType":"uint256","name":"","type":"uint256"}],"stateMutability":"view","type":"function"},{"inputs":[{"internalType":"uint256","name":"amount","type":"uint256"}],"name":"emergencyWithdrawNative","outputs":[],"stateMutability":"nonpayable","type":"function"},{"inputs":[{"internalType":"address","name":"tokenAddress","type":"address"},{"internalType":"uint256","name":"amount","type":"uint256"}],"name":"emergencyWithdrawToken","outputs":[],"stateMutability":"nonpayable","type":"function"},{"inputs":[],"name":"escrowCount","outputs":[{"internalType":"uint256","name":"","type":"uint256"}],"stateMutability":"view","type":"function"},{"inputs":[{"internalType":"uint256","name":"","type":"uint256"}],"name":"escrows","outputs":[{"internalType":"address","name":"buyer","type":"address"},{"internalType":"address","name":"seller","type":"address"},{"internalType":"enum CryptoEscrow.EscrowStatus","name":"status","type":"uint8"},{"internalType":"uint256","name":"createdAt","type":"uint256"},{"internalType":"uint256","name":"disputeExpiry","type":"uint256"},{"internalType":"address","name":"arbitrator","type":"address"},{"internalType":"enum CryptoEscrow.AssetType","name":"assetType","type":"uint8"},{"internalType":"address","name":"tokenAddress","type":"address"},{"internalType":"uint256","name":"amount","type":"uint256"},{"internalType":"uint256","name":"platformFee","type":"uint256"},{"internalType":"uint256","name":"disputeFee","type":"uint256"},{"internalType":"address","name":"disputeRaisedBy","type":"address"},{"internalType":"string","name":"disputeReason","type":"string"},{"internalType":"string","name":"paymentDetails","type":"string"}],"stateMutability":"view","type":"function"},{"inputs":[],"name":"feeCollector","outputs":[{"internalType":"address","name":"","type":"address"}],"stateMutability":"view","type":"function"},{"inputs":[{"internalType":"uint256","name":"escrowId","type":"uint256"}],"name":"fundEscrow","outputs":[],"stateMutability":"nonpayable","type":"function"},{"inputs":[{"internalType":"uint256","name":"escrowId","type":"uint256"}],"name":"getEscrowDetails","outputs":[{"components":[{"internalType":"address","name":"buyer","type":"address"},{"internalType":"address","name":"seller","type":"address"},{"internalType":"enum CryptoEscrow.EscrowStatus","name":"status","type":"uint8"},{"internalType":"uint256","name":"createdAt","type":"uint256"},{"internalType":"uint256","name":"disputeExpiry","type":"uint256"},{"internalType":"address","name":"arbitrator","type":"address"},{"internalType":"enum CryptoEscrow.AssetType","name":"assetType","type":"uint8"},{"internalType":"address","name":"tokenAddress","type":"address"},{"internalType":"uint256","name":"amount","type":"uint256"},{"internalType":"uint256","name":"platformFee","type":"uint256"},{"internalType":"uint256","name":"disputeFee","type":"uint256"},{"internalType":"address","name":"disputeRaisedBy","type":"address"},{"internalType":"string","name":"disputeReason","type":"string"},{"internalType":"string","name":"paymentDetails","type":"string"}],"internalType":"struct CryptoEscrow.Escrow","name":"","type":"tuple"}],"stateMutability":"view","type":"function"},{"inputs":[],"name":"getSupportedTokens","outputs":[{"internalType":"address[]","name":"","type":"address[]"}],"stateMutability":"view","type":"function"},{"inputs":[{"internalType":"address","name":"user","type":"address"}],"name":"getUserEscrows","outputs":[{"internalType":"uint256[]","name":"","type":"uint256[]"}],"stateMutability":"view","type":"function"},{"inputs":[{"internalType":"address","name":"originalToken","type":"address"}],"name":"getWrappedToken","outputs":[{"internalType":"address","name":"","type":"address"}],"stateMutability":"view","type":"function"},{"inputs":[{"internalType":"address","name":"token","type":"address"}],"name":"isTokenSupported","outputs":[{"internalType":"bool","name":"","type":"bool"}],"stateMutability":"view","type":"function"},{"inputs":[{"internalType":"address","name":"","type":"address"}],"name":"isWrappedToken","outputs":[{"internalType":"bool","name":"","type":"bool"}],"stateMutability":"view","type":"function"},{"inputs":[],"name":"platformFeePercentage","outputs":[{"internalType":"uint256","name":"","type":"uint256"}],"stateMutability":"view","type":"function"},{"inputs":[{"internalType":"uint256","name":"escrowId","type":"uint256"},{"internalType":"string","name":"reason","type":"string"}],"name":"raiseDispute","outputs":[],"stateMutability":"payable","type":"function"},{"inputs":[{"internalType":"uint256","name":"escrowId","type":"uint256"}],"name":"releaseFunds","outputs":[],"stateMutability":"nonpayable","type":"function"},{"inputs":[{"internalType":"address","name":"arbitrator","type":"address"}],"name":"removeArbitrator","outputs":[],"stateMutability":"nonpayable","type":"function"},{"inputs":[{"internalType":"address","name":"tokenAddress","type":"address"}],"name":"removeSupportedToken","outputs":[],"stateMutability":"nonpayable","type":"function"},{"inputs":[{"internalType":"uint256","name":"escrowId","type":"uint256"},{"internalType":"uint256","name":"buyerAmount","type":"uint256"},{"internalType":"uint256","name":"sellerAmount","type":"uint256"}],"name":"resolveDispute","outputs":[],"stateMutability":"nonpayable","type":"function"},{"inputs":[{"internalType":"uint256","name":"escrowId","type":"uint256"},{"internalType":"string","name":"evidenceURL","type":"string"}],"name":"submitDisputeEvidence","outputs":[],"stateMutability":"nonpayable","type":"function"},{"inputs":[{"internalType":"uint256","name":"","type":"uint256"}],"name":"supportedTokens","outputs":[{"internalType":"address","name":"","type":"address"}],"stateMutability":"view","type":"function"},{"inputs":[{"internalType":"address","name":"","type":"address"}],"name":"tokenToWrapper","outputs":[{"internalType":"address","name":"","type":"address"}],"stateMutability":"view","type":"function"},{"inputs":[{"internalType":"address","name":"newAdmin","type":"address"}],"name":"transferAdmin","outputs":[],"stateMutability":"nonpayable","type":"function"},{"inputs":[{"internalType":"address","name":"wrappedToken","type":"address"},{"internalType":"uint256","name":"amount","type":"uint256"}],"name":"unwrapToken","outputs":[],"stateMutability":"nonpayable","type":"function"},{"inputs":[{"internalType":"uint256","name":"newFee","type":"uint256"}],"name":"updateDisputeFee","outputs":[],"stateMutability":"nonpayable","type":"function"},{"inputs":[{"internalType":"address","name":"newCollector","type":"address"}],"name":"updateFeeCollector","outputs":[],"stateMutability":"nonpayable","type":"function"},{"inputs":[{"internalType":"uint256","name":"newFee","type":"uint256"}],"name":"updatePlatformFee","outputs":[],"stateMutability":"nonpayable","type":"function"},{"inputs":[{"internalType":"address","name":"","type":"address"},{"internalType":"uint256","name":"","type":"uint256"}],"name":"userEscrows","outputs":[{"internalType":"uint256","name":"","type":"uint256"}],"stateMutability":"view","type":"function"},{"inputs":[{"internalType":"address","name":"tokenAddress","type":"address"},{"internalType":"uint256","name":"amount","type":"uint256"}],"name":"wrapToken","outputs":[],"stateMutability":"nonpayable","type":"function"}],"evm":{"bytecode":{"linkReferences":{},"object":"60406080815234620002d0576200419490813803806200001f81620002eb565b93843982019160a081840312620002d05780519260209081830151916200004885850162000311565b60608501516001600160401b039590868111620002d05781019380601f86011215620002d0578451968711620002d55760059487861b9085806200008e818501620002eb565b809b81520192820101928311620002d05785809101915b838310620002b557505050506080620000bf910162000311565b916001956000958787556101f48a116200028257662386f26fc1000081106200023e576001600160a01b03938416998a15620001fa578855600255600380546001600160a01b0319908116909a179055600480548a163317815586805260098352888720805460ff191689179055600c5499909590680100000000000000008b1015620001e757888b0180600c558b1015620001d457889a600c89528489200190815416905586995b6200017d575b8851613d5590816200043f8239f35b81518a1015620001ce576200019b84848c841b850101511662000326565b620001a68562000326565b6000198a14620001bb57988701988762000168565b634e487b7160e01b875260118652602487fd5b6200016e565b634e487b7160e01b885260328752602488fd5b634e487b7160e01b885260418752602488fd5b895162461bcd60e51b815260048101859052601560248201527f496e76616c69642066656520636f6c6c6563746f7200000000000000000000006044820152606490fd5b885162461bcd60e51b815260048101849052601360248201527f446973707574652066656520746f6f206c6f77000000000000000000000000006044820152606490fd5b885162461bcd60e51b815260048101849052600c60248201526b08ccaca40e8dede40d0d2ced60a31b6044820152606490fd5b8190620002c28462000311565b8152019101908590620000a5565b600080fd5b634e487b7160e01b600052604160045260246000fd5b6040519190601f01601f191682016001600160401b03811183821017620002d557604052565b51906001600160a01b0382168203620002d057565b803b15620003f9576001600160a01b03166000818152600960205260408120805460ff19166001179055600c5468010000000000000000811015620003e5576001810180600c55811015620003d157600c82527fdf6966c971051c3d54ec59162606531493a51404a002842f56009d7e5cf4a8c70180546001600160a01b031916831790557fea3145306a87baeba6bb1a8b5c8d3744f840a81cb436b3509f64fc978600cdfb9080a2565b634e487b7160e01b82526032600452602482fd5b634e487b7160e01b82526041600452602482fd5b60405162461bcd60e51b815260206004820152601960248201527f41646472657373206973206e6f74206120636f6e7472616374000000000000006044820152606490fdfe608060405260043610156200001357600080fd5b6000803560e01c8063012f52ee146200260257806301fabd7514620025845780630cbab4f714620025525780630f6835b814620024f15780631707904814620024d15780631c98322b14620024ad5780633398b47014620023185780633998a68114620022f95780633fabe74f1462001fee578063460b53e31462001c205780634d68282f1462001a6f57806351d0ea371462001a2e5780635aef573c14620017b75780635ccea85e14620016ff57806364fb065b14620016be578063675ac67a146200169e5780636d69fcaf146200155457806375151b63146200029457806375829def14620014db5780637631919014620013605780637be87b9e1462000eba5780637f944dd01462000e5d5780638e9856f91462000e39578063973ad2701462000dc55780639de2e9d71462000d55578063a4c3b0911462000d05578063a7dc2d781462000255578063aa0b59881462000c70578063b996ec2a14620009be578063c415b95c1462000995578063c6255626146200094d578063c9c31af5146200077a578063cdd78cfc146200075a578063d2c35ce814620006b7578063d3bada991462000570578063d3c7c2c714620004a2578063e018243614620002d5578063e744092e1462000294578063ed80befa1462000255578063edc1f33514620002355763f851a440146200020a57600080fd5b34620002325780600319360112620002325760206001600160a01b0360045416604051908152f35b80fd5b503462000232578060031936011262000232576020600254604051908152f35b503462000232576020366003190112620002325760209060406001600160a01b03918262000282620028e3565b168152600a8452205416604051908152f35b503462000232576020366003190112620002325760ff60406020926001600160a01b03620002c1620028e3565b168152600984522054166040519015158152f35b5034620002325760203660031901126200023257600435620002f662002bf3565b808252600660205260408220906001820160ff815460a01c1660068110156200048e5760010362000464576001600160a01b03808454168033036200043a5760ff600486015460a01c1660038110156200042657620003e157508480808084885416600689015490828215620003d7575bf115620003cc5760066020917fdb19fb28f3e1bd98931a09b28e0c217ab5008bfb3cbb1bdd406d994ad534a735935b7403000000000000000000000000000000000000000060ff60a01b19825416179055855416940154604051908152a36001815580f35b6040513d86823e3d90fd5b506108fc62000367565b817fdb19fb28f3e1bd98931a09b28e0c217ab5008bfb3cbb1bdd406d994ad534a735936200042060069360209560058a01541690858a01549162002c2f565b62000396565b602487634e487b7160e01b81526021600452fd5b60046040517f344fd586000000000000000000000000000000000000000000000000000000008152fd5b60046040517f15b0082a000000000000000000000000000000000000000000000000000000008152fd5b602485634e487b7160e01b81526021600452fd5b503462000232578060031936011262000232576040518091600c549081835260208093018092600c83527fdf6966c971051c3d54ec59162606531493a51404a002842f56009d7e5cf4a8c790835b81811062000552575050508462000509910385620027a6565b60405193838594850191818652518092526040850193925b8281106200053157505050500390f35b83516001600160a01b03168552869550938101939281019260010162000521565b82546001600160a01b031684529286019260019283019201620004f0565b50346200023257620005823662002917565b9080835260066020526040832060018101549060ff8260a01c166006811015620006a3576004036200065f576001600160a01b0380915416331491821562000651575b5050156200060d577f8222627e36f596a4a30a066b96aaa9a09f56a563ba61354deb9030a26824124860405160208152806200060733956020830190620028bc565b0390a380f35b606460405162461bcd60e51b815260206004820152601360248201527f4e6f7420706172747920746f20657363726f77000000000000000000000000006044820152fd5b9091501633143880620005c5565b606460405162461bcd60e51b815260206004820152600e60248201527f4e6f7420696e20646973707574650000000000000000000000000000000000006044820152fd5b602486634e487b7160e01b81526021600452fd5b5034620002325760203660031901126200023257620006d5620028e3565b6001600160a01b0390620006ef8260045416331462002dd8565b1680156200073057806001600160a01b031960035416176003557fe5693914d19c789bdee50a362998c0bc8d035a835f9871da5d51152f0582c34f8280a280f35b60046040517fe6c4247b000000000000000000000000000000000000000000000000000000008152fd5b503462000232578060031936011262000232576020600154604051908152f35b50346200023257602080600319360112620009495760043580835260068252604083206001810160ff815460a01c166006811015620006a35762000464576001600160a01b038083541633036200043a576005830154169182156200091f57604051907fdd62ed3e0000000000000000000000000000000000000000000000000000000082523360048301523060248301528582604481875afa91821562000914578792620008da575b5060060192835480921062000896577fe030e47e27825a2ad1b19e4cf2e70bfbfb3124af275c7727a82b114ba7b29a8593929162000866913090339062002ae9565b7401000000000000000000000000000000000000000060ff60a01b1982541617905554926040519384523393a380f35b6064866040519062461bcd60e51b82526004820152601660248201527f496e73756666696369656e7420616c6c6f77616e6365000000000000000000006044820152fd5b9091508581813d83116200090c575b620008f58183620027a6565b8101031262000908575190600662000824565b8680fd5b503d620008e9565b6040513d89823e3d90fd5b60046040517f86e4353b000000000000000000000000000000000000000000000000000000008152fd5b5080fd5b503462000232576020366003190112620002325760043590600c54821015620002325760206001600160a01b0362000985846200298d565b9190546040519260031b1c168152f35b5034620002325780600319360112620002325760206001600160a01b0360035416604051908152f35b503462000232576020366003190112620002325760606101a0604051620009e58162002788565b83815283602082015283604082015283838201528360808201528360a08201528360c08201528360e0820152836101008201528361012082015283610140820152836101608201528261018082015201526004358152600660205260408120906040519062000a548262002788565b6001600160a01b03835416825260ff60018401546001600160a01b038116602085015260a01c16600681101562000c5c57604083015260028301546060830152600383015460808301526004830154906001600160a01b03821660a0840152600360ff8360a01c16101562000c485750600b62000c449360ff62000b3e9360a01c1660c08501526001600160a01b0360058201541660e08501526006810154610100850152600781015461012085015260088101546101408501526001600160a01b0360098201541661016085015262000b31600a8201620027c9565b61018085015201620027c9565b6101a0820152604051918291602083526001600160a01b0381511660208401526001600160a01b03602082015116604084015262000b85604082015160608501906200287b565b60608101516080840152608081015160a08401526001600160a01b0360a08201511660c084015262000bc060c082015160e085019062002889565b6001600160a01b0360e0820151166101008401526101008101516101208401526101208101516101408401526101408101516101608401526001600160a01b03610160820151166101808401526101808101516101a062000c2f6101c09283838801526101e0870190620028bc565b92015190601f198584030190850152620028bc565b0390f35b80634e487b7160e01b602492526021600452fd5b602482634e487b7160e01b81526021600452fd5b503462000232576020366003190112620002325760043562000c9f6001600160a01b0360045416331462002dd8565b6101f4811162000cdb576020817f45610d581145924dd7090a5017e5f2b1d6f42213bb2e95707ff86846bbfcb1ca92600155604051908152a180f35b60046040517f6d24edae000000000000000000000000000000000000000000000000000000008152fd5b503462000232576040366003190112620002325762000d5262000d27620028e3565b6001600160a01b039062000d418260045416331462002dd8565b602435918060035416911662002c2f565b80f35b503462000232576020366003190112620002325760043562000d846001600160a01b0360045416331462002dd8565b662386f26fc10000811062000cdb576020817febd2ef76d4c4dda1c08a2a2caf331001b99b2ff5b9ed9a467e5c1bdbe397ae6692600255604051908152a180f35b503462000232576020366003190112620002325762000de3620028e3565b6001600160a01b039062000dfd8260045416331462002dd8565b16808252600860205260408220805460ff191690557f715484adb5bc9cc29af577725dbf8486d0b82eca3ba79f65846e92ff38ef32b58280a280f35b50346200023257806003193601126200023257602060405166038d7ea4c680008152f35b503462000232576040366003190112620002325762000e7b620028e3565b6001600160a01b03168152600760205260408120805460243592908310156200023257602062000eac8484620029db565b90546040519160031b1c8152f35b506080366003190112620002325762000ed2620028e3565b6001600160a01b0360243581811681036200135b5767ffffffffffffffff8060643511620013575736602360643501121562001357576064356004013511620013535736602460643560040135606435010111620013535781831615801562001347575b6200131d5766038d7ea4c6800060443510620012f3578181168452600960205260ff60408520541615620012c957808216620012985760443534036200126e575b62000f84600554620029f4565b9283600555838552600660205260408520336001600160a01b031982541617815560018101805485851615600014620012675760015b6006811015620012515760ff60a01b9060a01b16907fffffffffffffffffffffff000000000000000000000000000000000000000000878616911617179055426002820155600581018484166001600160a01b03198254161790556044356006820155620010416064356004013562001037600b84015462002720565b600b840162002a04565b85601f6064356004013511600114620011c157869060643560040135620011b0575b506064356004013560011b906000196064356004013560031b1c191617600b8201555b828416620011a557600486915b01906003811015620004265760ff60a01b1960ff60a01b83549260a01b1691161790553385526007602052620010cd846040872062002a5d565b82811685526007602052620010e6846040872062002a5d565b8260405191818416835260443560208401526060604084015260643560040135606084015260643560040135602460643501608085013786608060643560040135850101521690847f3343cfaebf44f8a4a53ce2da6672b44d01a70f7d4d45c640d2a223d767d139b83392608081601f19601f6064356004013501168101030190a4161562001173575080f35b6040519060443582527fe030e47e27825a2ad1b19e4cf2e70bfbfb3124af275c7727a82b114ba7b29a8560203393a380f35b600460019162001093565b602491506064350101353862001063565b600b820187526020872090875b60046064350135601f1916811062001233575060046064350135601f198116106200120d575b5050600160643560040135811b01600b82015562001086565b602460001960f86064356004013560031b161c19916064350101351690553880620011f4565b909160206001819260248660643501013581550193019101620011ce565b634e487b7160e01b600052602160045260246000fd5b8762000fba565b60046040517fde94576c000000000000000000000000000000000000000000000000000000008152fd5b341562000f775760046040517ff7fbfc5a000000000000000000000000000000000000000000000000000000008152fd5b60046040517f3dd1b305000000000000000000000000000000000000000000000000000000008152fd5b60046040517fc2f5625a000000000000000000000000000000000000000000000000000000008152fd5b60046040517f8386febe000000000000000000000000000000000000000000000000000000008152fd5b50338284161462000f36565b8380fd5b8480fd5b600080fd5b50346200023257602036600319011262000232576200137e620028e3565b6001600160a01b038091620013998260045416331462002dd8565b16808352600960205260ff60408420541615620012c957808352600960205260408320805460ff19169055825b600c805480831015620014d05790849184620013e2856200298d565b949054600395861b1c161462001406575050506200140090620029f4565b620013c6565b93949193909260001991828101908111620014bc57906200143e84620014306200145e946200298d565b905490891b1c16916200298d565b90919082549060031b916001600160a01b03809116831b921b1916179055565b82548015620014a857019262001474846200298d565b81939154921b1b19169055555b7f1cef54ca6e1745ad87fa3077491d9fc42257e9f1a2d7cad58a4e52bd14dfc6268280a280f35b602487634e487b7160e01b81526031600452fd5b602488634e487b7160e01b81526011600452fd5b505050905062001481565b5034620002325760203660031901126200023257620014f9620028e3565b600454906001600160a01b039062001515828416331462002dd8565b1690811562000730576001600160a01b03191681176004557f54e4612788f90384e6843298d7854436f3a585b2c3831ab66abf1de63bfa6c2d8280a280f35b503462000232576020366003190112620002325762001572620028e3565b6001600160a01b036200158b8160045416331462002dd8565b81169081156200073057818352600960205260ff6040842054166200167457803b156200163057818352600960205260408320805460ff19166001179055600c54680100000000000000008110156200161c57906200143e826001620015f59401600c556200298d565b7fea3145306a87baeba6bb1a8b5c8d3744f840a81cb436b3509f64fc978600cdfb8280a280f35b602484634e487b7160e01b81526041600452fd5b606460405162461bcd60e51b815260206004820152601960248201527f41646472657373206973206e6f74206120636f6e7472616374000000000000006044820152fd5b60046040517fc78e82ad000000000000000000000000000000000000000000000000000000008152fd5b503462000232578060031936011262000232576020600554604051908152f35b503462000232576020366003190112620002325760ff60406020926001600160a01b03620016eb620028e3565b168152600b84522054166040519015158152f35b5034620002325760208060031936011262000949576001600160a01b0362001726620028e3565b168252600781526040822060405192838383549182815201908193835284832090835b818110620017a2575050508462001762910385620027a6565b60405193838594850191818652518092526040850193925b8281106200178a57505050500390f35b8351855286955093810193928101926001016200177a565b82548452928601926001928301920162001749565b50620017c33662002917565b90620017ce62002bf3565b80835260209060068252604084209260019384810180549060ff8260a01c16600681101562001a1a57870362000464576001600160a01b0391828454163314158062001a0d575b6200043a57600254341062000cdb5760ff60a01b1974040000000000000000000000000000000000000000911617905560098201906001600160a01b0319913383825416179055600a8301845167ffffffffffffffff8111620019f9576200188a8162001883845462002720565b8462002a04565b8088601f821160011462001997578b916200198b575b50600019600383901b1c191690891b1790555b62093a804201804211620019755742811062001931579183917f1b84372106d77c6daea0dda35bbc0229d10a83f58ec899092884925193682341959360036200192996015534600884015560046200190a62002e90565b93019216908254161790556040519182918683523396830190620028bc565b0390a3815580f35b6064876040519062461bcd60e51b82526004820152601b60248201527f536166654d6174683a206164646974696f6e206f766572666c6f7700000000006044820152fd5b634e487b7160e01b600052601160045260246000fd5b905086015138620018a0565b838c52898c208b935090601f1983168d5b8c828210620019e25750508311620019c8575b5050811b019055620018b3565b88015160001960f88460031b161c191690553880620019bb565b838c015185558e96909401939283019201620019a8565b60248a634e487b7160e01b81526041600452fd5b5082811633141562001815565b602489634e487b7160e01b81526021600452fd5b503462000232576020366003190112620002325760ff60406020926001600160a01b0362001a5b620028e3565b168152600884522054166040519015158152f35b503462000232576020366003190112620002325760043562001a9062002bf3565b808252600660205260408220906001820180549060ff8260a01c166006811015620006a35760010362000464576001600160a01b03918285541633036200043a5760068501549062001af561271062001aec6001548562002f0d565b04809362002d24565b9560ff600482015460a01c16600381101562001a1a5788939291889162001bc65750838080935080928888541682821562001bbc575bf11562001baf5781808092866003541682821562001ba5575bf115620003cc577f6e3c6096795c8298a218b2cfb8bde42726ff7c9a3d27b4d3ba41ab7f74feb5fb916020915b8054907402000000000000000000000000000000000000000060ff60a01b1983161790556040519586521693a36001815580f35b506108fc62001b44565b50604051903d90823e3d90fd5b506108fc62001b2b565b8694509562001c1a9262001c0c602097959360057f6e3c6096795c8298a218b2cfb8bde42726ff7c9a3d27b4d3ba41ab7f74feb5fb9a0192848085541691169062002c2f565b541684600354169062002c2f565b62001b71565b503462000232576040366003190112620002325762001c3e620028e3565b60243562001c4b62002bf3565b6001600160a01b03809216908184526020926009845260ff60408620541615620012c957821562001fc457811562001f9a5762001c8b8230338662002ae9565b828552600a84528060408620541680158062001d4d575b501692833b1562001357576040517f40c10f190000000000000000000000000000000000000000000000000000000081523360048201526024810183905285908181604481838a5af1801562001d425762001d2a575b50507f17720549a07df2925d11553c26f0eda499cd93392a9e4703e1d3f9452f5b284d91604051908152a36001815580f35b62001d35906200275d565b6200135757843862001cf8565b6040513d84823e3d90fd5b90501562001f70576040517f06fdde030000000000000000000000000000000000000000000000000000000081528581600481875afa90811562001f6557869162001f47575b5062001de9602860405180937f57726170706564200000000000000000000000000000000000000000000000008983015262001dd8815180928b868601910162002897565b8101036008810184520182620027a6565b604051907f95d89b410000000000000000000000000000000000000000000000000000000082528682600481885afa9182156200091457879262001f1e575b5062001e7e602160405180947f57000000000000000000000000000000000000000000000000000000000000008a83015262001e6d815180928c868601910162002897565b8101036001810185520183620027a6565b60405191610dab918284019284841067ffffffffffffffff851117620019f9579162001ec085949262001ece9462002f9e8739604084526040840190620028bc565b9189818403910152620028bc565b039086f0801562001f13578116838652600a855260408620816001600160a01b0319825416179055808652600b855260408620600160ff198254161790553862001ca2565b6040513d87823e3d90fd5b62001f3f9192503d8089833e62001f368183620027a6565b81019062002e24565b903862001e28565b62001f5e91503d8088833e62001f368183620027a6565b3862001d93565b6040513d88823e3d90fd5b60046040517f55d5f14e000000000000000000000000000000000000000000000000000000008152fd5b60046040517f21607339000000000000000000000000000000000000000000000000000000008152fd5b60046040517f0c596434000000000000000000000000000000000000000000000000000000008152fd5b50346200023257606036600319011262000232576024356004356044356200201562002bf3565b818452600660205260408420600181019060ff825460a01c1660068110156200042657600403620022cf5760038101544211620022a55760048101546001600160a01b038082163314158062002296575b6200043a576006830154916200208f612710620020866001548662002f0d565b04809462002d24565b6200209b878a62002d7e565b116200226c5760a01c60ff16600381101562001a1a5788939284929091620021da578880158015620021aa575b505086801580156200216f575b505092620020f183949260088594600354169301549062002d7e565b9082821562002165575bf115620003cc575b7405000000000000000000000000000000000000000060ff60a01b19825416179055604051928015158452602084015260408301527f3accdf79205b59d18e690f066707caf6d0ee4d4f59ded4fa88fdec5dde4accd960603393a36001815580f35b506108fc620020fb565b9380809395928193878b5416908390620021a0575bf115620021955783918638620020d5565b6040513d85823e3d90fd5b506108fc62002184565b938080939592819387895416908390620021d0575bf115620021955783918838620020c8565b506108fc620021bf565b92600883946200220685948c6200224f575b8a62002232575b8260058601541683600354169062002c2f565b600354169101549082821562002228575bf162002103576040513d86823e3d90fd5b506108fc62002217565b620022498b84600588015416858d54169062002c2f565b620021f3565b620022668d84600588015416858854169062002c2f565b620021ec565b60046040517fb1741f7e000000000000000000000000000000000000000000000000000000008152fd5b50806004541633141562002066565b60046040517fc28e3a98000000000000000000000000000000000000000000000000000000008152fd5b60046040517fc3b81109000000000000000000000000000000000000000000000000000000008152fd5b5034620002325780600319360112620002325760206040516101f48152f35b503462000232576040366003190112620002325762002336620028e3565b602435906200234462002bf3565b6001600160a01b0380911690818452602090600b825260ff60408620541615620012c957831562001f9a578485600c54905b81811062002452575b5050169283156200091f57823b1562001357576040517f9dc29fac00000000000000000000000000000000000000000000000000000000815233600482015260248101829052858160448183885af1801562001f65576200241a575b5090816200240c7f39e0da7a9816169273e66407b22dba76e40e515e1e683c013bdfea308ef72add93338762002c2f565b604051908152a36001815580f35b94620024497f39e0da7a9816169273e66407b22dba76e40e515e1e683c013bdfea308ef72add9392966200275d565b949091620023db565b83806200245f836200298d565b919054600392831b1c168a52600a8752878260408c20541614620024905750506200248a90620029f4565b62002376565b925092506200249f906200298d565b9054911b1c1638806200237f565b503462000232578060031936011262000232576020604051662386f26fc100008152f35b50346200023257806003193601126200023257602060405162093a808152f35b5034620002325760203660031901126200023257808080806004356001600160a01b03620025258160045416331462002dd8565b6003541682821562002548575bf1156200253c5780f35b604051903d90823e3d90fd5b506108fc62002532565b503462000232576020366003190112620002325760206127106200257b60015460043562002f0d565b04604051908152f35b5034620002325760203660031901126200023257620025a2620028e3565b6001600160a01b0390620025bc8260045416331462002dd8565b1680156200073057808252600860205260408220805460ff191660011790557ffc4dfef69004b5e3aba1eb4a8b1e53b893418fda232d9f60574a6c62f30c449d8280a280f35b503462000232576020366003190112620002325760043581526006602052604090206001600160a01b0380825416906001830154926002810154916003820154906004830154816005850154166006850154906007860154926008870154948060098901541696600a89016200267890620027c9565b98600b016200268790620027c9565b996040519c8d9c8d528c848216906020015260408d019060a01c60ff1690620026b0916200287b565b60608c015260808b0152811660a08a015260c089019060a01c60ff1690620026d89162002889565b60e08801526101008701526101208601526101408501526101608401526101c08061018085015283016200270c91620028bc565b8281036101a084015262000c4491620028bc565b90600182811c9216801562002752575b60208310146200273c57565b634e487b7160e01b600052602260045260246000fd5b91607f169162002730565b67ffffffffffffffff81116200277257604052565b634e487b7160e01b600052604160045260246000fd5b6101c0810190811067ffffffffffffffff8211176200277257604052565b90601f8019910116810190811067ffffffffffffffff8211176200277257604052565b9060405191826000825492620027df8462002720565b9081845260019485811690816000146200285657506001146200280f575b50506200280d92500383620027a6565b565b9093915060005260209081600020936000915b8183106200283d5750506200280d93508201013880620027fd565b8554888401850152948501948794509183019162002822565b9150506200280d94506020925060ff191682840152151560051b8201013880620027fd565b906006821015620012515752565b906003821015620012515752565b60005b838110620028ab5750506000910152565b81810151838201526020016200289a565b90602091620028d78151809281855285808601910162002897565b601f01601f1916010190565b600435906001600160a01b03821682036200135b57565b67ffffffffffffffff81116200277257601f01601f191660200190565b9060406003198301126200135b576004359160243567ffffffffffffffff81116200135b57816023820112156200135b578060040135906200295982620028fa565b92620029696040519485620027a6565b828452602483830101116200135b5781600092602460209301838601378301015290565b600c54811015620029c557600c6000527fdf6966c971051c3d54ec59162606531493a51404a002842f56009d7e5cf4a8c70190600090565b634e487b7160e01b600052603260045260246000fd5b8054821015620029c55760005260206000200190600090565b6000198114620019755760010190565b90601f811162002a1357505050565b600091825260208220906020601f850160051c8301941062002a52575b601f0160051c01915b82811062002a4657505050565b81815560010162002a39565b909250829062002a30565b805468010000000000000000811015620027725762002a8291600182018155620029db565b819291549060031b91821b91600019901b1916179055565b3d1562002aca573d9062002aae82620028fa565b9162002abe6040519384620027a6565b82523d6000602084013e565b606090565b908160209103126200135b575180151581036200135b5790565b909291926040519260208401917f23b872dd0000000000000000000000000000000000000000000000000000000083526001600160a01b039586809216602487015216604485015260648401526064835260a0830183811067ffffffffffffffff8211176200277257600094859485926040525193165af162002b6b62002a9a565b8162002bbf575b501562002b7b57565b606460405162461bcd60e51b815260206004820152601e60248201527f5361666545524332303a207472616e7366657246726f6d206661696c656400006044820152fd5b805180159250821562002bd6575b50503862002b72565b62002beb925060208091830101910162002acf565b388062002bcd565b60026000541462002c05576002600055565b60046040517f3ee5aeb5000000000000000000000000000000000000000000000000000000008152fd5b6040517fa9059cbb00000000000000000000000000000000000000000000000000000000602082019081526001600160a01b0393841660248301526044808301959095529381526000938493909184919062002c8d606482620027a6565b5193165af162002c9c62002a9a565b8162002cf0575b501562002cac57565b606460405162461bcd60e51b815260206004820152601a60248201527f5361666545524332303a207472616e73666572206661696c65640000000000006044820152fd5b805180159250821562002d07575b50503862002ca3565b62002d1c925060208091830101910162002acf565b388062002cfe565b9081811162002d3a578103908111620019755790565b606460405162461bcd60e51b815260206004820152601e60248201527f536166654d6174683a207375627472616374696f6e206f766572666c6f7700006044820152fd5b908101908181116200197557811062002d945790565b606460405162461bcd60e51b815260206004820152601b60248201527f536166654d6174683a206164646974696f6e206f766572666c6f7700000000006044820152fd5b1562002de057565b606460405162461bcd60e51b815260206004820152600a60248201527f4f6e6c792061646d696e000000000000000000000000000000000000000000006044820152fd5b6020818303126200135b5780519067ffffffffffffffff82116200135b570181601f820112156200135b57805162002e5c81620028fa565b9262002e6c6040519485620027a6565b818452602082840101116200135b5762002e8d916020808501910162002897565b90565b600c546000805b82811062002eb1575050506001600160a01b036004541690565b62002ebc816200298d565b6001600160a01b03809254600392831b1c168452600860205260ff60408520541662002ef557505062002eef90620029f4565b62002e97565b9250925062002f04906200298d565b9054911b1c1690565b90811562002f965780820291820480820362001975570362002f2c5790565b608460405162461bcd60e51b815260206004820152602160248201527f536166654d6174683a206d756c7469706c69636174696f6e206f766572666c6f60448201527f77000000000000000000000000000000000000000000000000000000000000006064820152fd5b505060009056fe6080604052346200032b5762000dab803803806200001d8162000330565b9283398101906040818303126200032b5780516001600160401b03908181116200032b57836200004f91840162000356565b91602093848201518381116200032b576200006b920162000356565b825190828211620003155760008054926001958685811c951680156200030a575b88861014620002f6578190601f95868111620002a3575b5088908683116001146200023f57849262000233575b5050600019600383901b1c191690861b1781555b81519384116200021f5784548581811c9116801562000214575b878210146200020057838111620001b8575b50859284116001146200015357839495509262000147575b5050600019600383901b1c191690821b1790555b600380546001600160a01b031916331790556040516109e29081620003c98239f35b01519050388062000111565b9190601f1984169585845280842093905b878210620001a05750508385961062000186575b505050811b01905562000125565b015160001960f88460031b161c1916905538808062000178565b80878596829496860151815501950193019062000164565b8582528682208480870160051c820192898810620001f6575b0160051c019086905b828110620001ea575050620000f9565b838155018690620001da565b92508192620001d1565b634e487b7160e01b82526022600452602482fd5b90607f1690620000e7565b634e487b7160e01b81526041600452602490fd5b015190503880620000b9565b8480528985208994509190601f198416865b8c8282106200028c575050841162000272575b505050811b018155620000cd565b015160001960f88460031b161c1916905538808062000264565b8385015186558c9790950194938401930162000251565b9091508380528884208680850160051c8201928b8610620002ec575b918a91869594930160051c01915b828110620002dd575050620000a3565b8681558594508a9101620002cd565b92508192620002bf565b634e487b7160e01b83526022600452602483fd5b94607f16946200008c565b634e487b7160e01b600052604160045260246000fd5b600080fd5b6040519190601f01601f191682016001600160401b038111838210176200031557604052565b919080601f840112156200032b5782516001600160401b03811162000315576020906200038c601f8201601f1916830162000330565b928184528282870101116200032b5760005b818110620003b457508260009394955001015290565b85810183015184820184015282016200039e56fe608060408181526004918236101561001657600080fd5b600092833560e01c91826306fdde031461057d575081630754617214610555578163095ea7b31461052b57816318160ddd1461050c57816323b872dd146104a8578163313ce5671461048c57816340c10f19146103af57816370a082311461037557816395d89b41146102555781639dc29fac1461012457508063a9059cbb146100f45763dd62ed3e146100a957600080fd5b346100f057806003193601126100f057806020926100c561069c565b6100cd6106b7565b6001600160a01b0391821683526005865283832091168252845220549051908152f35b5080fd5b50346100f057806003193601126100f05760209061011d61011361069c565b60243590336107de565b5160018152f35b839150346100f057826003193601126100f05761013f61069c565b602435906001600160a01b039061015b8260035416331461073b565b1691821561021257828452806020528185852054106101cf577fddf252ad1be2c89b69c2b068fc378daa952ba7f163c4a11628f55a4df523b3ef9184956020928587528084526101ae83838920546106cd565b908688528452818720556101c4826002546106cd565b60025551908152a380f35b606490602086519162461bcd60e51b8352820152601b60248201527f4275726e20616d6f756e7420657863656564732062616c616e636500000000006044820152fd5b606490602086519162461bcd60e51b8352820152601660248201527f4275726e2066726f6d207a65726f2061646472657373000000000000000000006044820152fd5b8383346100f057816003193601126100f05780519082600180549081811c9080831692831561036b575b60209384841081146103585783885290811561033c57506001146102e7575b505050829003601f01601f191682019267ffffffffffffffff8411838510176102d457508291826102d0925282610653565b0390f35b80604186634e487b7160e01b6024945252fd5b8087529192508591837fb10e2d527612073b26eecdfd717e6a320cf44b4afac2b0732d9fcbe2b7fa0cf65b838510610328575050505083010185808061029e565b805488860183015293019284908201610312565b60ff1916878501525050151560051b840101905085808061029e565b60248960228c634e487b7160e01b835252fd5b91607f169161027f565b9050346103ab5760203660031901126103ab5760209282916001600160a01b0361039d61069c565b168252845220549051908152f35b8280fd5b919050346103ab57806003193601126103ab576103ca61069c565b90602435916001600160a01b03906103e78260035416331461073b565b1692831561044a57827fddf252ad1be2c89b69c2b068fc378daa952ba7f163c4a11628f55a4df523b3ef926020926104228896600254610786565b6002558686528084526104388383882054610786565b9087875284528186205551908152a380f35b6020606492519162461bcd60e51b8352820152601460248201527f4d696e7420746f207a65726f20616464726573730000000000000000000000006044820152fd5b5050346100f057816003193601126100f0576020905160128152f35b5050346100f05760603660031901126100f05761011d6020926105046104cc61069c565b91846104d66106b7565b916104e56044358094876107de565b6001600160a01b038516815260058852818120338252885220546106cd565b9033906108ec565b5050346100f057816003193601126100f0576020906002549051908152f35b5050346100f057806003193601126100f05760209061011d61054b61069c565b60243590336108ec565b5050346100f057816003193601126100f0576020906001600160a01b03600354169051908152f35b849084346103ab57826003193601126103ab57828354600181811c90808316928315610649575b60209384841081146103585783885290811561033c57506001146105f457505050829003601f01601f191682019267ffffffffffffffff8411838510176102d457508291826102d0925282610653565b8680529192508591837f290decd9548b62a8d60345a988386fc84ba6bc95484008f6362f93160ef3e5635b838510610635575050505083010185808061029e565b80548886018301529301928490820161061f565b91607f16916105a4565b6020808252825181830181905290939260005b82811061068857505060409293506000838284010152601f8019910116010190565b818101860151848201604001528501610666565b600435906001600160a01b03821682036106b257565b600080fd5b602435906001600160a01b03821682036106b257565b908181116106f75781039081116106e15790565b634e487b7160e01b600052601160045260246000fd5b606460405162461bcd60e51b815260206004820152601e60248201527f536166654d6174683a207375627472616374696f6e206f766572666c6f7700006044820152fd5b1561074257565b606460405162461bcd60e51b815260206004820152600b60248201527f4f6e6c79206d696e7465720000000000000000000000000000000000000000006044820152fd5b908101908181116106e157811061079a5790565b606460405162461bcd60e51b815260206004820152601b60248201527f536166654d6174683a206164646974696f6e206f766572666c6f7700000000006044820152fd5b6001600160a01b038091169182156108a857169182156108645760207fddf252ad1be2c89b69c2b068fc378daa952ba7f163c4a11628f55a4df523b3ef916000848152600483526108338260408320546106cd565b85825260048452604082205585815260406108518382842054610786565b91878152600485522055604051908152a3565b606460405162461bcd60e51b815260206004820152601860248201527f5472616e7366657220746f207a65726f206164647265737300000000000000006044820152fd5b606460405162461bcd60e51b815260206004820152601a60248201527f5472616e736665722066726f6d207a65726f20616464726573730000000000006044820152fd5b6001600160a01b03809116918215610991571691821561094d5760207f8c5be1e5ebec7d5bd14f71427d1e84f3dd0314c0f7b2291e5b200ac8c7c3b925918360005260058252604060002085600052825280604060002055604051908152a3565b606460405162461bcd60e51b815260206004820152601760248201527f417070726f766520746f207a65726f20616464726573730000000000000000006044820152fd5b606460405162461bcd60e51b815260206004820152601960248201527f417070726f76652066726f6d207a65726f2061646472657373000000000000006044820152fdfea164736f6c6343000814000aa164736f6c6343000814000a","opcodes":"PUSH1 0x40 PUSH1 0x80 DUP2 MSTORE CALLVALUE PUSH3 0x2D0 JUMPI PUSH3 0x4194 SWAP1 DUP2 CODESIZE SUB DUP1 PUSH3 0x1F DUP2 PUSH3 0x2EB JUMP JUMPDEST SWAP4 DUP5 CODECOPY DUP3 ADD SWAP2 PUSH1 0xA0 DUP2 DUP5 SUB SLT PUSH3 0x2D0 JUMPI DUP1 MLOAD SWAP3 PUSH1 0x20 SWAP1 DUP2 DUP4 ADD MLOAD SWAP2 PUSH3 0x48 DUP6 DUP6 ADD PUSH3 0x311 JUMP JUMPDEST PUSH1 0x60 DUP6 ADD MLOAD PUSH1 0x1 PUSH1 0x1 PUSH1 0x40 SHL SUB SWAP6 SWAP1 DUP7 DUP2 GT PUSH3 0x2D0 JUMPI DUP2 ADD SWAP4 DUP1 PUSH1 0x1F DUP7 ADD SLT ISZERO PUSH3 0x2D0 JUMPI DUP5 MLOAD SWAP7 DUP8 GT PUSH3 0x2D5 JUMPI PUSH1 0x5 SWAP5 DUP8 DUP7 SHL SWAP1 DUP6 DUP1 PUSH3 0x8E DUP2 DUP6 ADD PUSH3 0x2EB JUMP JUMPDEST DUP1 SWAP12 DUP2 MSTORE ADD SWAP3 DUP3 ADD ADD SWAP3 DUP4 GT PUSH3 0x2D0 JUMPI DUP6 DUP1 SWAP2 ADD SWAP2 JUMPDEST DUP4 DUP4 LT PUSH3 0x2B5 JUMPI POP POP POP POP PUSH1 0x80 PUSH3 0xBF SWAP2 ADD PUSH3 0x311 JUMP JUMPDEST SWAP2 PUSH1 0x1 SWAP6 PUSH1 0x0 SWAP6 DUP8 DUP8 SSTORE PUSH2 0x1F4 DUP11 GT PUSH3 0x282 JUMPI PUSH7 0x2386F26FC10000 DUP2 LT PUSH3 0x23E JUMPI PUSH1 0x1 PUSH1 0x1 PUSH1 0xA0 SHL SUB SWAP4 DUP5 AND SWAP10 DUP11 ISZERO PUSH3 0x1FA JUMPI DUP9 SSTORE PUSH1 0x2 SSTORE PUSH1 0x3 DUP1 SLOAD PUSH1 0x1 PUSH1 0x1 PUSH1 0xA0 SHL SUB NOT SWAP1 DUP2 AND SWAP1 SWAP11 OR SWAP1 SSTORE PUSH1 0x4 DUP1 SLOAD DUP11 AND CALLER OR DUP2 SSTORE DUP7 DUP1 MSTORE PUSH1 0x9 DUP4 MSTORE DUP9 DUP8 KECCAK256 DUP1 SLOAD PUSH1 0xFF NOT AND DUP10 OR SWAP1 SSTORE PUSH1 0xC SLOAD SWAP10 SWAP1 SWAP6 SWAP1 PUSH9 0x10000000000000000 DUP12 LT ISZERO PUSH3 0x1E7 JUMPI DUP9 DUP12 ADD DUP1 PUSH1 0xC SSTORE DUP12 LT ISZERO PUSH3 0x1D4 JUMPI DUP9 SWAP11 PUSH1 0xC DUP10 MSTORE DUP5 DUP10 KECCAK256 ADD SWAP1 DUP2 SLOAD AND SWAP1 SSTORE DUP7 SWAP10 JUMPDEST PUSH3 0x17D JUMPI JUMPDEST DUP9 MLOAD PUSH2 0x3D55 SWAP1 DUP2 PUSH3 0x43F DUP3 CODECOPY RETURN JUMPDEST DUP2 MLOAD DUP11 LT ISZERO PUSH3 0x1CE JUMPI PUSH3 0x19B DUP5 DUP5 DUP13 DUP5 SHL DUP6 ADD ADD MLOAD AND PUSH3 0x326 JUMP JUMPDEST PUSH3 0x1A6 DUP6 PUSH3 0x326 JUMP JUMPDEST PUSH1 0x0 NOT DUP11 EQ PUSH3 0x1BB JUMPI SWAP9 DUP8 ADD SWAP9 DUP8 PUSH3 0x168 JUMP JUMPDEST PUSH4 0x4E487B71 PUSH1 0xE0 SHL DUP8 MSTORE PUSH1 0x11 DUP7 MSTORE PUSH1 0x24 DUP8 REVERT JUMPDEST PUSH3 0x16E JUMP JUMPDEST PUSH4 0x4E487B71 PUSH1 0xE0 SHL DUP9 MSTORE PUSH1 0x32 DUP8 MSTORE PUSH1 0x24 DUP9 REVERT JUMPDEST PUSH4 0x4E487B71 PUSH1 0xE0 SHL DUP9 MSTORE PUSH1 0x41 DUP8 MSTORE PUSH1 0x24 DUP9 REVERT JUMPDEST DUP10 MLOAD PUSH3 0x461BCD PUSH1 0xE5 SHL DUP2 MSTORE PUSH1 0x4 DUP2 ADD DUP6 SWAP1 MSTORE PUSH1 0x15 PUSH1 0x24 DUP3 ADD MSTORE PUSH32 0x496E76616C69642066656520636F6C6C6563746F720000000000000000000000 PUSH1 0x44 DUP3 ADD MSTORE PUSH1 0x64 SWAP1 REVERT JUMPDEST DUP9 MLOAD PUSH3 0x461BCD PUSH1 0xE5 SHL DUP2 MSTORE PUSH1 0x4 DUP2 ADD DUP5 SWAP1 MSTORE PUSH1 0x13 PUSH1 0x24 DUP3 ADD MSTORE PUSH32 0x446973707574652066656520746F6F206C6F7700000000000000000000000000 PUSH1 0x44 DUP3 ADD MSTORE PUSH1 0x64 SWAP1 REVERT JUMPDEST DUP9 MLOAD PUSH3 0x461BCD PUSH1 0xE5 SHL DUP2 MSTORE PUSH1 0x4 DUP2 ADD DUP5 SWAP1 MSTORE PUSH1 0xC PUSH1 0x24 DUP3 ADD MSTORE PUSH12 0x8CCACA40E8DEDE40D0D2CED PUSH1 0xA3 SHL PUSH1 0x44 DUP3 ADD MSTORE PUSH1 0x64 SWAP1 REVERT JUMPDEST DUP2 SWAP1 PUSH3 0x2C2 DUP5 PUSH3 0x311 JUMP JUMPDEST DUP2 MSTORE ADD SWAP2 ADD SWAP1 DUP6 SWAP1 PUSH3 0xA5 JUMP JUMPDEST PUSH1 0x0 DUP1 REVERT JUMPDEST PUSH4 0x4E487B71 PUSH1 0xE0 SHL PUSH1 0x0 MSTORE PUSH1 0x41 PUSH1 0x4 MSTORE PUSH1 0x24 PUSH1 0x0 REVERT JUMPDEST PUSH1 0x40 MLOAD SWAP2 SWAP1 PUSH1 0x1F ADD PUSH1 0x1F NOT AND DUP3 ADD PUSH1 0x1 PUSH1 0x1 PUSH1 0x40 SHL SUB DUP2 GT DUP4 DUP3 LT OR PUSH3 0x2D5 JUMPI PUSH1 0x40 MSTORE JUMP JUMPDEST MLOAD SWAP1 PUSH1 0x1 PUSH1 0x1 PUSH1 0xA0 SHL SUB DUP3 AND DUP3 SUB PUSH3 0x2D0 JUMPI JUMP JUMPDEST DUP1 EXTCODESIZE ISZERO PUSH3 0x3F9 JUMPI PUSH1 0x1 PUSH1 0x1 PUSH1 0xA0 SHL SUB AND PUSH1 0x0 DUP2 DUP2 MSTORE PUSH1 0x9 PUSH1 0x20 MSTORE PUSH1 0x40 DUP2 KECCAK256 DUP1 SLOAD PUSH1 0xFF NOT AND PUSH1 0x1 OR SWAP1 SSTORE PUSH1 0xC SLOAD PUSH9 0x10000000000000000 DUP2 LT ISZERO PUSH3 0x3E5 JUMPI PUSH1 0x1 DUP2 ADD DUP1 PUSH1 0xC SSTORE DUP2 LT ISZERO PUSH3 0x3D1 JUMPI PUSH1 0xC DUP3 MSTORE PUSH32 0xDF6966C971051C3D54EC59162606531493A51404A002842F56009D7E5CF4A8C7 ADD DUP1 SLOAD PUSH1 0x1 PUSH1 0x1 PUSH1 0xA0 SHL SUB NOT AND DUP4 OR SWAP1 SSTORE PUSH32 0xEA3145306A87BAEBA6BB1A8B5C8D3744F840A81CB436B3509F64FC978600CDFB SWAP1 DUP1 LOG2 JUMP JUMPDEST PUSH4 0x4E487B71 PUSH1 0xE0 SHL DUP3 MSTORE PUSH1 0x32 PUSH1 0x4 MSTORE PUSH1 0x24 DUP3 REVERT JUMPDEST PUSH4 0x4E487B71 PUSH1 0xE0 SHL DUP3 MSTORE PUSH1 0x41 PUSH1 0x4 MSTORE PUSH1 0x24 DUP3 REVERT JUMPDEST PUSH1 0x40 MLOAD PUSH3 0x461BCD PUSH1 0xE5 SHL DUP2 MSTORE PUSH1 0x20 PUSH1 0x4 DUP3 ADD MSTORE PUSH1 0x19 PUSH1 0x24 DUP3 ADD MSTORE PUSH32 0x41646472657373206973206E6F74206120636F6E747261637400000000000000 PUSH1 0x44 DUP3 ADD MSTORE PUSH1 0x64 SWAP1 REVERT INVALID PUSH1 0x80 PUSH1 0x40 MSTORE PUSH1 0x4 CALLDATASIZE LT ISZERO PUSH3 0x13 JUMPI PUSH1 0x0 DUP1 REVERT JUMPDEST PUSH1 0x0 DUP1 CALLDATALOAD PUSH1 0xE0 SHR DUP1 PUSH4 0x12F52EE EQ PUSH3 0x2602 JUMPI DUP1 PUSH4 0x1FABD75 EQ PUSH3 0x2584 JUMPI DUP1 PUSH4 0xCBAB4F7 EQ PUSH3 0x2552 JUMPI DUP1 PUSH4 0xF6835B8 EQ PUSH3 0x24F1 JUMPI DUP1 PUSH4 0x17079048 EQ PUSH3 0x24D1 JUMPI DUP1 PUSH4 0x1C98322B EQ PUSH3 0x24AD JUMPI DUP1 PUSH4 0x3398B470 EQ PUSH3 0x2318 JUMPI DUP1 PUSH4 0x3998A681 EQ PUSH3 0x22F9 JUMPI DUP1 PUSH4 0x3FABE74F EQ PUSH3 0x1FEE JUMPI DUP1 PUSH4 0x460B53E3 EQ PUSH3 0x1C20 JUMPI DUP1 PUSH4 0x4D68282F EQ PUSH3 0x1A6F JUMPI DUP1 PUSH4 0x51D0EA37 EQ PUSH3 0x1A2E JUMPI DUP1 PUSH4 0x5AEF573C EQ PUSH3 0x17B7 JUMPI DUP1 PUSH4 0x5CCEA85E EQ PUSH3 0x16FF JUMPI DUP1 PUSH4 0x64FB065B EQ PUSH3 0x16BE JUMPI DUP1 PUSH4 0x675AC67A EQ PUSH3 0x169E JUMPI DUP1 PUSH4 0x6D69FCAF EQ PUSH3 0x1554 JUMPI DUP1 PUSH4 0x75151B63 EQ PUSH3 0x294 JUMPI DUP1 PUSH4 0x75829DEF EQ PUSH3 0x14DB JUMPI DUP1 PUSH4 0x76319190 EQ PUSH3 0x1360 JUMPI DUP1 PUSH4 0x7BE87B9E EQ PUSH3 0xEBA JUMPI DUP1 PUSH4 0x7F944DD0 EQ PUSH3 0xE5D JUMPI DUP1 PUSH4 0x8E9856F9 EQ PUSH3 0xE39 JUMPI DUP1 PUSH4 0x973AD270 EQ PUSH3 0xDC5 JUMPI DUP1 PUSH4 0x9DE2E9D7 EQ PUSH3 0xD55 JUMPI DUP1 PUSH4 0xA4C3B091 EQ PUSH3 0xD05 JUMPI DUP1 PUSH4 0xA7DC2D78 EQ PUSH3 0x255 JUMPI DUP1 PUSH4 0xAA0B5988 EQ PUSH3 0xC70 JUMPI DUP1 PUSH4 0xB996EC2A EQ PUSH3 0x9BE JUMPI DUP1 PUSH4 0xC415B95C EQ PUSH3 0x995 JUMPI DUP1 PUSH4 0xC6255626 EQ PUSH3 0x94D JUMPI DUP1 PUSH4 0xC9C31AF5 EQ PUSH3 0x77A JUMPI DUP1 PUSH4 0xCDD78CFC EQ PUSH3 0x75A JUMPI DUP1 PUSH4 0xD2C35CE8 EQ PUSH3 0x6B7 JUMPI DUP1 PUSH4 0xD3BADA99 EQ PUSH3 0x570 JUMPI DUP1 PUSH4 0xD3C7C2C7 EQ PUSH3 0x4A2 JUMPI DUP1 PUSH4 0xE0182436 EQ PUSH3 0x2D5 JUMPI DUP1 PUSH4 0xE744092E EQ PUSH3 0x294 JUMPI DUP1 PUSH4 0xED80BEFA EQ PUSH3 0x255 JUMPI DUP1 PUSH4 0xEDC1F335 EQ PUSH3 0x235 JUMPI PUSH4 0xF851A440 EQ PUSH3 0x20A JUMPI PUSH1 0x0 DUP1 REVERT JUMPDEST CALLVALUE PUSH3 0x232 JUMPI DUP1 PUSH1 0x3 NOT CALLDATASIZE ADD SLT PUSH3 0x232 JUMPI PUSH1 0x20 PUSH1 0x1 PUSH1 0x1 PUSH1 0xA0 SHL SUB PUSH1 0x4 SLOAD AND PUSH1 0x40 MLOAD SWAP1 DUP2 MSTORE RETURN JUMPDEST DUP1 REVERT JUMPDEST POP CALLVALUE PUSH3 0x232 JUMPI DUP1 PUSH1 0x3 NOT CALLDATASIZE ADD SLT PUSH3 0x232 JUMPI PUSH1 0x20 PUSH1 0x2 SLOAD PUSH1 0x40 MLOAD SWAP1 DUP2 MSTORE RETURN JUMPDEST POP CALLVALUE PUSH3 0x232 JUMPI PUSH1 0x20 CALLDATASIZE PUSH1 0x3 NOT ADD SLT PUSH3 0x232 JUMPI PUSH1 0x20 SWAP1 PUSH1 0x40 PUSH1 0x1 PUSH1 0x1 PUSH1 0xA0 SHL SUB SWAP2 DUP3 PUSH3 0x282 PUSH3 0x28E3 JUMP JUMPDEST AND DUP2 MSTORE PUSH1 0xA DUP5 MSTORE KECCAK256 SLOAD AND PUSH1 0x40 MLOAD SWAP1 DUP2 MSTORE RETURN JUMPDEST POP CALLVALUE PUSH3 0x232 JUMPI PUSH1 0x20 CALLDATASIZE PUSH1 0x3 NOT ADD SLT PUSH3 0x232 JUMPI PUSH1 0xFF PUSH1 0x40 PUSH1 0x20 SWAP3 PUSH1 0x1 PUSH1 0x1 PUSH1 0xA0 SHL SUB PUSH3 0x2C1 PUSH3 0x28E3 JUMP JUMPDEST AND DUP2 MSTORE PUSH1 0x9 DUP5 MSTORE KECCAK256 SLOAD AND PUSH1 0x40 MLOAD SWAP1 ISZERO ISZERO DUP2 MSTORE RETURN JUMPDEST POP CALLVALUE PUSH3 0x232 JUMPI PUSH1 0x20 CALLDATASIZE PUSH1 0x3 NOT ADD SLT PUSH3 0x232 JUMPI PUSH1 0x4 CALLDATALOAD PUSH3 0x2F6 PUSH3 0x2BF3 JUMP JUMPDEST DUP1 DUP3 MSTORE PUSH1 0x6 PUSH1 0x20 MSTORE PUSH1 0x40 DUP3 KECCAK256 SWAP1 PUSH1 0x1 DUP3 ADD PUSH1 0xFF DUP2 SLOAD PUSH1 0xA0 SHR AND PUSH1 0x6 DUP2 LT ISZERO PUSH3 0x48E JUMPI PUSH1 0x1 SUB PUSH3 0x464 JUMPI PUSH1 0x1 PUSH1 0x1 PUSH1 0xA0 SHL SUB DUP1 DUP5 SLOAD AND DUP1 CALLER SUB PUSH3 0x43A JUMPI PUSH1 0xFF PUSH1 0x4 DUP7 ADD SLOAD PUSH1 0xA0 SHR AND PUSH1 0x3 DUP2 LT ISZERO PUSH3 0x426 JUMPI PUSH3 0x3E1 JUMPI POP DUP5 DUP1 DUP1 DUP1 DUP5 DUP9 SLOAD AND PUSH1 0x6 DUP10 ADD SLOAD SWAP1 DUP3 DUP3 ISZERO PUSH3 0x3D7 JUMPI JUMPDEST CALL ISZERO PUSH3 0x3CC JUMPI PUSH1 0x6 PUSH1 0x20 SWAP2 PUSH32 0xDB19FB28F3E1BD98931A09B28E0C217AB5008BFB3CBB1BDD406D994AD534A735 SWAP4 JUMPDEST PUSH21 0x30000000000000000000000000000000000000000 PUSH1 0xFF PUSH1 0xA0 SHL NOT DUP3 SLOAD AND OR SWAP1 SSTORE DUP6 SLOAD AND SWAP5 ADD SLOAD PUSH1 0x40 MLOAD SWAP1 DUP2 MSTORE LOG3 PUSH1 0x1 DUP2 SSTORE DUP1 RETURN JUMPDEST PUSH1 0x40 MLOAD RETURNDATASIZE DUP7 DUP3 RETURNDATACOPY RETURNDATASIZE SWAP1 REVERT JUMPDEST POP PUSH2 0x8FC PUSH3 0x367 JUMP JUMPDEST DUP2 PUSH32 0xDB19FB28F3E1BD98931A09B28E0C217AB5008BFB3CBB1BDD406D994AD534A735 SWAP4 PUSH3 0x420 PUSH1 0x6 SWAP4 PUSH1 0x20 SWAP6 PUSH1 0x5 DUP11 ADD SLOAD AND SWAP1 DUP6 DUP11 ADD SLOAD SWAP2 PUSH3 0x2C2F JUMP JUMPDEST PUSH3 0x396 JUMP JUMPDEST PUSH1 0x24 DUP8 PUSH4 0x4E487B71 PUSH1 0xE0 SHL DUP2 MSTORE PUSH1 0x21 PUSH1 0x4 MSTORE REVERT JUMPDEST PUSH1 0x4 PUSH1 0x40 MLOAD PUSH32 0x344FD58600000000000000000000000000000000000000000000000000000000 DUP2 MSTORE REVERT JUMPDEST PUSH1 0x4 PUSH1 0x40 MLOAD PUSH32 0x15B0082A00000000000000000000000000000000000000000000000000000000 DUP2 MSTORE REVERT JUMPDEST PUSH1 0x24 DUP6 PUSH4 0x4E487B71 PUSH1 0xE0 SHL DUP2 MSTORE PUSH1 0x21 PUSH1 0x4 MSTORE REVERT JUMPDEST POP CALLVALUE PUSH3 0x232 JUMPI DUP1 PUSH1 0x3 NOT CALLDATASIZE ADD SLT PUSH3 0x232 JUMPI PUSH1 0x40 MLOAD DUP1 SWAP2 PUSH1 0xC SLOAD SWAP1 DUP2 DUP4 MSTORE PUSH1 0x20 DUP1 SWAP4 ADD DUP1 SWAP3 PUSH1 0xC DUP4 MSTORE PUSH32 0xDF6966C971051C3D54EC59162606531493A51404A002842F56009D7E5CF4A8C7 SWAP1 DUP4 JUMPDEST DUP2 DUP2 LT PUSH3 0x552 JUMPI POP POP POP DUP5 PUSH3 0x509 SWAP2 SUB DUP6 PUSH3 0x27A6 JUMP JUMPDEST PUSH1 0x40 MLOAD SWAP4 DUP4 DUP6 SWAP5 DUP6 ADD SWAP2 DUP2 DUP7 MSTORE MLOAD DUP1 SWAP3 MSTORE PUSH1 0x40 DUP6 ADD SWAP4 SWAP3 JUMPDEST DUP3 DUP2 LT PUSH3 0x531 JUMPI POP POP POP POP SUB SWAP1 RETURN JUMPDEST DUP4 MLOAD PUSH1 0x1 PUSH1 0x1 PUSH1 0xA0 SHL SUB AND DUP6 MSTORE DUP7 SWAP6 POP SWAP4 DUP2 ADD SWAP4 SWAP3 DUP2 ADD SWAP3 PUSH1 0x1 ADD PUSH3 0x521 JUMP JUMPDEST DUP3 SLOAD PUSH1 0x1 PUSH1 0x1 PUSH1 0xA0 SHL SUB AND DUP5 MSTORE SWAP3 DUP7 ADD SWAP3 PUSH1 0x1 SWAP3 DUP4 ADD SWAP3 ADD PUSH3 0x4F0 JUMP JUMPDEST POP CALLVALUE PUSH3 0x232 JUMPI PUSH3 0x582 CALLDATASIZE PUSH3 0x2917 JUMP JUMPDEST SWAP1 DUP1 DUP4 MSTORE PUSH1 0x6 PUSH1 0x20 MSTORE PUSH1 0x40 DUP4 KECCAK256 PUSH1 0x1 DUP2 ADD SLOAD SWAP1 PUSH1 0xFF DUP3 PUSH1 0xA0 SHR AND PUSH1 0x6 DUP2 LT ISZERO PUSH3 0x6A3 JUMPI PUSH1 0x4 SUB PUSH3 0x65F JUMPI PUSH1 0x1 PUSH1 0x1 PUSH1 0xA0 SHL SUB DUP1 SWAP2 SLOAD AND CALLER EQ SWAP2 DUP3 ISZERO PUSH3 0x651 JUMPI JUMPDEST POP POP ISZERO PUSH3 0x60D JUMPI PUSH32 0x8222627E36F596A4A30A066B96AAA9A09F56A563BA61354DEB9030A268241248 PUSH1 0x40 MLOAD PUSH1 0x20 DUP2 MSTORE DUP1 PUSH3 0x607 CALLER SWAP6 PUSH1 0x20 DUP4 ADD SWAP1 PUSH3 0x28BC JUMP JUMPDEST SUB SWAP1 LOG3 DUP1 RETURN JUMPDEST PUSH1 0x64 PUSH1 0x40 MLOAD PUSH3 0x461BCD PUSH1 0xE5 SHL DUP2 MSTORE PUSH1 0x20 PUSH1 0x4 DUP3 ADD MSTORE PUSH1 0x13 PUSH1 0x24 DUP3 ADD MSTORE PUSH32 0x4E6F7420706172747920746F20657363726F7700000000000000000000000000 PUSH1 0x44 DUP3 ADD MSTORE REVERT JUMPDEST SWAP1 SWAP2 POP AND CALLER EQ CODESIZE DUP1 PUSH3 0x5C5 JUMP JUMPDEST PUSH1 0x64 PUSH1 0x40 MLOAD PUSH3 0x461BCD PUSH1 0xE5 SHL DUP2 MSTORE PUSH1 0x20 PUSH1 0x4 DUP3 ADD MSTORE PUSH1 0xE PUSH1 0x24 DUP3 ADD MSTORE PUSH32 0x4E6F7420696E2064697370757465000000000000000000000000000000000000 PUSH1 0x44 DUP3 ADD MSTORE REVERT JUMPDEST PUSH1 0x24 DUP7 PUSH4 0x4E487B71 PUSH1 0xE0 SHL DUP2 MSTORE PUSH1 0x21 PUSH1 0x4 MSTORE REVERT JUMPDEST POP CALLVALUE PUSH3 0x232 JUMPI PUSH1 0x20 CALLDATASIZE PUSH1 0x3 NOT ADD SLT PUSH3 0x232 JUMPI PUSH3 0x6D5 PUSH3 0x28E3 JUMP JUMPDEST PUSH1 0x1 PUSH1 0x1 PUSH1 0xA0 SHL SUB SWAP1 PUSH3 0x6EF DUP3 PUSH1 0x4 SLOAD AND CALLER EQ PUSH3 0x2DD8 JUMP JUMPDEST AND DUP1 ISZERO PUSH3 0x730 JUMPI DUP1 PUSH1 0x1 PUSH1 0x1 PUSH1 0xA0 SHL SUB NOT PUSH1 0x3 SLOAD AND OR PUSH1 0x3 SSTORE PUSH32 0xE5693914D19C789BDEE50A362998C0BC8D035A835F9871DA5D51152F0582C34F DUP3 DUP1 LOG2 DUP1 RETURN JUMPDEST PUSH1 0x4 PUSH1 0x40 MLOAD PUSH32 0xE6C4247B00000000000000000000000000000000000000000000000000000000 DUP2 MSTORE REVERT JUMPDEST POP CALLVALUE PUSH3 0x232 JUMPI DUP1 PUSH1 0x3 NOT CALLDATASIZE ADD SLT PUSH3 0x232 JUMPI PUSH1 0x20 PUSH1 0x1 SLOAD PUSH1 0x40 MLOAD SWAP1 DUP2 MSTORE RETURN JUMPDEST POP CALLVALUE PUSH3 0x232 JUMPI PUSH1 0x20 DUP1 PUSH1 0x3 NOT CALLDATASIZE ADD SLT PUSH3 0x949 JUMPI PUSH1 0x4 CALLDATALOAD DUP1 DUP4 MSTORE PUSH1 0x6 DUP3 MSTORE PUSH1 0x40 DUP4 KECCAK256 PUSH1 0x1 DUP2 ADD PUSH1 0xFF DUP2 SLOAD PUSH1 0xA0 SHR AND PUSH1 0x6 DUP2 LT ISZERO PUSH3 0x6A3 JUMPI PUSH3 0x464 JUMPI PUSH1 0x1 PUSH1 0x1 PUSH1 0xA0 SHL SUB DUP1 DUP4 SLOAD AND CALLER SUB PUSH3 0x43A JUMPI PUSH1 0x5 DUP4 ADD SLOAD AND SWAP2 DUP3 ISZERO PUSH3 0x91F JUMPI PUSH1 0x40 MLOAD SWAP1 PUSH32 0xDD62ED3E00000000000000000000000000000000000000000000000000000000 DUP3 MSTORE CALLER PUSH1 0x4 DUP4 ADD MSTORE ADDRESS PUSH1 0x24 DUP4 ADD MSTORE DUP6 DUP3 PUSH1 0x44 DUP2 DUP8 GAS STATICCALL SWAP2 DUP3 ISZERO PUSH3 0x914 JUMPI DUP8 SWAP3 PUSH3 0x8DA JUMPI JUMPDEST POP PUSH1 0x6 ADD SWAP3 DUP4 SLOAD DUP1 SWAP3 LT PUSH3 0x896 JUMPI PUSH32 0xE030E47E27825A2AD1B19E4CF2E70BFBFB3124AF275C7727A82B114BA7B29A85 SWAP4 SWAP3 SWAP2 PUSH3 0x866 SWAP2 ADDRESS SWAP1 CALLER SWAP1 PUSH3 0x2AE9 JUMP JUMPDEST PUSH21 0x10000000000000000000000000000000000000000 PUSH1 0xFF PUSH1 0xA0 SHL NOT DUP3 SLOAD AND OR SWAP1 SSTORE SLOAD SWAP3 PUSH1 0x40 MLOAD SWAP4 DUP5 MSTORE CALLER SWAP4 LOG3 DUP1 RETURN JUMPDEST PUSH1 0x64 DUP7 PUSH1 0x40 MLOAD SWAP1 PUSH3 0x461BCD PUSH1 0xE5 SHL DUP3 MSTORE PUSH1 0x4 DUP3 ADD MSTORE PUSH1 0x16 PUSH1 0x24 DUP3 ADD MSTORE PUSH32 0x496E73756666696369656E7420616C6C6F77616E636500000000000000000000 PUSH1 0x44 DUP3 ADD MSTORE REVERT JUMPDEST SWAP1 SWAP2 POP DUP6 DUP2 DUP2 RETURNDATASIZE DUP4 GT PUSH3 0x90C JUMPI JUMPDEST PUSH3 0x8F5 DUP2 DUP4 PUSH3 0x27A6 JUMP JUMPDEST DUP2 ADD SUB SLT PUSH3 0x908 JUMPI MLOAD SWAP1 PUSH1 0x6 PUSH3 0x824 JUMP JUMPDEST DUP7 DUP1 REVERT JUMPDEST POP RETURNDATASIZE PUSH3 0x8E9 JUMP JUMPDEST PUSH1 0x40 MLOAD RETURNDATASIZE DUP10 DUP3 RETURNDATACOPY RETURNDATASIZE SWAP1 REVERT JUMPDEST PUSH1 0x4 PUSH1 0x40 MLOAD PUSH32 0x86E4353B00000000000000000000000000000000000000000000000000000000 DUP2 MSTORE REVERT JUMPDEST POP DUP1 REVERT JUMPDEST POP CALLVALUE PUSH3 0x232 JUMPI PUSH1 0x20 CALLDATASIZE PUSH1 0x3 NOT ADD SLT PUSH3 0x232 JUMPI PUSH1 0x4 CALLDATALOAD SWAP1 PUSH1 0xC SLOAD DUP3 LT ISZERO PUSH3 0x232 JUMPI PUSH1 0x20 PUSH1 0x1 PUSH1 0x1 PUSH1 0xA0 SHL SUB PUSH3 0x985 DUP5 PUSH3 0x298D JUMP JUMPDEST SWAP2 SWAP1 SLOAD PUSH1 0x40 MLOAD SWAP3 PUSH1 0x3 SHL SHR AND DUP2 MSTORE RETURN JUMPDEST POP CALLVALUE PUSH3 0x232 JUMPI DUP1 PUSH1 0x3 NOT CALLDATASIZE ADD SLT PUSH3 0x232 JUMPI PUSH1 0x20 PUSH1 0x1 PUSH1 0x1 PUSH1 0xA0 SHL SUB PUSH1 0x3 SLOAD AND PUSH1 0x40 MLOAD SWAP1 DUP2 MSTORE RETURN JUMPDEST POP CALLVALUE PUSH3 0x232 JUMPI PUSH1 0x20 CALLDATASIZE PUSH1 0x3 NOT ADD SLT PUSH3 0x232 JUMPI PUSH1 0x60 PUSH2 0x1A0 PUSH1 0x40 MLOAD PUSH3 0x9E5 DUP2 PUSH3 0x2788 JUMP JUMPDEST DUP4 DUP2 MSTORE DUP4 PUSH1 0x20 DUP3 ADD MSTORE DUP4 PUSH1 0x40 DUP3 ADD MSTORE DUP4 DUP4 DUP3 ADD MSTORE DUP4 PUSH1 0x80 DUP3 ADD MSTORE DUP4 PUSH1 0xA0 DUP3 ADD MSTORE DUP4 PUSH1 0xC0 DUP3 ADD MSTORE DUP4 PUSH1 0xE0 DUP3 ADD MSTORE DUP4 PUSH2 0x100 DUP3 ADD MSTORE DUP4 PUSH2 0x120 DUP3 ADD MSTORE DUP4 PUSH2 0x140 DUP3 ADD MSTORE DUP4 PUSH2 0x160 DUP3 ADD MSTORE DUP3 PUSH2 0x180 DUP3 ADD MSTORE ADD MSTORE PUSH1 0x4 CALLDATALOAD DUP2 MSTORE PUSH1 0x6 PUSH1 0x20 MSTORE PUSH1 0x40 DUP2 KECCAK256 SWAP1 PUSH1 0x40 MLOAD SWAP1 PUSH3 0xA54 DUP3 PUSH3 0x2788 JUMP JUMPDEST PUSH1 0x1 PUSH1 0x1 PUSH1 0xA0 SHL SUB DUP4 SLOAD AND DUP3 MSTORE PUSH1 0xFF PUSH1 0x1 DUP5 ADD SLOAD PUSH1 0x1 PUSH1 0x1 PUSH1 0xA0 SHL SUB DUP2 AND PUSH1 0x20 DUP6 ADD MSTORE PUSH1 0xA0 SHR AND PUSH1 0x6 DUP2 LT ISZERO PUSH3 0xC5C JUMPI PUSH1 0x40 DUP4 ADD MSTORE PUSH1 0x2 DUP4 ADD SLOAD PUSH1 0x60 DUP4 ADD MSTORE PUSH1 0x3 DUP4 ADD SLOAD PUSH1 0x80 DUP4 ADD MSTORE PUSH1 0x4 DUP4 ADD SLOAD SWAP1 PUSH1 0x1 PUSH1 0x1 PUSH1 0xA0 SHL SUB DUP3 AND PUSH1 0xA0 DUP5 ADD MSTORE PUSH1 0x3 PUSH1 0xFF DUP4 PUSH1 0xA0 SHR AND LT ISZERO PUSH3 0xC48 JUMPI POP PUSH1 0xB PUSH3 0xC44 SWAP4 PUSH1 0xFF PUSH3 0xB3E SWAP4 PUSH1 0xA0 SHR AND PUSH1 0xC0 DUP6 ADD MSTORE PUSH1 0x1 PUSH1 0x1 PUSH1 0xA0 SHL SUB PUSH1 0x5 DUP3 ADD SLOAD AND PUSH1 0xE0 DUP6 ADD MSTORE PUSH1 0x6 DUP2 ADD SLOAD PUSH2 0x100 DUP6 ADD MSTORE PUSH1 0x7 DUP2 ADD SLOAD PUSH2 0x120 DUP6 ADD MSTORE PUSH1 0x8 DUP2 ADD SLOAD PUSH2 0x140 DUP6 ADD MSTORE PUSH1 0x1 PUSH1 0x1 PUSH1 0xA0 SHL SUB PUSH1 0x9 DUP3 ADD SLOAD AND PUSH2 0x160 DUP6 ADD MSTORE PUSH3 0xB31 PUSH1 0xA DUP3 ADD PUSH3 0x27C9 JUMP JUMPDEST PUSH2 0x180 DUP6 ADD MSTORE ADD PUSH3 0x27C9 JUMP JUMPDEST PUSH2 0x1A0 DUP3 ADD MSTORE PUSH1 0x40 MLOAD SWAP2 DUP3 SWAP2 PUSH1 0x20 DUP4 MSTORE PUSH1 0x1 PUSH1 0x1 PUSH1 0xA0 SHL SUB DUP2 MLOAD AND PUSH1 0x20 DUP5 ADD MSTORE PUSH1 0x1 PUSH1 0x1 PUSH1 0xA0 SHL SUB PUSH1 0x20 DUP3 ADD MLOAD AND PUSH1 0x40 DUP5 ADD MSTORE PUSH3 0xB85 PUSH1 0x40 DUP3 ADD MLOAD PUSH1 0x60 DUP6 ADD SWAP1 PUSH3 0x287B JUMP JUMPDEST PUSH1 0x60 DUP2 ADD MLOAD PUSH1 0x80 DUP5 ADD MSTORE PUSH1 0x80 DUP2 ADD MLOAD PUSH1 0xA0 DUP5 ADD MSTORE PUSH1 0x1 PUSH1 0x1 PUSH1 0xA0 SHL SUB PUSH1 0xA0 DUP3 ADD MLOAD AND PUSH1 0xC0 DUP5 ADD MSTORE PUSH3 0xBC0 PUSH1 0xC0 DUP3 ADD MLOAD PUSH1 0xE0 DUP6 ADD SWAP1 PUSH3 0x2889 JUMP JUMPDEST PUSH1 0x1 PUSH1 0x1 PUSH1 0xA0 SHL SUB PUSH1 0xE0 DUP3 ADD MLOAD AND PUSH2 0x100 DUP5 ADD MSTORE PUSH2 0x100 DUP2 ADD MLOAD PUSH2 0x120 DUP5 ADD MSTORE PUSH2 0x120 DUP2 ADD MLOAD PUSH2 0x140 DUP5 ADD MSTORE PUSH2 0x140 DUP2 ADD MLOAD PUSH2 0x160 DUP5 ADD MSTORE PUSH1 0x1 PUSH1 0x1 PUSH1 0xA0 SHL SUB PUSH2 0x160 DUP3 ADD MLOAD AND PUSH2 0x180 DUP5 ADD MSTORE PUSH2 0x180 DUP2 ADD MLOAD PUSH2 0x1A0 PUSH3 0xC2F PUSH2 0x1C0 SWAP3 DUP4 DUP4 DUP9 ADD MSTORE PUSH2 0x1E0 DUP8 ADD SWAP1 PUSH3 0x28BC JUMP JUMPDEST SWAP3 ADD MLOAD SWAP1 PUSH1 0x1F NOT DUP6 DUP5 SUB ADD SWAP1 DUP6 ADD MSTORE PUSH3 0x28BC JUMP JUMPDEST SUB SWAP1 RETURN JUMPDEST DUP1 PUSH4 0x4E487B71 PUSH1 0xE0 SHL PUSH1 0x24 SWAP3 MSTORE PUSH1 0x21 PUSH1 0x4 MSTORE REVERT JUMPDEST PUSH1 0x24 DUP3 PUSH4 0x4E487B71 PUSH1 0xE0 SHL DUP2 MSTORE PUSH1 0x21 PUSH1 0x4 MSTORE REVERT JUMPDEST POP CALLVALUE PUSH3 0x232 JUMPI PUSH1 0x20 CALLDATASIZE PUSH1 0x3 NOT ADD SLT PUSH3 0x232 JUMPI PUSH1 0x4 CALLDATALOAD PUSH3 0xC9F PUSH1 0x1 PUSH1 0x1 PUSH1 0xA0 SHL SUB PUSH1 0x4 SLOAD AND CALLER EQ PUSH3 0x2DD8 JUMP JUMPDEST PUSH2 0x1F4 DUP2 GT PUSH3 0xCDB JUMPI PUSH1 0x20 DUP2 PUSH32 0x45610D581145924DD7090A5017E5F2B1D6F42213BB2E95707FF86846BBFCB1CA SWAP3 PUSH1 0x1 SSTORE PUSH1 0x40 MLOAD SWAP1 DUP2 MSTORE LOG1 DUP1 RETURN JUMPDEST PUSH1 0x4 PUSH1 0x40 MLOAD PUSH32 0x6D24EDAE00000000000000000000000000000000000000000000000000000000 DUP2 MSTORE REVERT JUMPDEST POP CALLVALUE PUSH3 0x232 JUMPI PUSH1 0x40 CALLDATASIZE PUSH1 0x3 NOT ADD SLT PUSH3 0x232 JUMPI PUSH3 0xD52 PUSH3 0xD27 PUSH3 0x28E3 JUMP JUMPDEST PUSH1 0x1 PUSH1 0x1 PUSH1 0xA0 SHL SUB SWAP1 PUSH3 0xD41 DUP3 PUSH1 0x4 SLOAD AND CALLER EQ PUSH3 0x2DD8 JUMP JUMPDEST PUSH1 0x24 CALLDATALOAD SWAP2 DUP1 PUSH1 0x3 SLOAD AND SWAP2 AND PUSH3 0x2C2F JUMP JUMPDEST DUP1 RETURN JUMPDEST POP CALLVALUE PUSH3 0x232 JUMPI PUSH1 0x20 CALLDATASIZE PUSH1 0x3 NOT ADD SLT PUSH3 0x232 JUMPI PUSH1 0x4 CALLDATALOAD PUSH3 0xD84 PUSH1 0x1 PUSH1 0x1 PUSH1 0xA0 SHL SUB PUSH1 0x4 SLOAD AND CALLER EQ PUSH3 0x2DD8 JUMP JUMPDEST PUSH7 0x2386F26FC10000 DUP2 LT PUSH3 0xCDB JUMPI PUSH1 0x20 DUP2 PUSH32 0xEBD2EF76D4C4DDA1C08A2A2CAF331001B99B2FF5B9ED9A467E5C1BDBE397AE66 SWAP3 PUSH1 0x2 SSTORE PUSH1 0x40 MLOAD SWAP1 DUP2 MSTORE LOG1 DUP1 RETURN JUMPDEST POP CALLVALUE PUSH3 0x232 JUMPI PUSH1 0x20 CALLDATASIZE PUSH1 0x3 NOT ADD SLT PUSH3 0x232 JUMPI PUSH3 0xDE3 PUSH3 0x28E3 JUMP JUMPDEST PUSH1 0x1 PUSH1 0x1 PUSH1 0xA0 SHL SUB SWAP1 PUSH3 0xDFD DUP3 PUSH1 0x4 SLOAD AND CALLER EQ PUSH3 0x2DD8 JUMP JUMPDEST AND DUP1 DUP3 MSTORE PUSH1 0x8 PUSH1 0x20 MSTORE PUSH1 0x40 DUP3 KECCAK256 DUP1 SLOAD PUSH1 0xFF NOT AND SWAP1 SSTORE PUSH32 0x715484ADB5BC9CC29AF577725DBF8486D0B82ECA3BA79F65846E92FF38EF32B5 DUP3 DUP1 LOG2 DUP1 RETURN JUMPDEST POP CALLVALUE PUSH3 0x232 JUMPI DUP1 PUSH1 0x3 NOT CALLDATASIZE ADD SLT PUSH3 0x232 JUMPI PUSH1 0x20 PUSH1 0x40 MLOAD PUSH7 0x38D7EA4C68000 DUP2 MSTORE RETURN JUMPDEST POP CALLVALUE PUSH3 0x232 JUMPI PUSH1 0x40 CALLDATASIZE PUSH1 0x3 NOT ADD SLT PUSH3 0x232 JUMPI PUSH3 0xE7B PUSH3 0x28E3 JUMP JUMPDEST PUSH1 0x1 PUSH1 0x1 PUSH1 0xA0 SHL SUB AND DUP2 MSTORE PUSH1 0x7 PUSH1 0x20 MSTORE PUSH1 0x40 DUP2 KECCAK256 DUP1 SLOAD PUSH1 0x24 CALLDATALOAD SWAP3 SWAP1 DUP4 LT ISZERO PUSH3 0x232 JUMPI PUSH1 0x20 PUSH3 0xEAC DUP5 DUP5 PUSH3 0x29DB JUMP JUMPDEST SWAP1 SLOAD PUSH1 0x40 MLOAD SWAP2 PUSH1 0x3 SHL SHR DUP2 MSTORE RETURN JUMPDEST POP PUSH1 0x80 CALLDATASIZE PUSH1 0x3 NOT ADD SLT PUSH3 0x232 JUMPI PUSH3 0xED2 PUSH3 0x28E3 JUMP JUMPDEST PUSH1 0x1 PUSH1 0x1 PUSH1 0xA0 SHL SUB PUSH1 0x24 CALLDATALOAD DUP2 DUP2 AND DUP2 SUB PUSH3 0x135B JUMPI PUSH8 0xFFFFFFFFFFFFFFFF DUP1 PUSH1 0x64 CALLDATALOAD GT PUSH3 0x1357 JUMPI CALLDATASIZE PUSH1 0x23 PUSH1 0x64 CALLDATALOAD ADD SLT ISZERO PUSH3 0x1357 JUMPI PUSH1 0x64 CALLDATALOAD PUSH1 0x4 ADD CALLDATALOAD GT PUSH3 0x1353 JUMPI CALLDATASIZE PUSH1 0x24 PUSH1 0x64 CALLDATALOAD PUSH1 0x4 ADD CALLDATALOAD PUSH1 0x64 CALLDATALOAD ADD ADD GT PUSH3 0x1353 JUMPI DUP2 DUP4 AND ISZERO DUP1 ISZERO PUSH3 0x1347 JUMPI JUMPDEST PUSH3 0x131D JUMPI PUSH7 0x38D7EA4C68000 PUSH1 0x44 CALLDATALOAD LT PUSH3 0x12F3 JUMPI DUP2 DUP2 AND DUP5 MSTORE PUSH1 0x9 PUSH1 0x20 MSTORE PUSH1 0xFF PUSH1 0x40 DUP6 KECCAK256 SLOAD AND ISZERO PUSH3 0x12C9 JUMPI DUP1 DUP3 AND PUSH3 0x1298 JUMPI PUSH1 0x44 CALLDATALOAD CALLVALUE SUB PUSH3 0x126E JUMPI JUMPDEST PUSH3 0xF84 PUSH1 0x5 SLOAD PUSH3 0x29F4 JUMP JUMPDEST SWAP3 DUP4 PUSH1 0x5 SSTORE DUP4 DUP6 MSTORE PUSH1 0x6 PUSH1 0x20 MSTORE PUSH1 0x40 DUP6 KECCAK256 CALLER PUSH1 0x1 PUSH1 0x1 PUSH1 0xA0 SHL SUB NOT DUP3 SLOAD AND OR DUP2 SSTORE PUSH1 0x1 DUP2 ADD DUP1 SLOAD DUP6 DUP6 AND ISZERO PUSH1 0x0 EQ PUSH3 0x1267 JUMPI PUSH1 0x1 JUMPDEST PUSH1 0x6 DUP2 LT ISZERO PUSH3 0x1251 JUMPI PUSH1 0xFF PUSH1 0xA0 SHL SWAP1 PUSH1 0xA0 SHL AND SWAP1 PUSH32 0xFFFFFFFFFFFFFFFFFFFFFF000000000000000000000000000000000000000000 DUP8 DUP7 AND SWAP2 AND OR OR SWAP1 SSTORE TIMESTAMP PUSH1 0x2 DUP3 ADD SSTORE PUSH1 0x5 DUP2 ADD DUP5 DUP5 AND PUSH1 0x1 PUSH1 0x1 PUSH1 0xA0 SHL SUB NOT DUP3 SLOAD AND OR SWAP1 SSTORE PUSH1 0x44 CALLDATALOAD PUSH1 0x6 DUP3 ADD SSTORE PUSH3 0x1041 PUSH1 0x64 CALLDATALOAD PUSH1 0x4 ADD CALLDATALOAD PUSH3 0x1037 PUSH1 0xB DUP5 ADD SLOAD PUSH3 0x2720 JUMP JUMPDEST PUSH1 0xB DUP5 ADD PUSH3 0x2A04 JUMP JUMPDEST DUP6 PUSH1 0x1F PUSH1 0x64 CALLDATALOAD PUSH1 0x4 ADD CALLDATALOAD GT PUSH1 0x1 EQ PUSH3 0x11C1 JUMPI DUP7 SWAP1 PUSH1 0x64 CALLDATALOAD PUSH1 0x4 ADD CALLDATALOAD PUSH3 0x11B0 JUMPI JUMPDEST POP PUSH1 0x64 CALLDATALOAD PUSH1 0x4 ADD CALLDATALOAD PUSH1 0x1 SHL SWAP1 PUSH1 0x0 NOT PUSH1 0x64 CALLDATALOAD PUSH1 0x4 ADD CALLDATALOAD PUSH1 0x3 SHL SHR NOT AND OR PUSH1 0xB DUP3 ADD SSTORE JUMPDEST DUP3 DUP5 AND PUSH3 0x11A5 JUMPI PUSH1 0x4 DUP7 SWAP2 JUMPDEST ADD SWAP1 PUSH1 0x3 DUP2 LT ISZERO PUSH3 0x426 JUMPI PUSH1 0xFF PUSH1 0xA0 SHL NOT PUSH1 0xFF PUSH1 0xA0 SHL DUP4 SLOAD SWAP3 PUSH1 0xA0 SHL AND SWAP2 AND OR SWAP1 SSTORE CALLER DUP6 MSTORE PUSH1 0x7 PUSH1 0x20 MSTORE PUSH3 0x10CD DUP5 PUSH1 0x40 DUP8 KECCAK256 PUSH3 0x2A5D JUMP JUMPDEST DUP3 DUP2 AND DUP6 MSTORE PUSH1 0x7 PUSH1 0x20 MSTORE PUSH3 0x10E6 DUP5 PUSH1 0x40 DUP8 KECCAK256 PUSH3 0x2A5D JUMP JUMPDEST DUP3 PUSH1 0x40 MLOAD SWAP2 DUP2 DUP5 AND DUP4 MSTORE PUSH1 0x44 CALLDATALOAD PUSH1 0x20 DUP5 ADD MSTORE PUSH1 0x60 PUSH1 0x40 DUP5 ADD MSTORE PUSH1 0x64 CALLDATALOAD PUSH1 0x4 ADD CALLDATALOAD PUSH1 0x60 DUP5 ADD MSTORE PUSH1 0x64 CALLDATALOAD PUSH1 0x4 ADD CALLDATALOAD PUSH1 0x24 PUSH1 0x64 CALLDATALOAD ADD PUSH1 0x80 DUP6 ADD CALLDATACOPY DUP7 PUSH1 0x80 PUSH1 0x64 CALLDATALOAD PUSH1 0x4 ADD CALLDATALOAD DUP6 ADD ADD MSTORE AND SWAP1 DUP5 PUSH32 0x3343CFAEBF44F8A4A53CE2DA6672B44D01A70F7D4D45C640D2A223D767D139B8 CALLER SWAP3 PUSH1 0x80 DUP2 PUSH1 0x1F NOT PUSH1 0x1F PUSH1 0x64 CALLDATALOAD PUSH1 0x4 ADD CALLDATALOAD ADD AND DUP2 ADD SUB ADD SWAP1 LOG4 AND ISZERO PUSH3 0x1173 JUMPI POP DUP1 RETURN JUMPDEST PUSH1 0x40 MLOAD SWAP1 PUSH1 0x44 CALLDATALOAD DUP3 MSTORE PUSH32 0xE030E47E27825A2AD1B19E4CF2E70BFBFB3124AF275C7727A82B114BA7B29A85 PUSH1 0x20 CALLER SWAP4 LOG3 DUP1 RETURN JUMPDEST PUSH1 0x4 PUSH1 0x1 SWAP2 PUSH3 0x1093 JUMP JUMPDEST PUSH1 0x24 SWAP2 POP PUSH1 0x64 CALLDATALOAD ADD ADD CALLDATALOAD CODESIZE PUSH3 0x1063 JUMP JUMPDEST PUSH1 0xB DUP3 ADD DUP8 MSTORE PUSH1 0x20 DUP8 KECCAK256 SWAP1 DUP8 JUMPDEST PUSH1 0x4 PUSH1 0x64 CALLDATALOAD ADD CALLDATALOAD PUSH1 0x1F NOT AND DUP2 LT PUSH3 0x1233 JUMPI POP PUSH1 0x4 PUSH1 0x64 CALLDATALOAD ADD CALLDATALOAD PUSH1 0x1F NOT DUP2 AND LT PUSH3 0x120D JUMPI JUMPDEST POP POP PUSH1 0x1 PUSH1 0x64 CALLDATALOAD PUSH1 0x4 ADD CALLDATALOAD DUP2 SHL ADD PUSH1 0xB DUP3 ADD SSTORE PUSH3 0x1086 JUMP JUMPDEST PUSH1 0x24 PUSH1 0x0 NOT PUSH1 0xF8 PUSH1 0x64 CALLDATALOAD PUSH1 0x4 ADD CALLDATALOAD PUSH1 0x3 SHL AND SHR NOT SWAP2 PUSH1 0x64 CALLDATALOAD ADD ADD CALLDATALOAD AND SWAP1 SSTORE CODESIZE DUP1 PUSH3 0x11F4 JUMP JUMPDEST SWAP1 SWAP2 PUSH1 0x20 PUSH1 0x1 DUP2 SWAP3 PUSH1 0x24 DUP7 PUSH1 0x64 CALLDATALOAD ADD ADD CALLDATALOAD DUP2 SSTORE ADD SWAP4 ADD SWAP2 ADD PUSH3 0x11CE JUMP JUMPDEST PUSH4 0x4E487B71 PUSH1 0xE0 SHL PUSH1 0x0 MSTORE PUSH1 0x21 PUSH1 0x4 MSTORE PUSH1 0x24 PUSH1 0x0 REVERT JUMPDEST DUP8 PUSH3 0xFBA JUMP JUMPDEST PUSH1 0x4 PUSH1 0x40 MLOAD PUSH32 0xDE94576C00000000000000000000000000000000000000000000000000000000 DUP2 MSTORE REVERT JUMPDEST CALLVALUE ISZERO PUSH3 0xF77 JUMPI PUSH1 0x4 PUSH1 0x40 MLOAD PUSH32 0xF7FBFC5A00000000000000000000000000000000000000000000000000000000 DUP2 MSTORE REVERT JUMPDEST PUSH1 0x4 PUSH1 0x40 MLOAD PUSH32 0x3DD1B30500000000000000000000000000000000000000000000000000000000 DUP2 MSTORE REVERT JUMPDEST PUSH1 0x4 PUSH1 0x40 MLOAD PUSH32 0xC2F5625A00000000000000000000000000000000000000000000000000000000 DUP2 MSTORE REVERT JUMPDEST PUSH1 0x4 PUSH1 0x40 MLOAD PUSH32 0x8386FEBE00000000000000000000000000000000000000000000000000000000 DUP2 MSTORE REVERT JUMPDEST POP CALLER DUP3 DUP5 AND EQ PUSH3 0xF36 JUMP JUMPDEST DUP4 DUP1 REVERT JUMPDEST DUP5 DUP1 REVERT JUMPDEST PUSH1 0x0 DUP1 REVERT JUMPDEST POP CALLVALUE PUSH3 0x232 JUMPI PUSH1 0x20 CALLDATASIZE PUSH1 0x3 NOT ADD SLT PUSH3 0x232 JUMPI PUSH3 0x137E PUSH3 0x28E3 JUMP JUMPDEST PUSH1 0x1 PUSH1 0x1 PUSH1 0xA0 SHL SUB DUP1 SWAP2 PUSH3 0x1399 DUP3 PUSH1 0x4 SLOAD AND CALLER EQ PUSH3 0x2DD8 JUMP JUMPDEST AND DUP1 DUP4 MSTORE PUSH1 0x9 PUSH1 0x20 MSTORE PUSH1 0xFF PUSH1 0x40 DUP5 KECCAK256 SLOAD AND ISZERO PUSH3 0x12C9 JUMPI DUP1 DUP4 MSTORE PUSH1 0x9 PUSH1 0x20 MSTORE PUSH1 0x40 DUP4 KECCAK256 DUP1 SLOAD PUSH1 0xFF NOT AND SWAP1 SSTORE DUP3 JUMPDEST PUSH1 0xC DUP1 SLOAD DUP1 DUP4 LT ISZERO PUSH3 0x14D0 JUMPI SWAP1 DUP5 SWAP2 DUP5 PUSH3 0x13E2 DUP6 PUSH3 0x298D JUMP JUMPDEST SWAP5 SWAP1 SLOAD PUSH1 0x3 SWAP6 DUP7 SHL SHR AND EQ PUSH3 0x1406 JUMPI POP POP POP PUSH3 0x1400 SWAP1 PUSH3 0x29F4 JUMP JUMPDEST PUSH3 0x13C6 JUMP JUMPDEST SWAP4 SWAP5 SWAP2 SWAP4 SWAP1 SWAP3 PUSH1 0x0 NOT SWAP2 DUP3 DUP2 ADD SWAP1 DUP2 GT PUSH3 0x14BC JUMPI SWAP1 PUSH3 0x143E DUP5 PUSH3 0x1430 PUSH3 0x145E SWAP5 PUSH3 0x298D JUMP JUMPDEST SWAP1 SLOAD SWAP1 DUP10 SHL SHR AND SWAP2 PUSH3 0x298D JUMP JUMPDEST SWAP1 SWAP2 SWAP1 DUP3 SLOAD SWAP1 PUSH1 0x3 SHL SWAP2 PUSH1 0x1 PUSH1 0x1 PUSH1 0xA0 SHL SUB DUP1 SWAP2 AND DUP4 SHL SWAP3 SHL NOT AND OR SWAP1 SSTORE JUMP JUMPDEST DUP3 SLOAD DUP1 ISZERO PUSH3 0x14A8 JUMPI ADD SWAP3 PUSH3 0x1474 DUP5 PUSH3 0x298D JUMP JUMPDEST DUP2 SWAP4 SWAP2 SLOAD SWAP3 SHL SHL NOT AND SWAP1 SSTORE SSTORE JUMPDEST PUSH32 0x1CEF54CA6E1745AD87FA3077491D9FC42257E9F1A2D7CAD58A4E52BD14DFC626 DUP3 DUP1 LOG2 DUP1 RETURN JUMPDEST PUSH1 0x24 DUP8 PUSH4 0x4E487B71 PUSH1 0xE0 SHL DUP2 MSTORE PUSH1 0x31 PUSH1 0x4 MSTORE REVERT JUMPDEST PUSH1 0x24 DUP9 PUSH4 0x4E487B71 PUSH1 0xE0 SHL DUP2 MSTORE PUSH1 0x11 PUSH1 0x4 MSTORE REVERT JUMPDEST POP POP POP SWAP1 POP PUSH3 0x1481 JUMP JUMPDEST POP CALLVALUE PUSH3 0x232 JUMPI PUSH1 0x20 CALLDATASIZE PUSH1 0x3 NOT ADD SLT PUSH3 0x232 JUMPI PUSH3 0x14F9 PUSH3 0x28E3 JUMP JUMPDEST PUSH1 0x4 SLOAD SWAP1 PUSH1 0x1 PUSH1 0x1 PUSH1 0xA0 SHL SUB SWAP1 PUSH3 0x1515 DUP3 DUP5 AND CALLER EQ PUSH3 0x2DD8 JUMP JUMPDEST AND SWAP1 DUP2 ISZERO PUSH3 0x730 JUMPI PUSH1 0x1 PUSH1 0x1 PUSH1 0xA0 SHL SUB NOT AND DUP2 OR PUSH1 0x4 SSTORE PUSH32 0x54E4612788F90384E6843298D7854436F3A585B2C3831AB66ABF1DE63BFA6C2D DUP3 DUP1 LOG2 DUP1 RETURN JUMPDEST POP CALLVALUE PUSH3 0x232 JUMPI PUSH1 0x20 CALLDATASIZE PUSH1 0x3 NOT ADD SLT PUSH3 0x232 JUMPI PUSH3 0x1572 PUSH3 0x28E3 JUMP JUMPDEST PUSH1 0x1 PUSH1 0x1 PUSH1 0xA0 SHL SUB PUSH3 0x158B DUP2 PUSH1 0x4 SLOAD AND CALLER EQ PUSH3 0x2DD8 JUMP JUMPDEST DUP2 AND SWAP1 DUP2 ISZERO PUSH3 0x730 JUMPI DUP2 DUP4 MSTORE PUSH1 0x9 PUSH1 0x20 MSTORE PUSH1 0xFF PUSH1 0x40 DUP5 KECCAK256 SLOAD AND PUSH3 0x1674 JUMPI DUP1 EXTCODESIZE ISZERO PUSH3 0x1630 JUMPI DUP2 DUP4 MSTORE PUSH1 0x9 PUSH1 0x20 MSTORE PUSH1 0x40 DUP4 KECCAK256 DUP1 SLOAD PUSH1 0xFF NOT AND PUSH1 0x1 OR SWAP1 SSTORE PUSH1 0xC SLOAD PUSH9 0x10000000000000000 DUP2 LT ISZERO PUSH3 0x161C JUMPI SWAP1 PUSH3 0x143E DUP3 PUSH1 0x1 PUSH3 0x15F5 SWAP5 ADD PUSH1 0xC SSTORE PUSH3 0x298D JUMP JUMPDEST PUSH32 0xEA3145306A87BAEBA6BB1A8B5C8D3744F840A81CB436B3509F64FC978600CDFB DUP3 DUP1 LOG2 DUP1 RETURN JUMPDEST PUSH1 0x24 DUP5 PUSH4 0x4E487B71 PUSH1 0xE0 SHL DUP2 MSTORE PUSH1 0x41 PUSH1 0x4 MSTORE REVERT JUMPDEST PUSH1 0x64 PUSH1 0x40 MLOAD PUSH3 0x461BCD PUSH1 0xE5 SHL DUP2 MSTORE PUSH1 0x20 PUSH1 0x4 DUP3 ADD MSTORE PUSH1 0x19 PUSH1 0x24 DUP3 ADD MSTORE PUSH32 0x41646472657373206973206E6F74206120636F6E747261637400000000000000 PUSH1 0x44 DUP3 ADD MSTORE REVERT JUMPDEST PUSH1 0x4 PUSH1 0x40 MLOAD PUSH32 0xC78E82AD00000000000000000000000000000000000000000000000000000000 DUP2 MSTORE REVERT JUMPDEST POP CALLVALUE PUSH3 0x232 JUMPI DUP1 PUSH1 0x3 NOT CALLDATASIZE ADD SLT PUSH3 0x232 JUMPI PUSH1 0x20 PUSH1 0x5 SLOAD PUSH1 0x40 MLOAD SWAP1 DUP2 MSTORE RETURN JUMPDEST POP CALLVALUE PUSH3 0x232 JUMPI PUSH1 0x20 CALLDATASIZE PUSH1 0x3 NOT ADD SLT PUSH3 0x232 JUMPI PUSH1 0xFF PUSH1 0x40 PUSH1 0x20 SWAP3 PUSH1 0x1 PUSH1 0x1 PUSH1 0xA0 SHL SUB PUSH3 0x16EB PUSH3 0x28E3 JUMP JUMPDEST AND DUP2 MSTORE PUSH1 0xB DUP5 MSTORE KECCAK256 SLOAD AND PUSH1 0x40 MLOAD SWAP1 ISZERO ISZERO DUP2 MSTORE RETURN JUMPDEST POP CALLVALUE PUSH3 0x232 JUMPI PUSH1 0x20 DUP1 PUSH1 0x3 NOT CALLDATASIZE ADD SLT PUSH3 0x949 JUMPI PUSH1 0x1 PUSH1 0x1 PUSH1 0xA0 SHL SUB PUSH3 0x1726 PUSH3 0x28E3 JUMP JUMPDEST AND DUP3 MSTORE PUSH1 0x7 DUP2 MSTORE PUSH1 0x40 DUP3 KECCAK256 PUSH1 0x40 MLOAD SWAP3 DUP4 DUP4 DUP4 SLOAD SWAP2 DUP3 DUP2 MSTORE ADD SWAP1 DUP2 SWAP4 DUP4 MSTORE DUP5 DUP4 KECCAK256 SWAP1 DUP4 JUMPDEST DUP2 DUP2 LT PUSH3 0x17A2 JUMPI POP POP POP DUP5 PUSH3 0x1762 SWAP2 SUB DUP6 PUSH3 0x27A6 JUMP JUMPDEST PUSH1 0x40 MLOAD SWAP4 DUP4 DUP6 SWAP5 DUP6 ADD SWAP2 DUP2 DUP7 MSTORE MLOAD DUP1 SWAP3 MSTORE PUSH1 0x40 DUP6 ADD SWAP4 SWAP3 JUMPDEST DUP3 DUP2 LT PUSH3 0x178A JUMPI POP POP POP POP SUB SWAP1 RETURN JUMPDEST DUP4 MLOAD DUP6 MSTORE DUP7 SWAP6 POP SWAP4 DUP2 ADD SWAP4 SWAP3 DUP2 ADD SWAP3 PUSH1 0x1 ADD PUSH3 0x177A JUMP JUMPDEST DUP3 SLOAD DUP5 MSTORE SWAP3 DUP7 ADD SWAP3 PUSH1 0x1 SWAP3 DUP4 ADD SWAP3 ADD PUSH3 0x1749 JUMP JUMPDEST POP PUSH3 0x17C3 CALLDATASIZE PUSH3 0x2917 JUMP JUMPDEST SWAP1 PUSH3 0x17CE PUSH3 0x2BF3 JUMP JUMPDEST DUP1 DUP4 MSTORE PUSH1 0x20 SWAP1 PUSH1 0x6 DUP3 MSTORE PUSH1 0x40 DUP5 KECCAK256 SWAP3 PUSH1 0x1 SWAP4 DUP5 DUP2 ADD DUP1 SLOAD SWAP1 PUSH1 0xFF DUP3 PUSH1 0xA0 SHR AND PUSH1 0x6 DUP2 LT ISZERO PUSH3 0x1A1A JUMPI DUP8 SUB PUSH3 0x464 JUMPI PUSH1 0x1 PUSH1 0x1 PUSH1 0xA0 SHL SUB SWAP2 DUP3 DUP5 SLOAD AND CALLER EQ ISZERO DUP1 PUSH3 0x1A0D JUMPI JUMPDEST PUSH3 0x43A JUMPI PUSH1 0x2 SLOAD CALLVALUE LT PUSH3 0xCDB JUMPI PUSH1 0xFF PUSH1 0xA0 SHL NOT PUSH21 0x40000000000000000000000000000000000000000 SWAP2 AND OR SWAP1 SSTORE PUSH1 0x9 DUP3 ADD SWAP1 PUSH1 0x1 PUSH1 0x1 PUSH1 0xA0 SHL SUB NOT SWAP2 CALLER DUP4 DUP3 SLOAD AND OR SWAP1 SSTORE PUSH1 0xA DUP4 ADD DUP5 MLOAD PUSH8 0xFFFFFFFFFFFFFFFF DUP2 GT PUSH3 0x19F9 JUMPI PUSH3 0x188A DUP2 PUSH3 0x1883 DUP5 SLOAD PUSH3 0x2720 JUMP JUMPDEST DUP5 PUSH3 0x2A04 JUMP JUMPDEST DUP1 DUP9 PUSH1 0x1F DUP3 GT PUSH1 0x1 EQ PUSH3 0x1997 JUMPI DUP12 SWAP2 PUSH3 0x198B JUMPI JUMPDEST POP PUSH1 0x0 NOT PUSH1 0x3 DUP4 SWAP1 SHL SHR NOT AND SWAP1 DUP10 SHL OR SWAP1 SSTORE JUMPDEST PUSH3 0x93A80 TIMESTAMP ADD DUP1 TIMESTAMP GT PUSH3 0x1975 JUMPI TIMESTAMP DUP2 LT PUSH3 0x1931 JUMPI SWAP2 DUP4 SWAP2 PUSH32 0x1B84372106D77C6DAEA0DDA35BBC0229D10A83F58EC899092884925193682341 SWAP6 SWAP4 PUSH1 0x3 PUSH3 0x1929 SWAP7 ADD SSTORE CALLVALUE PUSH1 0x8 DUP5 ADD SSTORE PUSH1 0x4 PUSH3 0x190A PUSH3 0x2E90 JUMP JUMPDEST SWAP4 ADD SWAP3 AND SWAP1 DUP3 SLOAD AND OR SWAP1 SSTORE PUSH1 0x40 MLOAD SWAP2 DUP3 SWAP2 DUP7 DUP4 MSTORE CALLER SWAP7 DUP4 ADD SWAP1 PUSH3 0x28BC JUMP JUMPDEST SUB SWAP1 LOG3 DUP2 SSTORE DUP1 RETURN JUMPDEST PUSH1 0x64 DUP8 PUSH1 0x40 MLOAD SWAP1 PUSH3 0x461BCD PUSH1 0xE5 SHL DUP3 MSTORE PUSH1 0x4 DUP3 ADD MSTORE PUSH1 0x1B PUSH1 0x24 DUP3 ADD MSTORE PUSH32 0x536166654D6174683A206164646974696F6E206F766572666C6F770000000000 PUSH1 0x44 DUP3 ADD MSTORE REVERT JUMPDEST PUSH4 0x4E487B71 PUSH1 0xE0 SHL PUSH1 0x0 MSTORE PUSH1 0x11 PUSH1 0x4 MSTORE PUSH1 0x24 PUSH1 0x0 REVERT JUMPDEST SWAP1 POP DUP7 ADD MLOAD CODESIZE PUSH3 0x18A0 JUMP JUMPDEST DUP4 DUP13 MSTORE DUP10 DUP13 KECCAK256 DUP12 SWAP4 POP SWAP1 PUSH1 0x1F NOT DUP4 AND DUP14 JUMPDEST DUP13 DUP3 DUP3 LT PUSH3 0x19E2 JUMPI POP POP DUP4 GT PUSH3 0x19C8 JUMPI JUMPDEST POP POP DUP2 SHL ADD SWAP1 SSTORE PUSH3 0x18B3 JUMP JUMPDEST DUP9 ADD MLOAD PUSH1 0x0 NOT PUSH1 0xF8 DUP5 PUSH1 0x3 SHL AND SHR NOT AND SWAP1 SSTORE CODESIZE DUP1 PUSH3 0x19BB JUMP JUMPDEST DUP4 DUP13 ADD MLOAD DUP6 SSTORE DUP15 SWAP7 SWAP1 SWAP5 ADD SWAP4 SWAP3 DUP4 ADD SWAP3 ADD PUSH3 0x19A8 JUMP JUMPDEST PUSH1 0x24 DUP11 PUSH4 0x4E487B71 PUSH1 0xE0 SHL DUP2 MSTORE PUSH1 0x41 PUSH1 0x4 MSTORE REVERT JUMPDEST POP DUP3 DUP2 AND CALLER EQ ISZERO PUSH3 0x1815 JUMP JUMPDEST PUSH1 0x24 DUP10 PUSH4 0x4E487B71 PUSH1 0xE0 SHL DUP2 MSTORE PUSH1 0x21 PUSH1 0x4 MSTORE REVERT JUMPDEST POP CALLVALUE PUSH3 0x232 JUMPI PUSH1 0x20 CALLDATASIZE PUSH1 0x3 NOT ADD SLT PUSH3 0x232 JUMPI PUSH1 0xFF PUSH1 0x40 PUSH1 0x20 SWAP3 PUSH1 0x1 PUSH1 0x1 PUSH1 0xA0 SHL SUB PUSH3 0x1A5B PUSH3 0x28E3 JUMP JUMPDEST AND DUP2 MSTORE PUSH1 0x8 DUP5 MSTORE KECCAK256 SLOAD AND PUSH1 0x40 MLOAD SWAP1 ISZERO ISZERO DUP2 MSTORE RETURN JUMPDEST POP CALLVALUE PUSH3 0x232 JUMPI PUSH1 0x20 CALLDATASIZE PUSH1 0x3 NOT ADD SLT PUSH3 0x232 JUMPI PUSH1 0x4 CALLDATALOAD PUSH3 0x1A90 PUSH3 0x2BF3 JUMP JUMPDEST DUP1 DUP3 MSTORE PUSH1 0x6 PUSH1 0x20 MSTORE PUSH1 0x40 DUP3 KECCAK256 SWAP1 PUSH1 0x1 DUP3 ADD DUP1 SLOAD SWAP1 PUSH1 0xFF DUP3 PUSH1 0xA0 SHR AND PUSH1 0x6 DUP2 LT ISZERO PUSH3 0x6A3 JUMPI PUSH1 0x1 SUB PUSH3 0x464 JUMPI PUSH1 0x1 PUSH1 0x1 PUSH1 0xA0 SHL SUB SWAP2 DUP3 DUP6 SLOAD AND CALLER SUB PUSH3 0x43A JUMPI PUSH1 0x6 DUP6 ADD SLOAD SWAP1 PUSH3 0x1AF5 PUSH2 0x2710 PUSH3 0x1AEC PUSH1 0x1 SLOAD DUP6 PUSH3 0x2F0D JUMP JUMPDEST DIV DUP1 SWAP4 PUSH3 0x2D24 JUMP JUMPDEST SWAP6 PUSH1 0xFF PUSH1 0x4 DUP3 ADD SLOAD PUSH1 0xA0 SHR AND PUSH1 0x3 DUP2 LT ISZERO PUSH3 0x1A1A JUMPI DUP9 SWAP4 SWAP3 SWAP2 DUP9 SWAP2 PUSH3 0x1BC6 JUMPI POP DUP4 DUP1 DUP1 SWAP4 POP DUP1 SWAP3 DUP9 DUP9 SLOAD AND DUP3 DUP3 ISZERO PUSH3 0x1BBC JUMPI JUMPDEST CALL ISZERO PUSH3 0x1BAF JUMPI DUP2 DUP1 DUP1 SWAP3 DUP7 PUSH1 0x3 SLOAD AND DUP3 DUP3 ISZERO PUSH3 0x1BA5 JUMPI JUMPDEST CALL ISZERO PUSH3 0x3CC JUMPI PUSH32 0x6E3C6096795C8298A218B2CFB8BDE42726FF7C9A3D27B4D3BA41AB7F74FEB5FB SWAP2 PUSH1 0x20 SWAP2 JUMPDEST DUP1 SLOAD SWAP1 PUSH21 0x20000000000000000000000000000000000000000 PUSH1 0xFF PUSH1 0xA0 SHL NOT DUP4 AND OR SWAP1 SSTORE PUSH1 0x40 MLOAD SWAP6 DUP7 MSTORE AND SWAP4 LOG3 PUSH1 0x1 DUP2 SSTORE DUP1 RETURN JUMPDEST POP PUSH2 0x8FC PUSH3 0x1B44 JUMP JUMPDEST POP PUSH1 0x40 MLOAD SWAP1 RETURNDATASIZE SWAP1 DUP3 RETURNDATACOPY RETURNDATASIZE SWAP1 REVERT JUMPDEST POP PUSH2 0x8FC PUSH3 0x1B2B JUMP JUMPDEST DUP7 SWAP5 POP SWAP6 PUSH3 0x1C1A SWAP3 PUSH3 0x1C0C PUSH1 0x20 SWAP8 SWAP6 SWAP4 PUSH1 0x5 PUSH32 0x6E3C6096795C8298A218B2CFB8BDE42726FF7C9A3D27B4D3BA41AB7F74FEB5FB SWAP11 ADD SWAP3 DUP5 DUP1 DUP6 SLOAD AND SWAP2 AND SWAP1 PUSH3 0x2C2F JUMP JUMPDEST SLOAD AND DUP5 PUSH1 0x3 SLOAD AND SWAP1 PUSH3 0x2C2F JUMP JUMPDEST PUSH3 0x1B71 JUMP JUMPDEST POP CALLVALUE PUSH3 0x232 JUMPI PUSH1 0x40 CALLDATASIZE PUSH1 0x3 NOT ADD SLT PUSH3 0x232 JUMPI PUSH3 0x1C3E PUSH3 0x28E3 JUMP JUMPDEST PUSH1 0x24 CALLDATALOAD PUSH3 0x1C4B PUSH3 0x2BF3 JUMP JUMPDEST PUSH1 0x1 PUSH1 0x1 PUSH1 0xA0 SHL SUB DUP1 SWAP3 AND SWAP1 DUP2 DUP5 MSTORE PUSH1 0x20 SWAP3 PUSH1 0x9 DUP5 MSTORE PUSH1 0xFF PUSH1 0x40 DUP7 KECCAK256 SLOAD AND ISZERO PUSH3 0x12C9 JUMPI DUP3 ISZERO PUSH3 0x1FC4 JUMPI DUP2 ISZERO PUSH3 0x1F9A JUMPI PUSH3 0x1C8B DUP3 ADDRESS CALLER DUP7 PUSH3 0x2AE9 JUMP JUMPDEST DUP3 DUP6 MSTORE PUSH1 0xA DUP5 MSTORE DUP1 PUSH1 0x40 DUP7 KECCAK256 SLOAD AND DUP1 ISZERO DUP1 PUSH3 0x1D4D JUMPI JUMPDEST POP AND SWAP3 DUP4 EXTCODESIZE ISZERO PUSH3 0x1357 JUMPI PUSH1 0x40 MLOAD PUSH32 0x40C10F1900000000000000000000000000000000000000000000000000000000 DUP2 MSTORE CALLER PUSH1 0x4 DUP3 ADD MSTORE PUSH1 0x24 DUP2 ADD DUP4 SWAP1 MSTORE DUP6 SWAP1 DUP2 DUP2 PUSH1 0x44 DUP2 DUP4 DUP11 GAS CALL DUP1 ISZERO PUSH3 0x1D42 JUMPI PUSH3 0x1D2A JUMPI JUMPDEST POP POP PUSH32 0x17720549A07DF2925D11553C26F0EDA499CD93392A9E4703E1D3F9452F5B284D SWAP2 PUSH1 0x40 MLOAD SWAP1 DUP2 MSTORE LOG3 PUSH1 0x1 DUP2 SSTORE DUP1 RETURN JUMPDEST PUSH3 0x1D35 SWAP1 PUSH3 0x275D JUMP JUMPDEST PUSH3 0x1357 JUMPI DUP5 CODESIZE PUSH3 0x1CF8 JUMP JUMPDEST PUSH1 0x40 MLOAD RETURNDATASIZE DUP5 DUP3 RETURNDATACOPY RETURNDATASIZE SWAP1 REVERT JUMPDEST SWAP1 POP ISZERO PUSH3 0x1F70 JUMPI PUSH1 0x40 MLOAD PUSH32 0x6FDDE0300000000000000000000000000000000000000000000000000000000 DUP2 MSTORE DUP6 DUP2 PUSH1 0x4 DUP2 DUP8 GAS STATICCALL SWAP1 DUP2 ISZERO PUSH3 0x1F65 JUMPI DUP7 SWAP2 PUSH3 0x1F47 JUMPI JUMPDEST POP PUSH3 0x1DE9 PUSH1 0x28 PUSH1 0x40 MLOAD DUP1 SWAP4 PUSH32 0x5772617070656420000000000000000000000000000000000000000000000000 DUP10 DUP4 ADD MSTORE PUSH3 0x1DD8 DUP2 MLOAD DUP1 SWAP3 DUP12 DUP7 DUP7 ADD SWAP2 ADD PUSH3 0x2897 JUMP JUMPDEST DUP2 ADD SUB PUSH1 0x8 DUP2 ADD DUP5 MSTORE ADD DUP3 PUSH3 0x27A6 JUMP JUMPDEST PUSH1 0x40 MLOAD SWAP1 PUSH32 0x95D89B4100000000000000000000000000000000000000000000000000000000 DUP3 MSTORE DUP7 DUP3 PUSH1 0x4 DUP2 DUP9 GAS STATICCALL SWAP2 DUP3 ISZERO PUSH3 0x914 JUMPI DUP8 SWAP3 PUSH3 0x1F1E JUMPI JUMPDEST POP PUSH3 0x1E7E PUSH1 0x21 PUSH1 0x40 MLOAD DUP1 SWAP5 PUSH32 0x5700000000000000000000000000000000000000000000000000000000000000 DUP11 DUP4 ADD MSTORE PUSH3 0x1E6D DUP2 MLOAD DUP1 SWAP3 DUP13 DUP7 DUP7 ADD SWAP2 ADD PUSH3 0x2897 JUMP JUMPDEST DUP2 ADD SUB PUSH1 0x1 DUP2 ADD DUP6 MSTORE ADD DUP4 PUSH3 0x27A6 JUMP JUMPDEST PUSH1 0x40 MLOAD SWAP2 PUSH2 0xDAB SWAP2 DUP3 DUP5 ADD SWAP3 DUP5 DUP5 LT PUSH8 0xFFFFFFFFFFFFFFFF DUP6 GT OR PUSH3 0x19F9 JUMPI SWAP2 PUSH3 0x1EC0 DUP6 SWAP5 SWAP3 PUSH3 0x1ECE SWAP5 PUSH3 0x2F9E DUP8 CODECOPY PUSH1 0x40 DUP5 MSTORE PUSH1 0x40 DUP5 ADD SWAP1 PUSH3 0x28BC JUMP JUMPDEST SWAP2 DUP10 DUP2 DUP5 SUB SWAP2 ADD MSTORE PUSH3 0x28BC JUMP JUMPDEST SUB SWAP1 DUP7 CREATE DUP1 ISZERO PUSH3 0x1F13 JUMPI DUP2 AND DUP4 DUP7 MSTORE PUSH1 0xA DUP6 MSTORE PUSH1 0x40 DUP7 KECCAK256 DUP2 PUSH1 0x1 PUSH1 0x1 PUSH1 0xA0 SHL SUB NOT DUP3 SLOAD AND OR SWAP1 SSTORE DUP1 DUP7 MSTORE PUSH1 0xB DUP6 MSTORE PUSH1 0x40 DUP7 KECCAK256 PUSH1 0x1 PUSH1 0xFF NOT DUP3 SLOAD AND OR SWAP1 SSTORE CODESIZE PUSH3 0x1CA2 JUMP JUMPDEST PUSH1 0x40 MLOAD RETURNDATASIZE DUP8 DUP3 RETURNDATACOPY RETURNDATASIZE SWAP1 REVERT JUMPDEST PUSH3 0x1F3F SWAP2 SWAP3 POP RETURNDATASIZE DUP1 DUP10 DUP4 RETURNDATACOPY PUSH3 0x1F36 DUP2 DUP4 PUSH3 0x27A6 JUMP JUMPDEST DUP2 ADD SWAP1 PUSH3 0x2E24 JUMP JUMPDEST SWAP1 CODESIZE PUSH3 0x1E28 JUMP JUMPDEST PUSH3 0x1F5E SWAP2 POP RETURNDATASIZE DUP1 DUP9 DUP4 RETURNDATACOPY PUSH3 0x1F36 DUP2 DUP4 PUSH3 0x27A6 JUMP JUMPDEST CODESIZE PUSH3 0x1D93 JUMP JUMPDEST PUSH1 0x40 MLOAD RETURNDATASIZE DUP9 DUP3 RETURNDATACOPY RETURNDATASIZE SWAP1 REVERT JUMPDEST PUSH1 0x4 PUSH1 0x40 MLOAD PUSH32 0x55D5F14E00000000000000000000000000000000000000000000000000000000 DUP2 MSTORE REVERT JUMPDEST PUSH1 0x4 PUSH1 0x40 MLOAD PUSH32 0x2160733900000000000000000000000000000000000000000000000000000000 DUP2 MSTORE REVERT JUMPDEST PUSH1 0x4 PUSH1 0x40 MLOAD PUSH32 0xC59643400000000000000000000000000000000000000000000000000000000 DUP2 MSTORE REVERT JUMPDEST POP CALLVALUE PUSH3 0x232 JUMPI PUSH1 0x60 CALLDATASIZE PUSH1 0x3 NOT ADD SLT PUSH3 0x232 JUMPI PUSH1 0x24 CALLDATALOAD PUSH1 0x4 CALLDATALOAD PUSH1 0x44 CALLDATALOAD PUSH3 0x2015 PUSH3 0x2BF3 JUMP JUMPDEST DUP2 DUP5 MSTORE PUSH1 0x6 PUSH1 0x20 MSTORE PUSH1 0x40 DUP5 KECCAK256 PUSH1 0x1 DUP2 ADD SWAP1 PUSH1 0xFF DUP3 SLOAD PUSH1 0xA0 SHR AND PUSH1 0x6 DUP2 LT ISZERO PUSH3 0x426 JUMPI PUSH1 0x4 SUB PUSH3 0x22CF JUMPI PUSH1 0x3 DUP2 ADD SLOAD TIMESTAMP GT PUSH3 0x22A5 JUMPI PUSH1 0x4 DUP2 ADD SLOAD PUSH1 0x1 PUSH1 0x1 PUSH1 0xA0 SHL SUB DUP1 DUP3 AND CALLER EQ ISZERO DUP1 PUSH3 0x2296 JUMPI JUMPDEST PUSH3 0x43A JUMPI PUSH1 0x6 DUP4 ADD SLOAD SWAP2 PUSH3 0x208F PUSH2 0x2710 PUSH3 0x2086 PUSH1 0x1 SLOAD DUP7 PUSH3 0x2F0D JUMP JUMPDEST DIV DUP1 SWAP5 PUSH3 0x2D24 JUMP JUMPDEST PUSH3 0x209B DUP8 DUP11 PUSH3 0x2D7E JUMP JUMPDEST GT PUSH3 0x226C JUMPI PUSH1 0xA0 SHR PUSH1 0xFF AND PUSH1 0x3 DUP2 LT ISZERO PUSH3 0x1A1A JUMPI DUP9 SWAP4 SWAP3 DUP5 SWAP3 SWAP1 SWAP2 PUSH3 0x21DA JUMPI DUP9 DUP1 ISZERO DUP1 ISZERO PUSH3 0x21AA JUMPI JUMPDEST POP POP DUP7 DUP1 ISZERO DUP1 ISZERO PUSH3 0x216F JUMPI JUMPDEST POP POP SWAP3 PUSH3 0x20F1 DUP4 SWAP5 SWAP3 PUSH1 0x8 DUP6 SWAP5 PUSH1 0x3 SLOAD AND SWAP4 ADD SLOAD SWAP1 PUSH3 0x2D7E JUMP JUMPDEST SWAP1 DUP3 DUP3 ISZERO PUSH3 0x2165 JUMPI JUMPDEST CALL ISZERO PUSH3 0x3CC JUMPI JUMPDEST PUSH21 0x50000000000000000000000000000000000000000 PUSH1 0xFF PUSH1 0xA0 SHL NOT DUP3 SLOAD AND OR SWAP1 SSTORE PUSH1 0x40 MLOAD SWAP3 DUP1 ISZERO ISZERO DUP5 MSTORE PUSH1 0x20 DUP5 ADD MSTORE PUSH1 0x40 DUP4 ADD MSTORE PUSH32 0x3ACCDF79205B59D18E690F066707CAF6D0EE4D4F59DED4FA88FDEC5DDE4ACCD9 PUSH1 0x60 CALLER SWAP4 LOG3 PUSH1 0x1 DUP2 SSTORE DUP1 RETURN JUMPDEST POP PUSH2 0x8FC PUSH3 0x20FB JUMP JUMPDEST SWAP4 DUP1 DUP1 SWAP4 SWAP6 SWAP3 DUP2 SWAP4 DUP8 DUP12 SLOAD AND SWAP1 DUP4 SWAP1 PUSH3 0x21A0 JUMPI JUMPDEST CALL ISZERO PUSH3 0x2195 JUMPI DUP4 SWAP2 DUP7 CODESIZE PUSH3 0x20D5 JUMP JUMPDEST PUSH1 0x40 MLOAD RETURNDATASIZE DUP6 DUP3 RETURNDATACOPY RETURNDATASIZE SWAP1 REVERT JUMPDEST POP PUSH2 0x8FC PUSH3 0x2184 JUMP JUMPDEST SWAP4 DUP1 DUP1 SWAP4 SWAP6 SWAP3 DUP2 SWAP4 DUP8 DUP10 SLOAD AND SWAP1 DUP4 SWAP1 PUSH3 0x21D0 JUMPI JUMPDEST CALL ISZERO PUSH3 0x2195 JUMPI DUP4 SWAP2 DUP9 CODESIZE PUSH3 0x20C8 JUMP JUMPDEST POP PUSH2 0x8FC PUSH3 0x21BF JUMP JUMPDEST SWAP3 PUSH1 0x8 DUP4 SWAP5 PUSH3 0x2206 DUP6 SWAP5 DUP13 PUSH3 0x224F JUMPI JUMPDEST DUP11 PUSH3 0x2232 JUMPI JUMPDEST DUP3 PUSH1 0x5 DUP7 ADD SLOAD AND DUP4 PUSH1 0x3 SLOAD AND SWAP1 PUSH3 0x2C2F JUMP JUMPDEST PUSH1 0x3 SLOAD AND SWAP2 ADD SLOAD SWAP1 DUP3 DUP3 ISZERO PUSH3 0x2228 JUMPI JUMPDEST CALL PUSH3 0x2103 JUMPI PUSH1 0x40 MLOAD RETURNDATASIZE DUP7 DUP3 RETURNDATACOPY RETURNDATASIZE SWAP1 REVERT JUMPDEST POP PUSH2 0x8FC PUSH3 0x2217 JUMP JUMPDEST PUSH3 0x2249 DUP12 DUP5 PUSH1 0x5 DUP9 ADD SLOAD AND DUP6 DUP14 SLOAD AND SWAP1 PUSH3 0x2C2F JUMP JUMPDEST PUSH3 0x21F3 JUMP JUMPDEST PUSH3 0x2266 DUP14 DUP5 PUSH1 0x5 DUP9 ADD SLOAD AND DUP6 DUP9 SLOAD AND SWAP1 PUSH3 0x2C2F JUMP JUMPDEST PUSH3 0x21EC JUMP JUMPDEST PUSH1 0x4 PUSH1 0x40 MLOAD PUSH32 0xB1741F7E00000000000000000000000000000000000000000000000000000000 DUP2 MSTORE REVERT JUMPDEST POP DUP1 PUSH1 0x4 SLOAD AND CALLER EQ ISZERO PUSH3 0x2066 JUMP JUMPDEST PUSH1 0x4 PUSH1 0x40 MLOAD PUSH32 0xC28E3A9800000000000000000000000000000000000000000000000000000000 DUP2 MSTORE REVERT JUMPDEST PUSH1 0x4 PUSH1 0x40 MLOAD PUSH32 0xC3B8110900000000000000000000000000000000000000000000000000000000 DUP2 MSTORE REVERT JUMPDEST POP CALLVALUE PUSH3 0x232 JUMPI DUP1 PUSH1 0x3 NOT CALLDATASIZE ADD SLT PUSH3 0x232 JUMPI PUSH1 0x20 PUSH1 0x40 MLOAD PUSH2 0x1F4 DUP2 MSTORE RETURN JUMPDEST POP CALLVALUE PUSH3 0x232 JUMPI PUSH1 0x40 CALLDATASIZE PUSH1 0x3 NOT ADD SLT PUSH3 0x232 JUMPI PUSH3 0x2336 PUSH3 0x28E3 JUMP JUMPDEST PUSH1 0x24 CALLDATALOAD SWAP1 PUSH3 0x2344 PUSH3 0x2BF3 JUMP JUMPDEST PUSH1 0x1 PUSH1 0x1 PUSH1 0xA0 SHL SUB DUP1 SWAP2 AND SWAP1 DUP2 DUP5 MSTORE PUSH1 0x20 SWAP1 PUSH1 0xB DUP3 MSTORE PUSH1 0xFF PUSH1 0x40 DUP7 KECCAK256 SLOAD AND ISZERO PUSH3 0x12C9 JUMPI DUP4 ISZERO PUSH3 0x1F9A JUMPI DUP5 DUP6 PUSH1 0xC SLOAD SWAP1 JUMPDEST DUP2 DUP2 LT PUSH3 0x2452 JUMPI JUMPDEST POP POP AND SWAP3 DUP4 ISZERO PUSH3 0x91F JUMPI DUP3 EXTCODESIZE ISZERO PUSH3 0x1357 JUMPI PUSH1 0x40 MLOAD PUSH32 0x9DC29FAC00000000000000000000000000000000000000000000000000000000 DUP2 MSTORE CALLER PUSH1 0x4 DUP3 ADD MSTORE PUSH1 0x24 DUP2 ADD DUP3 SWAP1 MSTORE DUP6 DUP2 PUSH1 0x44 DUP2 DUP4 DUP9 GAS CALL DUP1 ISZERO PUSH3 0x1F65 JUMPI PUSH3 0x241A JUMPI JUMPDEST POP SWAP1 DUP2 PUSH3 0x240C PUSH32 0x39E0DA7A9816169273E66407B22DBA76E40E515E1E683C013BDFEA308EF72ADD SWAP4 CALLER DUP8 PUSH3 0x2C2F JUMP JUMPDEST PUSH1 0x40 MLOAD SWAP1 DUP2 MSTORE LOG3 PUSH1 0x1 DUP2 SSTORE DUP1 RETURN JUMPDEST SWAP5 PUSH3 0x2449 PUSH32 0x39E0DA7A9816169273E66407B22DBA76E40E515E1E683C013BDFEA308EF72ADD SWAP4 SWAP3 SWAP7 PUSH3 0x275D JUMP JUMPDEST SWAP5 SWAP1 SWAP2 PUSH3 0x23DB JUMP JUMPDEST DUP4 DUP1 PUSH3 0x245F DUP4 PUSH3 0x298D JUMP JUMPDEST SWAP2 SWAP1 SLOAD PUSH1 0x3 SWAP3 DUP4 SHL SHR AND DUP11 MSTORE PUSH1 0xA DUP8 MSTORE DUP8 DUP3 PUSH1 0x40 DUP13 KECCAK256 SLOAD AND EQ PUSH3 0x2490 JUMPI POP POP PUSH3 0x248A SWAP1 PUSH3 0x29F4 JUMP JUMPDEST PUSH3 0x2376 JUMP JUMPDEST SWAP3 POP SWAP3 POP PUSH3 0x249F SWAP1 PUSH3 0x298D JUMP JUMPDEST SWAP1 SLOAD SWAP2 SHL SHR AND CODESIZE DUP1 PUSH3 0x237F JUMP JUMPDEST POP CALLVALUE PUSH3 0x232 JUMPI DUP1 PUSH1 0x3 NOT CALLDATASIZE ADD SLT PUSH3 0x232 JUMPI PUSH1 0x20 PUSH1 0x40 MLOAD PUSH7 0x2386F26FC10000 DUP2 MSTORE RETURN JUMPDEST POP CALLVALUE PUSH3 0x232 JUMPI DUP1 PUSH1 0x3 NOT CALLDATASIZE ADD SLT PUSH3 0x232 JUMPI PUSH1 0x20 PUSH1 0x40 MLOAD PUSH3 0x93A80 DUP2 MSTORE RETURN JUMPDEST POP CALLVALUE PUSH3 0x232 JUMPI PUSH1 0x20 CALLDATASIZE PUSH1 0x3 NOT ADD SLT PUSH3 0x232 JUMPI DUP1 DUP1 DUP1 DUP1 PUSH1 0x4 CALLDATALOAD PUSH1 0x1 PUSH1 0x1 PUSH1 0xA0 SHL SUB PUSH3 0x2525 DUP2 PUSH1 0x4 SLOAD AND CALLER EQ PUSH3 0x2DD8 JUMP JUMPDEST PUSH1 0x3 SLOAD AND DUP3 DUP3 ISZERO PUSH3 0x2548 JUMPI JUMPDEST CALL ISZERO PUSH3 0x253C JUMPI DUP1 RETURN JUMPDEST PUSH1 0x40 MLOAD SWAP1 RETURNDATASIZE SWAP1 DUP3 RETURNDATACOPY RETURNDATASIZE SWAP1 REVERT JUMPDEST POP PUSH2 0x8FC PUSH3 0x2532 JUMP JUMPDEST POP CALLVALUE PUSH3 0x232 JUMPI PUSH1 0x20 CALLDATASIZE PUSH1 0x3 NOT ADD SLT PUSH3 0x232 JUMPI PUSH1 0x20 PUSH2 0x2710 PUSH3 0x257B PUSH1 0x1 SLOAD PUSH1 0x4 CALLDATALOAD PUSH3 0x2F0D JUMP JUMPDEST DIV PUSH1 0x40 MLOAD SWAP1 DUP2 MSTORE RETURN JUMPDEST POP CALLVALUE PUSH3 0x232 JUMPI PUSH1 0x20 CALLDATASIZE PUSH1 0x3 NOT ADD SLT PUSH3 0x232 JUMPI PUSH3 0x25A2 PUSH3 0x28E3 JUMP JUMPDEST PUSH1 0x1 PUSH1 0x1 PUSH1 0xA0 SHL SUB SWAP1 PUSH3 0x25BC DUP3 PUSH1 0x4 SLOAD AND CALLER EQ PUSH3 0x2DD8 JUMP JUMPDEST AND DUP1 ISZERO PUSH3 0x730 JUMPI DUP1 DUP3 MSTORE PUSH1 0x8 PUSH1 0x20 MSTORE PUSH1 0x40 DUP3 KECCAK256 DUP1 SLOAD PUSH1 0xFF NOT AND PUSH1 0x1 OR SWAP1 SSTORE PUSH32 0xFC4DFEF69004B5E3ABA1EB4A8B1E53B893418FDA232D9F60574A6C62F30C449D DUP3 DUP1 LOG2 DUP1 RETURN JUMPDEST POP CALLVALUE PUSH3 0x232 JUMPI PUSH1 0x20 CALLDATASIZE PUSH1 0x3 NOT ADD SLT PUSH3 0x232 JUMPI PUSH1 0x4 CALLDATALOAD DUP2 MSTORE PUSH1 0x6 PUSH1 0x20 MSTORE PUSH1 0x40 SWAP1 KECCAK256 PUSH1 0x1 PUSH1 0x1 PUSH1 0xA0 SHL SUB DUP1 DUP3 SLOAD AND SWAP1 PUSH1 0x1 DUP4 ADD SLOAD SWAP3 PUSH1 0x2 DUP2 ADD SLOAD SWAP2 PUSH1 0x3 DUP3 ADD SLOAD SWAP1 PUSH1 0x4 DUP4 ADD SLOAD DUP2 PUSH1 0x5 DUP6 ADD SLOAD AND PUSH1 0x6 DUP6 ADD SLOAD SWAP1 PUSH1 0x7 DUP7 ADD SLOAD SWAP3 PUSH1 0x8 DUP8 ADD SLOAD SWAP5 DUP1 PUSH1 0x9 DUP10 ADD SLOAD AND SWAP7 PUSH1 0xA DUP10 ADD PUSH3 0x2678 SWAP1 PUSH3 0x27C9 JUMP JUMPDEST SWAP9 PUSH1 0xB ADD PUSH3 0x2687 SWAP1 PUSH3 0x27C9 JUMP JUMPDEST SWAP10 PUSH1 0x40 MLOAD SWAP13 DUP14 SWAP13 DUP14 MSTORE DUP13 DUP5 DUP3 AND SWAP1 PUSH1 0x20 ADD MSTORE PUSH1 0x40 DUP14 ADD SWAP1 PUSH1 0xA0 SHR PUSH1 0xFF AND SWAP1 PUSH3 0x26B0 SWAP2 PUSH3 0x287B JUMP JUMPDEST PUSH1 0x60 DUP13 ADD MSTORE PUSH1 0x80 DUP12 ADD MSTORE DUP2 AND PUSH1 0xA0 DUP11 ADD MSTORE PUSH1 0xC0 DUP10 ADD SWAP1 PUSH1 0xA0 SHR PUSH1 0xFF AND SWAP1 PUSH3 0x26D8 SWAP2 PUSH3 0x2889 JUMP JUMPDEST PUSH1 0xE0 DUP9 ADD MSTORE PUSH2 0x100 DUP8 ADD MSTORE PUSH2 0x120 DUP7 ADD MSTORE PUSH2 0x140 DUP6 ADD MSTORE PUSH2 0x160 DUP5 ADD MSTORE PUSH2 0x1C0 DUP1 PUSH2 0x180 DUP6 ADD MSTORE DUP4 ADD PUSH3 0x270C SWAP2 PUSH3 0x28BC JUMP JUMPDEST DUP3 DUP2 SUB PUSH2 0x1A0 DUP5 ADD MSTORE PUSH3 0xC44 SWAP2 PUSH3 0x28BC JUMP JUMPDEST SWAP1 PUSH1 0x1 DUP3 DUP2 SHR SWAP3 AND DUP1 ISZERO PUSH3 0x2752 JUMPI JUMPDEST PUSH1 0x20 DUP4 LT EQ PUSH3 0x273C JUMPI JUMP JUMPDEST PUSH4 0x4E487B71 PUSH1 0xE0 SHL PUSH1 0x0 MSTORE PUSH1 0x22 PUSH1 0x4 MSTORE PUSH1 0x24 PUSH1 0x0 REVERT JUMPDEST SWAP2 PUSH1 0x7F AND SWAP2 PUSH3 0x2730 JUMP JUMPDEST PUSH8 0xFFFFFFFFFFFFFFFF DUP2 GT PUSH3 0x2772 JUMPI PUSH1 0x40 MSTORE JUMP JUMPDEST PUSH4 0x4E487B71 PUSH1 0xE0 SHL PUSH1 0x0 MSTORE PUSH1 0x41 PUSH1 0x4 MSTORE PUSH1 0x24 PUSH1 0x0 REVERT JUMPDEST PUSH2 0x1C0 DUP2 ADD SWAP1 DUP2 LT PUSH8 0xFFFFFFFFFFFFFFFF DUP3 GT OR PUSH3 0x2772 JUMPI PUSH1 0x40 MSTORE JUMP JUMPDEST SWAP1 PUSH1 0x1F DUP1 NOT SWAP2 ADD AND DUP2 ADD SWAP1 DUP2 LT PUSH8 0xFFFFFFFFFFFFFFFF DUP3 GT OR PUSH3 0x2772 JUMPI PUSH1 0x40 MSTORE JUMP JUMPDEST SWAP1 PUSH1 0x40 MLOAD SWAP2 DUP3 PUSH1 0x0 DUP3 SLOAD SWAP3 PUSH3 0x27DF DUP5 PUSH3 0x2720 JUMP JUMPDEST SWAP1 DUP2 DUP5 MSTORE PUSH1 0x1 SWAP5 DUP6 DUP2 AND SWAP1 DUP2 PUSH1 0x0 EQ PUSH3 0x2856 JUMPI POP PUSH1 0x1 EQ PUSH3 0x280F JUMPI JUMPDEST POP POP PUSH3 0x280D SWAP3 POP SUB DUP4 PUSH3 0x27A6 JUMP JUMPDEST JUMP JUMPDEST SWAP1 SWAP4 SWAP2 POP PUSH1 0x0 MSTORE PUSH1 0x20 SWAP1 DUP2 PUSH1 0x0 KECCAK256 SWAP4 PUSH1 0x0 SWAP2 JUMPDEST DUP2 DUP4 LT PUSH3 0x283D JUMPI POP POP PUSH3 0x280D SWAP4 POP DUP3 ADD ADD CODESIZE DUP1 PUSH3 0x27FD JUMP JUMPDEST DUP6 SLOAD DUP9 DUP5 ADD DUP6 ADD MSTORE SWAP5 DUP6 ADD SWAP5 DUP8 SWAP5 POP SWAP2 DUP4 ADD SWAP2 PUSH3 0x2822 JUMP JUMPDEST SWAP2 POP POP PUSH3 0x280D SWAP5 POP PUSH1 0x20 SWAP3 POP PUSH1 0xFF NOT AND DUP3 DUP5 ADD MSTORE ISZERO ISZERO PUSH1 0x5 SHL DUP3 ADD ADD CODESIZE DUP1 PUSH3 0x27FD JUMP JUMPDEST SWAP1 PUSH1 0x6 DUP3 LT ISZERO PUSH3 0x1251 JUMPI MSTORE JUMP JUMPDEST SWAP1 PUSH1 0x3 DUP3 LT ISZERO PUSH3 0x1251 JUMPI MSTORE JUMP JUMPDEST PUSH1 0x0 JUMPDEST DUP4 DUP2 LT PUSH3 0x28AB JUMPI POP POP PUSH1 0x0 SWAP2 ADD MSTORE JUMP JUMPDEST DUP2 DUP2 ADD MLOAD DUP4 DUP3 ADD MSTORE PUSH1 0x20 ADD PUSH3 0x289A JUMP JUMPDEST SWAP1 PUSH1 0x20 SWAP2 PUSH3 0x28D7 DUP2 MLOAD DUP1 SWAP3 DUP2 DUP6 MSTORE DUP6 DUP1 DUP7 ADD SWAP2 ADD PUSH3 0x2897 JUMP JUMPDEST PUSH1 0x1F ADD PUSH1 0x1F NOT AND ADD ADD SWAP1 JUMP JUMPDEST PUSH1 0x4 CALLDATALOAD SWAP1 PUSH1 0x1 PUSH1 0x1 PUSH1 0xA0 SHL SUB DUP3 AND DUP3 SUB PUSH3 0x135B JUMPI JUMP JUMPDEST PUSH8 0xFFFFFFFFFFFFFFFF DUP2 GT PUSH3 0x2772 JUMPI PUSH1 0x1F ADD PUSH1 0x1F NOT AND PUSH1 0x20 ADD SWAP1 JUMP JUMPDEST SWAP1 PUSH1 0x40 PUSH1 0x3 NOT DUP4 ADD SLT PUSH3 0x135B JUMPI PUSH1 0x4 CALLDATALOAD SWAP2 PUSH1 0x24 CALLDATALOAD PUSH8 0xFFFFFFFFFFFFFFFF DUP2 GT PUSH3 0x135B JUMPI DUP2 PUSH1 0x23 DUP3 ADD SLT ISZERO PUSH3 0x135B JUMPI DUP1 PUSH1 0x4 ADD CALLDATALOAD SWAP1 PUSH3 0x2959 DUP3 PUSH3 0x28FA JUMP JUMPDEST SWAP3 PUSH3 0x2969 PUSH1 0x40 MLOAD SWAP5 DUP6 PUSH3 0x27A6 JUMP JUMPDEST DUP3 DUP5 MSTORE PUSH1 0x24 DUP4 DUP4 ADD ADD GT PUSH3 0x135B JUMPI DUP2 PUSH1 0x0 SWAP3 PUSH1 0x24 PUSH1 0x20 SWAP4 ADD DUP4 DUP7 ADD CALLDATACOPY DUP4 ADD ADD MSTORE SWAP1 JUMP JUMPDEST PUSH1 0xC SLOAD DUP2 LT ISZERO PUSH3 0x29C5 JUMPI PUSH1 0xC PUSH1 0x0 MSTORE PUSH32 0xDF6966C971051C3D54EC59162606531493A51404A002842F56009D7E5CF4A8C7 ADD SWAP1 PUSH1 0x0 SWAP1 JUMP JUMPDEST PUSH4 0x4E487B71 PUSH1 0xE0 SHL PUSH1 0x0 MSTORE PUSH1 0x32 PUSH1 0x4 MSTORE PUSH1 0x24 PUSH1 0x0 REVERT JUMPDEST DUP1 SLOAD DUP3 LT ISZERO PUSH3 0x29C5 JUMPI PUSH1 0x0 MSTORE PUSH1 0x20 PUSH1 0x0 KECCAK256 ADD SWAP1 PUSH1 0x0 SWAP1 JUMP JUMPDEST PUSH1 0x0 NOT DUP2 EQ PUSH3 0x1975 JUMPI PUSH1 0x1 ADD SWAP1 JUMP JUMPDEST SWAP1 PUSH1 0x1F DUP2 GT PUSH3 0x2A13 JUMPI POP POP POP JUMP JUMPDEST PUSH1 0x0 SWAP2 DUP3 MSTORE PUSH1 0x20 DUP3 KECCAK256 SWAP1 PUSH1 0x20 PUSH1 0x1F DUP6 ADD PUSH1 0x5 SHR DUP4 ADD SWAP5 LT PUSH3 0x2A52 JUMPI JUMPDEST PUSH1 0x1F ADD PUSH1 0x5 SHR ADD SWAP2 JUMPDEST DUP3 DUP2 LT PUSH3 0x2A46 JUMPI POP POP POP JUMP JUMPDEST DUP2 DUP2 SSTORE PUSH1 0x1 ADD PUSH3 0x2A39 JUMP JUMPDEST SWAP1 SWAP3 POP DUP3 SWAP1 PUSH3 0x2A30 JUMP JUMPDEST DUP1 SLOAD PUSH9 0x10000000000000000 DUP2 LT ISZERO PUSH3 0x2772 JUMPI PUSH3 0x2A82 SWAP2 PUSH1 0x1 DUP3 ADD DUP2 SSTORE PUSH3 0x29DB JUMP JUMPDEST DUP2 SWAP3 SWAP2 SLOAD SWAP1 PUSH1 0x3 SHL SWAP2 DUP3 SHL SWAP2 PUSH1 0x0 NOT SWAP1 SHL NOT AND OR SWAP1 SSTORE JUMP JUMPDEST RETURNDATASIZE ISZERO PUSH3 0x2ACA JUMPI RETURNDATASIZE SWAP1 PUSH3 0x2AAE DUP3 PUSH3 0x28FA JUMP JUMPDEST SWAP2 PUSH3 0x2ABE PUSH1 0x40 MLOAD SWAP4 DUP5 PUSH3 0x27A6 JUMP JUMPDEST DUP3 MSTORE RETURNDATASIZE PUSH1 0x0 PUSH1 0x20 DUP5 ADD RETURNDATACOPY JUMP JUMPDEST PUSH1 0x60 SWAP1 JUMP JUMPDEST SWAP1 DUP2 PUSH1 0x20 SWAP2 SUB SLT PUSH3 0x135B JUMPI MLOAD DUP1 ISZERO ISZERO DUP2 SUB PUSH3 0x135B JUMPI SWAP1 JUMP JUMPDEST SWAP1 SWAP3 SWAP2 SWAP3 PUSH1 0x40 MLOAD SWAP3 PUSH1 0x20 DUP5 ADD SWAP2 PUSH32 0x23B872DD00000000000000000000000000000000000000000000000000000000 DUP4 MSTORE PUSH1 0x1 PUSH1 0x1 PUSH1 0xA0 SHL SUB SWAP6 DUP7 DUP1 SWAP3 AND PUSH1 0x24 DUP8 ADD MSTORE AND PUSH1 0x44 DUP6 ADD MSTORE PUSH1 0x64 DUP5 ADD MSTORE PUSH1 0x64 DUP4 MSTORE PUSH1 0xA0 DUP4 ADD DUP4 DUP2 LT PUSH8 0xFFFFFFFFFFFFFFFF DUP3 GT OR PUSH3 0x2772 JUMPI PUSH1 0x0 SWAP5 DUP6 SWAP5 DUP6 SWAP3 PUSH1 0x40 MSTORE MLOAD SWAP4 AND GAS CALL PUSH3 0x2B6B PUSH3 0x2A9A JUMP JUMPDEST DUP2 PUSH3 0x2BBF JUMPI JUMPDEST POP ISZERO PUSH3 0x2B7B JUMPI JUMP JUMPDEST PUSH1 0x64 PUSH1 0x40 MLOAD PUSH3 0x461BCD PUSH1 0xE5 SHL DUP2 MSTORE PUSH1 0x20 PUSH1 0x4 DUP3 ADD MSTORE PUSH1 0x1E PUSH1 0x24 DUP3 ADD MSTORE PUSH32 0x5361666545524332303A207472616E7366657246726F6D206661696C65640000 PUSH1 0x44 DUP3 ADD MSTORE REVERT JUMPDEST DUP1 MLOAD DUP1 ISZERO SWAP3 POP DUP3 ISZERO PUSH3 0x2BD6 JUMPI JUMPDEST POP POP CODESIZE PUSH3 0x2B72 JUMP JUMPDEST PUSH3 0x2BEB SWAP3 POP PUSH1 0x20 DUP1 SWAP2 DUP4 ADD ADD SWAP2 ADD PUSH3 0x2ACF JUMP JUMPDEST CODESIZE DUP1 PUSH3 0x2BCD JUMP JUMPDEST PUSH1 0x2 PUSH1 0x0 SLOAD EQ PUSH3 0x2C05 JUMPI PUSH1 0x2 PUSH1 0x0 SSTORE JUMP JUMPDEST PUSH1 0x4 PUSH1 0x40 MLOAD PUSH32 0x3EE5AEB500000000000000000000000000000000000000000000000000000000 DUP2 MSTORE REVERT JUMPDEST PUSH1 0x40 MLOAD PUSH32 0xA9059CBB00000000000000000000000000000000000000000000000000000000 PUSH1 0x20 DUP3 ADD SWAP1 DUP2 MSTORE PUSH1 0x1 PUSH1 0x1 PUSH1 0xA0 SHL SUB SWAP4 DUP5 AND PUSH1 0x24 DUP4 ADD MSTORE PUSH1 0x44 DUP1 DUP4 ADD SWAP6 SWAP1 SWAP6 MSTORE SWAP4 DUP2 MSTORE PUSH1 0x0 SWAP4 DUP5 SWAP4 SWAP1 SWAP2 DUP5 SWAP2 SWAP1 PUSH3 0x2C8D PUSH1 0x64 DUP3 PUSH3 0x27A6 JUMP JUMPDEST MLOAD SWAP4 AND GAS CALL PUSH3 0x2C9C PUSH3 0x2A9A JUMP JUMPDEST DUP2 PUSH3 0x2CF0 JUMPI JUMPDEST POP ISZERO PUSH3 0x2CAC JUMPI JUMP JUMPDEST PUSH1 0x64 PUSH1 0x40 MLOAD PUSH3 0x461BCD PUSH1 0xE5 SHL DUP2 MSTORE PUSH1 0x20 PUSH1 0x4 DUP3 ADD MSTORE PUSH1 0x1A PUSH1 0x24 DUP3 ADD MSTORE PUSH32 0x5361666545524332303A207472616E73666572206661696C6564000000000000 PUSH1 0x44 DUP3 ADD MSTORE REVERT JUMPDEST DUP1 MLOAD DUP1 ISZERO SWAP3 POP DUP3 ISZERO PUSH3 0x2D07 JUMPI JUMPDEST POP POP CODESIZE PUSH3 0x2CA3 JUMP JUMPDEST PUSH3 0x2D1C SWAP3 POP PUSH1 0x20 DUP1 SWAP2 DUP4 ADD ADD SWAP2 ADD PUSH3 0x2ACF JUMP JUMPDEST CODESIZE DUP1 PUSH3 0x2CFE JUMP JUMPDEST SWAP1 DUP2 DUP2 GT PUSH3 0x2D3A JUMPI DUP2 SUB SWAP1 DUP2 GT PUSH3 0x1975 JUMPI SWAP1 JUMP JUMPDEST PUSH1 0x64 PUSH1 0x40 MLOAD PUSH3 0x461BCD PUSH1 0xE5 SHL DUP2 MSTORE PUSH1 0x20 PUSH1 0x4 DUP3 ADD MSTORE PUSH1 0x1E PUSH1 0x24 DUP3 ADD MSTORE PUSH32 0x536166654D6174683A207375627472616374696F6E206F766572666C6F770000 PUSH1 0x44 DUP3 ADD MSTORE REVERT JUMPDEST SWAP1 DUP2 ADD SWAP1 DUP2 DUP2 GT PUSH3 0x1975 JUMPI DUP2 LT PUSH3 0x2D94 JUMPI SWAP1 JUMP JUMPDEST PUSH1 0x64 PUSH1 0x40 MLOAD PUSH3 0x461BCD PUSH1 0xE5 SHL DUP2 MSTORE PUSH1 0x20 PUSH1 0x4 DUP3 ADD MSTORE PUSH1 0x1B PUSH1 0x24 DUP3 ADD MSTORE PUSH32 0x536166654D6174683A206164646974696F6E206F766572666C6F770000000000 PUSH1 0x44 DUP3 ADD MSTORE REVERT JUMPDEST ISZERO PUSH3 0x2DE0 JUMPI JUMP JUMPDEST PUSH1 0x64 PUSH1 0x40 MLOAD PUSH3 0x461BCD PUSH1 0xE5 SHL DUP2 MSTORE PUSH1 0x20 PUSH1 0x4 DUP3 ADD MSTORE PUSH1 0xA PUSH1 0x24 DUP3 ADD MSTORE PUSH32 0x4F6E6C792061646D696E00000000000000000000000000000000000000000000 PUSH1 0x44 DUP3 ADD MSTORE REVERT JUMPDEST PUSH1 0x20 DUP2 DUP4 SUB SLT PUSH3 0x135B JUMPI DUP1 MLOAD SWAP1 PUSH8 0xFFFFFFFFFFFFFFFF DUP3 GT PUSH3 0x135B JUMPI ADD DUP2 PUSH1 0x1F DUP3 ADD SLT ISZERO PUSH3 0x135B JUMPI DUP1 MLOAD PUSH3 0x2E5C DUP2 PUSH3 0x28FA JUMP JUMPDEST SWAP3 PUSH3 0x2E6C PUSH1 0x40 MLOAD SWAP5 DUP6 PUSH3 0x27A6 JUMP JUMPDEST DUP2 DUP5 MSTORE PUSH1 0x20 DUP3 DUP5 ADD ADD GT PUSH3 0x135B JUMPI PUSH3 0x2E8D SWAP2 PUSH1 0x20 DUP1 DUP6 ADD SWAP2 ADD PUSH3 0x2897 JUMP JUMPDEST SWAP1 JUMP JUMPDEST PUSH1 0xC SLOAD PUSH1 0x0 DUP1 JUMPDEST DUP3 DUP2 LT PUSH3 0x2EB1 JUMPI POP POP POP PUSH1 0x1 PUSH1 0x1 PUSH1 0xA0 SHL SUB PUSH1 0x4 SLOAD AND SWAP1 JUMP JUMPDEST PUSH3 0x2EBC DUP2 PUSH3 0x298D JUMP JUMPDEST PUSH1 0x1 PUSH1 0x1 PUSH1 0xA0 SHL SUB DUP1 SWAP3 SLOAD PUSH1 0x3 SWAP3 DUP4 SHL SHR AND DUP5 MSTORE PUSH1 0x8 PUSH1 0x20 MSTORE PUSH1 0xFF PUSH1 0x40 DUP6 KECCAK256 SLOAD AND PUSH3 0x2EF5 JUMPI POP POP PUSH3 0x2EEF SWAP1 PUSH3 0x29F4 JUMP JUMPDEST PUSH3 0x2E97 JUMP JUMPDEST SWAP3 POP SWAP3 POP PUSH3 0x2F04 SWAP1 PUSH3 0x298D JUMP JUMPDEST SWAP1 SLOAD SWAP2 SHL SHR AND SWAP1 JUMP JUMPDEST SWAP1 DUP2 ISZERO PUSH3 0x2F96 JUMPI DUP1 DUP3 MUL SWAP2 DUP3 DIV DUP1 DUP3 SUB PUSH3 0x1975 JUMPI SUB PUSH3 0x2F2C JUMPI SWAP1 JUMP JUMPDEST PUSH1 0x84 PUSH1 0x40 MLOAD PUSH3 0x461BCD PUSH1 0xE5 SHL DUP2 MSTORE PUSH1 0x20 PUSH1 0x4 DUP3 ADD MSTORE PUSH1 0x21 PUSH1 0x24 DUP3 ADD MSTORE PUSH32 0x536166654D6174683A206D756C7469706C69636174696F6E206F766572666C6F PUSH1 0x44 DUP3 ADD MSTORE PUSH32 0x7700000000000000000000000000000000000000000000000000000000000000 PUSH1 0x64 DUP3 ADD MSTORE REVERT JUMPDEST POP POP PUSH1 0x0 SWAP1 JUMP INVALID PUSH1 0x80 PUSH1 0x40 MSTORE CALLVALUE PUSH3 0x32B JUMPI PUSH3 0xDAB DUP1 CODESIZE SUB DUP1 PUSH3 0x1D DUP2 PUSH3 0x330 JUMP JUMPDEST SWAP3 DUP4 CODECOPY DUP2 ADD SWAP1 PUSH1 0x40 DUP2 DUP4 SUB SLT PUSH3 0x32B JUMPI DUP1 MLOAD PUSH1 0x1 PUSH1 0x1 PUSH1 0x40 SHL SUB SWAP1 DUP2 DUP2 GT PUSH3 0x32B JUMPI DUP4 PUSH3 0x4F SWAP2 DUP5 ADD PUSH3 0x356 JUMP JUMPDEST SWAP2 PUSH1 0x20 SWAP4 DUP5 DUP3 ADD MLOAD DUP4 DUP2 GT PUSH3 0x32B JUMPI PUSH3 0x6B SWAP3 ADD PUSH3 0x356 JUMP JUMPDEST DUP3 MLOAD SWAP1 DUP3 DUP3 GT PUSH3 0x315 JUMPI PUSH1 0x0 DUP1 SLOAD SWAP3 PUSH1 0x1 SWAP6 DUP7 DUP6 DUP2 SHR SWAP6 AND DUP1 ISZERO PUSH3 0x30A JUMPI JUMPDEST DUP9 DUP7 LT EQ PUSH3 0x2F6 JUMPI DUP2 SWAP1 PUSH1 0x1F SWAP6 DUP7 DUP2 GT PUSH3 0x2A3 JUMPI JUMPDEST POP DUP9 SWAP1 DUP7 DUP4 GT PUSH1 0x1 EQ PUSH3 0x23F JUMPI DUP5 SWAP3 PUSH3 0x233 JUMPI JUMPDEST POP POP PUSH1 0x0 NOT PUSH1 0x3 DUP4 SWAP1 SHL SHR NOT AND SWAP1 DUP7 SHL OR DUP2 SSTORE JUMPDEST DUP2 MLOAD SWAP4 DUP5 GT PUSH3 0x21F JUMPI DUP5 SLOAD DUP6 DUP2 DUP2 SHR SWAP2 AND DUP1 ISZERO PUSH3 0x214 JUMPI JUMPDEST DUP8 DUP3 LT EQ PUSH3 0x200 JUMPI DUP4 DUP2 GT PUSH3 0x1B8 JUMPI JUMPDEST POP DUP6 SWAP3 DUP5 GT PUSH1 0x1 EQ PUSH3 0x153 JUMPI DUP4 SWAP5 SWAP6 POP SWAP3 PUSH3 0x147 JUMPI JUMPDEST POP POP PUSH1 0x0 NOT PUSH1 0x3 DUP4 SWAP1 SHL SHR NOT AND SWAP1 DUP3 SHL OR SWAP1 SSTORE JUMPDEST PUSH1 0x3 DUP1 SLOAD PUSH1 0x1 PUSH1 0x1 PUSH1 0xA0 SHL SUB NOT AND CALLER OR SWAP1 SSTORE PUSH1 0x40 MLOAD PUSH2 0x9E2 SWAP1 DUP2 PUSH3 0x3C9 DUP3 CODECOPY RETURN JUMPDEST ADD MLOAD SWAP1 POP CODESIZE DUP1 PUSH3 0x111 JUMP JUMPDEST SWAP2 SWAP1 PUSH1 0x1F NOT DUP5 AND SWAP6 DUP6 DUP5 MSTORE DUP1 DUP5 KECCAK256 SWAP4 SWAP1 JUMPDEST DUP8 DUP3 LT PUSH3 0x1A0 JUMPI POP POP DUP4 DUP6 SWAP7 LT PUSH3 0x186 JUMPI JUMPDEST POP POP POP DUP2 SHL ADD SWAP1 SSTORE PUSH3 0x125 JUMP JUMPDEST ADD MLOAD PUSH1 0x0 NOT PUSH1 0xF8 DUP5 PUSH1 0x3 SHL AND SHR NOT AND SWAP1 SSTORE CODESIZE DUP1 DUP1 PUSH3 0x178 JUMP JUMPDEST DUP1 DUP8 DUP6 SWAP7 DUP3 SWAP5 SWAP7 DUP7 ADD MLOAD DUP2 SSTORE ADD SWAP6 ADD SWAP4 ADD SWAP1 PUSH3 0x164 JUMP JUMPDEST DUP6 DUP3 MSTORE DUP7 DUP3 KECCAK256 DUP5 DUP1 DUP8 ADD PUSH1 0x5 SHR DUP3 ADD SWAP3 DUP10 DUP9 LT PUSH3 0x1F6 JUMPI JUMPDEST ADD PUSH1 0x5 SHR ADD SWAP1 DUP7 SWAP1 JUMPDEST DUP3 DUP2 LT PUSH3 0x1EA JUMPI POP POP PUSH3 0xF9 JUMP JUMPDEST DUP4 DUP2 SSTORE ADD DUP7 SWAP1 PUSH3 0x1DA JUMP JUMPDEST SWAP3 POP DUP2 SWAP3 PUSH3 0x1D1 JUMP JUMPDEST PUSH4 0x4E487B71 PUSH1 0xE0 SHL DUP3 MSTORE PUSH1 0x22 PUSH1 0x4 MSTORE PUSH1 0x24 DUP3 REVERT JUMPDEST SWAP1 PUSH1 0x7F AND SWAP1 PUSH3 0xE7 JUMP JUMPDEST PUSH4 0x4E487B71 PUSH1 0xE0 SHL DUP2 MSTORE PUSH1 0x41 PUSH1 0x4 MSTORE PUSH1 0x24 SWAP1 REVERT JUMPDEST ADD MLOAD SWAP1 POP CODESIZE DUP1 PUSH3 0xB9 JUMP JUMPDEST DUP5 DUP1 MSTORE DUP10 DUP6 KECCAK256 DUP10 SWAP5 POP SWAP2 SWAP1 PUSH1 0x1F NOT DUP5 AND DUP7 JUMPDEST DUP13 DUP3 DUP3 LT PUSH3 0x28C JUMPI POP POP DUP5 GT PUSH3 0x272 JUMPI JUMPDEST POP POP POP DUP2 SHL ADD DUP2 SSTORE PUSH3 0xCD JUMP JUMPDEST ADD MLOAD PUSH1 0x0 NOT PUSH1 0xF8 DUP5 PUSH1 0x3 SHL AND SHR NOT AND SWAP1 SSTORE CODESIZE DUP1 DUP1 PUSH3 0x264 JUMP JUMPDEST DUP4 DUP6 ADD MLOAD DUP7 SSTORE DUP13 SWAP8 SWAP1 SWAP6 ADD SWAP5 SWAP4 DUP5 ADD SWAP4 ADD PUSH3 0x251 JUMP JUMPDEST SWAP1 SWAP2 POP DUP4 DUP1 MSTORE DUP9 DUP5 KECCAK256 DUP7 DUP1 DUP6 ADD PUSH1 0x5 SHR DUP3 ADD SWAP3 DUP12 DUP7 LT PUSH3 0x2EC JUMPI JUMPDEST SWAP2 DUP11 SWAP2 DUP7 SWAP6 SWAP5 SWAP4 ADD PUSH1 0x5 SHR ADD SWAP2 JUMPDEST DUP3 DUP2 LT PUSH3 0x2DD JUMPI POP POP PUSH3 0xA3 JUMP JUMPDEST DUP7 DUP2 SSTORE DUP6 SWAP5 POP DUP11 SWAP2 ADD PUSH3 0x2CD JUMP JUMPDEST SWAP3 POP DUP2 SWAP3 PUSH3 0x2BF JUMP JUMPDEST PUSH4 0x4E487B71 PUSH1 0xE0 SHL DUP4 MSTORE PUSH1 0x22 PUSH1 0x4 MSTORE PUSH1 0x24 DUP4 REVERT JUMPDEST SWAP5 PUSH1 0x7F AND SWAP5 PUSH3 0x8C JUMP JUMPDEST PUSH4 0x4E487B71 PUSH1 0xE0 SHL PUSH1 0x0 MSTORE PUSH1 0x41 PUSH1 0x4 MSTORE PUSH1 0x24 PUSH1 0x0 REVERT JUMPDEST PUSH1 0x0 DUP1 REVERT JUMPDEST PUSH1 0x40 MLOAD SWAP2 SWAP1 PUSH1 0x1F ADD PUSH1 0x1F NOT AND DUP3 ADD PUSH1 0x1 PUSH1 0x1 PUSH1 0x40 SHL SUB DUP2 GT DUP4 DUP3 LT OR PUSH3 0x315 JUMPI PUSH1 0x40 MSTORE JUMP JUMPDEST SWAP2 SWAP1 DUP1 PUSH1 0x1F DUP5 ADD SLT ISZERO PUSH3 0x32B JUMPI DUP3 MLOAD PUSH1 0x1 PUSH1 0x1 PUSH1 0x40 SHL SUB DUP2 GT PUSH3 0x315 JUMPI PUSH1 0x20 SWAP1 PUSH3 0x38C PUSH1 0x1F DUP3 ADD PUSH1 0x1F NOT AND DUP4 ADD PUSH3 0x330 JUMP JUMPDEST SWAP3 DUP2 DUP5 MSTORE DUP3 DUP3 DUP8 ADD ADD GT PUSH3 0x32B JUMPI PUSH1 0x0 JUMPDEST DUP2 DUP2 LT PUSH3 0x3B4 JUMPI POP DUP3 PUSH1 0x0 SWAP4 SWAP5 SWAP6 POP ADD ADD MSTORE SWAP1 JUMP JUMPDEST DUP6 DUP2 ADD DUP4 ADD MLOAD DUP5 DUP3 ADD DUP5 ADD MSTORE DUP3 ADD PUSH3 0x39E JUMP INVALID PUSH1 0x80 PUSH1 0x40 DUP2 DUP2 MSTORE PUSH1 0x4 SWAP2 DUP3 CALLDATASIZE LT ISZERO PUSH2 0x16 JUMPI PUSH1 0x0 DUP1 REVERT JUMPDEST PUSH1 0x0 SWAP3 DUP4 CALLDATALOAD PUSH1 0xE0 SHR SWAP2 DUP3 PUSH4 0x6FDDE03 EQ PUSH2 0x57D JUMPI POP DUP2 PUSH4 0x7546172 EQ PUSH2 0x555 JUMPI DUP2 PUSH4 0x95EA7B3 EQ PUSH2 0x52B JUMPI DUP2 PUSH4 0x18160DDD EQ PUSH2 0x50C JUMPI DUP2 PUSH4 0x23B872DD EQ PUSH2 0x4A8 JUMPI DUP2 PUSH4 0x313CE567 EQ PUSH2 0x48C JUMPI DUP2 PUSH4 0x40C10F19 EQ PUSH2 0x3AF JUMPI DUP2 PUSH4 0x70A08231 EQ PUSH2 0x375 JUMPI DUP2 PUSH4 0x95D89B41 EQ PUSH2 0x255 JUMPI DUP2 PUSH4 0x9DC29FAC EQ PUSH2 0x124 JUMPI POP DUP1 PUSH4 0xA9059CBB EQ PUSH2 0xF4 JUMPI PUSH4 0xDD62ED3E EQ PUSH2 0xA9 JUMPI PUSH1 0x0 DUP1 REVERT JUMPDEST CALLVALUE PUSH2 0xF0 JUMPI DUP1 PUSH1 0x3 NOT CALLDATASIZE ADD SLT PUSH2 0xF0 JUMPI DUP1 PUSH1 0x20 SWAP3 PUSH2 0xC5 PUSH2 0x69C JUMP JUMPDEST PUSH2 0xCD PUSH2 0x6B7 JUMP JUMPDEST PUSH1 0x1 PUSH1 0x1 PUSH1 0xA0 SHL SUB SWAP2 DUP3 AND DUP4 MSTORE PUSH1 0x5 DUP7 MSTORE DUP4 DUP4 KECCAK256 SWAP2 AND DUP3 MSTORE DUP5 MSTORE KECCAK256 SLOAD SWAP1 MLOAD SWAP1 DUP2 MSTORE RETURN JUMPDEST POP DUP1 REVERT JUMPDEST POP CALLVALUE PUSH2 0xF0 JUMPI DUP1 PUSH1 0x3 NOT CALLDATASIZE ADD SLT PUSH2 0xF0 JUMPI PUSH1 0x20 SWAP1 PUSH2 0x11D PUSH2 0x113 PUSH2 0x69C JUMP JUMPDEST PUSH1 0x24 CALLDATALOAD SWAP1 CALLER PUSH2 0x7DE JUMP JUMPDEST MLOAD PUSH1 0x1 DUP2 MSTORE RETURN JUMPDEST DUP4 SWAP2 POP CALLVALUE PUSH2 0xF0 JUMPI DUP3 PUSH1 0x3 NOT CALLDATASIZE ADD SLT PUSH2 0xF0 JUMPI PUSH2 0x13F PUSH2 0x69C JUMP JUMPDEST PUSH1 0x24 CALLDATALOAD SWAP1 PUSH1 0x1 PUSH1 0x1 PUSH1 0xA0 SHL SUB SWAP1 PUSH2 0x15B DUP3 PUSH1 0x3 SLOAD AND CALLER EQ PUSH2 0x73B JUMP JUMPDEST AND SWAP2 DUP3 ISZERO PUSH2 0x212 JUMPI DUP3 DUP5 MSTORE DUP1 PUSH1 0x20 MSTORE DUP2 DUP6 DUP6 KECCAK256 SLOAD LT PUSH2 0x1CF JUMPI PUSH32 0xDDF252AD1BE2C89B69C2B068FC378DAA952BA7F163C4A11628F55A4DF523B3EF SWAP2 DUP5 SWAP6 PUSH1 0x20 SWAP3 DUP6 DUP8 MSTORE DUP1 DUP5 MSTORE PUSH2 0x1AE DUP4 DUP4 DUP10 KECCAK256 SLOAD PUSH2 0x6CD JUMP JUMPDEST SWAP1 DUP7 DUP9 MSTORE DUP5 MSTORE DUP2 DUP8 KECCAK256 SSTORE PUSH2 0x1C4 DUP3 PUSH1 0x2 SLOAD PUSH2 0x6CD JUMP JUMPDEST PUSH1 0x2 SSTORE MLOAD SWAP1 DUP2 MSTORE LOG3 DUP1 RETURN JUMPDEST PUSH1 0x64 SWAP1 PUSH1 0x20 DUP7 MLOAD SWAP2 PUSH3 0x461BCD PUSH1 0xE5 SHL DUP4 MSTORE DUP3 ADD MSTORE PUSH1 0x1B PUSH1 0x24 DUP3 ADD MSTORE PUSH32 0x4275726E20616D6F756E7420657863656564732062616C616E63650000000000 PUSH1 0x44 DUP3 ADD MSTORE REVERT JUMPDEST PUSH1 0x64 SWAP1 PUSH1 0x20 DUP7 MLOAD SWAP2 PUSH3 0x461BCD PUSH1 0xE5 SHL DUP4 MSTORE DUP3 ADD MSTORE PUSH1 0x16 PUSH1 0x24 DUP3 ADD MSTORE PUSH32 0x4275726E2066726F6D207A65726F206164647265737300000000000000000000 PUSH1 0x44 DUP3 ADD MSTORE REVERT JUMPDEST DUP4 DUP4 CALLVALUE PUSH2 0xF0 JUMPI DUP2 PUSH1 0x3 NOT CALLDATASIZE ADD SLT PUSH2 0xF0 JUMPI DUP1 MLOAD SWAP1 DUP3 PUSH1 0x1 DUP1 SLOAD SWAP1 DUP2 DUP2 SHR SWAP1 DUP1 DUP4 AND SWAP3 DUP4 ISZERO PUSH2 0x36B JUMPI JUMPDEST PUSH1 0x20 SWAP4 DUP5 DUP5 LT DUP2 EQ PUSH2 0x358 JUMPI DUP4 DUP9 MSTORE SWAP1 DUP2 ISZERO PUSH2 0x33C JUMPI POP PUSH1 0x1 EQ PUSH2 0x2E7 JUMPI JUMPDEST POP POP POP DUP3 SWAP1 SUB PUSH1 0x1F ADD PUSH1 0x1F NOT AND DUP3 ADD SWAP3 PUSH8 0xFFFFFFFFFFFFFFFF DUP5 GT DUP4 DUP6 LT OR PUSH2 0x2D4 JUMPI POP DUP3 SWAP2 DUP3 PUSH2 0x2D0 SWAP3 MSTORE DUP3 PUSH2 0x653 JUMP JUMPDEST SUB SWAP1 RETURN JUMPDEST DUP1 PUSH1 0x41 DUP7 PUSH4 0x4E487B71 PUSH1 0xE0 SHL PUSH1 0x24 SWAP5 MSTORE MSTORE REVERT JUMPDEST DUP1 DUP8 MSTORE SWAP2 SWAP3 POP DUP6 SWAP2 DUP4 PUSH32 0xB10E2D527612073B26EECDFD717E6A320CF44B4AFAC2B0732D9FCBE2B7FA0CF6 JUMPDEST DUP4 DUP6 LT PUSH2 0x328 JUMPI POP POP POP POP DUP4 ADD ADD DUP6 DUP1 DUP1 PUSH2 0x29E JUMP JUMPDEST DUP1 SLOAD DUP9 DUP7 ADD DUP4 ADD MSTORE SWAP4 ADD SWAP3 DUP5 SWAP1 DUP3 ADD PUSH2 0x312 JUMP JUMPDEST PUSH1 0xFF NOT AND DUP8 DUP6 ADD MSTORE POP POP ISZERO ISZERO PUSH1 0x5 SHL DUP5 ADD ADD SWAP1 POP DUP6 DUP1 DUP1 PUSH2 0x29E JUMP JUMPDEST PUSH1 0x24 DUP10 PUSH1 0x22 DUP13 PUSH4 0x4E487B71 PUSH1 0xE0 SHL DUP4 MSTORE MSTORE REVERT JUMPDEST SWAP2 PUSH1 0x7F AND SWAP2 PUSH2 0x27F JUMP JUMPDEST SWAP1 POP CALLVALUE PUSH2 0x3AB JUMPI PUSH1 0x20 CALLDATASIZE PUSH1 0x3 NOT ADD SLT PUSH2 0x3AB JUMPI PUSH1 0x20 SWAP3 DUP3 SWAP2 PUSH1 0x1 PUSH1 0x1 PUSH1 0xA0 SHL SUB PUSH2 0x39D PUSH2 0x69C JUMP JUMPDEST AND DUP3 MSTORE DUP5 MSTORE KECCAK256 SLOAD SWAP1 MLOAD SWAP1 DUP2 MSTORE RETURN JUMPDEST DUP3 DUP1 REVERT JUMPDEST SWAP2 SWAP1 POP CALLVALUE PUSH2 0x3AB JUMPI DUP1 PUSH1 0x3 NOT CALLDATASIZE ADD SLT PUSH2 0x3AB JUMPI PUSH2 0x3CA PUSH2 0x69C JUMP JUMPDEST SWAP1 PUSH1 0x24 CALLDATALOAD SWAP2 PUSH1 0x1 PUSH1 0x1 PUSH1 0xA0 SHL SUB SWAP1 PUSH2 0x3E7 DUP3 PUSH1 0x3 SLOAD AND CALLER EQ PUSH2 0x73B JUMP JUMPDEST AND SWAP3 DUP4 ISZERO PUSH2 0x44A JUMPI DUP3 PUSH32 0xDDF252AD1BE2C89B69C2B068FC378DAA952BA7F163C4A11628F55A4DF523B3EF SWAP3 PUSH1 0x20 SWAP3 PUSH2 0x422 DUP9 SWAP7 PUSH1 0x2 SLOAD PUSH2 0x786 JUMP JUMPDEST PUSH1 0x2 SSTORE DUP7 DUP7 MSTORE DUP1 DUP5 MSTORE PUSH2 0x438 DUP4 DUP4 DUP9 KECCAK256 SLOAD PUSH2 0x786 JUMP JUMPDEST SWAP1 DUP8 DUP8 MSTORE DUP5 MSTORE DUP2 DUP7 KECCAK256 SSTORE MLOAD SWAP1 DUP2 MSTORE LOG3 DUP1 RETURN JUMPDEST PUSH1 0x20 PUSH1 0x64 SWAP3 MLOAD SWAP2 PUSH3 0x461BCD PUSH1 0xE5 SHL DUP4 MSTORE DUP3 ADD MSTORE PUSH1 0x14 PUSH1 0x24 DUP3 ADD MSTORE PUSH32 0x4D696E7420746F207A65726F2061646472657373000000000000000000000000 PUSH1 0x44 DUP3 ADD MSTORE REVERT JUMPDEST POP POP CALLVALUE PUSH2 0xF0 JUMPI DUP2 PUSH1 0x3 NOT CALLDATASIZE ADD SLT PUSH2 0xF0 JUMPI PUSH1 0x20 SWAP1 MLOAD PUSH1 0x12 DUP2 MSTORE RETURN JUMPDEST POP POP CALLVALUE PUSH2 0xF0 JUMPI PUSH1 0x60 CALLDATASIZE PUSH1 0x3 NOT ADD SLT PUSH2 0xF0 JUMPI PUSH2 0x11D PUSH1 0x20 SWAP3 PUSH2 0x504 PUSH2 0x4CC PUSH2 0x69C JUMP JUMPDEST SWAP2 DUP5 PUSH2 0x4D6 PUSH2 0x6B7 JUMP JUMPDEST SWAP2 PUSH2 0x4E5 PUSH1 0x44 CALLDATALOAD DUP1 SWAP5 DUP8 PUSH2 0x7DE JUMP JUMPDEST PUSH1 0x1 PUSH1 0x1 PUSH1 0xA0 SHL SUB DUP6 AND DUP2 MSTORE PUSH1 0x5 DUP9 MSTORE DUP2 DUP2 KECCAK256 CALLER DUP3 MSTORE DUP9 MSTORE KECCAK256 SLOAD PUSH2 0x6CD JUMP JUMPDEST SWAP1 CALLER SWAP1 PUSH2 0x8EC JUMP JUMPDEST POP POP CALLVALUE PUSH2 0xF0 JUMPI DUP2 PUSH1 0x3 NOT CALLDATASIZE ADD SLT PUSH2 0xF0 JUMPI PUSH1 0x20 SWAP1 PUSH1 0x2 SLOAD SWAP1 MLOAD SWAP1 DUP2 MSTORE RETURN JUMPDEST POP POP CALLVALUE PUSH2 0xF0 JUMPI DUP1 PUSH1 0x3 NOT CALLDATASIZE ADD SLT PUSH2 0xF0 JUMPI PUSH1 0x20 SWAP1 PUSH2 0x11D PUSH2 0x54B PUSH2 0x69C JUMP JUMPDEST PUSH1 0x24 CALLDATALOAD SWAP1 CALLER PUSH2 0x8EC JUMP JUMPDEST POP POP CALLVALUE PUSH2 0xF0 JUMPI DUP2 PUSH1 0x3 NOT CALLDATASIZE ADD SLT PUSH2 0xF0 JUMPI PUSH1 0x20 SWAP1 PUSH1 0x1 PUSH1 0x1 PUSH1 0xA0 SHL SUB PUSH1 0x3 SLOAD AND SWAP1 MLOAD SWAP1 DUP2 MSTORE RETURN JUMPDEST DUP5 SWAP1 DUP5 CALLVALUE PUSH2 0x3AB JUMPI DUP3 PUSH1 0x3 NOT CALLDATASIZE ADD SLT PUSH2 0x3AB JUMPI DUP3 DUP4 SLOAD PUSH1 0x1 DUP2 DUP2 SHR SWAP1 DUP1 DUP4 AND SWAP3 DUP4 ISZERO PUSH2 0x649 JUMPI JUMPDEST PUSH1 0x20 SWAP4 DUP5 DUP5 LT DUP2 EQ PUSH2 0x358 JUMPI DUP4 DUP9 MSTORE SWAP1 DUP2 ISZERO PUSH2 0x33C JUMPI POP PUSH1 0x1 EQ PUSH2 0x5F4 JUMPI POP POP POP DUP3 SWAP1 SUB PUSH1 0x1F ADD PUSH1 0x1F NOT AND DUP3 ADD SWAP3 PUSH8 0xFFFFFFFFFFFFFFFF DUP5 GT DUP4 DUP6 LT OR PUSH2 0x2D4 JUMPI POP DUP3 SWAP2 DUP3 PUSH2 0x2D0 SWAP3 MSTORE DUP3 PUSH2 0x653 JUMP JUMPDEST DUP7 DUP1 MSTORE SWAP2 SWAP3 POP DUP6 SWAP2 DUP4 PUSH32 0x290DECD9548B62A8D60345A988386FC84BA6BC95484008F6362F93160EF3E563 JUMPDEST DUP4 DUP6 LT PUSH2 0x635 JUMPI POP POP POP POP DUP4 ADD ADD DUP6 DUP1 DUP1 PUSH2 0x29E JUMP JUMPDEST DUP1 SLOAD DUP9 DUP7 ADD DUP4 ADD MSTORE SWAP4 ADD SWAP3 DUP5 SWAP1 DUP3 ADD PUSH2 0x61F JUMP JUMPDEST SWAP2 PUSH1 0x7F AND SWAP2 PUSH2 0x5A4 JUMP JUMPDEST PUSH1 0x20 DUP1 DUP3 MSTORE DUP3 MLOAD DUP2 DUP4 ADD DUP2 SWAP1 MSTORE SWAP1 SWAP4 SWAP3 PUSH1 0x0 JUMPDEST DUP3 DUP2 LT PUSH2 0x688 JUMPI POP POP PUSH1 0x40 SWAP3 SWAP4 POP PUSH1 0x0 DUP4 DUP3 DUP5 ADD ADD MSTORE PUSH1 0x1F DUP1 NOT SWAP2 ADD AND ADD ADD SWAP1 JUMP JUMPDEST DUP2 DUP2 ADD DUP7 ADD MLOAD DUP5 DUP3 ADD PUSH1 0x40 ADD MSTORE DUP6 ADD PUSH2 0x666 JUMP JUMPDEST PUSH1 0x4 CALLDATALOAD SWAP1 PUSH1 0x1 PUSH1 0x1 PUSH1 0xA0 SHL SUB DUP3 AND DUP3 SUB PUSH2 0x6B2 JUMPI JUMP JUMPDEST PUSH1 0x0 DUP1 REVERT JUMPDEST PUSH1 0x24 CALLDATALOAD SWAP1 PUSH1 0x1 PUSH1 0x1 PUSH1 0xA0 SHL SUB DUP3 AND DUP3 SUB PUSH2 0x6B2 JUMPI JUMP JUMPDEST SWAP1 DUP2 DUP2 GT PUSH2 0x6F7 JUMPI DUP2 SUB SWAP1 DUP2 GT PUSH2 0x6E1 JUMPI SWAP1 JUMP JUMPDEST PUSH4 0x4E487B71 PUSH1 0xE0 SHL PUSH1 0x0 MSTORE PUSH1 0x11 PUSH1 0x4 MSTORE PUSH1 0x24 PUSH1 0x0 REVERT JUMPDEST PUSH1 0x64 PUSH1 0x40 MLOAD PUSH3 0x461BCD PUSH1 0xE5 SHL DUP2 MSTORE PUSH1 0x20 PUSH1 0x4 DUP3 ADD MSTORE PUSH1 0x1E PUSH1 0x24 DUP3 ADD MSTORE PUSH32 0x536166654D6174683A207375627472616374696F6E206F766572666C6F770000 PUSH1 0x44 DUP3 ADD MSTORE REVERT JUMPDEST ISZERO PUSH2 0x742 JUMPI JUMP JUMPDEST PUSH1 0x64 PUSH1 0x40 MLOAD PUSH3 0x461BCD PUSH1 0xE5 SHL DUP2 MSTORE PUSH1 0x20 PUSH1 0x4 DUP3 ADD MSTORE PUSH1 0xB PUSH1 0x24 DUP3 ADD MSTORE PUSH32 0x4F6E6C79206D696E746572000000000000000000000000000000000000000000 PUSH1 0x44 DUP3 ADD MSTORE REVERT JUMPDEST SWAP1 DUP2 ADD SWAP1 DUP2 DUP2 GT PUSH2 0x6E1 JUMPI DUP2 LT PUSH2 0x79A JUMPI SWAP1 JUMP JUMPDEST PUSH1 0x64 PUSH1 0x40 MLOAD PUSH3 0x461BCD PUSH1 0xE5 SHL DUP2 MSTORE PUSH1 0x20 PUSH1 0x4 DUP3 ADD MSTORE PUSH1 0x1B PUSH1 0x24 DUP3 ADD MSTORE PUSH32 0x536166654D6174683A206164646974696F6E206F766572666C6F770000000000 PUSH1 0x44 DUP3 ADD MSTORE REVERT JUMPDEST PUSH1 0x1 PUSH1 0x1 PUSH1 0xA0 SHL SUB DUP1 SWAP2 AND SWAP2 DUP3 ISZERO PUSH2 0x8A8 JUMPI AND SWAP2 DUP3 ISZERO PUSH2 0x864 JUMPI PUSH1 0x20 PUSH32 0xDDF252AD1BE2C89B69C2B068FC378DAA952BA7F163C4A11628F55A4DF523B3EF SWAP2 PUSH1 0x0 DUP5 DUP2 MSTORE PUSH1 0x4 DUP4 MSTORE PUSH2 0x833 DUP3 PUSH1 0x40 DUP4 KECCAK256 SLOAD PUSH2 0x6CD JUMP JUMPDEST DUP6 DUP3 MSTORE PUSH1 0x4 DUP5 MSTORE PUSH1 0x40 DUP3 KECCAK256 SSTORE DUP6 DUP2 MSTORE PUSH1 0x40 PUSH2 0x851 DUP4 DUP3 DUP5 KECCAK256 SLOAD PUSH2 0x786 JUMP JUMPDEST SWAP2 DUP8 DUP2 MSTORE PUSH1 0x4 DUP6 MSTORE KECCAK256 SSTORE PUSH1 0x40 MLOAD SWAP1 DUP2 MSTORE LOG3 JUMP JUMPDEST PUSH1 0x64 PUSH1 0x40 MLOAD PUSH3 0x461BCD PUSH1 0xE5 SHL DUP2 MSTORE PUSH1 0x20 PUSH1 0x4 DUP3 ADD MSTORE PUSH1 0x18 PUSH1 0x24 DUP3 ADD MSTORE PUSH32 0x5472616E7366657220746F207A65726F20616464726573730000000000000000 PUSH1 0x44 DUP3 ADD MSTORE REVERT JUMPDEST PUSH1 0x64 PUSH1 0x40 MLOAD PUSH3 0x461BCD PUSH1 0xE5 SHL DUP2 MSTORE PUSH1 0x20 PUSH1 0x4 DUP3 ADD MSTORE PUSH1 0x1A PUSH1 0x24 DUP3 ADD MSTORE PUSH32 0x5472616E736665722066726F6D207A65726F2061646472657373000000000000 PUSH1 0x44 DUP3 ADD MSTORE REVERT JUMPDEST PUSH1 0x1 PUSH1 0x1 PUSH1 0xA0 SHL SUB DUP1 SWAP2 AND SWAP2 DUP3 ISZERO PUSH2 0x991 JUMPI AND SWAP2 DUP3 ISZERO PUSH2 0x94D JUMPI PUSH1 0x20 PUSH32 0x8C5BE1E5EBEC7D5BD14F71427D1E84F3DD0314C0F7B2291E5B200AC8C7C3B925 SWAP2 DUP4 PUSH1 0x0 MSTORE PUSH1 0x5 DUP3 MSTORE PUSH1 0x40 PUSH1 0x0 KECCAK256 DUP6 PUSH1 0x0 MSTORE DUP3 MSTORE DUP1 PUSH1 0x40 PUSH1 0x0 KECCAK256 SSTORE PUSH1 0x40 MLOAD SWAP1 DUP2 MSTORE LOG3 JUMP JUMPDEST PUSH1 0x64 PUSH1 0x40 MLOAD PUSH3 0x461BCD PUSH1 0xE5 SHL DUP2 MSTORE PUSH1 0x20 PUSH1 0x4 DUP3 ADD MSTORE PUSH1 0x17 PUSH1 0x24 DUP3 ADD MSTORE PUSH32 0x417070726F766520746F207A65726F2061646472657373000000000000000000 PUSH1 0x44 DUP3 ADD MSTORE REVERT JUMPDEST PUSH1 0x64 PUSH1 0x40 MLOAD PUSH3 0x461BCD PUSH1 0xE5 SHL DUP2 MSTORE PUSH1 0x20 PUSH1 0x4 DUP3 ADD MSTORE PUSH1 0x19 PUSH1 0x24 DUP3 ADD MSTORE PUSH32 0x417070726F76652066726F6D207A65726F206164647265737300000000000000 PUSH1 0x44 DUP3 ADD MSTORE REVERT INVALID LOG1 PUSH5 0x736F6C6343 STOP ADDMOD EQ STOP EXP LOG1 PUSH5 0x736F6C6343 STOP ADDMOD EQ STOP EXP "},"methodIdentifiers":{"DISPUTE_TIMEFRAME()":"17079048","MAX_PLATFORM_FEE()":"3998a681","MIN_DISPUTE_FEE()":"1c98322b","MIN_ESCROW_AMOUNT()":"8e9856f9","addArbitrator(address)":"01fabd75","addSupportedToken(address)":"6d69fcaf","admin()":"f851a440","allowedTokens(address)":"e744092e","arbitrators(address)":"51d0ea37","calculatePlatformFee(uint256)":"0cbab4f7","cancelEscrow(uint256)":"e0182436","createEscrow(address,address,uint256,string)":"7be87b9e","disputeFeeFixed()":"edc1f335","emergencyWithdrawNative(uint256)":"0f6835b8","emergencyWithdrawToken(address,uint256)":"a4c3b091","escrowCount()":"675ac67a","escrows(uint256)":"012f52ee","feeCollector()":"c415b95c","fundEscrow(uint256)":"c9c31af5","getEscrowDetails(uint256)":"b996ec2a","getSupportedTokens()":"d3c7c2c7","getUserEscrows(address)":"5ccea85e","getWrappedToken(address)":"a7dc2d78","isTokenSupported(address)":"75151b63","isWrappedToken(address)":"64fb065b","platformFeePercentage()":"cdd78cfc","raiseDispute(uint256,string)":"5aef573c","releaseFunds(uint256)":"4d68282f","removeArbitrator(address)":"973ad270","removeSupportedToken(address)":"76319190","resolveDispute(uint256,uint256,uint256)":"3fabe74f","submitDisputeEvidence(uint256,string)":"d3bada99","supportedTokens(uint256)":"c6255626","tokenToWrapper(address)":"ed80befa","transferAdmin(address)":"75829def","unwrapToken(address,uint256)":"3398b470","updateDisputeFee(uint256)":"9de2e9d7","updateFeeCollector(address)":"d2c35ce8","updatePlatformFee(uint256)":"aa0b5988","userEscrows(address,uint256)":"7f944dd0","wrapToken(address,uint256)":"460b53e3"}}}}}