{"contracts/CryptoEscrow.sol":{"WrappedToken":{"abi":[{"inputs":[{"internalType":"string","name":"name_","type":"string"},{"internalType":"string","name":"symbol_","type":"string"}],"stateMutability":"nonpayable","type":"constructor"},{"anonymous":false,"inputs":[{"indexed":true,"internalType":"address","name":"owner","type":"address"},{"indexed":true,"internalType":"address","name":"spender","type":"address"},{"indexed":false,"internalType":"uint256","name":"value","type":"uint256"}],"name":"Approval","type":"event"},{"anonymous":false,"inputs":[{"indexed":true,"internalType":"address","name":"from","type":"address"},{"indexed":true,"internalType":"address","name":"to","type":"address"},{"indexed":false,"internalType":"uint256","name":"value","type":"uint256"}],"name":"Transfer","type":"event"},{"inputs":[{"internalType":"address","name":"owner","type":"address"},{"internalType":"address","name":"spender","type":"address"}],"name":"allowance","outputs":[{"internalType":"uint256","name":"","type":"uint256"}],"stateMutability":"view","type":"function"},{"inputs":[{"internalType":"address","name":"spender","type":"address"},{"internalType":"uint256","name":"amount","type":"uint256"}],"name":"approve","outputs":[{"internalType":"bool","name":"","type":"bool"}],"stateMutability":"nonpayable","type":"function"},{"inputs":[{"internalType":"address","name":"account","type":"address"}],"name":"balanceOf","outputs":[{"internalType":"uint256","name":"","type":"uint256"}],"stateMutability":"view","type":"function"},{"inputs":[{"internalType":"address","name":"account","type":"address"},{"internalType":"uint256","name":"amount","type":"uint256"}],"name":"burn","outputs":[],"stateMutability":"nonpayable","type":"function"},{"inputs":[],"name":"decimals","outputs":[{"internalType":"uint8","name":"","type":"uint8"}],"stateMutability":"view","type":"function"},{"inputs":[{"internalType":"address","name":"account","type":"address"},{"internalType":"uint256","name":"amount","type":"uint256"}],"name":"mint","outputs":[],"stateMutability":"nonpayable","type":"function"},{"inputs":[],"name":"minter","outputs":[{"internalType":"address","name":"","type":"address"}],"stateMutability":"view","type":"function"},{"inputs":[],"name":"name","outputs":[{"internalType":"string","name":"","type":"string"}],"stateMutability":"view","type":"function"},{"inputs":[],"name":"symbol","outputs":[{"internalType":"string","name":"","type":"string"}],"stateMutability":"view","type":"function"},{"inputs":[],"name":"totalSupply","outputs":[{"internalType":"uint256","name":"","type":"uint256"}],"stateMutability":"view","type":"function"},{"inputs":[{"internalType":"address","name":"recipient","type":"address"},{"internalType":"uint256","name":"amount","type":"uint256"}],"name":"transfer","outputs":[{"internalType":"bool","name":"","type":"bool"}],"stateMutability":"nonpayable","type":"function"},{"inputs":[{"internalType":"address","name":"sender","type":"address"},{"internalType":"address","name":"recipient","type":"address"},{"internalType":"uint256","name":"amount","type":"uint256"}],"name":"transferFrom","outputs":[{"internalType":"bool","name":"","type":"bool"}],"stateMutability":"nonpayable","type":"function"}],"evm":{"bytecode":{"linkReferences":{},"object":"6080604052346200032b5762000dab803803806200001d8162000330565b9283398101906040818303126200032b5780516001600160401b03908181116200032b57836200004f91840162000356565b91602093848201518381116200032b576200006b920162000356565b825190828211620003155760008054926001958685811c951680156200030a575b88861014620002f6578190601f95868111620002a3575b5088908683116001146200023f57849262000233575b5050600019600383901b1c191690861b1781555b81519384116200021f5784548581811c9116801562000214575b878210146200020057838111620001b8575b50859284116001146200015357839495509262000147575b5050600019600383901b1c191690821b1790555b600380546001600160a01b031916331790556040516109e29081620003c98239f35b01519050388062000111565b9190601f1984169585845280842093905b878210620001a05750508385961062000186575b505050811b01905562000125565b015160001960f88460031b161c1916905538808062000178565b80878596829496860151815501950193019062000164565b8582528682208480870160051c820192898810620001f6575b0160051c019086905b828110620001ea575050620000f9565b838155018690620001da565b92508192620001d1565b634e487b7160e01b82526022600452602482fd5b90607f1690620000e7565b634e487b7160e01b81526041600452602490fd5b015190503880620000b9565b8480528985208994509190601f198416865b8c8282106200028c575050841162000272575b505050811b018155620000cd565b015160001960f88460031b161c1916905538808062000264565b8385015186558c9790950194938401930162000251565b9091508380528884208680850160051c8201928b8610620002ec575b918a91869594930160051c01915b828110620002dd575050620000a3565b8681558594508a9101620002cd565b92508192620002bf565b634e487b7160e01b83526022600452602483fd5b94607f16946200008c565b634e487b7160e01b600052604160045260246000fd5b600080fd5b6040519190601f01601f191682016001600160401b038111838210176200031557604052565b919080601f840112156200032b5782516001600160401b03811162000315576020906200038c601f8201601f1916830162000330565b928184528282870101116200032b5760005b818110620003b457508260009394955001015290565b85810183015184820184015282016200039e56fe608060408181526004918236101561001657600080fd5b600092833560e01c91826306fdde031461057d575081630754617214610555578163095ea7b31461052b57816318160ddd1461050c57816323b872dd146104a8578163313ce5671461048c57816340c10f19146103af57816370a082311461037557816395d89b41146102555781639dc29fac1461012457508063a9059cbb146100f45763dd62ed3e146100a957600080fd5b346100f057806003193601126100f057806020926100c561069c565b6100cd6106b7565b6001600160a01b0391821683526005865283832091168252845220549051908152f35b5080fd5b50346100f057806003193601126100f05760209061011d61011361069c565b60243590336107de565b5160018152f35b839150346100f057826003193601126100f05761013f61069c565b602435906001600160a01b039061015b8260035416331461073b565b1691821561021257828452806020528185852054106101cf577fddf252ad1be2c89b69c2b068fc378daa952ba7f163c4a11628f55a4df523b3ef9184956020928587528084526101ae83838920546106cd565b908688528452818720556101c4826002546106cd565b60025551908152a380f35b606490602086519162461bcd60e51b8352820152601b60248201527f4275726e20616d6f756e7420657863656564732062616c616e636500000000006044820152fd5b606490602086519162461bcd60e51b8352820152601660248201527f4275726e2066726f6d207a65726f2061646472657373000000000000000000006044820152fd5b8383346100f057816003193601126100f05780519082600180549081811c9080831692831561036b575b60209384841081146103585783885290811561033c57506001146102e7575b505050829003601f01601f191682019267ffffffffffffffff8411838510176102d457508291826102d0925282610653565b0390f35b80604186634e487b7160e01b6024945252fd5b8087529192508591837fb10e2d527612073b26eecdfd717e6a320cf44b4afac2b0732d9fcbe2b7fa0cf65b838510610328575050505083010185808061029e565b805488860183015293019284908201610312565b60ff1916878501525050151560051b840101905085808061029e565b60248960228c634e487b7160e01b835252fd5b91607f169161027f565b9050346103ab5760203660031901126103ab5760209282916001600160a01b0361039d61069c565b168252845220549051908152f35b8280fd5b919050346103ab57806003193601126103ab576103ca61069c565b90602435916001600160a01b03906103e78260035416331461073b565b1692831561044a57827fddf252ad1be2c89b69c2b068fc378daa952ba7f163c4a11628f55a4df523b3ef926020926104228896600254610786565b6002558686528084526104388383882054610786565b9087875284528186205551908152a380f35b6020606492519162461bcd60e51b8352820152601460248201527f4d696e7420746f207a65726f20616464726573730000000000000000000000006044820152fd5b5050346100f057816003193601126100f0576020905160128152f35b5050346100f05760603660031901126100f05761011d6020926105046104cc61069c565b91846104d66106b7565b916104e56044358094876107de565b6001600160a01b038516815260058852818120338252885220546106cd565b9033906108ec565b5050346100f057816003193601126100f0576020906002549051908152f35b5050346100f057806003193601126100f05760209061011d61054b61069c565b60243590336108ec565b5050346100f057816003193601126100f0576020906001600160a01b03600354169051908152f35b849084346103ab57826003193601126103ab57828354600181811c90808316928315610649575b60209384841081146103585783885290811561033c57506001146105f457505050829003601f01601f191682019267ffffffffffffffff8411838510176102d457508291826102d0925282610653565b8680529192508591837f290decd9548b62a8d60345a988386fc84ba6bc95484008f6362f93160ef3e5635b838510610635575050505083010185808061029e565b80548886018301529301928490820161061f565b91607f16916105a4565b6020808252825181830181905290939260005b82811061068857505060409293506000838284010152601f8019910116010190565b818101860151848201604001528501610666565b600435906001600160a01b03821682036106b257565b600080fd5b602435906001600160a01b03821682036106b257565b908181116106f75781039081116106e15790565b634e487b7160e01b600052601160045260246000fd5b606460405162461bcd60e51b815260206004820152601e60248201527f536166654d6174683a207375627472616374696f6e206f766572666c6f7700006044820152fd5b1561074257565b606460405162461bcd60e51b815260206004820152600b60248201527f4f6e6c79206d696e7465720000000000000000000000000000000000000000006044820152fd5b908101908181116106e157811061079a5790565b606460405162461bcd60e51b815260206004820152601b60248201527f536166654d6174683a206164646974696f6e206f766572666c6f7700000000006044820152fd5b6001600160a01b038091169182156108a857169182156108645760207fddf252ad1be2c89b69c2b068fc378daa952ba7f163c4a11628f55a4df523b3ef916000848152600483526108338260408320546106cd565b85825260048452604082205585815260406108518382842054610786565b91878152600485522055604051908152a3565b606460405162461bcd60e51b815260206004820152601860248201527f5472616e7366657220746f207a65726f206164647265737300000000000000006044820152fd5b606460405162461bcd60e51b815260206004820152601a60248201527f5472616e736665722066726f6d207a65726f20616464726573730000000000006044820152fd5b6001600160a01b03809116918215610991571691821561094d5760207f8c5be1e5ebec7d5bd14f71427d1e84f3dd0314c0f7b2291e5b200ac8c7c3b925918360005260058252604060002085600052825280604060002055604051908152a3565b606460405162461bcd60e51b815260206004820152601760248201527f417070726f766520746f207a65726f20616464726573730000000000000000006044820152fd5b606460405162461bcd60e51b815260206004820152601960248201527f417070726f76652066726f6d207a65726f2061646472657373000000000000006044820152fdfea164736f6c6343000814000a","opcodes":"PUSH1 0x80 PUSH1 0x40 MSTORE CALLVALUE PUSH3 0x32B JUMPI PUSH3 0xDAB DUP1 CODESIZE SUB DUP1 PUSH3 0x1D DUP2 PUSH3 0x330 JUMP JUMPDEST SWAP3 DUP4 CODECOPY DUP2 ADD SWAP1 PUSH1 0x40 DUP2 DUP4 SUB SLT PUSH3 0x32B JUMPI DUP1 MLOAD PUSH1 0x1 PUSH1 0x1 PUSH1 0x40 SHL SUB SWAP1 DUP2 DUP2 GT PUSH3 0x32B JUMPI DUP4 PUSH3 0x4F SWAP2 DUP5 ADD PUSH3 0x356 JUMP JUMPDEST SWAP2 PUSH1 0x20 SWAP4 DUP5 DUP3 ADD MLOAD DUP4 DUP2 GT PUSH3 0x32B JUMPI PUSH3 0x6B SWAP3 ADD PUSH3 0x356 JUMP JUMPDEST DUP3 MLOAD SWAP1 DUP3 DUP3 GT PUSH3 0x315 JUMPI PUSH1 0x0 DUP1 SLOAD SWAP3 PUSH1 0x1 SWAP6 DUP7 DUP6 DUP2 SHR SWAP6 AND DUP1 ISZERO PUSH3 0x30A JUMPI JUMPDEST DUP9 DUP7 LT EQ PUSH3 0x2F6 JUMPI DUP2 SWAP1 PUSH1 0x1F SWAP6 DUP7 DUP2 GT PUSH3 0x2A3 JUMPI JUMPDEST POP DUP9 SWAP1 DUP7 DUP4 GT PUSH1 0x1 EQ PUSH3 0x23F JUMPI DUP5 SWAP3 PUSH3 0x233 JUMPI JUMPDEST POP POP PUSH1 0x0 NOT PUSH1 0x3 DUP4 SWAP1 SHL SHR NOT AND SWAP1 DUP7 SHL OR DUP2 SSTORE JUMPDEST DUP2 MLOAD SWAP4 DUP5 GT PUSH3 0x21F JUMPI DUP5 SLOAD DUP6 DUP2 DUP2 SHR SWAP2 AND DUP1 ISZERO PUSH3 0x214 JUMPI JUMPDEST DUP8 DUP3 LT EQ PUSH3 0x200 JUMPI DUP4 DUP2 GT PUSH3 0x1B8 JUMPI JUMPDEST POP DUP6 SWAP3 DUP5 GT PUSH1 0x1 EQ PUSH3 0x153 JUMPI DUP4 SWAP5 SWAP6 POP SWAP3 PUSH3 0x147 JUMPI JUMPDEST POP POP PUSH1 0x0 NOT PUSH1 0x3 DUP4 SWAP1 SHL SHR NOT AND SWAP1 DUP3 SHL OR SWAP1 SSTORE JUMPDEST PUSH1 0x3 DUP1 SLOAD PUSH1 0x1 PUSH1 0x1 PUSH1 0xA0 SHL SUB NOT AND CALLER OR SWAP1 SSTORE PUSH1 0x40 MLOAD PUSH2 0x9E2 SWAP1 DUP2 PUSH3 0x3C9 DUP3 CODECOPY RETURN JUMPDEST ADD MLOAD SWAP1 POP CODESIZE DUP1 PUSH3 0x111 JUMP JUMPDEST SWAP2 SWAP1 PUSH1 0x1F NOT DUP5 AND SWAP6 DUP6 DUP5 MSTORE DUP1 DUP5 KECCAK256 SWAP4 SWAP1 JUMPDEST DUP8 DUP3 LT PUSH3 0x1A0 JUMPI POP POP DUP4 DUP6 SWAP7 LT PUSH3 0x186 JUMPI JUMPDEST POP POP POP DUP2 SHL ADD SWAP1 SSTORE PUSH3 0x125 JUMP JUMPDEST ADD MLOAD PUSH1 0x0 NOT PUSH1 0xF8 DUP5 PUSH1 0x3 SHL AND SHR NOT AND SWAP1 SSTORE CODESIZE DUP1 DUP1 PUSH3 0x178 JUMP JUMPDEST DUP1 DUP8 DUP6 SWAP7 DUP3 SWAP5 SWAP7 DUP7 ADD MLOAD DUP2 SSTORE ADD SWAP6 ADD SWAP4 ADD SWAP1 PUSH3 0x164 JUMP JUMPDEST DUP6 DUP3 MSTORE DUP7 DUP3 KECCAK256 DUP5 DUP1 DUP8 ADD PUSH1 0x5 SHR DUP3 ADD SWAP3 DUP10 DUP9 LT PUSH3 0x1F6 JUMPI JUMPDEST ADD PUSH1 0x5 SHR ADD SWAP1 DUP7 SWAP1 JUMPDEST DUP3 DUP2 LT PUSH3 0x1EA JUMPI POP POP PUSH3 0xF9 JUMP JUMPDEST DUP4 DUP2 SSTORE ADD DUP7 SWAP1 PUSH3 0x1DA JUMP JUMPDEST SWAP3 POP DUP2 SWAP3 PUSH3 0x1D1 JUMP JUMPDEST PUSH4 0x4E487B71 PUSH1 0xE0 SHL DUP3 MSTORE PUSH1 0x22 PUSH1 0x4 MSTORE PUSH1 0x24 DUP3 REVERT JUMPDEST SWAP1 PUSH1 0x7F AND SWAP1 PUSH3 0xE7 JUMP JUMPDEST PUSH4 0x4E487B71 PUSH1 0xE0 SHL DUP2 MSTORE PUSH1 0x41 PUSH1 0x4 MSTORE PUSH1 0x24 SWAP1 REVERT JUMPDEST ADD MLOAD SWAP1 POP CODESIZE DUP1 PUSH3 0xB9 JUMP JUMPDEST DUP5 DUP1 MSTORE DUP10 DUP6 KECCAK256 DUP10 SWAP5 POP SWAP2 SWAP1 PUSH1 0x1F NOT DUP5 AND DUP7 JUMPDEST DUP13 DUP3 DUP3 LT PUSH3 0x28C JUMPI POP POP DUP5 GT PUSH3 0x272 JUMPI JUMPDEST POP POP POP DUP2 SHL ADD DUP2 SSTORE PUSH3 0xCD JUMP JUMPDEST ADD MLOAD PUSH1 0x0 NOT PUSH1 0xF8 DUP5 PUSH1 0x3 SHL AND SHR NOT AND SWAP1 SSTORE CODESIZE DUP1 DUP1 PUSH3 0x264 JUMP JUMPDEST DUP4 DUP6 ADD MLOAD DUP7 SSTORE DUP13 SWAP8 SWAP1 SWAP6 ADD SWAP5 SWAP4 DUP5 ADD SWAP4 ADD PUSH3 0x251 JUMP JUMPDEST SWAP1 SWAP2 POP DUP4 DUP1 MSTORE DUP9 DUP5 KECCAK256 DUP7 DUP1 DUP6 ADD PUSH1 0x5 SHR DUP3 ADD SWAP3 DUP12 DUP7 LT PUSH3 0x2EC JUMPI JUMPDEST SWAP2 DUP11 SWAP2 DUP7 SWAP6 SWAP5 SWAP4 ADD PUSH1 0x5 SHR ADD SWAP2 JUMPDEST DUP3 DUP2 LT PUSH3 0x2DD JUMPI POP POP PUSH3 0xA3 JUMP JUMPDEST DUP7 DUP2 SSTORE DUP6 SWAP5 POP DUP11 SWAP2 ADD PUSH3 0x2CD JUMP JUMPDEST SWAP3 POP DUP2 SWAP3 PUSH3 0x2BF JUMP JUMPDEST PUSH4 0x4E487B71 PUSH1 0xE0 SHL DUP4 MSTORE PUSH1 0x22 PUSH1 0x4 MSTORE PUSH1 0x24 DUP4 REVERT JUMPDEST SWAP5 PUSH1 0x7F AND SWAP5 PUSH3 0x8C JUMP JUMPDEST PUSH4 0x4E487B71 PUSH1 0xE0 SHL PUSH1 0x0 MSTORE PUSH1 0x41 PUSH1 0x4 MSTORE PUSH1 0x24 PUSH1 0x0 REVERT JUMPDEST PUSH1 0x0 DUP1 REVERT JUMPDEST PUSH1 0x40 MLOAD SWAP2 SWAP1 PUSH1 0x1F ADD PUSH1 0x1F NOT AND DUP3 ADD PUSH1 0x1 PUSH1 0x1 PUSH1 0x40 SHL SUB DUP2 GT DUP4 DUP3 LT OR PUSH3 0x315 JUMPI PUSH1 0x40 MSTORE JUMP JUMPDEST SWAP2 SWAP1 DUP1 PUSH1 0x1F DUP5 ADD SLT ISZERO PUSH3 0x32B JUMPI DUP3 MLOAD PUSH1 0x1 PUSH1 0x1 PUSH1 0x40 SHL SUB DUP2 GT PUSH3 0x315 JUMPI PUSH1 0x20 SWAP1 PUSH3 0x38C PUSH1 0x1F DUP3 ADD PUSH1 0x1F NOT AND DUP4 ADD PUSH3 0x330 JUMP JUMPDEST SWAP3 DUP2 DUP5 MSTORE DUP3 DUP3 DUP8 ADD ADD GT PUSH3 0x32B JUMPI PUSH1 0x0 JUMPDEST DUP2 DUP2 LT PUSH3 0x3B4 JUMPI POP DUP3 PUSH1 0x0 SWAP4 SWAP5 SWAP6 POP ADD ADD MSTORE SWAP1 JUMP JUMPDEST DUP6 DUP2 ADD DUP4 ADD MLOAD DUP5 DUP3 ADD DUP5 ADD MSTORE DUP3 ADD PUSH3 0x39E JUMP INVALID PUSH1 0x80 PUSH1 0x40 DUP2 DUP2 MSTORE PUSH1 0x4 SWAP2 DUP3 CALLDATASIZE LT ISZERO PUSH2 0x16 JUMPI PUSH1 0x0 DUP1 REVERT JUMPDEST PUSH1 0x0 SWAP3 DUP4 CALLDATALOAD PUSH1 0xE0 SHR SWAP2 DUP3 PUSH4 0x6FDDE03 EQ PUSH2 0x57D JUMPI POP DUP2 PUSH4 0x7546172 EQ PUSH2 0x555 JUMPI DUP2 PUSH4 0x95EA7B3 EQ PUSH2 0x52B JUMPI DUP2 PUSH4 0x18160DDD EQ PUSH2 0x50C JUMPI DUP2 PUSH4 0x23B872DD EQ PUSH2 0x4A8 JUMPI DUP2 PUSH4 0x313CE567 EQ PUSH2 0x48C JUMPI DUP2 PUSH4 0x40C10F19 EQ PUSH2 0x3AF JUMPI DUP2 PUSH4 0x70A08231 EQ PUSH2 0x375 JUMPI DUP2 PUSH4 0x95D89B41 EQ PUSH2 0x255 JUMPI DUP2 PUSH4 0x9DC29FAC EQ PUSH2 0x124 JUMPI POP DUP1 PUSH4 0xA9059CBB EQ PUSH2 0xF4 JUMPI PUSH4 0xDD62ED3E EQ PUSH2 0xA9 JUMPI PUSH1 0x0 DUP1 REVERT JUMPDEST CALLVALUE PUSH2 0xF0 JUMPI DUP1 PUSH1 0x3 NOT CALLDATASIZE ADD SLT PUSH2 0xF0 JUMPI DUP1 PUSH1 0x20 SWAP3 PUSH2 0xC5 PUSH2 0x69C JUMP JUMPDEST PUSH2 0xCD PUSH2 0x6B7 JUMP JUMPDEST PUSH1 0x1 PUSH1 0x1 PUSH1 0xA0 SHL SUB SWAP2 DUP3 AND DUP4 MSTORE PUSH1 0x5 DUP7 MSTORE DUP4 DUP4 KECCAK256 SWAP2 AND DUP3 MSTORE DUP5 MSTORE KECCAK256 SLOAD SWAP1 MLOAD SWAP1 DUP2 MSTORE RETURN JUMPDEST POP DUP1 REVERT JUMPDEST POP CALLVALUE PUSH2 0xF0 JUMPI DUP1 PUSH1 0x3 NOT CALLDATASIZE ADD SLT PUSH2 0xF0 JUMPI PUSH1 0x20 SWAP1 PUSH2 0x11D PUSH2 0x113 PUSH2 0x69C JUMP JUMPDEST PUSH1 0x24 CALLDATALOAD SWAP1 CALLER PUSH2 0x7DE JUMP JUMPDEST MLOAD PUSH1 0x1 DUP2 MSTORE RETURN JUMPDEST DUP4 SWAP2 POP CALLVALUE PUSH2 0xF0 JUMPI DUP3 PUSH1 0x3 NOT CALLDATASIZE ADD SLT PUSH2 0xF0 JUMPI PUSH2 0x13F PUSH2 0x69C JUMP JUMPDEST PUSH1 0x24 CALLDATALOAD SWAP1 PUSH1 0x1 PUSH1 0x1 PUSH1 0xA0 SHL SUB SWAP1 PUSH2 0x15B DUP3 PUSH1 0x3 SLOAD AND CALLER EQ PUSH2 0x73B JUMP JUMPDEST AND SWAP2 DUP3 ISZERO PUSH2 0x212 JUMPI DUP3 DUP5 MSTORE DUP1 PUSH1 0x20 MSTORE DUP2 DUP6 DUP6 KECCAK256 SLOAD LT PUSH2 0x1CF JUMPI PUSH32 0xDDF252AD1BE2C89B69C2B068FC378DAA952BA7F163C4A11628F55A4DF523B3EF SWAP2 DUP5 SWAP6 PUSH1 0x20 SWAP3 DUP6 DUP8 MSTORE DUP1 DUP5 MSTORE PUSH2 0x1AE DUP4 DUP4 DUP10 KECCAK256 SLOAD PUSH2 0x6CD JUMP JUMPDEST SWAP1 DUP7 DUP9 MSTORE DUP5 MSTORE DUP2 DUP8 KECCAK256 SSTORE PUSH2 0x1C4 DUP3 PUSH1 0x2 SLOAD PUSH2 0x6CD JUMP JUMPDEST PUSH1 0x2 SSTORE MLOAD SWAP1 DUP2 MSTORE LOG3 DUP1 RETURN JUMPDEST PUSH1 0x64 SWAP1 PUSH1 0x20 DUP7 MLOAD SWAP2 PUSH3 0x461BCD PUSH1 0xE5 SHL DUP4 MSTORE DUP3 ADD MSTORE PUSH1 0x1B PUSH1 0x24 DUP3 ADD MSTORE PUSH32 0x4275726E20616D6F756E7420657863656564732062616C616E63650000000000 PUSH1 0x44 DUP3 ADD MSTORE REVERT JUMPDEST PUSH1 0x64 SWAP1 PUSH1 0x20 DUP7 MLOAD SWAP2 PUSH3 0x461BCD PUSH1 0xE5 SHL DUP4 MSTORE DUP3 ADD MSTORE PUSH1 0x16 PUSH1 0x24 DUP3 ADD MSTORE PUSH32 0x4275726E2066726F6D207A65726F206164647265737300000000000000000000 PUSH1 0x44 DUP3 ADD MSTORE REVERT JUMPDEST DUP4 DUP4 CALLVALUE PUSH2 0xF0 JUMPI DUP2 PUSH1 0x3 NOT CALLDATASIZE ADD SLT PUSH2 0xF0 JUMPI DUP1 MLOAD SWAP1 DUP3 PUSH1 0x1 DUP1 SLOAD SWAP1 DUP2 DUP2 SHR SWAP1 DUP1 DUP4 AND SWAP3 DUP4 ISZERO PUSH2 0x36B JUMPI JUMPDEST PUSH1 0x20 SWAP4 DUP5 DUP5 LT DUP2 EQ PUSH2 0x358 JUMPI DUP4 DUP9 MSTORE SWAP1 DUP2 ISZERO PUSH2 0x33C JUMPI POP PUSH1 0x1 EQ PUSH2 0x2E7 JUMPI JUMPDEST POP POP POP DUP3 SWAP1 SUB PUSH1 0x1F ADD PUSH1 0x1F NOT AND DUP3 ADD SWAP3 PUSH8 0xFFFFFFFFFFFFFFFF DUP5 GT DUP4 DUP6 LT OR PUSH2 0x2D4 JUMPI POP DUP3 SWAP2 DUP3 PUSH2 0x2D0 SWAP3 MSTORE DUP3 PUSH2 0x653 JUMP JUMPDEST SUB SWAP1 RETURN JUMPDEST DUP1 PUSH1 0x41 DUP7 PUSH4 0x4E487B71 PUSH1 0xE0 SHL PUSH1 0x24 SWAP5 MSTORE MSTORE REVERT JUMPDEST DUP1 DUP8 MSTORE SWAP2 SWAP3 POP DUP6 SWAP2 DUP4 PUSH32 0xB10E2D527612073B26EECDFD717E6A320CF44B4AFAC2B0732D9FCBE2B7FA0CF6 JUMPDEST DUP4 DUP6 LT PUSH2 0x328 JUMPI POP POP POP POP DUP4 ADD ADD DUP6 DUP1 DUP1 PUSH2 0x29E JUMP JUMPDEST DUP1 SLOAD DUP9 DUP7 ADD DUP4 ADD MSTORE SWAP4 ADD SWAP3 DUP5 SWAP1 DUP3 ADD PUSH2 0x312 JUMP JUMPDEST PUSH1 0xFF NOT AND DUP8 DUP6 ADD MSTORE POP POP ISZERO ISZERO PUSH1 0x5 SHL DUP5 ADD ADD SWAP1 POP DUP6 DUP1 DUP1 PUSH2 0x29E JUMP JUMPDEST PUSH1 0x24 DUP10 PUSH1 0x22 DUP13 PUSH4 0x4E487B71 PUSH1 0xE0 SHL DUP4 MSTORE MSTORE REVERT JUMPDEST SWAP2 PUSH1 0x7F AND SWAP2 PUSH2 0x27F JUMP JUMPDEST SWAP1 POP CALLVALUE PUSH2 0x3AB JUMPI PUSH1 0x20 CALLDATASIZE PUSH1 0x3 NOT ADD SLT PUSH2 0x3AB JUMPI PUSH1 0x20 SWAP3 DUP3 SWAP2 PUSH1 0x1 PUSH1 0x1 PUSH1 0xA0 SHL SUB PUSH2 0x39D PUSH2 0x69C JUMP JUMPDEST AND DUP3 MSTORE DUP5 MSTORE KECCAK256 SLOAD SWAP1 MLOAD SWAP1 DUP2 MSTORE RETURN JUMPDEST DUP3 DUP1 REVERT JUMPDEST SWAP2 SWAP1 POP CALLVALUE PUSH2 0x3AB JUMPI DUP1 PUSH1 0x3 NOT CALLDATASIZE ADD SLT PUSH2 0x3AB JUMPI PUSH2 0x3CA PUSH2 0x69C JUMP JUMPDEST SWAP1 PUSH1 0x24 CALLDATALOAD SWAP2 PUSH1 0x1 PUSH1 0x1 PUSH1 0xA0 SHL SUB SWAP1 PUSH2 0x3E7 DUP3 PUSH1 0x3 SLOAD AND CALLER EQ PUSH2 0x73B JUMP JUMPDEST AND SWAP3 DUP4 ISZERO PUSH2 0x44A JUMPI DUP3 PUSH32 0xDDF252AD1BE2C89B69C2B068FC378DAA952BA7F163C4A11628F55A4DF523B3EF SWAP3 PUSH1 0x20 SWAP3 PUSH2 0x422 DUP9 SWAP7 PUSH1 0x2 SLOAD PUSH2 0x786 JUMP JUMPDEST PUSH1 0x2 SSTORE DUP7 DUP7 MSTORE DUP1 DUP5 MSTORE PUSH2 0x438 DUP4 DUP4 DUP9 KECCAK256 SLOAD PUSH2 0x786 JUMP JUMPDEST SWAP1 DUP8 DUP8 MSTORE DUP5 MSTORE DUP2 DUP7 KECCAK256 SSTORE MLOAD SWAP1 DUP2 MSTORE LOG3 DUP1 RETURN JUMPDEST PUSH1 0x20 PUSH1 0x64 SWAP3 MLOAD SWAP2 PUSH3 0x461BCD PUSH1 0xE5 SHL DUP4 MSTORE DUP3 ADD MSTORE PUSH1 0x14 PUSH1 0x24 DUP3 ADD MSTORE PUSH32 0x4D696E7420746F207A65726F2061646472657373000000000000000000000000 PUSH1 0x44 DUP3 ADD MSTORE REVERT JUMPDEST POP POP CALLVALUE PUSH2 0xF0 JUMPI DUP2 PUSH1 0x3 NOT CALLDATASIZE ADD SLT PUSH2 0xF0 JUMPI PUSH1 0x20 SWAP1 MLOAD PUSH1 0x12 DUP2 MSTORE RETURN JUMPDEST POP POP CALLVALUE PUSH2 0xF0 JUMPI PUSH1 0x60 CALLDATASIZE PUSH1 0x3 NOT ADD SLT PUSH2 0xF0 JUMPI PUSH2 0x11D PUSH1 0x20 SWAP3 PUSH2 0x504 PUSH2 0x4CC PUSH2 0x69C JUMP JUMPDEST SWAP2 DUP5 PUSH2 0x4D6 PUSH2 0x6B7 JUMP JUMPDEST SWAP2 PUSH2 0x4E5 PUSH1 0x44 CALLDATALOAD DUP1 SWAP5 DUP8 PUSH2 0x7DE JUMP JUMPDEST PUSH1 0x1 PUSH1 0x1 PUSH1 0xA0 SHL SUB DUP6 AND DUP2 MSTORE PUSH1 0x5 DUP9 MSTORE DUP2 DUP2 KECCAK256 CALLER DUP3 MSTORE DUP9 MSTORE KECCAK256 SLOAD PUSH2 0x6CD JUMP JUMPDEST SWAP1 CALLER SWAP1 PUSH2 0x8EC JUMP JUMPDEST POP POP CALLVALUE PUSH2 0xF0 JUMPI DUP2 PUSH1 0x3 NOT CALLDATASIZE ADD SLT PUSH2 0xF0 JUMPI PUSH1 0x20 SWAP1 PUSH1 0x2 SLOAD SWAP1 MLOAD SWAP1 DUP2 MSTORE RETURN JUMPDEST POP POP CALLVALUE PUSH2 0xF0 JUMPI DUP1 PUSH1 0x3 NOT CALLDATASIZE ADD SLT PUSH2 0xF0 JUMPI PUSH1 0x20 SWAP1 PUSH2 0x11D PUSH2 0x54B PUSH2 0x69C JUMP JUMPDEST PUSH1 0x24 CALLDATALOAD SWAP1 CALLER PUSH2 0x8EC JUMP JUMPDEST POP POP CALLVALUE PUSH2 0xF0 JUMPI DUP2 PUSH1 0x3 NOT CALLDATASIZE ADD SLT PUSH2 0xF0 JUMPI PUSH1 0x20 SWAP1 PUSH1 0x1 PUSH1 0x1 PUSH1 0xA0 SHL SUB PUSH1 0x3 SLOAD AND SWAP1 MLOAD SWAP1 DUP2 MSTORE RETURN JUMPDEST DUP5 SWAP1 DUP5 CALLVALUE PUSH2 0x3AB JUMPI DUP3 PUSH1 0x3 NOT CALLDATASIZE ADD SLT PUSH2 0x3AB JUMPI DUP3 DUP4 SLOAD PUSH1 0x1 DUP2 DUP2 SHR SWAP1 DUP1 DUP4 AND SWAP3 DUP4 ISZERO PUSH2 0x649 JUMPI JUMPDEST PUSH1 0x20 SWAP4 DUP5 DUP5 LT DUP2 EQ PUSH2 0x358 JUMPI DUP4 DUP9 MSTORE SWAP1 DUP2 ISZERO PUSH2 0x33C JUMPI POP PUSH1 0x1 EQ PUSH2 0x5F4 JUMPI POP POP POP DUP3 SWAP1 SUB PUSH1 0x1F ADD PUSH1 0x1F NOT AND DUP3 ADD SWAP3 PUSH8 0xFFFFFFFFFFFFFFFF DUP5 GT DUP4 DUP6 LT OR PUSH2 0x2D4 JUMPI POP DUP3 SWAP2 DUP3 PUSH2 0x2D0 SWAP3 MSTORE DUP3 PUSH2 0x653 JUMP JUMPDEST DUP7 DUP1 MSTORE SWAP2 SWAP3 POP DUP6 SWAP2 DUP4 PUSH32 0x290DECD9548B62A8D60345A988386FC84BA6BC95484008F6362F93160EF3E563 JUMPDEST DUP4 DUP6 LT PUSH2 0x635 JUMPI POP POP POP POP DUP4 ADD ADD DUP6 DUP1 DUP1 PUSH2 0x29E JUMP JUMPDEST DUP1 SLOAD DUP9 DUP7 ADD DUP4 ADD MSTORE SWAP4 ADD SWAP3 DUP5 SWAP1 DUP3 ADD PUSH2 0x61F JUMP JUMPDEST SWAP2 PUSH1 0x7F AND SWAP2 PUSH2 0x5A4 JUMP JUMPDEST PUSH1 0x20 DUP1 DUP3 MSTORE DUP3 MLOAD DUP2 DUP4 ADD DUP2 SWAP1 MSTORE SWAP1 SWAP4 SWAP3 PUSH1 0x0 JUMPDEST DUP3 DUP2 LT PUSH2 0x688 JUMPI POP POP PUSH1 0x40 SWAP3 SWAP4 POP PUSH1 0x0 DUP4 DUP3 DUP5 ADD ADD MSTORE PUSH1 0x1F DUP1 NOT SWAP2 ADD AND ADD ADD SWAP1 JUMP JUMPDEST DUP2 DUP2 ADD DUP7 ADD MLOAD DUP5 DUP3 ADD PUSH1 0x40 ADD MSTORE DUP6 ADD PUSH2 0x666 JUMP JUMPDEST PUSH1 0x4 CALLDATALOAD SWAP1 PUSH1 0x1 PUSH1 0x1 PUSH1 0xA0 SHL SUB DUP3 AND DUP3 SUB PUSH2 0x6B2 JUMPI JUMP JUMPDEST PUSH1 0x0 DUP1 REVERT JUMPDEST PUSH1 0x24 CALLDATALOAD SWAP1 PUSH1 0x1 PUSH1 0x1 PUSH1 0xA0 SHL SUB DUP3 AND DUP3 SUB PUSH2 0x6B2 JUMPI JUMP JUMPDEST SWAP1 DUP2 DUP2 GT PUSH2 0x6F7 JUMPI DUP2 SUB SWAP1 DUP2 GT PUSH2 0x6E1 JUMPI SWAP1 JUMP JUMPDEST PUSH4 0x4E487B71 PUSH1 0xE0 SHL PUSH1 0x0 MSTORE PUSH1 0x11 PUSH1 0x4 MSTORE PUSH1 0x24 PUSH1 0x0 REVERT JUMPDEST PUSH1 0x64 PUSH1 0x40 MLOAD PUSH3 0x461BCD PUSH1 0xE5 SHL DUP2 MSTORE PUSH1 0x20 PUSH1 0x4 DUP3 ADD MSTORE PUSH1 0x1E PUSH1 0x24 DUP3 ADD MSTORE PUSH32 0x536166654D6174683A207375627472616374696F6E206F766572666C6F770000 PUSH1 0x44 DUP3 ADD MSTORE REVERT JUMPDEST ISZERO PUSH2 0x742 JUMPI JUMP JUMPDEST PUSH1 0x64 PUSH1 0x40 MLOAD PUSH3 0x461BCD PUSH1 0xE5 SHL DUP2 MSTORE PUSH1 0x20 PUSH1 0x4 DUP3 ADD MSTORE PUSH1 0xB PUSH1 0x24 DUP3 ADD MSTORE PUSH32 0x4F6E6C79206D696E746572000000000000000000000000000000000000000000 PUSH1 0x44 DUP3 ADD MSTORE REVERT JUMPDEST SWAP1 DUP2 ADD SWAP1 DUP2 DUP2 GT PUSH2 0x6E1 JUMPI DUP2 LT PUSH2 0x79A JUMPI SWAP1 JUMP JUMPDEST PUSH1 0x64 PUSH1 0x40 MLOAD PUSH3 0x461BCD PUSH1 0xE5 SHL DUP2 MSTORE PUSH1 0x20 PUSH1 0x4 DUP3 ADD MSTORE PUSH1 0x1B PUSH1 0x24 DUP3 ADD MSTORE PUSH32 0x536166654D6174683A206164646974696F6E206F766572666C6F770000000000 PUSH1 0x44 DUP3 ADD MSTORE REVERT JUMPDEST PUSH1 0x1 PUSH1 0x1 PUSH1 0xA0 SHL SUB DUP1 SWAP2 AND SWAP2 DUP3 ISZERO PUSH2 0x8A8 JUMPI AND SWAP2 DUP3 ISZERO PUSH2 0x864 JUMPI PUSH1 0x20 PUSH32 0xDDF252AD1BE2C89B69C2B068FC378DAA952BA7F163C4A11628F55A4DF523B3EF SWAP2 PUSH1 0x0 DUP5 DUP2 MSTORE PUSH1 0x4 DUP4 MSTORE PUSH2 0x833 DUP3 PUSH1 0x40 DUP4 KECCAK256 SLOAD PUSH2 0x6CD JUMP JUMPDEST DUP6 DUP3 MSTORE PUSH1 0x4 DUP5 MSTORE PUSH1 0x40 DUP3 KECCAK256 SSTORE DUP6 DUP2 MSTORE PUSH1 0x40 PUSH2 0x851 DUP4 DUP3 DUP5 KECCAK256 SLOAD PUSH2 0x786 JUMP JUMPDEST SWAP2 DUP8 DUP2 MSTORE PUSH1 0x4 DUP6 MSTORE KECCAK256 SSTORE PUSH1 0x40 MLOAD SWAP1 DUP2 MSTORE LOG3 JUMP JUMPDEST PUSH1 0x64 PUSH1 0x40 MLOAD PUSH3 0x461BCD PUSH1 0xE5 SHL DUP2 MSTORE PUSH1 0x20 PUSH1 0x4 DUP3 ADD MSTORE PUSH1 0x18 PUSH1 0x24 DUP3 ADD MSTORE PUSH32 0x5472616E7366657220746F207A65726F20616464726573730000000000000000 PUSH1 0x44 DUP3 ADD MSTORE REVERT JUMPDEST PUSH1 0x64 PUSH1 0x40 MLOAD PUSH3 0x461BCD PUSH1 0xE5 SHL DUP2 MSTORE PUSH1 0x20 PUSH1 0x4 DUP3 ADD MSTORE PUSH1 0x1A PUSH1 0x24 DUP3 ADD MSTORE PUSH32 0x5472616E736665722066726F6D207A65726F2061646472657373000000000000 PUSH1 0x44 DUP3 ADD MSTORE REVERT JUMPDEST PUSH1 0x1 PUSH1 0x1 PUSH1 0xA0 SHL SUB DUP1 SWAP2 AND SWAP2 DUP3 ISZERO PUSH2 0x991 JUMPI AND SWAP2 DUP3 ISZERO PUSH2 0x94D JUMPI PUSH1 0x20 PUSH32 0x8C5BE1E5EBEC7D5BD14F71427D1E84F3DD0314C0F7B2291E5B200AC8C7C3B925 SWAP2 DUP4 PUSH1 0x0 MSTORE PUSH1 0x5 DUP3 MSTORE PUSH1 0x40 PUSH1 0x0 KECCAK256 DUP6 PUSH1 0x0 MSTORE DUP3 MSTORE DUP1 PUSH1 0x40 PUSH1 0x0 KECCAK256 SSTORE PUSH1 0x40 MLOAD SWAP1 DUP2 MSTORE LOG3 JUMP JUMPDEST PUSH1 0x64 PUSH1 0x40 MLOAD PUSH3 0x461BCD PUSH1 0xE5 SHL DUP2 MSTORE PUSH1 0x20 PUSH1 0x4 DUP3 ADD MSTORE PUSH1 0x17 PUSH1 0x24 DUP3 ADD MSTORE PUSH32 0x417070726F766520746F207A65726F2061646472657373000000000000000000 PUSH1 0x44 DUP3 ADD MSTORE REVERT JUMPDEST PUSH1 0x64 PUSH1 0x40 MLOAD PUSH3 0x461BCD PUSH1 0xE5 SHL DUP2 MSTORE PUSH1 0x20 PUSH1 0x4 DUP3 ADD MSTORE PUSH1 0x19 PUSH1 0x24 DUP3 ADD MSTORE PUSH32 0x417070726F76652066726F6D207A65726F206164647265737300000000000000 PUSH1 0x44 DUP3 ADD MSTORE REVERT INVALID LOG1 PUSH5 0x736F6C6343 STOP ADDMOD EQ STOP EXP "},"methodIdentifiers":{"allowance(address,address)":"dd62ed3e","approve(address,uint256)":"095ea7b3","balanceOf(address)":"70a08231","burn(address,uint256)":"9dc29fac","decimals()":"313ce567","mint(address,uint256)":"40c10f19","minter()":"07546172","name()":"06fdde03","symbol()":"95d89b41","totalSupply()":"18160ddd","transfer(address,uint256)":"a9059cbb","transferFrom(address,address,uint256)":"23b872dd"}}}}}