{"contracts/FiatEscrow.sol":{"FiatEscrow":{"abi":[{"inputs":[{"internalType":"address","name":"initialArbitrator","type":"address"},{"internalType":"uint256","name":"initialFeePercentage","type":"uint256"},{"internalType":"uint256","name":"initialDisputeFee","type":"uint256"}],"stateMutability":"nonpayable","type":"constructor"},{"anonymous":false,"inputs":[{"indexed":false,"internalType":"uint256","name":"tradeId","type":"uint256"}],"name":"CollateralLocked","type":"event"},{"anonymous":false,"inputs":[{"indexed":false,"internalType":"uint256","name":"tradeId","type":"uint256"}],"name":"DisputeRaised","type":"event"},{"anonymous":false,"inputs":[{"indexed":false,"internalType":"uint256","name":"tradeId","type":"uint256"},{"indexed":false,"internalType":"bool","name":"buyerWins","type":"bool"}],"name":"DisputeResolved","type":"event"},{"anonymous":false,"inputs":[{"indexed":true,"internalType":"address","name":"previousOwner","type":"address"},{"indexed":true,"internalType":"address","name":"newOwner","type":"address"}],"name":"OwnershipTransferred","type":"event"},{"anonymous":false,"inputs":[{"indexed":false,"internalType":"uint256","name":"tradeId","type":"uint256"}],"name":"TradeCancelled","type":"event"},{"anonymous":false,"inputs":[{"indexed":false,"internalType":"uint256","name":"tradeId","type":"uint256"}],"name":"TradeCompleted","type":"event"},{"anonymous":false,"inputs":[{"indexed":false,"internalType":"uint256","name":"tradeId","type":"uint256"},{"indexed":false,"internalType":"address","name":"buyer","type":"address"},{"indexed":false,"internalType":"address","name":"seller","type":"address"}],"name":"TradeCreated","type":"event"},{"inputs":[{"internalType":"address","name":"newArbitrator","type":"address"}],"name":"addArbitrator","outputs":[],"stateMutability":"nonpayable","type":"function"},{"inputs":[{"internalType":"address","name":"","type":"address"}],"name":"allowedTokens","outputs":[{"internalType":"bool","name":"","type":"bool"}],"stateMutability":"view","type":"function"},{"inputs":[],"name":"arbitrator","outputs":[{"internalType":"address","name":"","type":"address"}],"stateMutability":"view","type":"function"},{"inputs":[{"internalType":"address","name":"","type":"address"}],"name":"arbitrators","outputs":[{"internalType":"bool","name":"","type":"bool"}],"stateMutability":"view","type":"function"},{"inputs":[{"internalType":"uint256","name":"tradeId","type":"uint256"}],"name":"cancelTrade","outputs":[],"stateMutability":"nonpayable","type":"function"},{"inputs":[{"internalType":"address","name":"token","type":"address"},{"internalType":"address","name":"seller","type":"address"},{"internalType":"uint256","name":"collateralAmount","type":"uint256"},{"internalType":"string","name":"fiatCurrency","type":"string"},{"internalType":"uint256","name":"fiatAmount","type":"uint256"}],"name":"createTrade","outputs":[{"internalType":"uint256","name":"","type":"uint256"}],"stateMutability":"nonpayable","type":"function"},{"inputs":[],"name":"disputeFeeFixed","outputs":[{"internalType":"uint256","name":"","type":"uint256"}],"stateMutability":"view","type":"function"},{"inputs":[{"internalType":"uint256","name":"tradeId","type":"uint256"}],"name":"lockCollateral","outputs":[],"stateMutability":"nonpayable","type":"function"},{"inputs":[],"name":"owner","outputs":[{"internalType":"address","name":"","type":"address"}],"stateMutability":"view","type":"function"},{"inputs":[],"name":"platformFeePercentage","outputs":[{"internalType":"uint256","name":"","type":"uint256"}],"stateMutability":"view","type":"function"},{"inputs":[{"internalType":"uint256","name":"tradeId","type":"uint256"}],"name":"raiseDispute","outputs":[],"stateMutability":"nonpayable","type":"function"},{"inputs":[{"internalType":"uint256","name":"tradeId","type":"uint256"}],"name":"releaseCollateral","outputs":[],"stateMutability":"nonpayable","type":"function"},{"inputs":[{"internalType":"address","name":"arbitratorToRemove","type":"address"}],"name":"removeArbitrator","outputs":[],"stateMutability":"nonpayable","type":"function"},{"inputs":[],"name":"renounceOwnership","outputs":[],"stateMutability":"nonpayable","type":"function"},{"inputs":[{"internalType":"uint256","name":"tradeId","type":"uint256"},{"internalType":"bool","name":"buyerWins","type":"bool"}],"name":"resolveDispute","outputs":[],"stateMutability":"nonpayable","type":"function"},{"inputs":[{"internalType":"address","name":"token","type":"address"},{"internalType":"bool","name":"allowed","type":"bool"}],"name":"setAllowedToken","outputs":[],"stateMutability":"nonpayable","type":"function"},{"inputs":[],"name":"tradeCounter","outputs":[{"internalType":"uint256","name":"","type":"uint256"}],"stateMutability":"view","type":"function"},{"inputs":[{"internalType":"uint256","name":"","type":"uint256"}],"name":"trades","outputs":[{"internalType":"address","name":"token","type":"address"},{"internalType":"address","name":"buyer","type":"address"},{"internalType":"address","name":"seller","type":"address"},{"internalType":"uint256","name":"collateralAmount","type":"uint256"},{"internalType":"uint256","name":"platformFee","type":"uint256"},{"internalType":"uint256","name":"disputeFee","type":"uint256"},{"internalType":"enum FiatEscrow.FiatEscrowStatus","name":"status","type":"uint8"},{"internalType":"string","name":"fiatCurrency","type":"string"},{"internalType":"uint256","name":"fiatAmount","type":"uint256"}],"stateMutability":"view","type":"function"},{"inputs":[{"internalType":"address","name":"newOwner","type":"address"}],"name":"transferOwnership","outputs":[],"stateMutability":"nonpayable","type":"function"},{"inputs":[{"internalType":"uint256","name":"newFeePercentage","type":"uint256"},{"internalType":"uint256","name":"newDisputeFee","type":"uint256"}],"name":"updateFees","outputs":[],"stateMutability":"nonpayable","type":"function"}],"evm":{"bytecode":{"linkReferences":{},"object":"6080346101bb57601f611a7138819003918201601f191683019291906001600160401b038411838510176101c05781606092849260409687528339810103126101bb5780516001600160a01b0390818116908190036101bb578360208401519301519060009283549060018060a01b031991338382161786558751913391167f8be0079c531659141344cd1fd0a4f28419497f9722a3daafe3b4186f6b6457e08780a36001805582156101795750606485116101355791816001949287946003541617600355825260086020528282209460ff19958587825416179055600455600555731e0125b823dcde430578068532e2dc400c56fa828152600760205281812083858254161790557355d398326f99059ff775485246999027b3197955815220918254161790555161189a90816101d78239f35b855162461bcd60e51b815260206004820152601760248201527f4665652070657263656e7461676520746f6f20686967680000000000000000006044820152606490fd5b62461bcd60e51b815260206004820152601a60248201527f496e76616c69642061726269747261746f7220616464726573730000000000006044820152606490fd5b600080fd5b634e487b7160e01b600052604160045260246000fdfe6080604052600436101561001257600080fd5b60003560e01c806301fabd751461164357806309ec6cc71461144d5780631e6c598e146112bc57806334b25ee214610eab57806339007b7714610bca57806351d0ea3714610b8b578063660d15b514610b6d5780636cc6cde114610b445780636db7943714610ad0578063715018a614610a775780638aaa228414610a245780638da5cb5b146109fb578063973ad2701461099d578063a5c1674e146108bd578063c96068ce14610408578063cdd78cfc146103ea578063e2233cbd14610223578063e744092e146101e4578063edc1f335146101c65763f2fde38b146100f857600080fd5b346101c15760203660031901126101c1576101116116d3565b610119611754565b6001600160a01b0390811690811561016d57600054826bffffffffffffffffffffffff60a01b821617600055167f8be0079c531659141344cd1fd0a4f28419497f9722a3daafe3b4186f6b6457e0600080a3005b60405162461bcd60e51b815260206004820152602660248201527f4f776e61626c653a206e6577206f776e657220697320746865207a65726f206160448201526564647265737360d01b6064820152608490fd5b600080fd5b346101c15760003660031901126101c1576020600554604051908152f35b346101c15760203660031901126101c1576001600160a01b036102056116d3565b166000526007602052602060ff604060002054166040519015158152f35b346101c1576020806003193601126101c1576004359061024161180e565b6000828152600682526040902060018101546001600160a01b03939190841633036103af57600681019360ff855416916006831015610399576064859261028a600095156117ac565b6102ab6102a060038501546004860154906117e9565b6005850154906117e9565b9254169160405194859384926323b872dd60e01b845233600485015230602485015260448401525af190811561038d57600091610360575b5015610323577f1df9ce9caeb0a377f930b1f6b97d4292f57ad0e6f6b74270a81d403910ac5c3f92600160ff19825416179055604051908152a160018055005b60405162461bcd60e51b8152600481018390526015602482015274151bdad95b881d1c985b9cd9995c8819985a5b1959605a1b6044820152606490fd5b6103809150833d8511610386575b6103788183611723565b8101906117f6565b846102e3565b503d61036e565b6040513d6000823e3d90fd5b634e487b7160e01b600052602160045260246000fd5b60405162461bcd60e51b81526004810184905260136024820152724f6e6c792062757965722063616e206c6f636b60681b6044820152606490fd5b346101c15760003660031901126101c1576020600454604051908152f35b346101c15760a03660031901126101c1576104216116d3565b6024356001600160a01b03811681036101c15760643567ffffffffffffffff81116101c157366023820112156101c157806004013567ffffffffffffffff8111610797576040519161047d601f8301601f191660200184611723565b81835236602483830101116101c1578160009260246020930183860137830101526001600160a01b03831660009081526007602052604090205460ff1615610884576044351561083f576001600160a01b03821615610801576001600160a01b03821633146107c357600454906044358083020482036107ad576002549060001982146107ad5760018201600255600554604051958661012081011067ffffffffffffffff61012089011117610797576001946064916101208901604052868060a01b03168852336020890152858060a01b038716604089015260443560608901526044350204608087015260a0860152600060c086015260e0850152608435610100850152016000526006602052604060002060018060a01b038351166bffffffffffffffffffffffff60a01b90818354161782556001820160018060a01b0360208601511682825416179055600282019060018060a01b0360408601511690825416179055606083015160038201556080830151600482015560a083015160058201556006810160c084015160068110156103995760ff80198354169116179055600781019260e081015193845167ffffffffffffffff81116107975761064682546116e9565b95601f871161074f575b602096508690601f83116001146106e25791806101009492600896946000926106d7575b50508160011b916000199060031b1c19161790555b01519101557f9cf777ef8d920853772227176d5a18d6b577d1644b2b02949641f93317a21b2560606002549260405190848252338683015260018060a01b03166040820152a1604051908152f35b015190508980610674565b90601f1983169184600052886000209260005b81811061073857509260019285926008989661010098961061071f575b505050811b019055610689565b015160001960f88460031b161c19169055898080610712565b92938a6001819287860151815501950193016106f5565b826000526020600020601f830160051c8101976020841061078d575b601f0160051c01965b8781106107815750610650565b60008155600101610774565b909750879061076b565b634e487b7160e01b600052604160045260246000fd5b634e487b7160e01b600052601160045260246000fd5b60405162461bcd60e51b815260206004820152601660248201527529b2b63632b91031b0b73737ba10313290313abcb2b960511b6044820152606490fd5b60405162461bcd60e51b8152602060048201526016602482015275496e76616c69642073656c6c6572206164647265737360501b6044820152606490fd5b60405162461bcd60e51b815260206004820152601b60248201527f436f6c6c61746572616c206d75737420626520706f73697469766500000000006044820152606490fd5b60405162461bcd60e51b8152602060048201526011602482015270151bdad95b881b9bdd08185b1b1bddd959607a1b6044820152606490fd5b346101c15760203660031901126101c15760043560008181526006602052604090206001810154336001600160a01b039182161490811561098d575b5015610956576006019081549060ff821692600684101561039957600360209361094660017f04901f83201c8724eadf084436db8aa391820bae6d11f9f78a17edb6f2eef3cf97146117ac565b60ff1916179055604051908152a1005b60405162461bcd60e51b815260206004820152600f60248201526e139bdd081c185c9d1a58da5c185b9d608a1b6044820152606490fd5b90506002820154163314836108f9565b346101c15760203660031901126101c1576109b66116d3565b6109be611754565b6001600160a01b039081166000818152600860205260409020805460ff19169055600354918216146109ec57005b6001600160a01b031916600355005b346101c15760003660031901126101c1576000546040516001600160a01b039091168152602090f35b346101c15760403660031901126101c157610a3d6116d3565b610a45611745565b90610a4e611754565b60018060a01b0316600052600760205260406000209060ff801983541691151516179055600080f35b346101c15760003660031901126101c157610a90611754565b600080546001600160a01b0319811682556001600160a01b03167f8be0079c531659141344cd1fd0a4f28419497f9722a3daafe3b4186f6b6457e08280a3005b346101c15760403660031901126101c157600435610aec611754565b60648111610aff57600455602435600555005b60405162461bcd60e51b815260206004820152601760248201527f4665652070657263656e7461676520746f6f20686967680000000000000000006044820152606490fd5b346101c15760003660031901126101c1576003546040516001600160a01b039091168152602090f35b346101c15760003660031901126101c1576020600254604051908152f35b346101c15760203660031901126101c1576001600160a01b03610bac6116d3565b166000526008602052602060ff604060002054166040519015158152f35b346101c1576020806003193601126101c15760043590610be861180e565b816000526006815260406000209160018060a01b038060028501541690813303610e6657600685019460ff8654166006811015610399576001610c2b91146117ac565b8054600382015460405163a9059cbb60e01b8082526001600160a01b0396909616600482015260248101919091529086908290604490829060009088165af190811561038d57600091610e49575b5015610e12578054600080546004808501546040518881529287166001600160a01b03169183019190915260248201529187918391604491839188165af190811561038d57600091610df5575b5015610dba57805460018201546005909201546040519485529183166001600160a01b0316600485015260248401919091528491839116816000816044810103925af190811561038d57600091610d9d575b5015610d58577f60f91a26281f20fb528663f4da55773c83e2ee8a7a5dddb6d1753749e81dc49b92600260ff19825416179055604051908152a160018055005b60405162461bcd60e51b815260048101839052601960248201527f44697370757465206665652072657475726e206661696c6564000000000000006044820152606490fd5b610db49150833d8511610386576103788183611723565b84610d18565b60405162461bcd60e51b8152600481018690526013602482015272119959481d1c985b9cd9995c8819985a5b1959606a1b6044820152606490fd5b610e0c9150863d8811610386576103788183611723565b87610cc6565b60405162461bcd60e51b815260048101869052600f60248201526e151c985b9cd9995c8819985a5b1959608a1b6044820152606490fd5b610e609150863d8811610386576103788183611723565b87610c79565b60405162461bcd60e51b815260048101859052601760248201527f4f6e6c792073656c6c65722063616e2072656c656173650000000000000000006044820152606490fd5b346101c15760403660031901126101c157600435610ec7611745565b336000526020906008825260ff604060002054161561127757610ee861180e565b82600052600682526040600020600681019060ff8254166006811015610399576003036112415782156110ee57610f748460018060a01b03808454169060018501541690610f3f60038601546005870154906117e9565b60405163a9059cbb60e01b81526001600160a01b03909316600484015260248301529092839190829060009082906044820190565b03925af190811561038d576000916110d1575b50156110965783610fd7915b80546000805460049384015460405163a9059cbb60e01b81526001600160a01b03928316958101959095526024850152929485939092169183919082906044820190565b03925af190811561038d57600091611079575b501561103457917f5a87909bff68caaaaf0b3fd9c74eeccc928832f879315e5c6fb7a73612f26c0c9391604093600460ff198254161790558351928352151590820152a160018055005b60405162461bcd60e51b815260048101849052601c60248201527f506c6174666f726d20666565207472616e73666572206661696c6564000000006044820152606490fd5b6110909150843d8611610386576103788183611723565b85610fea565b60405162461bcd60e51b8152600481018590526013602482015272109d5e595c881c99599d5b990819985a5b1959606a1b6044820152606490fd5b6110e89150853d8711610386576103788183611723565b86610f87565b80546002820154600383015460405163a9059cbb60e01b8082526001600160a01b0393841660048301526024820192909252909287908290604490829060009087165af190811561038d57600091611224575b50156111e757825460058401546040519384523360048501526024840152869183916044918391600091165af190811561038d576000916111ca575b501561118d5783610fd791610f93565b60405162461bcd60e51b8152600481018590526015602482015274105c989a5d1c985d1bdc881999594819985a5b1959605a1b6044820152606490fd5b6111e19150853d8711610386576103788183611723565b8661117d565b60405162461bcd60e51b815260048101879052601560248201527414d95b1b195c881c185e5b595b9d0819985a5b1959605a1b6044820152606490fd5b61123b9150873d8911610386576103788183611723565b88611141565b60405162461bcd60e51b815260048101859052600e60248201526d4e6f7420696e206469737075746560901b6044820152606490fd5b60405162461bcd60e51b815260048101839052601960248201527f4e6f7420617574686f72697a65642061726269747261746f72000000000000006044820152606490fd5b346101c1576020806003193601126101c15760043560005260068152604060002060018060a01b0390818154169260019183838201541693600282015416600382015460048301549060058401549260ff600686015416946007810160405198899160009181549161132d836116e9565b928386528c83821691826000146114275750506001146113e3575b5050506008929161135a91038a611723565b015497604051998a52868a015260408901526060880152608087015260a08601526006811015610399579084929160c0840152610120918260e08501528051809385015260005b8381106113cb57505050610140926000848385010152610100830152601f80199101168101030190f35b818101830151878201610140015286945082016113a1565b8b935060009291925282600020916000925b82841061140d575050508201018161135a6008611348565b84929582958583549201015201910190928a928c946113f5565b60ff19168782015293151560051b8601909301935084925061135a915060089050611348565b346101c1576020806003193601126101c1576004359061146b61180e565b6000828152600682526040902060018101546001600160a01b0393919084163381900361160657600682019460ff86541660068110158061039957811580156115f9575b156115c457610399576001146114fd575b5050507f4e02dcf02d8510f6c8a6878a3c54ae6e2bfbf552df29221d7a1eed173a6b1ae792600560ff19825416179055604051908152a160018055005b9184916115519361151a6102a060038501546004860154906117e9565b92541690600060405180968195829463a9059cbb60e01b84526004840160209093929193604081019460018060a01b031681520152565b03925af190811561038d576000916115a7575b5015611572578380806114c0565b60405162461bcd60e51b815260048101839052600d60248201526c1499599d5b990819985a5b1959609a1b6044820152606490fd5b6115be9150833d8511610386576103788183611723565b84611564565b60405162461bcd60e51b815260048101889052600d60248201526c10d85b9b9bdd0818d85b98d95b609a1b6044820152606490fd5b50506000600182146114af565b60405162461bcd60e51b815260048101859052601560248201527413db9b1e48189d5e595c8818d85b8818d85b98d95b605a1b6044820152606490fd5b346101c15760203660031901126101c15761165c6116d3565b611664611754565b6001600160a01b0316801561168e576000908152600860205260409020805460ff19166001179055005b60405162461bcd60e51b815260206004820152601a60248201527f496e76616c69642061726269747261746f7220616464726573730000000000006044820152606490fd5b600435906001600160a01b03821682036101c157565b90600182811c92168015611719575b602083101461170357565b634e487b7160e01b600052602260045260246000fd5b91607f16916116f8565b90601f8019910116810190811067ffffffffffffffff82111761079757604052565b6024359081151582036101c157565b6000546001600160a01b0316330361176857565b606460405162461bcd60e51b815260206004820152602060248201527f4f776e61626c653a2063616c6c6572206973206e6f7420746865206f776e65726044820152fd5b156117b357565b60405162461bcd60e51b815260206004820152600e60248201526d496e76616c69642073746174757360901b6044820152606490fd5b919082018092116107ad57565b908160209103126101c1575180151581036101c15790565b60026001541461181f576002600155565b60405162461bcd60e51b815260206004820152601f60248201527f5265656e7472616e637947756172643a207265656e7472616e742063616c6c006044820152606490fdfea2646970667358221220cffb3a2f077f2088cbc8024ad3ef1cb9d7731e5a2f3448728ed3176672660f1864736f6c63430008140033","opcodes":"PUSH1 0x80 CALLVALUE PUSH2 0x1BB JUMPI PUSH1 0x1F PUSH2 0x1A71 CODESIZE DUP2 SWAP1 SUB SWAP2 DUP3 ADD PUSH1 0x1F NOT AND DUP4 ADD SWAP3 SWAP2 SWAP1 PUSH1 0x1 PUSH1 0x1 PUSH1 0x40 SHL SUB DUP5 GT DUP4 DUP6 LT OR PUSH2 0x1C0 JUMPI DUP2 PUSH1 0x60 SWAP3 DUP5 SWAP3 PUSH1 0x40 SWAP7 DUP8 MSTORE DUP4 CODECOPY DUP2 ADD SUB SLT PUSH2 0x1BB JUMPI DUP1 MLOAD PUSH1 0x1 PUSH1 0x1 PUSH1 0xA0 SHL SUB SWAP1 DUP2 DUP2 AND SWAP1 DUP2 SWAP1 SUB PUSH2 0x1BB JUMPI DUP4 PUSH1 0x20 DUP5 ADD MLOAD SWAP4 ADD MLOAD SWAP1 PUSH1 0x0 SWAP3 DUP4 SLOAD SWAP1 PUSH1 0x1 DUP1 PUSH1 0xA0 SHL SUB NOT SWAP2 CALLER DUP4 DUP3 AND OR DUP7 SSTORE DUP8 MLOAD SWAP2 CALLER SWAP2 AND PUSH32 0x8BE0079C531659141344CD1FD0A4F28419497F9722A3DAAFE3B4186F6B6457E0 DUP8 DUP1 LOG3 PUSH1 0x1 DUP1 SSTORE DUP3 ISZERO PUSH2 0x179 JUMPI POP PUSH1 0x64 DUP6 GT PUSH2 0x135 JUMPI SWAP2 DUP2 PUSH1 0x1 SWAP5 SWAP3 DUP8 SWAP5 PUSH1 0x3 SLOAD AND OR PUSH1 0x3 SSTORE DUP3 MSTORE PUSH1 0x8 PUSH1 0x20 MSTORE DUP3 DUP3 KECCAK256 SWAP5 PUSH1 0xFF NOT SWAP6 DUP6 DUP8 DUP3 SLOAD AND OR SWAP1 SSTORE PUSH1 0x4 SSTORE PUSH1 0x5 SSTORE PUSH20 0x1E0125B823DCDE430578068532E2DC400C56FA82 DUP2 MSTORE PUSH1 0x7 PUSH1 0x20 MSTORE DUP2 DUP2 KECCAK256 DUP4 DUP6 DUP3 SLOAD AND OR SWAP1 SSTORE PUSH20 0x55D398326F99059FF775485246999027B3197955 DUP2 MSTORE KECCAK256 SWAP2 DUP3 SLOAD AND OR SWAP1 SSTORE MLOAD PUSH2 0x189A SWAP1 DUP2 PUSH2 0x1D7 DUP3 CODECOPY RETURN JUMPDEST DUP6 MLOAD PUSH3 0x461BCD PUSH1 0xE5 SHL DUP2 MSTORE PUSH1 0x20 PUSH1 0x4 DUP3 ADD MSTORE PUSH1 0x17 PUSH1 0x24 DUP3 ADD MSTORE PUSH32 0x4665652070657263656E7461676520746F6F2068696768000000000000000000 PUSH1 0x44 DUP3 ADD MSTORE PUSH1 0x64 SWAP1 REVERT JUMPDEST PUSH3 0x461BCD PUSH1 0xE5 SHL DUP2 MSTORE PUSH1 0x20 PUSH1 0x4 DUP3 ADD MSTORE PUSH1 0x1A PUSH1 0x24 DUP3 ADD MSTORE PUSH32 0x496E76616C69642061726269747261746F722061646472657373000000000000 PUSH1 0x44 DUP3 ADD MSTORE PUSH1 0x64 SWAP1 REVERT JUMPDEST PUSH1 0x0 DUP1 REVERT JUMPDEST PUSH4 0x4E487B71 PUSH1 0xE0 SHL PUSH1 0x0 MSTORE PUSH1 0x41 PUSH1 0x4 MSTORE PUSH1 0x24 PUSH1 0x0 REVERT INVALID PUSH1 0x80 PUSH1 0x40 MSTORE PUSH1 0x4 CALLDATASIZE LT ISZERO PUSH2 0x12 JUMPI PUSH1 0x0 DUP1 REVERT JUMPDEST PUSH1 0x0 CALLDATALOAD PUSH1 0xE0 SHR DUP1 PUSH4 0x1FABD75 EQ PUSH2 0x1643 JUMPI DUP1 PUSH4 0x9EC6CC7 EQ PUSH2 0x144D JUMPI DUP1 PUSH4 0x1E6C598E EQ PUSH2 0x12BC JUMPI DUP1 PUSH4 0x34B25EE2 EQ PUSH2 0xEAB JUMPI DUP1 PUSH4 0x39007B77 EQ PUSH2 0xBCA JUMPI DUP1 PUSH4 0x51D0EA37 EQ PUSH2 0xB8B JUMPI DUP1 PUSH4 0x660D15B5 EQ PUSH2 0xB6D JUMPI DUP1 PUSH4 0x6CC6CDE1 EQ PUSH2 0xB44 JUMPI DUP1 PUSH4 0x6DB79437 EQ PUSH2 0xAD0 JUMPI DUP1 PUSH4 0x715018A6 EQ PUSH2 0xA77 JUMPI DUP1 PUSH4 0x8AAA2284 EQ PUSH2 0xA24 JUMPI DUP1 PUSH4 0x8DA5CB5B EQ PUSH2 0x9FB JUMPI DUP1 PUSH4 0x973AD270 EQ PUSH2 0x99D JUMPI DUP1 PUSH4 0xA5C1674E EQ PUSH2 0x8BD JUMPI DUP1 PUSH4 0xC96068CE EQ PUSH2 0x408 JUMPI DUP1 PUSH4 0xCDD78CFC EQ PUSH2 0x3EA JUMPI DUP1 PUSH4 0xE2233CBD EQ PUSH2 0x223 JUMPI DUP1 PUSH4 0xE744092E EQ PUSH2 0x1E4 JUMPI DUP1 PUSH4 0xEDC1F335 EQ PUSH2 0x1C6 JUMPI PUSH4 0xF2FDE38B EQ PUSH2 0xF8 JUMPI PUSH1 0x0 DUP1 REVERT JUMPDEST CALLVALUE PUSH2 0x1C1 JUMPI PUSH1 0x20 CALLDATASIZE PUSH1 0x3 NOT ADD SLT PUSH2 0x1C1 JUMPI PUSH2 0x111 PUSH2 0x16D3 JUMP JUMPDEST PUSH2 0x119 PUSH2 0x1754 JUMP JUMPDEST PUSH1 0x1 PUSH1 0x1 PUSH1 0xA0 SHL SUB SWAP1 DUP2 AND SWAP1 DUP2 ISZERO PUSH2 0x16D JUMPI PUSH1 0x0 SLOAD DUP3 PUSH12 0xFFFFFFFFFFFFFFFFFFFFFFFF PUSH1 0xA0 SHL DUP3 AND OR PUSH1 0x0 SSTORE AND PUSH32 0x8BE0079C531659141344CD1FD0A4F28419497F9722A3DAAFE3B4186F6B6457E0 PUSH1 0x0 DUP1 LOG3 STOP JUMPDEST PUSH1 0x40 MLOAD PUSH3 0x461BCD PUSH1 0xE5 SHL DUP2 MSTORE PUSH1 0x20 PUSH1 0x4 DUP3 ADD MSTORE PUSH1 0x26 PUSH1 0x24 DUP3 ADD MSTORE PUSH32 0x4F776E61626C653A206E6577206F776E657220697320746865207A65726F2061 PUSH1 0x44 DUP3 ADD MSTORE PUSH6 0x646472657373 PUSH1 0xD0 SHL PUSH1 0x64 DUP3 ADD MSTORE PUSH1 0x84 SWAP1 REVERT JUMPDEST PUSH1 0x0 DUP1 REVERT JUMPDEST CALLVALUE PUSH2 0x1C1 JUMPI PUSH1 0x0 CALLDATASIZE PUSH1 0x3 NOT ADD SLT PUSH2 0x1C1 JUMPI PUSH1 0x20 PUSH1 0x5 SLOAD PUSH1 0x40 MLOAD SWAP1 DUP2 MSTORE RETURN JUMPDEST CALLVALUE PUSH2 0x1C1 JUMPI PUSH1 0x20 CALLDATASIZE PUSH1 0x3 NOT ADD SLT PUSH2 0x1C1 JUMPI PUSH1 0x1 PUSH1 0x1 PUSH1 0xA0 SHL SUB PUSH2 0x205 PUSH2 0x16D3 JUMP JUMPDEST AND PUSH1 0x0 MSTORE PUSH1 0x7 PUSH1 0x20 MSTORE PUSH1 0x20 PUSH1 0xFF PUSH1 0x40 PUSH1 0x0 KECCAK256 SLOAD AND PUSH1 0x40 MLOAD SWAP1 ISZERO ISZERO DUP2 MSTORE RETURN JUMPDEST CALLVALUE PUSH2 0x1C1 JUMPI PUSH1 0x20 DUP1 PUSH1 0x3 NOT CALLDATASIZE ADD SLT PUSH2 0x1C1 JUMPI PUSH1 0x4 CALLDATALOAD SWAP1 PUSH2 0x241 PUSH2 0x180E JUMP JUMPDEST PUSH1 0x0 DUP3 DUP2 MSTORE PUSH1 0x6 DUP3 MSTORE PUSH1 0x40 SWAP1 KECCAK256 PUSH1 0x1 DUP2 ADD SLOAD PUSH1 0x1 PUSH1 0x1 PUSH1 0xA0 SHL SUB SWAP4 SWAP2 SWAP1 DUP5 AND CALLER SUB PUSH2 0x3AF JUMPI PUSH1 0x6 DUP2 ADD SWAP4 PUSH1 0xFF DUP6 SLOAD AND SWAP2 PUSH1 0x6 DUP4 LT ISZERO PUSH2 0x399 JUMPI PUSH1 0x64 DUP6 SWAP3 PUSH2 0x28A PUSH1 0x0 SWAP6 ISZERO PUSH2 0x17AC JUMP JUMPDEST PUSH2 0x2AB PUSH2 0x2A0 PUSH1 0x3 DUP6 ADD SLOAD PUSH1 0x4 DUP7 ADD SLOAD SWAP1 PUSH2 0x17E9 JUMP JUMPDEST PUSH1 0x5 DUP6 ADD SLOAD SWAP1 PUSH2 0x17E9 JUMP JUMPDEST SWAP3 SLOAD AND SWAP2 PUSH1 0x40 MLOAD SWAP5 DUP6 SWAP4 DUP5 SWAP3 PUSH4 0x23B872DD PUSH1 0xE0 SHL DUP5 MSTORE CALLER PUSH1 0x4 DUP6 ADD MSTORE ADDRESS PUSH1 0x24 DUP6 ADD MSTORE PUSH1 0x44 DUP5 ADD MSTORE GAS CALL SWAP1 DUP2 ISZERO PUSH2 0x38D JUMPI PUSH1 0x0 SWAP2 PUSH2 0x360 JUMPI JUMPDEST POP ISZERO PUSH2 0x323 JUMPI PUSH32 0x1DF9CE9CAEB0A377F930B1F6B97D4292F57AD0E6F6B74270A81D403910AC5C3F SWAP3 PUSH1 0x1 PUSH1 0xFF NOT DUP3 SLOAD AND OR SWAP1 SSTORE PUSH1 0x40 MLOAD SWAP1 DUP2 MSTORE LOG1 PUSH1 0x1 DUP1 SSTORE STOP JUMPDEST PUSH1 0x40 MLOAD PUSH3 0x461BCD PUSH1 0xE5 SHL DUP2 MSTORE PUSH1 0x4 DUP2 ADD DUP4 SWAP1 MSTORE PUSH1 0x15 PUSH1 0x24 DUP3 ADD MSTORE PUSH21 0x151BDAD95B881D1C985B9CD9995C8819985A5B1959 PUSH1 0x5A SHL PUSH1 0x44 DUP3 ADD MSTORE PUSH1 0x64 SWAP1 REVERT JUMPDEST PUSH2 0x380 SWAP2 POP DUP4 RETURNDATASIZE DUP6 GT PUSH2 0x386 JUMPI JUMPDEST PUSH2 0x378 DUP2 DUP4 PUSH2 0x1723 JUMP JUMPDEST DUP2 ADD SWAP1 PUSH2 0x17F6 JUMP JUMPDEST DUP5 PUSH2 0x2E3 JUMP JUMPDEST POP RETURNDATASIZE PUSH2 0x36E JUMP JUMPDEST PUSH1 0x40 MLOAD RETURNDATASIZE PUSH1 0x0 DUP3 RETURNDATACOPY RETURNDATASIZE SWAP1 REVERT JUMPDEST PUSH4 0x4E487B71 PUSH1 0xE0 SHL PUSH1 0x0 MSTORE PUSH1 0x21 PUSH1 0x4 MSTORE PUSH1 0x24 PUSH1 0x0 REVERT JUMPDEST PUSH1 0x40 MLOAD PUSH3 0x461BCD PUSH1 0xE5 SHL DUP2 MSTORE PUSH1 0x4 DUP2 ADD DUP5 SWAP1 MSTORE PUSH1 0x13 PUSH1 0x24 DUP3 ADD MSTORE PUSH19 0x4F6E6C792062757965722063616E206C6F636B PUSH1 0x68 SHL PUSH1 0x44 DUP3 ADD MSTORE PUSH1 0x64 SWAP1 REVERT JUMPDEST CALLVALUE PUSH2 0x1C1 JUMPI PUSH1 0x0 CALLDATASIZE PUSH1 0x3 NOT ADD SLT PUSH2 0x1C1 JUMPI PUSH1 0x20 PUSH1 0x4 SLOAD PUSH1 0x40 MLOAD SWAP1 DUP2 MSTORE RETURN JUMPDEST CALLVALUE PUSH2 0x1C1 JUMPI PUSH1 0xA0 CALLDATASIZE PUSH1 0x3 NOT ADD SLT PUSH2 0x1C1 JUMPI PUSH2 0x421 PUSH2 0x16D3 JUMP JUMPDEST PUSH1 0x24 CALLDATALOAD PUSH1 0x1 PUSH1 0x1 PUSH1 0xA0 SHL SUB DUP2 AND DUP2 SUB PUSH2 0x1C1 JUMPI PUSH1 0x64 CALLDATALOAD PUSH8 0xFFFFFFFFFFFFFFFF DUP2 GT PUSH2 0x1C1 JUMPI CALLDATASIZE PUSH1 0x23 DUP3 ADD SLT ISZERO PUSH2 0x1C1 JUMPI DUP1 PUSH1 0x4 ADD CALLDATALOAD PUSH8 0xFFFFFFFFFFFFFFFF DUP2 GT PUSH2 0x797 JUMPI PUSH1 0x40 MLOAD SWAP2 PUSH2 0x47D PUSH1 0x1F DUP4 ADD PUSH1 0x1F NOT AND PUSH1 0x20 ADD DUP5 PUSH2 0x1723 JUMP JUMPDEST DUP2 DUP4 MSTORE CALLDATASIZE PUSH1 0x24 DUP4 DUP4 ADD ADD GT PUSH2 0x1C1 JUMPI DUP2 PUSH1 0x0 SWAP3 PUSH1 0x24 PUSH1 0x20 SWAP4 ADD DUP4 DUP7 ADD CALLDATACOPY DUP4 ADD ADD MSTORE PUSH1 0x1 PUSH1 0x1 PUSH1 0xA0 SHL SUB DUP4 AND PUSH1 0x0 SWAP1 DUP2 MSTORE PUSH1 0x7 PUSH1 0x20 MSTORE PUSH1 0x40 SWAP1 KECCAK256 SLOAD PUSH1 0xFF AND ISZERO PUSH2 0x884 JUMPI PUSH1 0x44 CALLDATALOAD ISZERO PUSH2 0x83F JUMPI PUSH1 0x1 PUSH1 0x1 PUSH1 0xA0 SHL SUB DUP3 AND ISZERO PUSH2 0x801 JUMPI PUSH1 0x1 PUSH1 0x1 PUSH1 0xA0 SHL SUB DUP3 AND CALLER EQ PUSH2 0x7C3 JUMPI PUSH1 0x4 SLOAD SWAP1 PUSH1 0x44 CALLDATALOAD DUP1 DUP4 MUL DIV DUP3 SUB PUSH2 0x7AD JUMPI PUSH1 0x2 SLOAD SWAP1 PUSH1 0x0 NOT DUP3 EQ PUSH2 0x7AD JUMPI PUSH1 0x1 DUP3 ADD PUSH1 0x2 SSTORE PUSH1 0x5 SLOAD PUSH1 0x40 MLOAD SWAP6 DUP7 PUSH2 0x120 DUP2 ADD LT PUSH8 0xFFFFFFFFFFFFFFFF PUSH2 0x120 DUP10 ADD GT OR PUSH2 0x797 JUMPI PUSH1 0x1 SWAP5 PUSH1 0x64 SWAP2 PUSH2 0x120 DUP10 ADD PUSH1 0x40 MSTORE DUP7 DUP1 PUSH1 0xA0 SHL SUB AND DUP9 MSTORE CALLER PUSH1 0x20 DUP10 ADD MSTORE DUP6 DUP1 PUSH1 0xA0 SHL SUB DUP8 AND PUSH1 0x40 DUP10 ADD MSTORE PUSH1 0x44 CALLDATALOAD PUSH1 0x60 DUP10 ADD MSTORE PUSH1 0x44 CALLDATALOAD MUL DIV PUSH1 0x80 DUP8 ADD MSTORE PUSH1 0xA0 DUP7 ADD MSTORE PUSH1 0x0 PUSH1 0xC0 DUP7 ADD MSTORE PUSH1 0xE0 DUP6 ADD MSTORE PUSH1 0x84 CALLDATALOAD PUSH2 0x100 DUP6 ADD MSTORE ADD PUSH1 0x0 MSTORE PUSH1 0x6 PUSH1 0x20 MSTORE PUSH1 0x40 PUSH1 0x0 KECCAK256 PUSH1 0x1 DUP1 PUSH1 0xA0 SHL SUB DUP4 MLOAD AND PUSH12 0xFFFFFFFFFFFFFFFFFFFFFFFF PUSH1 0xA0 SHL SWAP1 DUP2 DUP4 SLOAD AND OR DUP3 SSTORE PUSH1 0x1 DUP3 ADD PUSH1 0x1 DUP1 PUSH1 0xA0 SHL SUB PUSH1 0x20 DUP7 ADD MLOAD AND DUP3 DUP3 SLOAD AND OR SWAP1 SSTORE PUSH1 0x2 DUP3 ADD SWAP1 PUSH1 0x1 DUP1 PUSH1 0xA0 SHL SUB PUSH1 0x40 DUP7 ADD MLOAD AND SWAP1 DUP3 SLOAD AND OR SWAP1 SSTORE PUSH1 0x60 DUP4 ADD MLOAD PUSH1 0x3 DUP3 ADD SSTORE PUSH1 0x80 DUP4 ADD MLOAD PUSH1 0x4 DUP3 ADD SSTORE PUSH1 0xA0 DUP4 ADD MLOAD PUSH1 0x5 DUP3 ADD SSTORE PUSH1 0x6 DUP2 ADD PUSH1 0xC0 DUP5 ADD MLOAD PUSH1 0x6 DUP2 LT ISZERO PUSH2 0x399 JUMPI PUSH1 0xFF DUP1 NOT DUP4 SLOAD AND SWAP2 AND OR SWAP1 SSTORE PUSH1 0x7 DUP2 ADD SWAP3 PUSH1 0xE0 DUP2 ADD MLOAD SWAP4 DUP5 MLOAD PUSH8 0xFFFFFFFFFFFFFFFF DUP2 GT PUSH2 0x797 JUMPI PUSH2 0x646 DUP3 SLOAD PUSH2 0x16E9 JUMP JUMPDEST SWAP6 PUSH1 0x1F DUP8 GT PUSH2 0x74F JUMPI JUMPDEST PUSH1 0x20 SWAP7 POP DUP7 SWAP1 PUSH1 0x1F DUP4 GT PUSH1 0x1 EQ PUSH2 0x6E2 JUMPI SWAP2 DUP1 PUSH2 0x100 SWAP5 SWAP3 PUSH1 0x8 SWAP7 SWAP5 PUSH1 0x0 SWAP3 PUSH2 0x6D7 JUMPI JUMPDEST POP POP DUP2 PUSH1 0x1 SHL SWAP2 PUSH1 0x0 NOT SWAP1 PUSH1 0x3 SHL SHR NOT AND OR SWAP1 SSTORE JUMPDEST ADD MLOAD SWAP2 ADD SSTORE PUSH32 0x9CF777EF8D920853772227176D5A18D6B577D1644B2B02949641F93317A21B25 PUSH1 0x60 PUSH1 0x2 SLOAD SWAP3 PUSH1 0x40 MLOAD SWAP1 DUP5 DUP3 MSTORE CALLER DUP7 DUP4 ADD MSTORE PUSH1 0x1 DUP1 PUSH1 0xA0 SHL SUB AND PUSH1 0x40 DUP3 ADD MSTORE LOG1 PUSH1 0x40 MLOAD SWAP1 DUP2 MSTORE RETURN JUMPDEST ADD MLOAD SWAP1 POP DUP10 DUP1 PUSH2 0x674 JUMP JUMPDEST SWAP1 PUSH1 0x1F NOT DUP4 AND SWAP2 DUP5 PUSH1 0x0 MSTORE DUP9 PUSH1 0x0 KECCAK256 SWAP3 PUSH1 0x0 JUMPDEST DUP2 DUP2 LT PUSH2 0x738 JUMPI POP SWAP3 PUSH1 0x1 SWAP3 DUP6 SWAP3 PUSH1 0x8 SWAP9 SWAP7 PUSH2 0x100 SWAP9 SWAP7 LT PUSH2 0x71F JUMPI JUMPDEST POP POP POP DUP2 SHL ADD SWAP1 SSTORE PUSH2 0x689 JUMP JUMPDEST ADD MLOAD PUSH1 0x0 NOT PUSH1 0xF8 DUP5 PUSH1 0x3 SHL AND SHR NOT AND SWAP1 SSTORE DUP10 DUP1 DUP1 PUSH2 0x712 JUMP JUMPDEST SWAP3 SWAP4 DUP11 PUSH1 0x1 DUP2 SWAP3 DUP8 DUP7 ADD MLOAD DUP2 SSTORE ADD SWAP6 ADD SWAP4 ADD PUSH2 0x6F5 JUMP JUMPDEST DUP3 PUSH1 0x0 MSTORE PUSH1 0x20 PUSH1 0x0 KECCAK256 PUSH1 0x1F DUP4 ADD PUSH1 0x5 SHR DUP2 ADD SWAP8 PUSH1 0x20 DUP5 LT PUSH2 0x78D JUMPI JUMPDEST PUSH1 0x1F ADD PUSH1 0x5 SHR ADD SWAP7 JUMPDEST DUP8 DUP2 LT PUSH2 0x781 JUMPI POP PUSH2 0x650 JUMP JUMPDEST PUSH1 0x0 DUP2 SSTORE PUSH1 0x1 ADD PUSH2 0x774 JUMP JUMPDEST SWAP1 SWAP8 POP DUP8 SWAP1 PUSH2 0x76B JUMP JUMPDEST PUSH4 0x4E487B71 PUSH1 0xE0 SHL PUSH1 0x0 MSTORE PUSH1 0x41 PUSH1 0x4 MSTORE PUSH1 0x24 PUSH1 0x0 REVERT JUMPDEST PUSH4 0x4E487B71 PUSH1 0xE0 SHL PUSH1 0x0 MSTORE PUSH1 0x11 PUSH1 0x4 MSTORE PUSH1 0x24 PUSH1 0x0 REVERT JUMPDEST PUSH1 0x40 MLOAD PUSH3 0x461BCD PUSH1 0xE5 SHL DUP2 MSTORE PUSH1 0x20 PUSH1 0x4 DUP3 ADD MSTORE PUSH1 0x16 PUSH1 0x24 DUP3 ADD MSTORE PUSH22 0x29B2B63632B91031B0B73737BA10313290313ABCB2B9 PUSH1 0x51 SHL PUSH1 0x44 DUP3 ADD MSTORE PUSH1 0x64 SWAP1 REVERT JUMPDEST PUSH1 0x40 MLOAD PUSH3 0x461BCD PUSH1 0xE5 SHL DUP2 MSTORE PUSH1 0x20 PUSH1 0x4 DUP3 ADD MSTORE PUSH1 0x16 PUSH1 0x24 DUP3 ADD MSTORE PUSH22 0x496E76616C69642073656C6C65722061646472657373 PUSH1 0x50 SHL PUSH1 0x44 DUP3 ADD MSTORE PUSH1 0x64 SWAP1 REVERT JUMPDEST PUSH1 0x40 MLOAD PUSH3 0x461BCD PUSH1 0xE5 SHL DUP2 MSTORE PUSH1 0x20 PUSH1 0x4 DUP3 ADD MSTORE PUSH1 0x1B PUSH1 0x24 DUP3 ADD MSTORE PUSH32 0x436F6C6C61746572616C206D75737420626520706F7369746976650000000000 PUSH1 0x44 DUP3 ADD MSTORE PUSH1 0x64 SWAP1 REVERT JUMPDEST PUSH1 0x40 MLOAD PUSH3 0x461BCD PUSH1 0xE5 SHL DUP2 MSTORE PUSH1 0x20 PUSH1 0x4 DUP3 ADD MSTORE PUSH1 0x11 PUSH1 0x24 DUP3 ADD MSTORE PUSH17 0x151BDAD95B881B9BDD08185B1B1BDDD959 PUSH1 0x7A SHL PUSH1 0x44 DUP3 ADD MSTORE PUSH1 0x64 SWAP1 REVERT JUMPDEST CALLVALUE PUSH2 0x1C1 JUMPI PUSH1 0x20 CALLDATASIZE PUSH1 0x3 NOT ADD SLT PUSH2 0x1C1 JUMPI PUSH1 0x4 CALLDATALOAD PUSH1 0x0 DUP2 DUP2 MSTORE PUSH1 0x6 PUSH1 0x20 MSTORE PUSH1 0x40 SWAP1 KECCAK256 PUSH1 0x1 DUP2 ADD SLOAD CALLER PUSH1 0x1 PUSH1 0x1 PUSH1 0xA0 SHL SUB SWAP2 DUP3 AND EQ SWAP1 DUP2 ISZERO PUSH2 0x98D JUMPI JUMPDEST POP ISZERO PUSH2 0x956 JUMPI PUSH1 0x6 ADD SWAP1 DUP2 SLOAD SWAP1 PUSH1 0xFF DUP3 AND SWAP3 PUSH1 0x6 DUP5 LT ISZERO PUSH2 0x399 JUMPI PUSH1 0x3 PUSH1 0x20 SWAP4 PUSH2 0x946 PUSH1 0x1 PUSH32 0x4901F83201C8724EADF084436DB8AA391820BAE6D11F9F78A17EDB6F2EEF3CF SWAP8 EQ PUSH2 0x17AC JUMP JUMPDEST PUSH1 0xFF NOT AND OR SWAP1 SSTORE PUSH1 0x40 MLOAD SWAP1 DUP2 MSTORE LOG1 STOP JUMPDEST PUSH1 0x40 MLOAD PUSH3 0x461BCD PUSH1 0xE5 SHL DUP2 MSTORE PUSH1 0x20 PUSH1 0x4 DUP3 ADD MSTORE PUSH1 0xF PUSH1 0x24 DUP3 ADD MSTORE PUSH15 0x139BDD081C185C9D1A58DA5C185B9D PUSH1 0x8A SHL PUSH1 0x44 DUP3 ADD MSTORE PUSH1 0x64 SWAP1 REVERT JUMPDEST SWAP1 POP PUSH1 0x2 DUP3 ADD SLOAD AND CALLER EQ DUP4 PUSH2 0x8F9 JUMP JUMPDEST CALLVALUE PUSH2 0x1C1 JUMPI PUSH1 0x20 CALLDATASIZE PUSH1 0x3 NOT ADD SLT PUSH2 0x1C1 JUMPI PUSH2 0x9B6 PUSH2 0x16D3 JUMP JUMPDEST PUSH2 0x9BE PUSH2 0x1754 JUMP JUMPDEST PUSH1 0x1 PUSH1 0x1 PUSH1 0xA0 SHL SUB SWAP1 DUP2 AND PUSH1 0x0 DUP2 DUP2 MSTORE PUSH1 0x8 PUSH1 0x20 MSTORE PUSH1 0x40 SWAP1 KECCAK256 DUP1 SLOAD PUSH1 0xFF NOT AND SWAP1 SSTORE PUSH1 0x3 SLOAD SWAP2 DUP3 AND EQ PUSH2 0x9EC JUMPI STOP JUMPDEST PUSH1 0x1 PUSH1 0x1 PUSH1 0xA0 SHL SUB NOT AND PUSH1 0x3 SSTORE STOP JUMPDEST CALLVALUE PUSH2 0x1C1 JUMPI PUSH1 0x0 CALLDATASIZE PUSH1 0x3 NOT ADD SLT PUSH2 0x1C1 JUMPI PUSH1 0x0 SLOAD PUSH1 0x40 MLOAD PUSH1 0x1 PUSH1 0x1 PUSH1 0xA0 SHL SUB SWAP1 SWAP2 AND DUP2 MSTORE PUSH1 0x20 SWAP1 RETURN JUMPDEST CALLVALUE PUSH2 0x1C1 JUMPI PUSH1 0x40 CALLDATASIZE PUSH1 0x3 NOT ADD SLT PUSH2 0x1C1 JUMPI PUSH2 0xA3D PUSH2 0x16D3 JUMP JUMPDEST PUSH2 0xA45 PUSH2 0x1745 JUMP JUMPDEST SWAP1 PUSH2 0xA4E PUSH2 0x1754 JUMP JUMPDEST PUSH1 0x1 DUP1 PUSH1 0xA0 SHL SUB AND PUSH1 0x0 MSTORE PUSH1 0x7 PUSH1 0x20 MSTORE PUSH1 0x40 PUSH1 0x0 KECCAK256 SWAP1 PUSH1 0xFF DUP1 NOT DUP4 SLOAD AND SWAP2 ISZERO ISZERO AND OR SWAP1 SSTORE PUSH1 0x0 DUP1 RETURN JUMPDEST CALLVALUE PUSH2 0x1C1 JUMPI PUSH1 0x0 CALLDATASIZE PUSH1 0x3 NOT ADD SLT PUSH2 0x1C1 JUMPI PUSH2 0xA90 PUSH2 0x1754 JUMP JUMPDEST PUSH1 0x0 DUP1 SLOAD PUSH1 0x1 PUSH1 0x1 PUSH1 0xA0 SHL SUB NOT DUP2 AND DUP3 SSTORE PUSH1 0x1 PUSH1 0x1 PUSH1 0xA0 SHL SUB AND PUSH32 0x8BE0079C531659141344CD1FD0A4F28419497F9722A3DAAFE3B4186F6B6457E0 DUP3 DUP1 LOG3 STOP JUMPDEST CALLVALUE PUSH2 0x1C1 JUMPI PUSH1 0x40 CALLDATASIZE PUSH1 0x3 NOT ADD SLT PUSH2 0x1C1 JUMPI PUSH1 0x4 CALLDATALOAD PUSH2 0xAEC PUSH2 0x1754 JUMP JUMPDEST PUSH1 0x64 DUP2 GT PUSH2 0xAFF JUMPI PUSH1 0x4 SSTORE PUSH1 0x24 CALLDATALOAD PUSH1 0x5 SSTORE STOP JUMPDEST PUSH1 0x40 MLOAD PUSH3 0x461BCD PUSH1 0xE5 SHL DUP2 MSTORE PUSH1 0x20 PUSH1 0x4 DUP3 ADD MSTORE PUSH1 0x17 PUSH1 0x24 DUP3 ADD MSTORE PUSH32 0x4665652070657263656E7461676520746F6F2068696768000000000000000000 PUSH1 0x44 DUP3 ADD MSTORE PUSH1 0x64 SWAP1 REVERT JUMPDEST CALLVALUE PUSH2 0x1C1 JUMPI PUSH1 0x0 CALLDATASIZE PUSH1 0x3 NOT ADD SLT PUSH2 0x1C1 JUMPI PUSH1 0x3 SLOAD PUSH1 0x40 MLOAD PUSH1 0x1 PUSH1 0x1 PUSH1 0xA0 SHL SUB SWAP1 SWAP2 AND DUP2 MSTORE PUSH1 0x20 SWAP1 RETURN JUMPDEST CALLVALUE PUSH2 0x1C1 JUMPI PUSH1 0x0 CALLDATASIZE PUSH1 0x3 NOT ADD SLT PUSH2 0x1C1 JUMPI PUSH1 0x20 PUSH1 0x2 SLOAD PUSH1 0x40 MLOAD SWAP1 DUP2 MSTORE RETURN JUMPDEST CALLVALUE PUSH2 0x1C1 JUMPI PUSH1 0x20 CALLDATASIZE PUSH1 0x3 NOT ADD SLT PUSH2 0x1C1 JUMPI PUSH1 0x1 PUSH1 0x1 PUSH1 0xA0 SHL SUB PUSH2 0xBAC PUSH2 0x16D3 JUMP JUMPDEST AND PUSH1 0x0 MSTORE PUSH1 0x8 PUSH1 0x20 MSTORE PUSH1 0x20 PUSH1 0xFF PUSH1 0x40 PUSH1 0x0 KECCAK256 SLOAD AND PUSH1 0x40 MLOAD SWAP1 ISZERO ISZERO DUP2 MSTORE RETURN JUMPDEST CALLVALUE PUSH2 0x1C1 JUMPI PUSH1 0x20 DUP1 PUSH1 0x3 NOT CALLDATASIZE ADD SLT PUSH2 0x1C1 JUMPI PUSH1 0x4 CALLDATALOAD SWAP1 PUSH2 0xBE8 PUSH2 0x180E JUMP JUMPDEST DUP2 PUSH1 0x0 MSTORE PUSH1 0x6 DUP2 MSTORE PUSH1 0x40 PUSH1 0x0 KECCAK256 SWAP2 PUSH1 0x1 DUP1 PUSH1 0xA0 SHL SUB DUP1 PUSH1 0x2 DUP6 ADD SLOAD AND SWAP1 DUP2 CALLER SUB PUSH2 0xE66 JUMPI PUSH1 0x6 DUP6 ADD SWAP5 PUSH1 0xFF DUP7 SLOAD AND PUSH1 0x6 DUP2 LT ISZERO PUSH2 0x399 JUMPI PUSH1 0x1 PUSH2 0xC2B SWAP2 EQ PUSH2 0x17AC JUMP JUMPDEST DUP1 SLOAD PUSH1 0x3 DUP3 ADD SLOAD PUSH1 0x40 MLOAD PUSH4 0xA9059CBB PUSH1 0xE0 SHL DUP1 DUP3 MSTORE PUSH1 0x1 PUSH1 0x1 PUSH1 0xA0 SHL SUB SWAP7 SWAP1 SWAP7 AND PUSH1 0x4 DUP3 ADD MSTORE PUSH1 0x24 DUP2 ADD SWAP2 SWAP1 SWAP2 MSTORE SWAP1 DUP7 SWAP1 DUP3 SWAP1 PUSH1 0x44 SWAP1 DUP3 SWAP1 PUSH1 0x0 SWAP1 DUP9 AND GAS CALL SWAP1 DUP2 ISZERO PUSH2 0x38D JUMPI PUSH1 0x0 SWAP2 PUSH2 0xE49 JUMPI JUMPDEST POP ISZERO PUSH2 0xE12 JUMPI DUP1 SLOAD PUSH1 0x0 DUP1 SLOAD PUSH1 0x4 DUP1 DUP6 ADD SLOAD PUSH1 0x40 MLOAD DUP9 DUP2 MSTORE SWAP3 DUP8 AND PUSH1 0x1 PUSH1 0x1 PUSH1 0xA0 SHL SUB AND SWAP2 DUP4 ADD SWAP2 SWAP1 SWAP2 MSTORE PUSH1 0x24 DUP3 ADD MSTORE SWAP2 DUP8 SWAP2 DUP4 SWAP2 PUSH1 0x44 SWAP2 DUP4 SWAP2 DUP9 AND GAS CALL SWAP1 DUP2 ISZERO PUSH2 0x38D JUMPI PUSH1 0x0 SWAP2 PUSH2 0xDF5 JUMPI JUMPDEST POP ISZERO PUSH2 0xDBA JUMPI DUP1 SLOAD PUSH1 0x1 DUP3 ADD SLOAD PUSH1 0x5 SWAP1 SWAP3 ADD SLOAD PUSH1 0x40 MLOAD SWAP5 DUP6 MSTORE SWAP2 DUP4 AND PUSH1 0x1 PUSH1 0x1 PUSH1 0xA0 SHL SUB AND PUSH1 0x4 DUP6 ADD MSTORE PUSH1 0x24 DUP5 ADD SWAP2 SWAP1 SWAP2 MSTORE DUP5 SWAP2 DUP4 SWAP2 AND DUP2 PUSH1 0x0 DUP2 PUSH1 0x44 DUP2 ADD SUB SWAP3 GAS CALL SWAP1 DUP2 ISZERO PUSH2 0x38D JUMPI PUSH1 0x0 SWAP2 PUSH2 0xD9D JUMPI JUMPDEST POP ISZERO PUSH2 0xD58 JUMPI PUSH32 0x60F91A26281F20FB528663F4DA55773C83E2EE8A7A5DDDB6D1753749E81DC49B SWAP3 PUSH1 0x2 PUSH1 0xFF NOT DUP3 SLOAD AND OR SWAP1 SSTORE PUSH1 0x40 MLOAD SWAP1 DUP2 MSTORE LOG1 PUSH1 0x1 DUP1 SSTORE STOP JUMPDEST PUSH1 0x40 MLOAD PUSH3 0x461BCD PUSH1 0xE5 SHL DUP2 MSTORE PUSH1 0x4 DUP2 ADD DUP4 SWAP1 MSTORE PUSH1 0x19 PUSH1 0x24 DUP3 ADD MSTORE PUSH32 0x44697370757465206665652072657475726E206661696C656400000000000000 PUSH1 0x44 DUP3 ADD MSTORE PUSH1 0x64 SWAP1 REVERT JUMPDEST PUSH2 0xDB4 SWAP2 POP DUP4 RETURNDATASIZE DUP6 GT PUSH2 0x386 JUMPI PUSH2 0x378 DUP2 DUP4 PUSH2 0x1723 JUMP JUMPDEST DUP5 PUSH2 0xD18 JUMP JUMPDEST PUSH1 0x40 MLOAD PUSH3 0x461BCD PUSH1 0xE5 SHL DUP2 MSTORE PUSH1 0x4 DUP2 ADD DUP7 SWAP1 MSTORE PUSH1 0x13 PUSH1 0x24 DUP3 ADD MSTORE PUSH19 0x119959481D1C985B9CD9995C8819985A5B1959 PUSH1 0x6A SHL PUSH1 0x44 DUP3 ADD MSTORE PUSH1 0x64 SWAP1 REVERT JUMPDEST PUSH2 0xE0C SWAP2 POP DUP7 RETURNDATASIZE DUP9 GT PUSH2 0x386 JUMPI PUSH2 0x378 DUP2 DUP4 PUSH2 0x1723 JUMP JUMPDEST DUP8 PUSH2 0xCC6 JUMP JUMPDEST PUSH1 0x40 MLOAD PUSH3 0x461BCD PUSH1 0xE5 SHL DUP2 MSTORE PUSH1 0x4 DUP2 ADD DUP7 SWAP1 MSTORE PUSH1 0xF PUSH1 0x24 DUP3 ADD MSTORE PUSH15 0x151C985B9CD9995C8819985A5B1959 PUSH1 0x8A SHL PUSH1 0x44 DUP3 ADD MSTORE PUSH1 0x64 SWAP1 REVERT JUMPDEST PUSH2 0xE60 SWAP2 POP DUP7 RETURNDATASIZE DUP9 GT PUSH2 0x386 JUMPI PUSH2 0x378 DUP2 DUP4 PUSH2 0x1723 JUMP JUMPDEST DUP8 PUSH2 0xC79 JUMP JUMPDEST PUSH1 0x40 MLOAD PUSH3 0x461BCD PUSH1 0xE5 SHL DUP2 MSTORE PUSH1 0x4 DUP2 ADD DUP6 SWAP1 MSTORE PUSH1 0x17 PUSH1 0x24 DUP3 ADD MSTORE PUSH32 0x4F6E6C792073656C6C65722063616E2072656C65617365000000000000000000 PUSH1 0x44 DUP3 ADD MSTORE PUSH1 0x64 SWAP1 REVERT JUMPDEST CALLVALUE PUSH2 0x1C1 JUMPI PUSH1 0x40 CALLDATASIZE PUSH1 0x3 NOT ADD SLT PUSH2 0x1C1 JUMPI PUSH1 0x4 CALLDATALOAD PUSH2 0xEC7 PUSH2 0x1745 JUMP JUMPDEST CALLER PUSH1 0x0 MSTORE PUSH1 0x20 SWAP1 PUSH1 0x8 DUP3 MSTORE PUSH1 0xFF PUSH1 0x40 PUSH1 0x0 KECCAK256 SLOAD AND ISZERO PUSH2 0x1277 JUMPI PUSH2 0xEE8 PUSH2 0x180E JUMP JUMPDEST DUP3 PUSH1 0x0 MSTORE PUSH1 0x6 DUP3 MSTORE PUSH1 0x40 PUSH1 0x0 KECCAK256 PUSH1 0x6 DUP2 ADD SWAP1 PUSH1 0xFF DUP3 SLOAD AND PUSH1 0x6 DUP2 LT ISZERO PUSH2 0x399 JUMPI PUSH1 0x3 SUB PUSH2 0x1241 JUMPI DUP3 ISZERO PUSH2 0x10EE JUMPI PUSH2 0xF74 DUP5 PUSH1 0x1 DUP1 PUSH1 0xA0 SHL SUB DUP1 DUP5 SLOAD AND SWAP1 PUSH1 0x1 DUP6 ADD SLOAD AND SWAP1 PUSH2 0xF3F PUSH1 0x3 DUP7 ADD SLOAD PUSH1 0x5 DUP8 ADD SLOAD SWAP1 PUSH2 0x17E9 JUMP JUMPDEST PUSH1 0x40 MLOAD PUSH4 0xA9059CBB PUSH1 0xE0 SHL DUP2 MSTORE PUSH1 0x1 PUSH1 0x1 PUSH1 0xA0 SHL SUB SWAP1 SWAP4 AND PUSH1 0x4 DUP5 ADD MSTORE PUSH1 0x24 DUP4 ADD MSTORE SWAP1 SWAP3 DUP4 SWAP2 SWAP1 DUP3 SWAP1 PUSH1 0x0 SWAP1 DUP3 SWAP1 PUSH1 0x44 DUP3 ADD SWAP1 JUMP JUMPDEST SUB SWAP3 GAS CALL SWAP1 DUP2 ISZERO PUSH2 0x38D JUMPI PUSH1 0x0 SWAP2 PUSH2 0x10D1 JUMPI JUMPDEST POP ISZERO PUSH2 0x1096 JUMPI DUP4 PUSH2 0xFD7 SWAP2 JUMPDEST DUP1 SLOAD PUSH1 0x0 DUP1 SLOAD PUSH1 0x4 SWAP4 DUP5 ADD SLOAD PUSH1 0x40 MLOAD PUSH4 0xA9059CBB PUSH1 0xE0 SHL DUP2 MSTORE PUSH1 0x1 PUSH1 0x1 PUSH1 0xA0 SHL SUB SWAP3 DUP4 AND SWAP6 DUP2 ADD SWAP6 SWAP1 SWAP6 MSTORE PUSH1 0x24 DUP6 ADD MSTORE SWAP3 SWAP5 DUP6 SWAP4 SWAP1 SWAP3 AND SWAP2 DUP4 SWAP2 SWAP1 DUP3 SWAP1 PUSH1 0x44 DUP3 ADD SWAP1 JUMP JUMPDEST SUB SWAP3 GAS CALL SWAP1 DUP2 ISZERO PUSH2 0x38D JUMPI PUSH1 0x0 SWAP2 PUSH2 0x1079 JUMPI JUMPDEST POP ISZERO PUSH2 0x1034 JUMPI SWAP2 PUSH32 0x5A87909BFF68CAAAAF0B3FD9C74EECCC928832F879315E5C6FB7A73612F26C0C SWAP4 SWAP2 PUSH1 0x40 SWAP4 PUSH1 0x4 PUSH1 0xFF NOT DUP3 SLOAD AND OR SWAP1 SSTORE DUP4 MLOAD SWAP3 DUP4 MSTORE ISZERO ISZERO SWAP1 DUP3 ADD MSTORE LOG1 PUSH1 0x1 DUP1 SSTORE STOP JUMPDEST PUSH1 0x40 MLOAD PUSH3 0x461BCD PUSH1 0xE5 SHL DUP2 MSTORE PUSH1 0x4 DUP2 ADD DUP5 SWAP1 MSTORE PUSH1 0x1C PUSH1 0x24 DUP3 ADD MSTORE PUSH32 0x506C6174666F726D20666565207472616E73666572206661696C656400000000 PUSH1 0x44 DUP3 ADD MSTORE PUSH1 0x64 SWAP1 REVERT JUMPDEST PUSH2 0x1090 SWAP2 POP DUP5 RETURNDATASIZE DUP7 GT PUSH2 0x386 JUMPI PUSH2 0x378 DUP2 DUP4 PUSH2 0x1723 JUMP JUMPDEST DUP6 PUSH2 0xFEA JUMP JUMPDEST PUSH1 0x40 MLOAD PUSH3 0x461BCD PUSH1 0xE5 SHL DUP2 MSTORE PUSH1 0x4 DUP2 ADD DUP6 SWAP1 MSTORE PUSH1 0x13 PUSH1 0x24 DUP3 ADD MSTORE PUSH19 0x109D5E595C881C99599D5B990819985A5B1959 PUSH1 0x6A SHL PUSH1 0x44 DUP3 ADD MSTORE PUSH1 0x64 SWAP1 REVERT JUMPDEST PUSH2 0x10E8 SWAP2 POP DUP6 RETURNDATASIZE DUP8 GT PUSH2 0x386 JUMPI PUSH2 0x378 DUP2 DUP4 PUSH2 0x1723 JUMP JUMPDEST DUP7 PUSH2 0xF87 JUMP JUMPDEST DUP1 SLOAD PUSH1 0x2 DUP3 ADD SLOAD PUSH1 0x3 DUP4 ADD SLOAD PUSH1 0x40 MLOAD PUSH4 0xA9059CBB PUSH1 0xE0 SHL DUP1 DUP3 MSTORE PUSH1 0x1 PUSH1 0x1 PUSH1 0xA0 SHL SUB SWAP4 DUP5 AND PUSH1 0x4 DUP4 ADD MSTORE PUSH1 0x24 DUP3 ADD SWAP3 SWAP1 SWAP3 MSTORE SWAP1 SWAP3 DUP8 SWAP1 DUP3 SWAP1 PUSH1 0x44 SWAP1 DUP3 SWAP1 PUSH1 0x0 SWAP1 DUP8 AND GAS CALL SWAP1 DUP2 ISZERO PUSH2 0x38D JUMPI PUSH1 0x0 SWAP2 PUSH2 0x1224 JUMPI JUMPDEST POP ISZERO PUSH2 0x11E7 JUMPI DUP3 SLOAD PUSH1 0x5 DUP5 ADD SLOAD PUSH1 0x40 MLOAD SWAP4 DUP5 MSTORE CALLER PUSH1 0x4 DUP6 ADD MSTORE PUSH1 0x24 DUP5 ADD MSTORE DUP7 SWAP2 DUP4 SWAP2 PUSH1 0x44 SWAP2 DUP4 SWAP2 PUSH1 0x0 SWAP2 AND GAS CALL SWAP1 DUP2 ISZERO PUSH2 0x38D JUMPI PUSH1 0x0 SWAP2 PUSH2 0x11CA JUMPI JUMPDEST POP ISZERO PUSH2 0x118D JUMPI DUP4 PUSH2 0xFD7 SWAP2 PUSH2 0xF93 JUMP JUMPDEST PUSH1 0x40 MLOAD PUSH3 0x461BCD PUSH1 0xE5 SHL DUP2 MSTORE PUSH1 0x4 DUP2 ADD DUP6 SWAP1 MSTORE PUSH1 0x15 PUSH1 0x24 DUP3 ADD MSTORE PUSH21 0x105C989A5D1C985D1BDC881999594819985A5B1959 PUSH1 0x5A SHL PUSH1 0x44 DUP3 ADD MSTORE PUSH1 0x64 SWAP1 REVERT JUMPDEST PUSH2 0x11E1 SWAP2 POP DUP6 RETURNDATASIZE DUP8 GT PUSH2 0x386 JUMPI PUSH2 0x378 DUP2 DUP4 PUSH2 0x1723 JUMP JUMPDEST DUP7 PUSH2 0x117D JUMP JUMPDEST PUSH1 0x40 MLOAD PUSH3 0x461BCD PUSH1 0xE5 SHL DUP2 MSTORE PUSH1 0x4 DUP2 ADD DUP8 SWAP1 MSTORE PUSH1 0x15 PUSH1 0x24 DUP3 ADD MSTORE PUSH21 0x14D95B1B195C881C185E5B595B9D0819985A5B1959 PUSH1 0x5A SHL PUSH1 0x44 DUP3 ADD MSTORE PUSH1 0x64 SWAP1 REVERT JUMPDEST PUSH2 0x123B SWAP2 POP DUP8 RETURNDATASIZE DUP10 GT PUSH2 0x386 JUMPI PUSH2 0x378 DUP2 DUP4 PUSH2 0x1723 JUMP JUMPDEST DUP9 PUSH2 0x1141 JUMP JUMPDEST PUSH1 0x40 MLOAD PUSH3 0x461BCD PUSH1 0xE5 SHL DUP2 MSTORE PUSH1 0x4 DUP2 ADD DUP6 SWAP1 MSTORE PUSH1 0xE PUSH1 0x24 DUP3 ADD MSTORE PUSH14 0x4E6F7420696E2064697370757465 PUSH1 0x90 SHL PUSH1 0x44 DUP3 ADD MSTORE PUSH1 0x64 SWAP1 REVERT JUMPDEST PUSH1 0x40 MLOAD PUSH3 0x461BCD PUSH1 0xE5 SHL DUP2 MSTORE PUSH1 0x4 DUP2 ADD DUP4 SWAP1 MSTORE PUSH1 0x19 PUSH1 0x24 DUP3 ADD MSTORE PUSH32 0x4E6F7420617574686F72697A65642061726269747261746F7200000000000000 PUSH1 0x44 DUP3 ADD MSTORE PUSH1 0x64 SWAP1 REVERT JUMPDEST CALLVALUE PUSH2 0x1C1 JUMPI PUSH1 0x20 DUP1 PUSH1 0x3 NOT CALLDATASIZE ADD SLT PUSH2 0x1C1 JUMPI PUSH1 0x4 CALLDATALOAD PUSH1 0x0 MSTORE PUSH1 0x6 DUP2 MSTORE PUSH1 0x40 PUSH1 0x0 KECCAK256 PUSH1 0x1 DUP1 PUSH1 0xA0 SHL SUB SWAP1 DUP2 DUP2 SLOAD AND SWAP3 PUSH1 0x1 SWAP2 DUP4 DUP4 DUP3 ADD SLOAD AND SWAP4 PUSH1 0x2 DUP3 ADD SLOAD AND PUSH1 0x3 DUP3 ADD SLOAD PUSH1 0x4 DUP4 ADD SLOAD SWAP1 PUSH1 0x5 DUP5 ADD SLOAD SWAP3 PUSH1 0xFF PUSH1 0x6 DUP7 ADD SLOAD AND SWAP5 PUSH1 0x7 DUP2 ADD PUSH1 0x40 MLOAD SWAP9 DUP10 SWAP2 PUSH1 0x0 SWAP2 DUP2 SLOAD SWAP2 PUSH2 0x132D DUP4 PUSH2 0x16E9 JUMP JUMPDEST SWAP3 DUP4 DUP7 MSTORE DUP13 DUP4 DUP3 AND SWAP2 DUP3 PUSH1 0x0 EQ PUSH2 0x1427 JUMPI POP POP PUSH1 0x1 EQ PUSH2 0x13E3 JUMPI JUMPDEST POP POP POP PUSH1 0x8 SWAP3 SWAP2 PUSH2 0x135A SWAP2 SUB DUP11 PUSH2 0x1723 JUMP JUMPDEST ADD SLOAD SWAP8 PUSH1 0x40 MLOAD SWAP10 DUP11 MSTORE DUP7 DUP11 ADD MSTORE PUSH1 0x40 DUP10 ADD MSTORE PUSH1 0x60 DUP9 ADD MSTORE PUSH1 0x80 DUP8 ADD MSTORE PUSH1 0xA0 DUP7 ADD MSTORE PUSH1 0x6 DUP2 LT ISZERO PUSH2 0x399 JUMPI SWAP1 DUP5 SWAP3 SWAP2 PUSH1 0xC0 DUP5 ADD MSTORE PUSH2 0x120 SWAP2 DUP3 PUSH1 0xE0 DUP6 ADD MSTORE DUP1 MLOAD DUP1 SWAP4 DUP6 ADD MSTORE PUSH1 0x0 JUMPDEST DUP4 DUP2 LT PUSH2 0x13CB JUMPI POP POP POP PUSH2 0x140 SWAP3 PUSH1 0x0 DUP5 DUP4 DUP6 ADD ADD MSTORE PUSH2 0x100 DUP4 ADD MSTORE PUSH1 0x1F DUP1 NOT SWAP2 ADD AND DUP2 ADD SUB ADD SWAP1 RETURN JUMPDEST DUP2 DUP2 ADD DUP4 ADD MLOAD DUP8 DUP3 ADD PUSH2 0x140 ADD MSTORE DUP7 SWAP5 POP DUP3 ADD PUSH2 0x13A1 JUMP JUMPDEST DUP12 SWAP4 POP PUSH1 0x0 SWAP3 SWAP2 SWAP3 MSTORE DUP3 PUSH1 0x0 KECCAK256 SWAP2 PUSH1 0x0 SWAP3 JUMPDEST DUP3 DUP5 LT PUSH2 0x140D JUMPI POP POP POP DUP3 ADD ADD DUP2 PUSH2 0x135A PUSH1 0x8 PUSH2 0x1348 JUMP JUMPDEST DUP5 SWAP3 SWAP6 DUP3 SWAP6 DUP6 DUP4 SLOAD SWAP3 ADD ADD MSTORE ADD SWAP2 ADD SWAP1 SWAP3 DUP11 SWAP3 DUP13 SWAP5 PUSH2 0x13F5 JUMP JUMPDEST PUSH1 0xFF NOT AND DUP8 DUP3 ADD MSTORE SWAP4 ISZERO ISZERO PUSH1 0x5 SHL DUP7 ADD SWAP1 SWAP4 ADD SWAP4 POP DUP5 SWAP3 POP PUSH2 0x135A SWAP2 POP PUSH1 0x8 SWAP1 POP PUSH2 0x1348 JUMP JUMPDEST CALLVALUE PUSH2 0x1C1 JUMPI PUSH1 0x20 DUP1 PUSH1 0x3 NOT CALLDATASIZE ADD SLT PUSH2 0x1C1 JUMPI PUSH1 0x4 CALLDATALOAD SWAP1 PUSH2 0x146B PUSH2 0x180E JUMP JUMPDEST PUSH1 0x0 DUP3 DUP2 MSTORE PUSH1 0x6 DUP3 MSTORE PUSH1 0x40 SWAP1 KECCAK256 PUSH1 0x1 DUP2 ADD SLOAD PUSH1 0x1 PUSH1 0x1 PUSH1 0xA0 SHL SUB SWAP4 SWAP2 SWAP1 DUP5 AND CALLER DUP2 SWAP1 SUB PUSH2 0x1606 JUMPI PUSH1 0x6 DUP3 ADD SWAP5 PUSH1 0xFF DUP7 SLOAD AND PUSH1 0x6 DUP2 LT ISZERO DUP1 PUSH2 0x399 JUMPI DUP2 ISZERO DUP1 ISZERO PUSH2 0x15F9 JUMPI JUMPDEST ISZERO PUSH2 0x15C4 JUMPI PUSH2 0x399 JUMPI PUSH1 0x1 EQ PUSH2 0x14FD JUMPI JUMPDEST POP POP POP PUSH32 0x4E02DCF02D8510F6C8A6878A3C54AE6E2BFBF552DF29221D7A1EED173A6B1AE7 SWAP3 PUSH1 0x5 PUSH1 0xFF NOT DUP3 SLOAD AND OR SWAP1 SSTORE PUSH1 0x40 MLOAD SWAP1 DUP2 MSTORE LOG1 PUSH1 0x1 DUP1 SSTORE STOP JUMPDEST SWAP2 DUP5 SWAP2 PUSH2 0x1551 SWAP4 PUSH2 0x151A PUSH2 0x2A0 PUSH1 0x3 DUP6 ADD SLOAD PUSH1 0x4 DUP7 ADD SLOAD SWAP1 PUSH2 0x17E9 JUMP JUMPDEST SWAP3 SLOAD AND SWAP1 PUSH1 0x0 PUSH1 0x40 MLOAD DUP1 SWAP7 DUP2 SWAP6 DUP3 SWAP5 PUSH4 0xA9059CBB PUSH1 0xE0 SHL DUP5 MSTORE PUSH1 0x4 DUP5 ADD PUSH1 0x20 SWAP1 SWAP4 SWAP3 SWAP2 SWAP4 PUSH1 0x40 DUP2 ADD SWAP5 PUSH1 0x1 DUP1 PUSH1 0xA0 SHL SUB AND DUP2 MSTORE ADD MSTORE JUMP JUMPDEST SUB SWAP3 GAS CALL SWAP1 DUP2 ISZERO PUSH2 0x38D JUMPI PUSH1 0x0 SWAP2 PUSH2 0x15A7 JUMPI JUMPDEST POP ISZERO PUSH2 0x1572 JUMPI DUP4 DUP1 DUP1 PUSH2 0x14C0 JUMP JUMPDEST PUSH1 0x40 MLOAD PUSH3 0x461BCD PUSH1 0xE5 SHL DUP2 MSTORE PUSH1 0x4 DUP2 ADD DUP4 SWAP1 MSTORE PUSH1 0xD PUSH1 0x24 DUP3 ADD MSTORE PUSH13 0x1499599D5B990819985A5B1959 PUSH1 0x9A SHL PUSH1 0x44 DUP3 ADD MSTORE PUSH1 0x64 SWAP1 REVERT JUMPDEST PUSH2 0x15BE SWAP2 POP DUP4 RETURNDATASIZE DUP6 GT PUSH2 0x386 JUMPI PUSH2 0x378 DUP2 DUP4 PUSH2 0x1723 JUMP JUMPDEST DUP5 PUSH2 0x1564 JUMP JUMPDEST PUSH1 0x40 MLOAD PUSH3 0x461BCD PUSH1 0xE5 SHL DUP2 MSTORE PUSH1 0x4 DUP2 ADD DUP9 SWAP1 MSTORE PUSH1 0xD PUSH1 0x24 DUP3 ADD MSTORE PUSH13 0x10D85B9B9BDD0818D85B98D95B PUSH1 0x9A SHL PUSH1 0x44 DUP3 ADD MSTORE PUSH1 0x64 SWAP1 REVERT JUMPDEST POP POP PUSH1 0x0 PUSH1 0x1 DUP3 EQ PUSH2 0x14AF JUMP JUMPDEST PUSH1 0x40 MLOAD PUSH3 0x461BCD PUSH1 0xE5 SHL DUP2 MSTORE PUSH1 0x4 DUP2 ADD DUP6 SWAP1 MSTORE PUSH1 0x15 PUSH1 0x24 DUP3 ADD MSTORE PUSH21 0x13DB9B1E48189D5E595C8818D85B8818D85B98D95B PUSH1 0x5A SHL PUSH1 0x44 DUP3 ADD MSTORE PUSH1 0x64 SWAP1 REVERT JUMPDEST CALLVALUE PUSH2 0x1C1 JUMPI PUSH1 0x20 CALLDATASIZE PUSH1 0x3 NOT ADD SLT PUSH2 0x1C1 JUMPI PUSH2 0x165C PUSH2 0x16D3 JUMP JUMPDEST PUSH2 0x1664 PUSH2 0x1754 JUMP JUMPDEST PUSH1 0x1 PUSH1 0x1 PUSH1 0xA0 SHL SUB AND DUP1 ISZERO PUSH2 0x168E JUMPI PUSH1 0x0 SWAP1 DUP2 MSTORE PUSH1 0x8 PUSH1 0x20 MSTORE PUSH1 0x40 SWAP1 KECCAK256 DUP1 SLOAD PUSH1 0xFF NOT AND PUSH1 0x1 OR SWAP1 SSTORE STOP JUMPDEST PUSH1 0x40 MLOAD PUSH3 0x461BCD PUSH1 0xE5 SHL DUP2 MSTORE PUSH1 0x20 PUSH1 0x4 DUP3 ADD MSTORE PUSH1 0x1A PUSH1 0x24 DUP3 ADD MSTORE PUSH32 0x496E76616C69642061726269747261746F722061646472657373000000000000 PUSH1 0x44 DUP3 ADD MSTORE PUSH1 0x64 SWAP1 REVERT JUMPDEST PUSH1 0x4 CALLDATALOAD SWAP1 PUSH1 0x1 PUSH1 0x1 PUSH1 0xA0 SHL SUB DUP3 AND DUP3 SUB PUSH2 0x1C1 JUMPI JUMP JUMPDEST SWAP1 PUSH1 0x1 DUP3 DUP2 SHR SWAP3 AND DUP1 ISZERO PUSH2 0x1719 JUMPI JUMPDEST PUSH1 0x20 DUP4 LT EQ PUSH2 0x1703 JUMPI JUMP JUMPDEST PUSH4 0x4E487B71 PUSH1 0xE0 SHL PUSH1 0x0 MSTORE PUSH1 0x22 PUSH1 0x4 MSTORE PUSH1 0x24 PUSH1 0x0 REVERT JUMPDEST SWAP2 PUSH1 0x7F AND SWAP2 PUSH2 0x16F8 JUMP JUMPDEST SWAP1 PUSH1 0x1F DUP1 NOT SWAP2 ADD AND DUP2 ADD SWAP1 DUP2 LT PUSH8 0xFFFFFFFFFFFFFFFF DUP3 GT OR PUSH2 0x797 JUMPI PUSH1 0x40 MSTORE JUMP JUMPDEST PUSH1 0x24 CALLDATALOAD SWAP1 DUP2 ISZERO ISZERO DUP3 SUB PUSH2 0x1C1 JUMPI JUMP JUMPDEST PUSH1 0x0 SLOAD PUSH1 0x1 PUSH1 0x1 PUSH1 0xA0 SHL SUB AND CALLER SUB PUSH2 0x1768 JUMPI JUMP JUMPDEST PUSH1 0x64 PUSH1 0x40 MLOAD PUSH3 0x461BCD PUSH1 0xE5 SHL DUP2 MSTORE PUSH1 0x20 PUSH1 0x4 DUP3 ADD MSTORE PUSH1 0x20 PUSH1 0x24 DUP3 ADD MSTORE PUSH32 0x4F776E61626C653A2063616C6C6572206973206E6F7420746865206F776E6572 PUSH1 0x44 DUP3 ADD MSTORE REVERT JUMPDEST ISZERO PUSH2 0x17B3 JUMPI JUMP JUMPDEST PUSH1 0x40 MLOAD PUSH3 0x461BCD PUSH1 0xE5 SHL DUP2 MSTORE PUSH1 0x20 PUSH1 0x4 DUP3 ADD MSTORE PUSH1 0xE PUSH1 0x24 DUP3 ADD MSTORE PUSH14 0x496E76616C696420737461747573 PUSH1 0x90 SHL PUSH1 0x44 DUP3 ADD MSTORE PUSH1 0x64 SWAP1 REVERT JUMPDEST SWAP2 SWAP1 DUP3 ADD DUP1 SWAP3 GT PUSH2 0x7AD JUMPI JUMP JUMPDEST SWAP1 DUP2 PUSH1 0x20 SWAP2 SUB SLT PUSH2 0x1C1 JUMPI MLOAD DUP1 ISZERO ISZERO DUP2 SUB PUSH2 0x1C1 JUMPI SWAP1 JUMP JUMPDEST PUSH1 0x2 PUSH1 0x1 SLOAD EQ PUSH2 0x181F JUMPI PUSH1 0x2 PUSH1 0x1 SSTORE JUMP JUMPDEST PUSH1 0x40 MLOAD PUSH3 0x461BCD PUSH1 0xE5 SHL DUP2 MSTORE PUSH1 0x20 PUSH1 0x4 DUP3 ADD MSTORE PUSH1 0x1F PUSH1 0x24 DUP3 ADD MSTORE PUSH32 0x5265656E7472616E637947756172643A207265656E7472616E742063616C6C00 PUSH1 0x44 DUP3 ADD MSTORE PUSH1 0x64 SWAP1 REVERT INVALID LOG2 PUSH5 0x6970667358 0x22 SLT KECCAK256 0xCF 0xFB GASPRICE 0x2F SMOD PUSH32 0x2088CBC8024AD3EF1CB9D7731E5A2F3448728ED3176672660F1864736F6C6343 STOP ADDMOD EQ STOP CALLER "},"methodIdentifiers":{"addArbitrator(address)":"01fabd75","allowedTokens(address)":"e744092e","arbitrator()":"6cc6cde1","arbitrators(address)":"51d0ea37","cancelTrade(uint256)":"09ec6cc7","createTrade(address,address,uint256,string,uint256)":"c96068ce","disputeFeeFixed()":"edc1f335","lockCollateral(uint256)":"e2233cbd","owner()":"8da5cb5b","platformFeePercentage()":"cdd78cfc","raiseDispute(uint256)":"a5c1674e","releaseCollateral(uint256)":"39007b77","removeArbitrator(address)":"973ad270","renounceOwnership()":"715018a6","resolveDispute(uint256,bool)":"34b25ee2","setAllowedToken(address,bool)":"8aaa2284","tradeCounter()":"660d15b5","trades(uint256)":"1e6c598e","transferOwnership(address)":"f2fde38b","updateFees(uint256,uint256)":"6db79437"}}}}}