{"contracts/CryptoEscrow.sol":{"CryptoEscrow":{"abi":[{"inputs":[{"internalType":"uint256","name":"_feePercentage","type":"uint256"},{"internalType":"uint256","name":"_disputeFee","type":"uint256"}],"stateMutability":"nonpayable","type":"constructor"},{"anonymous":false,"inputs":[{"indexed":true,"internalType":"address","name":"selectedArbitrator","type":"address"},{"indexed":true,"internalType":"address","name":"disputeInitiator","type":"address"},{"indexed":true,"internalType":"address","name":"disputeResponder","type":"address"}],"name":"ArbitratorSelected","type":"event"},{"anonymous":false,"inputs":[{"indexed":true,"internalType":"uint256","name":"escrowId","type":"uint256"},{"indexed":true,"internalType":"address","name":"raisedBy","type":"address"},{"indexed":false,"internalType":"string","name":"reason","type":"string"}],"name":"Disputed","type":"event"},{"anonymous":false,"inputs":[{"indexed":true,"internalType":"address","name":"previousOwner","type":"address"},{"indexed":true,"internalType":"address","name":"newOwner","type":"address"}],"name":"OwnershipTransferred","type":"event"},{"inputs":[],"name":"DISPUTE_TIMEFRAME","outputs":[{"internalType":"uint256","name":"","type":"uint256"}],"stateMutability":"view","type":"function"},{"inputs":[],"name":"MAX_PLATFORM_FEE","outputs":[{"internalType":"uint256","name":"","type":"uint256"}],"stateMutability":"view","type":"function"},{"inputs":[],"name":"MIN_DISPUTE_FEE","outputs":[{"internalType":"uint256","name":"","type":"uint256"}],"stateMutability":"view","type":"function"},{"inputs":[{"internalType":"address","name":"","type":"address"}],"name":"allowedTokens","outputs":[{"internalType":"bool","name":"","type":"bool"}],"stateMutability":"view","type":"function"},{"inputs":[{"internalType":"address","name":"","type":"address"}],"name":"arbitratorActiveDisputes","outputs":[{"internalType":"uint256","name":"","type":"uint256"}],"stateMutability":"view","type":"function"},{"inputs":[{"internalType":"uint256","name":"","type":"uint256"}],"name":"arbitratorAddresses","outputs":[{"internalType":"address","name":"","type":"address"}],"stateMutability":"view","type":"function"},{"inputs":[{"internalType":"address","name":"","type":"address"}],"name":"arbitratorAvailable","outputs":[{"internalType":"bool","name":"","type":"bool"}],"stateMutability":"view","type":"function"},{"inputs":[{"internalType":"address","name":"","type":"address"}],"name":"arbitratorAvgResponseTime","outputs":[{"internalType":"uint256","name":"","type":"uint256"}],"stateMutability":"view","type":"function"},{"inputs":[{"internalType":"address","name":"","type":"address"},{"internalType":"address","name":"","type":"address"}],"name":"arbitratorBlacklist","outputs":[{"internalType":"bool","name":"","type":"bool"}],"stateMutability":"view","type":"function"},{"inputs":[],"name":"arbitratorCount","outputs":[{"internalType":"uint256","name":"","type":"uint256"}],"stateMutability":"view","type":"function"},{"inputs":[{"internalType":"address","name":"","type":"address"}],"name":"arbitratorLastAssignment","outputs":[{"internalType":"uint256","name":"","type":"uint256"}],"stateMutability":"view","type":"function"},{"inputs":[],"name":"arbitratorMaxActiveDisputes","outputs":[{"internalType":"uint256","name":"","type":"uint256"}],"stateMutability":"view","type":"function"},{"inputs":[],"name":"arbitratorMinReputation","outputs":[{"internalType":"uint256","name":"","type":"uint256"}],"stateMutability":"view","type":"function"},{"inputs":[{"internalType":"address","name":"","type":"address"}],"name":"arbitratorReputation","outputs":[{"internalType":"uint256","name":"","type":"uint256"}],"stateMutability":"view","type":"function"},{"inputs":[{"internalType":"address","name":"","type":"address"},{"internalType":"uint256","name":"","type":"uint256"}],"name":"arbitratorSpecialization","outputs":[{"internalType":"uint256","name":"","type":"uint256"}],"stateMutability":"view","type":"function"},{"inputs":[{"internalType":"address","name":"","type":"address"}],"name":"arbitrators","outputs":[{"internalType":"bool","name":"","type":"bool"}],"stateMutability":"view","type":"function"},{"inputs":[],"name":"disputeFeeFixed","outputs":[{"internalType":"uint256","name":"","type":"uint256"}],"stateMutability":"view","type":"function"},{"inputs":[],"name":"escrowCount","outputs":[{"internalType":"uint256","name":"","type":"uint256"}],"stateMutability":"view","type":"function"},{"inputs":[{"internalType":"uint256","name":"","type":"uint256"}],"name":"escrows","outputs":[{"internalType":"address","name":"buyer","type":"address"},{"internalType":"address","name":"seller","type":"address"},{"internalType":"enum CryptoEscrow.EscrowStatus","name":"status","type":"uint8"},{"internalType":"uint256","name":"createdAt","type":"uint256"},{"internalType":"uint256","name":"disputeExpiry","type":"uint256"},{"internalType":"address","name":"arbitrator","type":"address"},{"internalType":"enum CryptoEscrow.AssetType","name":"primaryAssetType","type":"uint8"},{"internalType":"address","name":"primaryToken","type":"address"},{"internalType":"uint256","name":"primaryAmount","type":"uint256"},{"internalType":"enum CryptoEscrow.AssetType","name":"counterAssetType","type":"uint8"},{"internalType":"address","name":"counterToken","type":"address"},{"internalType":"string","name":"counterCurrency","type":"string"},{"internalType":"uint256","name":"counterAmount","type":"uint256"},{"internalType":"uint256","name":"platformFee","type":"uint256"},{"internalType":"uint256","name":"disputeFee","type":"uint256"},{"internalType":"address","name":"disputeRaisedBy","type":"address"},{"internalType":"string","name":"disputeReason","type":"string"}],"stateMutability":"view","type":"function"},{"inputs":[],"name":"owner","outputs":[{"internalType":"address","name":"","type":"address"}],"stateMutability":"view","type":"function"},{"inputs":[],"name":"platformFeePercentage","outputs":[{"internalType":"uint256","name":"","type":"uint256"}],"stateMutability":"view","type":"function"},{"inputs":[{"internalType":"uint256","name":"escrowId","type":"uint256"},{"internalType":"string","name":"reason","type":"string"}],"name":"raiseDispute","outputs":[],"stateMutability":"nonpayable","type":"function"},{"inputs":[],"name":"renounceOwnership","outputs":[],"stateMutability":"nonpayable","type":"function"},{"inputs":[{"internalType":"address","name":"newOwner","type":"address"}],"name":"transferOwnership","outputs":[],"stateMutability":"nonpayable","type":"function"},{"inputs":[{"internalType":"address","name":"","type":"address"}],"name":"wrappedAssets","outputs":[{"internalType":"address","name":"","type":"address"}],"stateMutability":"view","type":"function"}],"evm":{"bytecode":{"linkReferences":{},"object":"6080346101c75761147890601f38839003908101601f19168201906001600160401b038211838310176101cc57808391604095869485528339810103126101c757805160209091015160008054336001600160a01b031982168117835585519294929392916001600160a01b03167f8be0079c531659141344cd1fd0a4f28419497f9722a3daafe3b4186f6b6457e08680a36001928380556101f482116101965750662386f26fc10000821061015257600e55600f55731e0125b823dcde430578068532e2dc400c56fa8282526012602052828083209260ff199383858254161790557355d398326f99059ff775485246999027b31979558152818120838582541617905573bb4cdb9cbd36b01bd1cbaebf2de08d9173bc095c8152818120838582541617905573b03b6d3d2ba12fa380ad04a79d80aa58cc693299815220918254161790555161129590816101e38239f35b845162461bcd60e51b815260206004820152601360248201527f446973707574652066656520746f6f206c6f77000000000000000000000000006044820152606490fd5b62461bcd60e51b815260206004820152600c60248201526b08ccaca40e8dede40d0d2ced60a31b6044820152606490fd5b600080fd5b634e487b7160e01b600052604160045260246000fdfe6080604052600436101561001257600080fd5b60003560e01c8063012f52ee14610da95780630899172c14610d675780631707904814610d495780631c98322b14610d27578063238b848614610ced5780633998a68114610cd05780633aa5991614610cb257806340b3a31314610c58578063428ac57f14610c3a57806351d0ea3714610bfb5780635aef573c146104a6578063675ac67a14610488578063715018a61461042f5780638da5cb5b146104065780638e2b331d146103cc578063ada91e4614610391578063b7f9f09c14610352578063cb1f321714610318578063cdd78cfc146102fa578063d6a145e2146102c0578063e744092e14610281578063edc1f33514610263578063f2fde38b1461019a578063f77cc28f1461017c5763fbeff25a1461012f57600080fd5b34610177576040366003190112610177576001600160a01b036101506110c2565b16600052600c60205260406000206024356000526020526020604060002054604051908152f35b600080fd5b34610177576000366003190112610177576020600554604051908152f35b34610177576020366003190112610177576101b36110c2565b6101bb6110d8565b6001600160a01b0390811690811561020f57600054826bffffffffffffffffffffffff60a01b821617600055167f8be0079c531659141344cd1fd0a4f28419497f9722a3daafe3b4186f6b6457e0600080a3005b60405162461bcd60e51b815260206004820152602660248201527f4f776e61626c653a206e6577206f776e657220697320746865207a65726f206160448201526564647265737360d01b6064820152608490fd5b34610177576000366003190112610177576020600f54604051908152f35b34610177576020366003190112610177576001600160a01b036102a26110c2565b166000526012602052602060ff604060002054166040519015158152f35b34610177576020366003190112610177576001600160a01b036102e16110c2565b16600052600a6020526020604060002054604051908152f35b34610177576000366003190112610177576020600e54604051908152f35b34610177576020366003190112610177576001600160a01b036103396110c2565b1660005260086020526020604060002054604051908152f35b34610177576020366003190112610177576001600160a01b036103736110c2565b166000526007602052602060ff604060002054166040519015158152f35b346101775760203660031901126101775760206001600160a01b03806103b56110c2565b166000526013825260406000205416604051908152f35b34610177576020366003190112610177576001600160a01b036103ed6110c2565b1660005260096020526020604060002054604051908152f35b34610177576000366003190112610177576000546040516001600160a01b039091168152602090f35b34610177576000366003190112610177576104486110d8565b600080546001600160a01b0319811682556001600160a01b03167f8be0079c531659141344cd1fd0a4f28419497f9722a3daafe3b4186f6b6457e08280a3005b34610177576000366003190112610177576020601054604051908152f35b346101775760403660031901126101775760243567ffffffffffffffff8111610177573660238201121561017757806004013567ffffffffffffffff8111610b445760405191610500601f8301601f191660200184610f60565b8183523660248383010111610177578160009260246020930183860137830101526004356000526011602052604060002060018060a01b038154163314908115610be4575b5015610bab5760043560005260116020526040600020600181015460ff8160a01c166006811015610b9557600103610b5a5760ff60a01b1916600160a21b176001820155600c810180546001600160a01b0319163317905581519167ffffffffffffffff8311610b44576105bc600d830154610f0a565b601f8111610afd575b50602092601f8111600114610a915780919293600091610a86575b508160011b916000199060031b1c191617600d8301555b62093a804201421161099b574262093a8001600383015581546001600160a01b0316338103610a80575060018201546001600160a01b0316915b60068101546000600254916106458361113d565b926106536040519485610f60565b808452601f196106628261113d565b0160005b818110610a465750506005546000925b82841061081e575b5050505080156107cf576001600160a01b0361069983611164565b51511691608090816106aa82611164565b51015160015b8481106107795788888860048960018060a01b03169182600052600a60205260406000206106de8154611155565b905582600052600b602052426040600020556040519460018060a01b031633847fb3fe975cfae5112360eceea1e00c7a0074c026f52cdd6bc33e6966760aaf6a3b600080a401906bffffffffffffffffffffffff60a01b825416179055602082527f1600fdb27a317e587a0350390fa1bd5da9a413f7d9c126c14802bc3f7f458bbb339280610774600435946020830190611035565b0390a3005b81846107858386611171565b5101511161079c575b61079790611155565b6106b0565b94506001600160a01b0390506107b28583611171565b51511693610797836107c48385611171565b51015191905061078e565b60405162461bcd60e51b815260206004820152602160248201527f4e6f20656c696769626c652061726269747261746f727320617661696c61626c6044820152606560f81b6064820152608490fd5b9091929361082b85611075565b60018060a01b0391549060031b1c169081600052600660205260ff60406000205416158015610a31575b8015610a1d575b8015610a08575b80156109e8575b80156109bc575b6109b15761087f8383611185565b918060005260086020526040600020546028818181020481148215171561099b5782600052600a602052604060002054908188039188831161099b57601e80840293840414908914171561099b576108d79202611130565b601490848281020482148515171561099b576108f591850290611130565b926108ff82611217565b80600a810204600a148115171561099b5761097b94600a610921920290611130565b90826000526008602052604060002054600a602052604060002054906040519461094a86610f44565b8552602085015260408401526060830152608082015261096a8289611171565b526109758188611171565b50611155565b93600a8510156109965761098e90611155565b929190610676565b61067e565b634e487b7160e01b600052601160045260246000fd5b9461098e9150611155565b5081600052600d602052604060002060018060a01b038b1660005260205260ff60406000205416610871565b50600d60205260406000203360005260205260ff6040600020541661086a565b50600760205260ff6040600020541615610863565b50600a60205283604060002054101561085c565b50600860205260406000205460045411610855565b602090604051610a5581610f44565b6000815260008382015260006040820152600060608201526000608082015282828901015201610666565b91610631565b9050820151846105e0565b600d8301600052602060002060005b601f1983168110610ae55750600192939482601f19811610610acc575b5050811b01600d8301556105f7565b84015160001960f88460031b161c191690558480610abd565b83860151825560209586019560019092019101610aa0565b600d83016000526020600020601f850160051c810160208610610b3d575b601f830160051c82018110610b315750506105c5565b60008155600101610b1b565b5080610b1b565b634e487b7160e01b600052604160045260246000fd5b60405162461bcd60e51b81526020600482015260136024820152724e6f7420696e2066756e64656420737461746560681b6044820152606490fd5b634e487b7160e01b600052602160045260246000fd5b60405162461bcd60e51b8152602060048201526011602482015270139bdd0818481c185c9d1a58da5c185b9d607a1b6044820152606490fd5b600101546001600160a01b03163314905082610545565b34610177576020366003190112610177576001600160a01b03610c1c6110c2565b166000526006602052602060ff604060002054166040519015158152f35b34610177576000366003190112610177576020600354604051908152f35b3461017757604036600319011261017757610c716110c2565b6001600160a01b0360243581811692908390036101775716600052600d602052604060002090600052602052602060ff604060002054166040519015158152f35b34610177576000366003190112610177576020600454604051908152f35b346101775760003660031901126101775760206040516101f48152f35b34610177576020366003190112610177576001600160a01b03610d0e6110c2565b16600052600b6020526020604060002054604051908152f35b34610177576000366003190112610177576020604051662386f26fc100008152f35b3461017757600036600319011261017757602060405162093a808152f35b346101775760203660031901126101775760043560025481101561017757610d90602091611075565b905460405160039290921b1c6001600160a01b03168152f35b34610177576020366003190112610177576004356000526011602052604060002060018060a01b0381541690600181015460028201549060038301549060048401549360018060a01b036005820154166006820154600783015494610e1060088501610f82565b600985015496600a86015493600b8701549560ff610e3d600d60018060a01b03600c8c0154169a01610f82565b996040519e8f908152602060018060a01b03831691015260a01c16946006861015610b95578d9c60ff60c08f610f069f94610e9e95610edf9b60408401526060830152608082015260018060a01b03841660a0820152019160a01c16611028565b60e08c01526101008b0152610eba6101208b0160ff8316611028565b60081c6001600160a01b03166101408a01526102206101608a01819052890190611035565b946101808801526101a08701526101c08601526101e0850152838203610200850152611035565b0390f35b90600182811c92168015610f3a575b6020831014610f2457565b634e487b7160e01b600052602260045260246000fd5b91607f1691610f19565b60a0810190811067ffffffffffffffff821117610b4457604052565b90601f8019910116810190811067ffffffffffffffff821117610b4457604052565b9060405191826000825492610f9684610f0a565b9081845260019485811690816000146110055750600114610fc2575b5050610fc092500383610f60565b565b9093915060005260209081600020936000915b818310610fed575050610fc093508201013880610fb2565b85548884018501529485019487945091830191610fd5565b915050610fc094506020925060ff191682840152151560051b8201013880610fb2565b906003821015610b955752565b919082519283825260005b848110611061575050826000602080949584010152601f8019910116010190565b602081830181015184830182015201611040565b6002548110156110ac5760026000527f405787fa12a823e0f2b7631cc41b3ba8828b3321ca811111fa75cd3aa3bb5ace0190600090565b634e487b7160e01b600052603260045260246000fd5b600435906001600160a01b038216820361017757565b6000546001600160a01b031633036110ec57565b606460405162461bcd60e51b815260206004820152602060248201527f4f776e61626c653a2063616c6c6572206973206e6f7420746865206f776e65726044820152fd5b9190820180921161099b57565b67ffffffffffffffff8111610b445760051b60200190565b600019811461099b5760010190565b8051156110ac5760200190565b80518210156110ac5760209160051b010190565b90670de0b6b3a76400008110156111bc575060018060a01b0316600052600c60205260406000206000805260205260406000205490565b678ac7230489e8000011156111f15760018060a01b0316600052600c6020526040600020600160005260205260406000205490565b60018060a01b0316600052600c6020526040600020600260005260205260406000205490565b6001600160a01b0316600090815260096020526040902054610e1081106112595761384081106112535761a8c01161124e57601490565b603290565b50605090565b5060649056fea2646970667358221220aa301b33275c32e61bfd8ee011c2b6a4fe3d3404c945f78eae15ba1a1b37f47464736f6c63430008140033","opcodes":"PUSH1 0x80 CALLVALUE PUSH2 0x1C7 JUMPI PUSH2 0x1478 SWAP1 PUSH1 0x1F CODESIZE DUP4 SWAP1 SUB SWAP1 DUP2 ADD PUSH1 0x1F NOT AND DUP3 ADD SWAP1 PUSH1 0x1 PUSH1 0x1 PUSH1 0x40 SHL SUB DUP3 GT DUP4 DUP4 LT OR PUSH2 0x1CC JUMPI DUP1 DUP4 SWAP2 PUSH1 0x40 SWAP6 DUP7 SWAP5 DUP6 MSTORE DUP4 CODECOPY DUP2 ADD SUB SLT PUSH2 0x1C7 JUMPI DUP1 MLOAD PUSH1 0x20 SWAP1 SWAP2 ADD MLOAD PUSH1 0x0 DUP1 SLOAD CALLER PUSH1 0x1 PUSH1 0x1 PUSH1 0xA0 SHL SUB NOT DUP3 AND DUP2 OR DUP4 SSTORE DUP6 MLOAD SWAP3 SWAP5 SWAP3 SWAP4 SWAP3 SWAP2 PUSH1 0x1 PUSH1 0x1 PUSH1 0xA0 SHL SUB AND PUSH32 0x8BE0079C531659141344CD1FD0A4F28419497F9722A3DAAFE3B4186F6B6457E0 DUP7 DUP1 LOG3 PUSH1 0x1 SWAP3 DUP4 DUP1 SSTORE PUSH2 0x1F4 DUP3 GT PUSH2 0x196 JUMPI POP PUSH7 0x2386F26FC10000 DUP3 LT PUSH2 0x152 JUMPI PUSH1 0xE SSTORE PUSH1 0xF SSTORE PUSH20 0x1E0125B823DCDE430578068532E2DC400C56FA82 DUP3 MSTORE PUSH1 0x12 PUSH1 0x20 MSTORE DUP3 DUP1 DUP4 KECCAK256 SWAP3 PUSH1 0xFF NOT SWAP4 DUP4 DUP6 DUP3 SLOAD AND OR SWAP1 SSTORE PUSH20 0x55D398326F99059FF775485246999027B3197955 DUP2 MSTORE DUP2 DUP2 KECCAK256 DUP4 DUP6 DUP3 SLOAD AND OR SWAP1 SSTORE PUSH20 0xBB4CDB9CBD36B01BD1CBAEBF2DE08D9173BC095C DUP2 MSTORE DUP2 DUP2 KECCAK256 DUP4 DUP6 DUP3 SLOAD AND OR SWAP1 SSTORE PUSH20 0xB03B6D3D2BA12FA380AD04A79D80AA58CC693299 DUP2 MSTORE KECCAK256 SWAP2 DUP3 SLOAD AND OR SWAP1 SSTORE MLOAD PUSH2 0x1295 SWAP1 DUP2 PUSH2 0x1E3 DUP3 CODECOPY RETURN JUMPDEST DUP5 MLOAD PUSH3 0x461BCD PUSH1 0xE5 SHL DUP2 MSTORE PUSH1 0x20 PUSH1 0x4 DUP3 ADD MSTORE PUSH1 0x13 PUSH1 0x24 DUP3 ADD MSTORE PUSH32 0x446973707574652066656520746F6F206C6F7700000000000000000000000000 PUSH1 0x44 DUP3 ADD MSTORE PUSH1 0x64 SWAP1 REVERT JUMPDEST PUSH3 0x461BCD PUSH1 0xE5 SHL DUP2 MSTORE PUSH1 0x20 PUSH1 0x4 DUP3 ADD MSTORE PUSH1 0xC PUSH1 0x24 DUP3 ADD MSTORE PUSH12 0x8CCACA40E8DEDE40D0D2CED PUSH1 0xA3 SHL PUSH1 0x44 DUP3 ADD MSTORE PUSH1 0x64 SWAP1 REVERT JUMPDEST PUSH1 0x0 DUP1 REVERT JUMPDEST PUSH4 0x4E487B71 PUSH1 0xE0 SHL PUSH1 0x0 MSTORE PUSH1 0x41 PUSH1 0x4 MSTORE PUSH1 0x24 PUSH1 0x0 REVERT INVALID PUSH1 0x80 PUSH1 0x40 MSTORE PUSH1 0x4 CALLDATASIZE LT ISZERO PUSH2 0x12 JUMPI PUSH1 0x0 DUP1 REVERT JUMPDEST PUSH1 0x0 CALLDATALOAD PUSH1 0xE0 SHR DUP1 PUSH4 0x12F52EE EQ PUSH2 0xDA9 JUMPI DUP1 PUSH4 0x899172C EQ PUSH2 0xD67 JUMPI DUP1 PUSH4 0x17079048 EQ PUSH2 0xD49 JUMPI DUP1 PUSH4 0x1C98322B EQ PUSH2 0xD27 JUMPI DUP1 PUSH4 0x238B8486 EQ PUSH2 0xCED JUMPI DUP1 PUSH4 0x3998A681 EQ PUSH2 0xCD0 JUMPI DUP1 PUSH4 0x3AA59916 EQ PUSH2 0xCB2 JUMPI DUP1 PUSH4 0x40B3A313 EQ PUSH2 0xC58 JUMPI DUP1 PUSH4 0x428AC57F EQ PUSH2 0xC3A JUMPI DUP1 PUSH4 0x51D0EA37 EQ PUSH2 0xBFB JUMPI DUP1 PUSH4 0x5AEF573C EQ PUSH2 0x4A6 JUMPI DUP1 PUSH4 0x675AC67A EQ PUSH2 0x488 JUMPI DUP1 PUSH4 0x715018A6 EQ PUSH2 0x42F JUMPI DUP1 PUSH4 0x8DA5CB5B EQ PUSH2 0x406 JUMPI DUP1 PUSH4 0x8E2B331D EQ PUSH2 0x3CC JUMPI DUP1 PUSH4 0xADA91E46 EQ PUSH2 0x391 JUMPI DUP1 PUSH4 0xB7F9F09C EQ PUSH2 0x352 JUMPI DUP1 PUSH4 0xCB1F3217 EQ PUSH2 0x318 JUMPI DUP1 PUSH4 0xCDD78CFC EQ PUSH2 0x2FA JUMPI DUP1 PUSH4 0xD6A145E2 EQ PUSH2 0x2C0 JUMPI DUP1 PUSH4 0xE744092E EQ PUSH2 0x281 JUMPI DUP1 PUSH4 0xEDC1F335 EQ PUSH2 0x263 JUMPI DUP1 PUSH4 0xF2FDE38B EQ PUSH2 0x19A JUMPI DUP1 PUSH4 0xF77CC28F EQ PUSH2 0x17C JUMPI PUSH4 0xFBEFF25A EQ PUSH2 0x12F JUMPI PUSH1 0x0 DUP1 REVERT JUMPDEST CALLVALUE PUSH2 0x177 JUMPI PUSH1 0x40 CALLDATASIZE PUSH1 0x3 NOT ADD SLT PUSH2 0x177 JUMPI PUSH1 0x1 PUSH1 0x1 PUSH1 0xA0 SHL SUB PUSH2 0x150 PUSH2 0x10C2 JUMP JUMPDEST AND PUSH1 0x0 MSTORE PUSH1 0xC PUSH1 0x20 MSTORE PUSH1 0x40 PUSH1 0x0 KECCAK256 PUSH1 0x24 CALLDATALOAD PUSH1 0x0 MSTORE PUSH1 0x20 MSTORE PUSH1 0x20 PUSH1 0x40 PUSH1 0x0 KECCAK256 SLOAD PUSH1 0x40 MLOAD SWAP1 DUP2 MSTORE RETURN JUMPDEST PUSH1 0x0 DUP1 REVERT JUMPDEST CALLVALUE PUSH2 0x177 JUMPI PUSH1 0x0 CALLDATASIZE PUSH1 0x3 NOT ADD SLT PUSH2 0x177 JUMPI PUSH1 0x20 PUSH1 0x5 SLOAD PUSH1 0x40 MLOAD SWAP1 DUP2 MSTORE RETURN JUMPDEST CALLVALUE PUSH2 0x177 JUMPI PUSH1 0x20 CALLDATASIZE PUSH1 0x3 NOT ADD SLT PUSH2 0x177 JUMPI PUSH2 0x1B3 PUSH2 0x10C2 JUMP JUMPDEST PUSH2 0x1BB PUSH2 0x10D8 JUMP JUMPDEST PUSH1 0x1 PUSH1 0x1 PUSH1 0xA0 SHL SUB SWAP1 DUP2 AND SWAP1 DUP2 ISZERO PUSH2 0x20F JUMPI PUSH1 0x0 SLOAD DUP3 PUSH12 0xFFFFFFFFFFFFFFFFFFFFFFFF PUSH1 0xA0 SHL DUP3 AND OR PUSH1 0x0 SSTORE AND PUSH32 0x8BE0079C531659141344CD1FD0A4F28419497F9722A3DAAFE3B4186F6B6457E0 PUSH1 0x0 DUP1 LOG3 STOP JUMPDEST PUSH1 0x40 MLOAD PUSH3 0x461BCD PUSH1 0xE5 SHL DUP2 MSTORE PUSH1 0x20 PUSH1 0x4 DUP3 ADD MSTORE PUSH1 0x26 PUSH1 0x24 DUP3 ADD MSTORE PUSH32 0x4F776E61626C653A206E6577206F776E657220697320746865207A65726F2061 PUSH1 0x44 DUP3 ADD MSTORE PUSH6 0x646472657373 PUSH1 0xD0 SHL PUSH1 0x64 DUP3 ADD MSTORE PUSH1 0x84 SWAP1 REVERT JUMPDEST CALLVALUE PUSH2 0x177 JUMPI PUSH1 0x0 CALLDATASIZE PUSH1 0x3 NOT ADD SLT PUSH2 0x177 JUMPI PUSH1 0x20 PUSH1 0xF SLOAD PUSH1 0x40 MLOAD SWAP1 DUP2 MSTORE RETURN JUMPDEST CALLVALUE PUSH2 0x177 JUMPI PUSH1 0x20 CALLDATASIZE PUSH1 0x3 NOT ADD SLT PUSH2 0x177 JUMPI PUSH1 0x1 PUSH1 0x1 PUSH1 0xA0 SHL SUB PUSH2 0x2A2 PUSH2 0x10C2 JUMP JUMPDEST AND PUSH1 0x0 MSTORE PUSH1 0x12 PUSH1 0x20 MSTORE PUSH1 0x20 PUSH1 0xFF PUSH1 0x40 PUSH1 0x0 KECCAK256 SLOAD AND PUSH1 0x40 MLOAD SWAP1 ISZERO ISZERO DUP2 MSTORE RETURN JUMPDEST CALLVALUE PUSH2 0x177 JUMPI PUSH1 0x20 CALLDATASIZE PUSH1 0x3 NOT ADD SLT PUSH2 0x177 JUMPI PUSH1 0x1 PUSH1 0x1 PUSH1 0xA0 SHL SUB PUSH2 0x2E1 PUSH2 0x10C2 JUMP JUMPDEST AND PUSH1 0x0 MSTORE PUSH1 0xA PUSH1 0x20 MSTORE PUSH1 0x20 PUSH1 0x40 PUSH1 0x0 KECCAK256 SLOAD PUSH1 0x40 MLOAD SWAP1 DUP2 MSTORE RETURN JUMPDEST CALLVALUE PUSH2 0x177 JUMPI PUSH1 0x0 CALLDATASIZE PUSH1 0x3 NOT ADD SLT PUSH2 0x177 JUMPI PUSH1 0x20 PUSH1 0xE SLOAD PUSH1 0x40 MLOAD SWAP1 DUP2 MSTORE RETURN JUMPDEST CALLVALUE PUSH2 0x177 JUMPI PUSH1 0x20 CALLDATASIZE PUSH1 0x3 NOT ADD SLT PUSH2 0x177 JUMPI PUSH1 0x1 PUSH1 0x1 PUSH1 0xA0 SHL SUB PUSH2 0x339 PUSH2 0x10C2 JUMP JUMPDEST AND PUSH1 0x0 MSTORE PUSH1 0x8 PUSH1 0x20 MSTORE PUSH1 0x20 PUSH1 0x40 PUSH1 0x0 KECCAK256 SLOAD PUSH1 0x40 MLOAD SWAP1 DUP2 MSTORE RETURN JUMPDEST CALLVALUE PUSH2 0x177 JUMPI PUSH1 0x20 CALLDATASIZE PUSH1 0x3 NOT ADD SLT PUSH2 0x177 JUMPI PUSH1 0x1 PUSH1 0x1 PUSH1 0xA0 SHL SUB PUSH2 0x373 PUSH2 0x10C2 JUMP JUMPDEST AND PUSH1 0x0 MSTORE PUSH1 0x7 PUSH1 0x20 MSTORE PUSH1 0x20 PUSH1 0xFF PUSH1 0x40 PUSH1 0x0 KECCAK256 SLOAD AND PUSH1 0x40 MLOAD SWAP1 ISZERO ISZERO DUP2 MSTORE RETURN JUMPDEST CALLVALUE PUSH2 0x177 JUMPI PUSH1 0x20 CALLDATASIZE PUSH1 0x3 NOT ADD SLT PUSH2 0x177 JUMPI PUSH1 0x20 PUSH1 0x1 PUSH1 0x1 PUSH1 0xA0 SHL SUB DUP1 PUSH2 0x3B5 PUSH2 0x10C2 JUMP JUMPDEST AND PUSH1 0x0 MSTORE PUSH1 0x13 DUP3 MSTORE PUSH1 0x40 PUSH1 0x0 KECCAK256 SLOAD AND PUSH1 0x40 MLOAD SWAP1 DUP2 MSTORE RETURN JUMPDEST CALLVALUE PUSH2 0x177 JUMPI PUSH1 0x20 CALLDATASIZE PUSH1 0x3 NOT ADD SLT PUSH2 0x177 JUMPI PUSH1 0x1 PUSH1 0x1 PUSH1 0xA0 SHL SUB PUSH2 0x3ED PUSH2 0x10C2 JUMP JUMPDEST AND PUSH1 0x0 MSTORE PUSH1 0x9 PUSH1 0x20 MSTORE PUSH1 0x20 PUSH1 0x40 PUSH1 0x0 KECCAK256 SLOAD PUSH1 0x40 MLOAD SWAP1 DUP2 MSTORE RETURN JUMPDEST CALLVALUE PUSH2 0x177 JUMPI PUSH1 0x0 CALLDATASIZE PUSH1 0x3 NOT ADD SLT PUSH2 0x177 JUMPI PUSH1 0x0 SLOAD PUSH1 0x40 MLOAD PUSH1 0x1 PUSH1 0x1 PUSH1 0xA0 SHL SUB SWAP1 SWAP2 AND DUP2 MSTORE PUSH1 0x20 SWAP1 RETURN JUMPDEST CALLVALUE PUSH2 0x177 JUMPI PUSH1 0x0 CALLDATASIZE PUSH1 0x3 NOT ADD SLT PUSH2 0x177 JUMPI PUSH2 0x448 PUSH2 0x10D8 JUMP JUMPDEST PUSH1 0x0 DUP1 SLOAD PUSH1 0x1 PUSH1 0x1 PUSH1 0xA0 SHL SUB NOT DUP2 AND DUP3 SSTORE PUSH1 0x1 PUSH1 0x1 PUSH1 0xA0 SHL SUB AND PUSH32 0x8BE0079C531659141344CD1FD0A4F28419497F9722A3DAAFE3B4186F6B6457E0 DUP3 DUP1 LOG3 STOP JUMPDEST CALLVALUE PUSH2 0x177 JUMPI PUSH1 0x0 CALLDATASIZE PUSH1 0x3 NOT ADD SLT PUSH2 0x177 JUMPI PUSH1 0x20 PUSH1 0x10 SLOAD PUSH1 0x40 MLOAD SWAP1 DUP2 MSTORE RETURN JUMPDEST CALLVALUE PUSH2 0x177 JUMPI PUSH1 0x40 CALLDATASIZE PUSH1 0x3 NOT ADD SLT PUSH2 0x177 JUMPI PUSH1 0x24 CALLDATALOAD PUSH8 0xFFFFFFFFFFFFFFFF DUP2 GT PUSH2 0x177 JUMPI CALLDATASIZE PUSH1 0x23 DUP3 ADD SLT ISZERO PUSH2 0x177 JUMPI DUP1 PUSH1 0x4 ADD CALLDATALOAD PUSH8 0xFFFFFFFFFFFFFFFF DUP2 GT PUSH2 0xB44 JUMPI PUSH1 0x40 MLOAD SWAP2 PUSH2 0x500 PUSH1 0x1F DUP4 ADD PUSH1 0x1F NOT AND PUSH1 0x20 ADD DUP5 PUSH2 0xF60 JUMP JUMPDEST DUP2 DUP4 MSTORE CALLDATASIZE PUSH1 0x24 DUP4 DUP4 ADD ADD GT PUSH2 0x177 JUMPI DUP2 PUSH1 0x0 SWAP3 PUSH1 0x24 PUSH1 0x20 SWAP4 ADD DUP4 DUP7 ADD CALLDATACOPY DUP4 ADD ADD MSTORE PUSH1 0x4 CALLDATALOAD PUSH1 0x0 MSTORE PUSH1 0x11 PUSH1 0x20 MSTORE PUSH1 0x40 PUSH1 0x0 KECCAK256 PUSH1 0x1 DUP1 PUSH1 0xA0 SHL SUB DUP2 SLOAD AND CALLER EQ SWAP1 DUP2 ISZERO PUSH2 0xBE4 JUMPI JUMPDEST POP ISZERO PUSH2 0xBAB JUMPI PUSH1 0x4 CALLDATALOAD PUSH1 0x0 MSTORE PUSH1 0x11 PUSH1 0x20 MSTORE PUSH1 0x40 PUSH1 0x0 KECCAK256 PUSH1 0x1 DUP2 ADD SLOAD PUSH1 0xFF DUP2 PUSH1 0xA0 SHR AND PUSH1 0x6 DUP2 LT ISZERO PUSH2 0xB95 JUMPI PUSH1 0x1 SUB PUSH2 0xB5A JUMPI PUSH1 0xFF PUSH1 0xA0 SHL NOT AND PUSH1 0x1 PUSH1 0xA2 SHL OR PUSH1 0x1 DUP3 ADD SSTORE PUSH1 0xC DUP2 ADD DUP1 SLOAD PUSH1 0x1 PUSH1 0x1 PUSH1 0xA0 SHL SUB NOT AND CALLER OR SWAP1 SSTORE DUP2 MLOAD SWAP2 PUSH8 0xFFFFFFFFFFFFFFFF DUP4 GT PUSH2 0xB44 JUMPI PUSH2 0x5BC PUSH1 0xD DUP4 ADD SLOAD PUSH2 0xF0A JUMP JUMPDEST PUSH1 0x1F DUP2 GT PUSH2 0xAFD JUMPI JUMPDEST POP PUSH1 0x20 SWAP3 PUSH1 0x1F DUP2 GT PUSH1 0x1 EQ PUSH2 0xA91 JUMPI DUP1 SWAP2 SWAP3 SWAP4 PUSH1 0x0 SWAP2 PUSH2 0xA86 JUMPI JUMPDEST POP DUP2 PUSH1 0x1 SHL SWAP2 PUSH1 0x0 NOT SWAP1 PUSH1 0x3 SHL SHR NOT AND OR PUSH1 0xD DUP4 ADD SSTORE JUMPDEST PUSH3 0x93A80 TIMESTAMP ADD TIMESTAMP GT PUSH2 0x99B JUMPI TIMESTAMP PUSH3 0x93A80 ADD PUSH1 0x3 DUP4 ADD SSTORE DUP2 SLOAD PUSH1 0x1 PUSH1 0x1 PUSH1 0xA0 SHL SUB AND CALLER DUP2 SUB PUSH2 0xA80 JUMPI POP PUSH1 0x1 DUP3 ADD SLOAD PUSH1 0x1 PUSH1 0x1 PUSH1 0xA0 SHL SUB AND SWAP2 JUMPDEST PUSH1 0x6 DUP2 ADD SLOAD PUSH1 0x0 PUSH1 0x2 SLOAD SWAP2 PUSH2 0x645 DUP4 PUSH2 0x113D JUMP JUMPDEST SWAP3 PUSH2 0x653 PUSH1 0x40 MLOAD SWAP5 DUP6 PUSH2 0xF60 JUMP JUMPDEST DUP1 DUP5 MSTORE PUSH1 0x1F NOT PUSH2 0x662 DUP3 PUSH2 0x113D JUMP JUMPDEST ADD PUSH1 0x0 JUMPDEST DUP2 DUP2 LT PUSH2 0xA46 JUMPI POP POP PUSH1 0x5 SLOAD PUSH1 0x0 SWAP3 JUMPDEST DUP3 DUP5 LT PUSH2 0x81E JUMPI JUMPDEST POP POP POP POP DUP1 ISZERO PUSH2 0x7CF JUMPI PUSH1 0x1 PUSH1 0x1 PUSH1 0xA0 SHL SUB PUSH2 0x699 DUP4 PUSH2 0x1164 JUMP JUMPDEST MLOAD MLOAD AND SWAP2 PUSH1 0x80 SWAP1 DUP2 PUSH2 0x6AA DUP3 PUSH2 0x1164 JUMP JUMPDEST MLOAD ADD MLOAD PUSH1 0x1 JUMPDEST DUP5 DUP2 LT PUSH2 0x779 JUMPI DUP9 DUP9 DUP9 PUSH1 0x4 DUP10 PUSH1 0x1 DUP1 PUSH1 0xA0 SHL SUB AND SWAP2 DUP3 PUSH1 0x0 MSTORE PUSH1 0xA PUSH1 0x20 MSTORE PUSH1 0x40 PUSH1 0x0 KECCAK256 PUSH2 0x6DE DUP2 SLOAD PUSH2 0x1155 JUMP JUMPDEST SWAP1 SSTORE DUP3 PUSH1 0x0 MSTORE PUSH1 0xB PUSH1 0x20 MSTORE TIMESTAMP PUSH1 0x40 PUSH1 0x0 KECCAK256 SSTORE PUSH1 0x40 MLOAD SWAP5 PUSH1 0x1 DUP1 PUSH1 0xA0 SHL SUB AND CALLER DUP5 PUSH32 0xB3FE975CFAE5112360ECEEA1E00C7A0074C026F52CDD6BC33E6966760AAF6A3B PUSH1 0x0 DUP1 LOG4 ADD SWAP1 PUSH12 0xFFFFFFFFFFFFFFFFFFFFFFFF PUSH1 0xA0 SHL DUP3 SLOAD AND OR SWAP1 SSTORE PUSH1 0x20 DUP3 MSTORE PUSH32 0x1600FDB27A317E587A0350390FA1BD5DA9A413F7D9C126C14802BC3F7F458BBB CALLER SWAP3 DUP1 PUSH2 0x774 PUSH1 0x4 CALLDATALOAD SWAP5 PUSH1 0x20 DUP4 ADD SWAP1 PUSH2 0x1035 JUMP JUMPDEST SUB SWAP1 LOG3 STOP JUMPDEST DUP2 DUP5 PUSH2 0x785 DUP4 DUP7 PUSH2 0x1171 JUMP JUMPDEST MLOAD ADD MLOAD GT PUSH2 0x79C JUMPI JUMPDEST PUSH2 0x797 SWAP1 PUSH2 0x1155 JUMP JUMPDEST PUSH2 0x6B0 JUMP JUMPDEST SWAP5 POP PUSH1 0x1 PUSH1 0x1 PUSH1 0xA0 SHL SUB SWAP1 POP PUSH2 0x7B2 DUP6 DUP4 PUSH2 0x1171 JUMP JUMPDEST MLOAD MLOAD AND SWAP4 PUSH2 0x797 DUP4 PUSH2 0x7C4 DUP4 DUP6 PUSH2 0x1171 JUMP JUMPDEST MLOAD ADD MLOAD SWAP2 SWAP1 POP PUSH2 0x78E JUMP JUMPDEST PUSH1 0x40 MLOAD PUSH3 0x461BCD PUSH1 0xE5 SHL DUP2 MSTORE PUSH1 0x20 PUSH1 0x4 DUP3 ADD MSTORE PUSH1 0x21 PUSH1 0x24 DUP3 ADD MSTORE PUSH32 0x4E6F20656C696769626C652061726269747261746F727320617661696C61626C PUSH1 0x44 DUP3 ADD MSTORE PUSH1 0x65 PUSH1 0xF8 SHL PUSH1 0x64 DUP3 ADD MSTORE PUSH1 0x84 SWAP1 REVERT JUMPDEST SWAP1 SWAP2 SWAP3 SWAP4 PUSH2 0x82B DUP6 PUSH2 0x1075 JUMP JUMPDEST PUSH1 0x1 DUP1 PUSH1 0xA0 SHL SUB SWAP2 SLOAD SWAP1 PUSH1 0x3 SHL SHR AND SWAP1 DUP2 PUSH1 0x0 MSTORE PUSH1 0x6 PUSH1 0x20 MSTORE PUSH1 0xFF PUSH1 0x40 PUSH1 0x0 KECCAK256 SLOAD AND ISZERO DUP1 ISZERO PUSH2 0xA31 JUMPI JUMPDEST DUP1 ISZERO PUSH2 0xA1D JUMPI JUMPDEST DUP1 ISZERO PUSH2 0xA08 JUMPI JUMPDEST DUP1 ISZERO PUSH2 0x9E8 JUMPI JUMPDEST DUP1 ISZERO PUSH2 0x9BC JUMPI JUMPDEST PUSH2 0x9B1 JUMPI PUSH2 0x87F DUP4 DUP4 PUSH2 0x1185 JUMP JUMPDEST SWAP2 DUP1 PUSH1 0x0 MSTORE PUSH1 0x8 PUSH1 0x20 MSTORE PUSH1 0x40 PUSH1 0x0 KECCAK256 SLOAD PUSH1 0x28 DUP2 DUP2 DUP2 MUL DIV DUP2 EQ DUP3 ISZERO OR ISZERO PUSH2 0x99B JUMPI DUP3 PUSH1 0x0 MSTORE PUSH1 0xA PUSH1 0x20 MSTORE PUSH1 0x40 PUSH1 0x0 KECCAK256 SLOAD SWAP1 DUP2 DUP9 SUB SWAP2 DUP9 DUP4 GT PUSH2 0x99B JUMPI PUSH1 0x1E DUP1 DUP5 MUL SWAP4 DUP5 DIV EQ SWAP1 DUP10 EQ OR ISZERO PUSH2 0x99B JUMPI PUSH2 0x8D7 SWAP3 MUL PUSH2 0x1130 JUMP JUMPDEST PUSH1 0x14 SWAP1 DUP5 DUP3 DUP2 MUL DIV DUP3 EQ DUP6 ISZERO OR ISZERO PUSH2 0x99B JUMPI PUSH2 0x8F5 SWAP2 DUP6 MUL SWAP1 PUSH2 0x1130 JUMP JUMPDEST SWAP3 PUSH2 0x8FF DUP3 PUSH2 0x1217 JUMP JUMPDEST DUP1 PUSH1 0xA DUP2 MUL DIV PUSH1 0xA EQ DUP2 ISZERO OR ISZERO PUSH2 0x99B JUMPI PUSH2 0x97B SWAP5 PUSH1 0xA PUSH2 0x921 SWAP3 MUL SWAP1 PUSH2 0x1130 JUMP JUMPDEST SWAP1 DUP3 PUSH1 0x0 MSTORE PUSH1 0x8 PUSH1 0x20 MSTORE PUSH1 0x40 PUSH1 0x0 KECCAK256 SLOAD PUSH1 0xA PUSH1 0x20 MSTORE PUSH1 0x40 PUSH1 0x0 KECCAK256 SLOAD SWAP1 PUSH1 0x40 MLOAD SWAP5 PUSH2 0x94A DUP7 PUSH2 0xF44 JUMP JUMPDEST DUP6 MSTORE PUSH1 0x20 DUP6 ADD MSTORE PUSH1 0x40 DUP5 ADD MSTORE PUSH1 0x60 DUP4 ADD MSTORE PUSH1 0x80 DUP3 ADD MSTORE PUSH2 0x96A DUP3 DUP10 PUSH2 0x1171 JUMP JUMPDEST MSTORE PUSH2 0x975 DUP2 DUP9 PUSH2 0x1171 JUMP JUMPDEST POP PUSH2 0x1155 JUMP JUMPDEST SWAP4 PUSH1 0xA DUP6 LT ISZERO PUSH2 0x996 JUMPI PUSH2 0x98E SWAP1 PUSH2 0x1155 JUMP JUMPDEST SWAP3 SWAP2 SWAP1 PUSH2 0x676 JUMP JUMPDEST PUSH2 0x67E JUMP JUMPDEST PUSH4 0x4E487B71 PUSH1 0xE0 SHL PUSH1 0x0 MSTORE PUSH1 0x11 PUSH1 0x4 MSTORE PUSH1 0x24 PUSH1 0x0 REVERT JUMPDEST SWAP5 PUSH2 0x98E SWAP2 POP PUSH2 0x1155 JUMP JUMPDEST POP DUP2 PUSH1 0x0 MSTORE PUSH1 0xD PUSH1 0x20 MSTORE PUSH1 0x40 PUSH1 0x0 KECCAK256 PUSH1 0x1 DUP1 PUSH1 0xA0 SHL SUB DUP12 AND PUSH1 0x0 MSTORE PUSH1 0x20 MSTORE PUSH1 0xFF PUSH1 0x40 PUSH1 0x0 KECCAK256 SLOAD AND PUSH2 0x871 JUMP JUMPDEST POP PUSH1 0xD PUSH1 0x20 MSTORE PUSH1 0x40 PUSH1 0x0 KECCAK256 CALLER PUSH1 0x0 MSTORE PUSH1 0x20 MSTORE PUSH1 0xFF PUSH1 0x40 PUSH1 0x0 KECCAK256 SLOAD AND PUSH2 0x86A JUMP JUMPDEST POP PUSH1 0x7 PUSH1 0x20 MSTORE PUSH1 0xFF PUSH1 0x40 PUSH1 0x0 KECCAK256 SLOAD AND ISZERO PUSH2 0x863 JUMP JUMPDEST POP PUSH1 0xA PUSH1 0x20 MSTORE DUP4 PUSH1 0x40 PUSH1 0x0 KECCAK256 SLOAD LT ISZERO PUSH2 0x85C JUMP JUMPDEST POP PUSH1 0x8 PUSH1 0x20 MSTORE PUSH1 0x40 PUSH1 0x0 KECCAK256 SLOAD PUSH1 0x4 SLOAD GT PUSH2 0x855 JUMP JUMPDEST PUSH1 0x20 SWAP1 PUSH1 0x40 MLOAD PUSH2 0xA55 DUP2 PUSH2 0xF44 JUMP JUMPDEST PUSH1 0x0 DUP2 MSTORE PUSH1 0x0 DUP4 DUP3 ADD MSTORE PUSH1 0x0 PUSH1 0x40 DUP3 ADD MSTORE PUSH1 0x0 PUSH1 0x60 DUP3 ADD MSTORE PUSH1 0x0 PUSH1 0x80 DUP3 ADD MSTORE DUP3 DUP3 DUP10 ADD ADD MSTORE ADD PUSH2 0x666 JUMP JUMPDEST SWAP2 PUSH2 0x631 JUMP JUMPDEST SWAP1 POP DUP3 ADD MLOAD DUP5 PUSH2 0x5E0 JUMP JUMPDEST PUSH1 0xD DUP4 ADD PUSH1 0x0 MSTORE PUSH1 0x20 PUSH1 0x0 KECCAK256 PUSH1 0x0 JUMPDEST PUSH1 0x1F NOT DUP4 AND DUP2 LT PUSH2 0xAE5 JUMPI POP PUSH1 0x1 SWAP3 SWAP4 SWAP5 DUP3 PUSH1 0x1F NOT DUP2 AND LT PUSH2 0xACC JUMPI JUMPDEST POP POP DUP2 SHL ADD PUSH1 0xD DUP4 ADD SSTORE PUSH2 0x5F7 JUMP JUMPDEST DUP5 ADD MLOAD PUSH1 0x0 NOT PUSH1 0xF8 DUP5 PUSH1 0x3 SHL AND SHR NOT AND SWAP1 SSTORE DUP5 DUP1 PUSH2 0xABD JUMP JUMPDEST DUP4 DUP7 ADD MLOAD DUP3 SSTORE PUSH1 0x20 SWAP6 DUP7 ADD SWAP6 PUSH1 0x1 SWAP1 SWAP3 ADD SWAP2 ADD PUSH2 0xAA0 JUMP JUMPDEST PUSH1 0xD DUP4 ADD PUSH1 0x0 MSTORE PUSH1 0x20 PUSH1 0x0 KECCAK256 PUSH1 0x1F DUP6 ADD PUSH1 0x5 SHR DUP2 ADD PUSH1 0x20 DUP7 LT PUSH2 0xB3D JUMPI JUMPDEST PUSH1 0x1F DUP4 ADD PUSH1 0x5 SHR DUP3 ADD DUP2 LT PUSH2 0xB31 JUMPI POP POP PUSH2 0x5C5 JUMP JUMPDEST PUSH1 0x0 DUP2 SSTORE PUSH1 0x1 ADD PUSH2 0xB1B JUMP JUMPDEST POP DUP1 PUSH2 0xB1B JUMP JUMPDEST PUSH4 0x4E487B71 PUSH1 0xE0 SHL PUSH1 0x0 MSTORE PUSH1 0x41 PUSH1 0x4 MSTORE PUSH1 0x24 PUSH1 0x0 REVERT JUMPDEST PUSH1 0x40 MLOAD PUSH3 0x461BCD PUSH1 0xE5 SHL DUP2 MSTORE PUSH1 0x20 PUSH1 0x4 DUP3 ADD MSTORE PUSH1 0x13 PUSH1 0x24 DUP3 ADD MSTORE PUSH19 0x4E6F7420696E2066756E646564207374617465 PUSH1 0x68 SHL PUSH1 0x44 DUP3 ADD MSTORE PUSH1 0x64 SWAP1 REVERT JUMPDEST PUSH4 0x4E487B71 PUSH1 0xE0 SHL PUSH1 0x0 MSTORE PUSH1 0x21 PUSH1 0x4 MSTORE PUSH1 0x24 PUSH1 0x0 REVERT JUMPDEST PUSH1 0x40 MLOAD PUSH3 0x461BCD PUSH1 0xE5 SHL DUP2 MSTORE PUSH1 0x20 PUSH1 0x4 DUP3 ADD MSTORE PUSH1 0x11 PUSH1 0x24 DUP3 ADD MSTORE PUSH17 0x139BDD0818481C185C9D1A58DA5C185B9D PUSH1 0x7A SHL PUSH1 0x44 DUP3 ADD MSTORE PUSH1 0x64 SWAP1 REVERT JUMPDEST PUSH1 0x1 ADD SLOAD PUSH1 0x1 PUSH1 0x1 PUSH1 0xA0 SHL SUB AND CALLER EQ SWAP1 POP DUP3 PUSH2 0x545 JUMP JUMPDEST CALLVALUE PUSH2 0x177 JUMPI PUSH1 0x20 CALLDATASIZE PUSH1 0x3 NOT ADD SLT PUSH2 0x177 JUMPI PUSH1 0x1 PUSH1 0x1 PUSH1 0xA0 SHL SUB PUSH2 0xC1C PUSH2 0x10C2 JUMP JUMPDEST AND PUSH1 0x0 MSTORE PUSH1 0x6 PUSH1 0x20 MSTORE PUSH1 0x20 PUSH1 0xFF PUSH1 0x40 PUSH1 0x0 KECCAK256 SLOAD AND PUSH1 0x40 MLOAD SWAP1 ISZERO ISZERO DUP2 MSTORE RETURN JUMPDEST CALLVALUE PUSH2 0x177 JUMPI PUSH1 0x0 CALLDATASIZE PUSH1 0x3 NOT ADD SLT PUSH2 0x177 JUMPI PUSH1 0x20 PUSH1 0x3 SLOAD PUSH1 0x40 MLOAD SWAP1 DUP2 MSTORE RETURN JUMPDEST CALLVALUE PUSH2 0x177 JUMPI PUSH1 0x40 CALLDATASIZE PUSH1 0x3 NOT ADD SLT PUSH2 0x177 JUMPI PUSH2 0xC71 PUSH2 0x10C2 JUMP JUMPDEST PUSH1 0x1 PUSH1 0x1 PUSH1 0xA0 SHL SUB PUSH1 0x24 CALLDATALOAD DUP2 DUP2 AND SWAP3 SWAP1 DUP4 SWAP1 SUB PUSH2 0x177 JUMPI AND PUSH1 0x0 MSTORE PUSH1 0xD PUSH1 0x20 MSTORE PUSH1 0x40 PUSH1 0x0 KECCAK256 SWAP1 PUSH1 0x0 MSTORE PUSH1 0x20 MSTORE PUSH1 0x20 PUSH1 0xFF PUSH1 0x40 PUSH1 0x0 KECCAK256 SLOAD AND PUSH1 0x40 MLOAD SWAP1 ISZERO ISZERO DUP2 MSTORE RETURN JUMPDEST CALLVALUE PUSH2 0x177 JUMPI PUSH1 0x0 CALLDATASIZE PUSH1 0x3 NOT ADD SLT PUSH2 0x177 JUMPI PUSH1 0x20 PUSH1 0x4 SLOAD PUSH1 0x40 MLOAD SWAP1 DUP2 MSTORE RETURN JUMPDEST CALLVALUE PUSH2 0x177 JUMPI PUSH1 0x0 CALLDATASIZE PUSH1 0x3 NOT ADD SLT PUSH2 0x177 JUMPI PUSH1 0x20 PUSH1 0x40 MLOAD PUSH2 0x1F4 DUP2 MSTORE RETURN JUMPDEST CALLVALUE PUSH2 0x177 JUMPI PUSH1 0x20 CALLDATASIZE PUSH1 0x3 NOT ADD SLT PUSH2 0x177 JUMPI PUSH1 0x1 PUSH1 0x1 PUSH1 0xA0 SHL SUB PUSH2 0xD0E PUSH2 0x10C2 JUMP JUMPDEST AND PUSH1 0x0 MSTORE PUSH1 0xB PUSH1 0x20 MSTORE PUSH1 0x20 PUSH1 0x40 PUSH1 0x0 KECCAK256 SLOAD PUSH1 0x40 MLOAD SWAP1 DUP2 MSTORE RETURN JUMPDEST CALLVALUE PUSH2 0x177 JUMPI PUSH1 0x0 CALLDATASIZE PUSH1 0x3 NOT ADD SLT PUSH2 0x177 JUMPI PUSH1 0x20 PUSH1 0x40 MLOAD PUSH7 0x2386F26FC10000 DUP2 MSTORE RETURN JUMPDEST CALLVALUE PUSH2 0x177 JUMPI PUSH1 0x0 CALLDATASIZE PUSH1 0x3 NOT ADD SLT PUSH2 0x177 JUMPI PUSH1 0x20 PUSH1 0x40 MLOAD PUSH3 0x93A80 DUP2 MSTORE RETURN JUMPDEST CALLVALUE PUSH2 0x177 JUMPI PUSH1 0x20 CALLDATASIZE PUSH1 0x3 NOT ADD SLT PUSH2 0x177 JUMPI PUSH1 0x4 CALLDATALOAD PUSH1 0x2 SLOAD DUP2 LT ISZERO PUSH2 0x177 JUMPI PUSH2 0xD90 PUSH1 0x20 SWAP2 PUSH2 0x1075 JUMP JUMPDEST SWAP1 SLOAD PUSH1 0x40 MLOAD PUSH1 0x3 SWAP3 SWAP1 SWAP3 SHL SHR PUSH1 0x1 PUSH1 0x1 PUSH1 0xA0 SHL SUB AND DUP2 MSTORE RETURN JUMPDEST CALLVALUE PUSH2 0x177 JUMPI PUSH1 0x20 CALLDATASIZE PUSH1 0x3 NOT ADD SLT PUSH2 0x177 JUMPI PUSH1 0x4 CALLDATALOAD PUSH1 0x0 MSTORE PUSH1 0x11 PUSH1 0x20 MSTORE PUSH1 0x40 PUSH1 0x0 KECCAK256 PUSH1 0x1 DUP1 PUSH1 0xA0 SHL SUB DUP2 SLOAD AND SWAP1 PUSH1 0x1 DUP2 ADD SLOAD PUSH1 0x2 DUP3 ADD SLOAD SWAP1 PUSH1 0x3 DUP4 ADD SLOAD SWAP1 PUSH1 0x4 DUP5 ADD SLOAD SWAP4 PUSH1 0x1 DUP1 PUSH1 0xA0 SHL SUB PUSH1 0x5 DUP3 ADD SLOAD AND PUSH1 0x6 DUP3 ADD SLOAD PUSH1 0x7 DUP4 ADD SLOAD SWAP5 PUSH2 0xE10 PUSH1 0x8 DUP6 ADD PUSH2 0xF82 JUMP JUMPDEST PUSH1 0x9 DUP6 ADD SLOAD SWAP7 PUSH1 0xA DUP7 ADD SLOAD SWAP4 PUSH1 0xB DUP8 ADD SLOAD SWAP6 PUSH1 0xFF PUSH2 0xE3D PUSH1 0xD PUSH1 0x1 DUP1 PUSH1 0xA0 SHL SUB PUSH1 0xC DUP13 ADD SLOAD AND SWAP11 ADD PUSH2 0xF82 JUMP JUMPDEST SWAP10 PUSH1 0x40 MLOAD SWAP15 DUP16 SWAP1 DUP2 MSTORE PUSH1 0x20 PUSH1 0x1 DUP1 PUSH1 0xA0 SHL SUB DUP4 AND SWAP2 ADD MSTORE PUSH1 0xA0 SHR AND SWAP5 PUSH1 0x6 DUP7 LT ISZERO PUSH2 0xB95 JUMPI DUP14 SWAP13 PUSH1 0xFF PUSH1 0xC0 DUP16 PUSH2 0xF06 SWAP16 SWAP5 PUSH2 0xE9E SWAP6 PUSH2 0xEDF SWAP12 PUSH1 0x40 DUP5 ADD MSTORE PUSH1 0x60 DUP4 ADD MSTORE PUSH1 0x80 DUP3 ADD MSTORE PUSH1 0x1 DUP1 PUSH1 0xA0 SHL SUB DUP5 AND PUSH1 0xA0 DUP3 ADD MSTORE ADD SWAP2 PUSH1 0xA0 SHR AND PUSH2 0x1028 JUMP JUMPDEST PUSH1 0xE0 DUP13 ADD MSTORE PUSH2 0x100 DUP12 ADD MSTORE PUSH2 0xEBA PUSH2 0x120 DUP12 ADD PUSH1 0xFF DUP4 AND PUSH2 0x1028 JUMP JUMPDEST PUSH1 0x8 SHR PUSH1 0x1 PUSH1 0x1 PUSH1 0xA0 SHL SUB AND PUSH2 0x140 DUP11 ADD MSTORE PUSH2 0x220 PUSH2 0x160 DUP11 ADD DUP2 SWAP1 MSTORE DUP10 ADD SWAP1 PUSH2 0x1035 JUMP JUMPDEST SWAP5 PUSH2 0x180 DUP9 ADD MSTORE PUSH2 0x1A0 DUP8 ADD MSTORE PUSH2 0x1C0 DUP7 ADD MSTORE PUSH2 0x1E0 DUP6 ADD MSTORE DUP4 DUP3 SUB PUSH2 0x200 DUP6 ADD MSTORE PUSH2 0x1035 JUMP JUMPDEST SUB SWAP1 RETURN JUMPDEST SWAP1 PUSH1 0x1 DUP3 DUP2 SHR SWAP3 AND DUP1 ISZERO PUSH2 0xF3A JUMPI JUMPDEST PUSH1 0x20 DUP4 LT EQ PUSH2 0xF24 JUMPI JUMP JUMPDEST PUSH4 0x4E487B71 PUSH1 0xE0 SHL PUSH1 0x0 MSTORE PUSH1 0x22 PUSH1 0x4 MSTORE PUSH1 0x24 PUSH1 0x0 REVERT JUMPDEST SWAP2 PUSH1 0x7F AND SWAP2 PUSH2 0xF19 JUMP JUMPDEST PUSH1 0xA0 DUP2 ADD SWAP1 DUP2 LT PUSH8 0xFFFFFFFFFFFFFFFF DUP3 GT OR PUSH2 0xB44 JUMPI PUSH1 0x40 MSTORE JUMP JUMPDEST SWAP1 PUSH1 0x1F DUP1 NOT SWAP2 ADD AND DUP2 ADD SWAP1 DUP2 LT PUSH8 0xFFFFFFFFFFFFFFFF DUP3 GT OR PUSH2 0xB44 JUMPI PUSH1 0x40 MSTORE JUMP JUMPDEST SWAP1 PUSH1 0x40 MLOAD SWAP2 DUP3 PUSH1 0x0 DUP3 SLOAD SWAP3 PUSH2 0xF96 DUP5 PUSH2 0xF0A JUMP JUMPDEST SWAP1 DUP2 DUP5 MSTORE PUSH1 0x1 SWAP5 DUP6 DUP2 AND SWAP1 DUP2 PUSH1 0x0 EQ PUSH2 0x1005 JUMPI POP PUSH1 0x1 EQ PUSH2 0xFC2 JUMPI JUMPDEST POP POP PUSH2 0xFC0 SWAP3 POP SUB DUP4 PUSH2 0xF60 JUMP JUMPDEST JUMP JUMPDEST SWAP1 SWAP4 SWAP2 POP PUSH1 0x0 MSTORE PUSH1 0x20 SWAP1 DUP2 PUSH1 0x0 KECCAK256 SWAP4 PUSH1 0x0 SWAP2 JUMPDEST DUP2 DUP4 LT PUSH2 0xFED JUMPI POP POP PUSH2 0xFC0 SWAP4 POP DUP3 ADD ADD CODESIZE DUP1 PUSH2 0xFB2 JUMP JUMPDEST DUP6 SLOAD DUP9 DUP5 ADD DUP6 ADD MSTORE SWAP5 DUP6 ADD SWAP5 DUP8 SWAP5 POP SWAP2 DUP4 ADD SWAP2 PUSH2 0xFD5 JUMP JUMPDEST SWAP2 POP POP PUSH2 0xFC0 SWAP5 POP PUSH1 0x20 SWAP3 POP PUSH1 0xFF NOT AND DUP3 DUP5 ADD MSTORE ISZERO ISZERO PUSH1 0x5 SHL DUP3 ADD ADD CODESIZE DUP1 PUSH2 0xFB2 JUMP JUMPDEST SWAP1 PUSH1 0x3 DUP3 LT ISZERO PUSH2 0xB95 JUMPI MSTORE JUMP JUMPDEST SWAP2 SWAP1 DUP3 MLOAD SWAP3 DUP4 DUP3 MSTORE PUSH1 0x0 JUMPDEST DUP5 DUP2 LT PUSH2 0x1061 JUMPI POP POP DUP3 PUSH1 0x0 PUSH1 0x20 DUP1 SWAP5 SWAP6 DUP5 ADD ADD MSTORE PUSH1 0x1F DUP1 NOT SWAP2 ADD AND ADD ADD SWAP1 JUMP JUMPDEST PUSH1 0x20 DUP2 DUP4 ADD DUP2 ADD MLOAD DUP5 DUP4 ADD DUP3 ADD MSTORE ADD PUSH2 0x1040 JUMP JUMPDEST PUSH1 0x2 SLOAD DUP2 LT ISZERO PUSH2 0x10AC JUMPI PUSH1 0x2 PUSH1 0x0 MSTORE PUSH32 0x405787FA12A823E0F2B7631CC41B3BA8828B3321CA811111FA75CD3AA3BB5ACE ADD SWAP1 PUSH1 0x0 SWAP1 JUMP JUMPDEST PUSH4 0x4E487B71 PUSH1 0xE0 SHL PUSH1 0x0 MSTORE PUSH1 0x32 PUSH1 0x4 MSTORE PUSH1 0x24 PUSH1 0x0 REVERT JUMPDEST PUSH1 0x4 CALLDATALOAD SWAP1 PUSH1 0x1 PUSH1 0x1 PUSH1 0xA0 SHL SUB DUP3 AND DUP3 SUB PUSH2 0x177 JUMPI JUMP JUMPDEST PUSH1 0x0 SLOAD PUSH1 0x1 PUSH1 0x1 PUSH1 0xA0 SHL SUB AND CALLER SUB PUSH2 0x10EC JUMPI JUMP JUMPDEST PUSH1 0x64 PUSH1 0x40 MLOAD PUSH3 0x461BCD PUSH1 0xE5 SHL DUP2 MSTORE PUSH1 0x20 PUSH1 0x4 DUP3 ADD MSTORE PUSH1 0x20 PUSH1 0x24 DUP3 ADD MSTORE PUSH32 0x4F776E61626C653A2063616C6C6572206973206E6F7420746865206F776E6572 PUSH1 0x44 DUP3 ADD MSTORE REVERT JUMPDEST SWAP2 SWAP1 DUP3 ADD DUP1 SWAP3 GT PUSH2 0x99B JUMPI JUMP JUMPDEST PUSH8 0xFFFFFFFFFFFFFFFF DUP2 GT PUSH2 0xB44 JUMPI PUSH1 0x5 SHL PUSH1 0x20 ADD SWAP1 JUMP JUMPDEST PUSH1 0x0 NOT DUP2 EQ PUSH2 0x99B JUMPI PUSH1 0x1 ADD SWAP1 JUMP JUMPDEST DUP1 MLOAD ISZERO PUSH2 0x10AC JUMPI PUSH1 0x20 ADD SWAP1 JUMP JUMPDEST DUP1 MLOAD DUP3 LT ISZERO PUSH2 0x10AC JUMPI PUSH1 0x20 SWAP2 PUSH1 0x5 SHL ADD ADD SWAP1 JUMP JUMPDEST SWAP1 PUSH8 0xDE0B6B3A7640000 DUP2 LT ISZERO PUSH2 0x11BC JUMPI POP PUSH1 0x1 DUP1 PUSH1 0xA0 SHL SUB AND PUSH1 0x0 MSTORE PUSH1 0xC PUSH1 0x20 MSTORE PUSH1 0x40 PUSH1 0x0 KECCAK256 PUSH1 0x0 DUP1 MSTORE PUSH1 0x20 MSTORE PUSH1 0x40 PUSH1 0x0 KECCAK256 SLOAD SWAP1 JUMP JUMPDEST PUSH8 0x8AC7230489E80000 GT ISZERO PUSH2 0x11F1 JUMPI PUSH1 0x1 DUP1 PUSH1 0xA0 SHL SUB AND PUSH1 0x0 MSTORE PUSH1 0xC PUSH1 0x20 MSTORE PUSH1 0x40 PUSH1 0x0 KECCAK256 PUSH1 0x1 PUSH1 0x0 MSTORE PUSH1 0x20 MSTORE PUSH1 0x40 PUSH1 0x0 KECCAK256 SLOAD SWAP1 JUMP JUMPDEST PUSH1 0x1 DUP1 PUSH1 0xA0 SHL SUB AND PUSH1 0x0 MSTORE PUSH1 0xC PUSH1 0x20 MSTORE PUSH1 0x40 PUSH1 0x0 KECCAK256 PUSH1 0x2 PUSH1 0x0 MSTORE PUSH1 0x20 MSTORE PUSH1 0x40 PUSH1 0x0 KECCAK256 SLOAD SWAP1 JUMP JUMPDEST PUSH1 0x1 PUSH1 0x1 PUSH1 0xA0 SHL SUB AND PUSH1 0x0 SWAP1 DUP2 MSTORE PUSH1 0x9 PUSH1 0x20 MSTORE PUSH1 0x40 SWAP1 KECCAK256 SLOAD PUSH2 0xE10 DUP2 LT PUSH2 0x1259 JUMPI PUSH2 0x3840 DUP2 LT PUSH2 0x1253 JUMPI PUSH2 0xA8C0 GT PUSH2 0x124E JUMPI PUSH1 0x14 SWAP1 JUMP JUMPDEST PUSH1 0x32 SWAP1 JUMP JUMPDEST POP PUSH1 0x50 SWAP1 JUMP JUMPDEST POP PUSH1 0x64 SWAP1 JUMP INVALID LOG2 PUSH5 0x6970667358 0x22 SLT KECCAK256 0xAA ADDRESS SHL CALLER 0x27 0x5C ORIGIN 0xE6 SHL REVERT DUP15 0xE0 GT 0xC2 0xB6 LOG4 INVALID RETURNDATASIZE CALLVALUE DIV 0xC9 GASLIMIT 0xF7 DUP15 0xAE ISZERO 0xBA BYTE SHL CALLDATACOPY DELEGATECALL PUSH21 0x64736F6C6343000814003300000000000000000000 "},"methodIdentifiers":{"DISPUTE_TIMEFRAME()":"17079048","MAX_PLATFORM_FEE()":"3998a681","MIN_DISPUTE_FEE()":"1c98322b","allowedTokens(address)":"e744092e","arbitratorActiveDisputes(address)":"d6a145e2","arbitratorAddresses(uint256)":"0899172c","arbitratorAvailable(address)":"b7f9f09c","arbitratorAvgResponseTime(address)":"8e2b331d","arbitratorBlacklist(address,address)":"40b3a313","arbitratorCount()":"428ac57f","arbitratorLastAssignment(address)":"238b8486","arbitratorMaxActiveDisputes()":"f77cc28f","arbitratorMinReputation()":"3aa59916","arbitratorReputation(address)":"cb1f3217","arbitratorSpecialization(address,uint256)":"fbeff25a","arbitrators(address)":"51d0ea37","disputeFeeFixed()":"edc1f335","escrowCount()":"675ac67a","escrows(uint256)":"012f52ee","owner()":"8da5cb5b","platformFeePercentage()":"cdd78cfc","raiseDispute(uint256,string)":"5aef573c","renounceOwnership()":"715018a6","transferOwnership(address)":"f2fde38b","wrappedAssets(address)":"ada91e46"}}}}}