{
  "_format": "hh-sol-artifact-1",
  "contractName": "CryptoEscrow",
  "sourceName": "contracts/CryptoEscrow.sol",
  "abi": [
    {
      "inputs": [
        {
          "internalType": "uint256",
          "name": "_feePercentage",
          "type": "uint256"
        },
        {
          "internalType": "uint256",
          "name": "_disputeFee",
          "type": "uint256"
        },
        {
          "internalType": "address",
          "name": "_feeCollector",
          "type": "address"
        },
        {
          "internalType": "address[]",
          "name": "_initialTokens",
          "type": "address[]"
        },
        {
          "internalType": "address",
          "name": "_chxTokenAddress",
          "type": "address"
        }
      ],
      "stateMutability": "nonpayable",
      "type": "constructor"
    },
    {
      "inputs": [],
      "name": "AmountTooSmall",
      "type": "error"
    },
    {
      "inputs": [],
      "name": "AmountsExceedEscrowBalance",
      "type": "error"
    },
    {
      "inputs": [],
      "name": "DisputeTimeframeExpired",
      "type": "error"
    },
    {
      "inputs": [],
      "name": "EscrowNotFunded",
      "type": "error"
    },
    {
      "inputs": [],
      "name": "EscrowNotInDisputedState",
      "type": "error"
    },
    {
      "inputs": [],
      "name": "IncorrectNativeTokenAmount",
      "type": "error"
    },
    {
      "inputs": [],
      "name": "InvalidAddress",
      "type": "error"
    },
    {
      "inputs": [],
      "name": "InvalidFeeConfiguration",
      "type": "error"
    },
    {
      "inputs": [],
      "name": "InvalidSellerAddress",
      "type": "error"
    },
    {
      "inputs": [],
      "name": "InvalidTokenAmount",
      "type": "error"
    },
    {
      "inputs": [],
      "name": "InvalidTokenOperation",
      "type": "error"
    },
    {
      "inputs": [],
      "name": "NativeTokensNotRequiredForERC20",
      "type": "error"
    },
    {
      "inputs": [],
      "name": "ReentrancyGuardReentrantCall",
      "type": "error"
    },
    {
      "inputs": [],
      "name": "TokenAlreadySupported",
      "type": "error"
    },
    {
      "inputs": [],
      "name": "TokenNotSupported",
      "type": "error"
    },
    {
      "inputs": [],
      "name": "TokenNotWrappable",
      "type": "error"
    },
    {
      "inputs": [],
      "name": "UnauthorizedAccess",
      "type": "error"
    },
    {
      "inputs": [],
      "name": "WrappedTokenExists",
      "type": "error"
    },
    {
      "anonymous": false,
      "inputs": [
        {
          "indexed": true,
          "internalType": "address",
          "name": "newAdmin",
          "type": "address"
        }
      ],
      "name": "AdminUpdated",
      "type": "event"
    },
    {
      "anonymous": false,
      "inputs": [
        {
          "indexed": true,
          "internalType": "address",
          "name": "arbitrator",
          "type": "address"
        }
      ],
      "name": "ArbitratorAdded",
      "type": "event"
    },
    {
      "anonymous": false,
      "inputs": [
        {
          "indexed": true,
          "internalType": "address",
          "name": "arbitrator",
          "type": "address"
        }
      ],
      "name": "ArbitratorRemoved",
      "type": "event"
    },
    {
      "anonymous": false,
      "inputs": [
        {
          "indexed": true,
          "internalType": "uint256",
          "name": "escrowId",
          "type": "uint256"
        },
        {
          "indexed": true,
          "internalType": "address",
          "name": "arbitrator",
          "type": "address"
        }
      ],
      "name": "DisputeArbitratorAssigned",
      "type": "event"
    },
    {
      "anonymous": false,
      "inputs": [
        {
          "indexed": true,
          "internalType": "uint256",
          "name": "escrowId",
          "type": "uint256"
        },
        {
          "indexed": true,
          "internalType": "address",
          "name": "submittedBy",
          "type": "address"
        },
        {
          "indexed": false,
          "internalType": "string",
          "name": "evidenceURL",
          "type": "string"
        }
      ],
      "name": "DisputeEvidenceSubmitted",
      "type": "event"
    },
    {
      "anonymous": false,
      "inputs": [
        {
          "indexed": false,
          "internalType": "uint256",
          "name": "newFee",
          "type": "uint256"
        }
      ],
      "name": "DisputeFeeUpdated",
      "type": "event"
    },
    {
      "anonymous": false,
      "inputs": [
        {
          "indexed": true,
          "internalType": "uint256",
          "name": "escrowId",
          "type": "uint256"
        },
        {
          "indexed": true,
          "internalType": "address",
          "name": "raisedBy",
          "type": "address"
        },
        {
          "indexed": false,
          "internalType": "string",
          "name": "reason",
          "type": "string"
        }
      ],
      "name": "DisputeRaised",
      "type": "event"
    },
    {
      "anonymous": false,
      "inputs": [
        {
          "indexed": true,
          "internalType": "uint256",
          "name": "escrowId",
          "type": "uint256"
        },
        {
          "indexed": true,
          "internalType": "address",
          "name": "arbitrator",
          "type": "address"
        },
        {
          "indexed": false,
          "internalType": "bool",
          "name": "buyerWon",
          "type": "bool"
        },
        {
          "indexed": false,
          "internalType": "uint256",
          "name": "buyerAmount",
          "type": "uint256"
        },
        {
          "indexed": false,
          "internalType": "uint256",
          "name": "sellerAmount",
          "type": "uint256"
        }
      ],
      "name": "DisputeResolved",
      "type": "event"
    },
    {
      "anonymous": false,
      "inputs": [
        {
          "indexed": true,
          "internalType": "uint256",
          "name": "escrowId",
          "type": "uint256"
        },
        {
          "indexed": true,
          "internalType": "address",
          "name": "buyer",
          "type": "address"
        },
        {
          "indexed": false,
          "internalType": "uint256",
          "name": "amount",
          "type": "uint256"
        }
      ],
      "name": "EscrowCancelled",
      "type": "event"
    },
    {
      "anonymous": false,
      "inputs": [
        {
          "indexed": true,
          "internalType": "uint256",
          "name": "escrowId",
          "type": "uint256"
        },
        {
          "indexed": true,
          "internalType": "address",
          "name": "buyer",
          "type": "address"
        },
        {
          "indexed": true,
          "internalType": "address",
          "name": "seller",
          "type": "address"
        },
        {
          "indexed": false,
          "internalType": "address",
          "name": "token",
          "type": "address"
        },
        {
          "indexed": false,
          "internalType": "uint256",
          "name": "amount",
          "type": "uint256"
        },
        {
          "indexed": false,
          "internalType": "string",
          "name": "paymentDetails",
          "type": "string"
        }
      ],
      "name": "EscrowCreated",
      "type": "event"
    },
    {
      "anonymous": false,
      "inputs": [
        {
          "indexed": true,
          "internalType": "address",
          "name": "newCollector",
          "type": "address"
        }
      ],
      "name": "FeeCollectorUpdated",
      "type": "event"
    },
    {
      "anonymous": false,
      "inputs": [
        {
          "indexed": true,
          "internalType": "uint256",
          "name": "escrowId",
          "type": "uint256"
        },
        {
          "indexed": true,
          "internalType": "address",
          "name": "buyer",
          "type": "address"
        },
        {
          "indexed": false,
          "internalType": "uint256",
          "name": "amount",
          "type": "uint256"
        }
      ],
      "name": "FundsDeposited",
      "type": "event"
    },
    {
      "anonymous": false,
      "inputs": [
        {
          "indexed": true,
          "internalType": "uint256",
          "name": "escrowId",
          "type": "uint256"
        },
        {
          "indexed": true,
          "internalType": "address",
          "name": "seller",
          "type": "address"
        },
        {
          "indexed": false,
          "internalType": "uint256",
          "name": "amount",
          "type": "uint256"
        }
      ],
      "name": "FundsReleased",
      "type": "event"
    },
    {
      "anonymous": false,
      "inputs": [
        {
          "indexed": false,
          "internalType": "uint256",
          "name": "newFee",
          "type": "uint256"
        }
      ],
      "name": "PlatformFeeUpdated",
      "type": "event"
    },
    {
      "anonymous": false,
      "inputs": [
        {
          "indexed": true,
          "internalType": "address",
          "name": "token",
          "type": "address"
        }
      ],
      "name": "TokenSupportRemoved",
      "type": "event"
    },
    {
      "anonymous": false,
      "inputs": [
        {
          "indexed": true,
          "internalType": "address",
          "name": "token",
          "type": "address"
        }
      ],
      "name": "TokenSupported",
      "type": "event"
    },
    {
      "anonymous": false,
      "inputs": [
        {
          "indexed": true,
          "internalType": "address",
          "name": "wrappedToken",
          "type": "address"
        },
        {
          "indexed": true,
          "internalType": "address",
          "name": "originalToken",
          "type": "address"
        },
        {
          "indexed": false,
          "internalType": "uint256",
          "name": "amount",
          "type": "uint256"
        }
      ],
      "name": "TokenUnwrapped",
      "type": "event"
    },
    {
      "anonymous": false,
      "inputs": [
        {
          "indexed": true,
          "internalType": "address",
          "name": "originalToken",
          "type": "address"
        },
        {
          "indexed": true,
          "internalType": "address",
          "name": "wrappedToken",
          "type": "address"
        },
        {
          "indexed": false,
          "internalType": "uint256",
          "name": "amount",
          "type": "uint256"
        }
      ],
      "name": "TokenWrapped",
      "type": "event"
    },
    {
      "inputs": [],
      "name": "DISPUTE_TIMEFRAME",
      "outputs": [
        {
          "internalType": "uint256",
          "name": "",
          "type": "uint256"
        }
      ],
      "stateMutability": "view",
      "type": "function"
    },
    {
      "inputs": [],
      "name": "MAX_PLATFORM_FEE",
      "outputs": [
        {
          "internalType": "uint256",
          "name": "",
          "type": "uint256"
        }
      ],
      "stateMutability": "view",
      "type": "function"
    },
    {
      "inputs": [],
      "name": "MIN_DISPUTE_FEE",
      "outputs": [
        {
          "internalType": "uint256",
          "name": "",
          "type": "uint256"
        }
      ],
      "stateMutability": "view",
      "type": "function"
    },
    {
      "inputs": [],
      "name": "MIN_ESCROW_AMOUNT",
      "outputs": [
        {
          "internalType": "uint256",
          "name": "",
          "type": "uint256"
        }
      ],
      "stateMutability": "view",
      "type": "function"
    },
    {
      "inputs": [
        {
          "internalType": "address",
          "name": "arbitrator",
          "type": "address"
        }
      ],
      "name": "addArbitrator",
      "outputs": [],
      "stateMutability": "nonpayable",
      "type": "function"
    },
    {
      "inputs": [
        {
          "internalType": "address",
          "name": "tokenAddress",
          "type": "address"
        }
      ],
      "name": "addSupportedToken",
      "outputs": [],
      "stateMutability": "nonpayable",
      "type": "function"
    },
    {
      "inputs": [],
      "name": "admin",
      "outputs": [
        {
          "internalType": "address",
          "name": "",
          "type": "address"
        }
      ],
      "stateMutability": "view",
      "type": "function"
    },
    {
      "inputs": [
        {
          "internalType": "address",
          "name": "",
          "type": "address"
        }
      ],
      "name": "allowedTokens",
      "outputs": [
        {
          "internalType": "bool",
          "name": "",
          "type": "bool"
        }
      ],
      "stateMutability": "view",
      "type": "function"
    },
    {
      "inputs": [
        {
          "internalType": "address",
          "name": "",
          "type": "address"
        }
      ],
      "name": "arbitrators",
      "outputs": [
        {
          "internalType": "bool",
          "name": "",
          "type": "bool"
        }
      ],
      "stateMutability": "view",
      "type": "function"
    },
    {
      "inputs": [
        {
          "internalType": "uint256",
          "name": "amount",
          "type": "uint256"
        }
      ],
      "name": "calculatePlatformFee",
      "outputs": [
        {
          "internalType": "uint256",
          "name": "",
          "type": "uint256"
        }
      ],
      "stateMutability": "view",
      "type": "function"
    },
    {
      "inputs": [
        {
          "internalType": "uint256",
          "name": "escrowId",
          "type": "uint256"
        }
      ],
      "name": "cancelEscrow",
      "outputs": [],
      "stateMutability": "nonpayable",
      "type": "function"
    },
    {
      "inputs": [
        {
          "internalType": "address",
          "name": "seller",
          "type": "address"
        },
        {
          "internalType": "address",
          "name": "tokenAddress",
          "type": "address"
        },
        {
          "internalType": "uint256",
          "name": "amount",
          "type": "uint256"
        },
        {
          "internalType": "string",
          "name": "paymentDetails",
          "type": "string"
        }
      ],
      "name": "createEscrow",
      "outputs": [],
      "stateMutability": "payable",
      "type": "function"
    },
    {
      "inputs": [],
      "name": "disputeFeeFixed",
      "outputs": [
        {
          "internalType": "uint256",
          "name": "",
          "type": "uint256"
        }
      ],
      "stateMutability": "view",
      "type": "function"
    },
    {
      "inputs": [
        {
          "internalType": "uint256",
          "name": "amount",
          "type": "uint256"
        }
      ],
      "name": "emergencyWithdrawNative",
      "outputs": [],
      "stateMutability": "nonpayable",
      "type": "function"
    },
    {
      "inputs": [
        {
          "internalType": "address",
          "name": "tokenAddress",
          "type": "address"
        },
        {
          "internalType": "uint256",
          "name": "amount",
          "type": "uint256"
        }
      ],
      "name": "emergencyWithdrawToken",
      "outputs": [],
      "stateMutability": "nonpayable",
      "type": "function"
    },
    {
      "inputs": [],
      "name": "escrowCount",
      "outputs": [
        {
          "internalType": "uint256",
          "name": "",
          "type": "uint256"
        }
      ],
      "stateMutability": "view",
      "type": "function"
    },
    {
      "inputs": [
        {
          "internalType": "uint256",
          "name": "",
          "type": "uint256"
        }
      ],
      "name": "escrows",
      "outputs": [
        {
          "internalType": "address",
          "name": "buyer",
          "type": "address"
        },
        {
          "internalType": "address",
          "name": "seller",
          "type": "address"
        },
        {
          "internalType": "enum CryptoEscrow.EscrowStatus",
          "name": "status",
          "type": "uint8"
        },
        {
          "internalType": "uint256",
          "name": "createdAt",
          "type": "uint256"
        },
        {
          "internalType": "uint256",
          "name": "disputeExpiry",
          "type": "uint256"
        },
        {
          "internalType": "address",
          "name": "arbitrator",
          "type": "address"
        },
        {
          "internalType": "enum CryptoEscrow.AssetType",
          "name": "assetType",
          "type": "uint8"
        },
        {
          "internalType": "address",
          "name": "tokenAddress",
          "type": "address"
        },
        {
          "internalType": "uint256",
          "name": "amount",
          "type": "uint256"
        },
        {
          "internalType": "uint256",
          "name": "platformFee",
          "type": "uint256"
        },
        {
          "internalType": "uint256",
          "name": "disputeFee",
          "type": "uint256"
        },
        {
          "internalType": "address",
          "name": "disputeRaisedBy",
          "type": "address"
        },
        {
          "internalType": "string",
          "name": "disputeReason",
          "type": "string"
        },
        {
          "internalType": "string",
          "name": "paymentDetails",
          "type": "string"
        }
      ],
      "stateMutability": "view",
      "type": "function"
    },
    {
      "inputs": [],
      "name": "feeCollector",
      "outputs": [
        {
          "internalType": "address",
          "name": "",
          "type": "address"
        }
      ],
      "stateMutability": "view",
      "type": "function"
    },
    {
      "inputs": [
        {
          "internalType": "uint256",
          "name": "escrowId",
          "type": "uint256"
        }
      ],
      "name": "fundEscrow",
      "outputs": [],
      "stateMutability": "nonpayable",
      "type": "function"
    },
    {
      "inputs": [
        {
          "internalType": "uint256",
          "name": "escrowId",
          "type": "uint256"
        }
      ],
      "name": "getEscrowDetails",
      "outputs": [
        {
          "components": [
            {
              "internalType": "address",
              "name": "buyer",
              "type": "address"
            },
            {
              "internalType": "address",
              "name": "seller",
              "type": "address"
            },
            {
              "internalType": "enum CryptoEscrow.EscrowStatus",
              "name": "status",
              "type": "uint8"
            },
            {
              "internalType": "uint256",
              "name": "createdAt",
              "type": "uint256"
            },
            {
              "internalType": "uint256",
              "name": "disputeExpiry",
              "type": "uint256"
            },
            {
              "internalType": "address",
              "name": "arbitrator",
              "type": "address"
            },
            {
              "internalType": "enum CryptoEscrow.AssetType",
              "name": "assetType",
              "type": "uint8"
            },
            {
              "internalType": "address",
              "name": "tokenAddress",
              "type": "address"
            },
            {
              "internalType": "uint256",
              "name": "amount",
              "type": "uint256"
            },
            {
              "internalType": "uint256",
              "name": "platformFee",
              "type": "uint256"
            },
            {
              "internalType": "uint256",
              "name": "disputeFee",
              "type": "uint256"
            },
            {
              "internalType": "address",
              "name": "disputeRaisedBy",
              "type": "address"
            },
            {
              "internalType": "string",
              "name": "disputeReason",
              "type": "string"
            },
            {
              "internalType": "string",
              "name": "paymentDetails",
              "type": "string"
            }
          ],
          "internalType": "struct CryptoEscrow.Escrow",
          "name": "",
          "type": "tuple"
        }
      ],
      "stateMutability": "view",
      "type": "function"
    },
    {
      "inputs": [],
      "name": "getSupportedTokens",
      "outputs": [
        {
          "internalType": "address[]",
          "name": "",
          "type": "address[]"
        }
      ],
      "stateMutability": "view",
      "type": "function"
    },
    {
      "inputs": [
        {
          "internalType": "address",
          "name": "user",
          "type": "address"
        }
      ],
      "name": "getUserEscrows",
      "outputs": [
        {
          "internalType": "uint256[]",
          "name": "",
          "type": "uint256[]"
        }
      ],
      "stateMutability": "view",
      "type": "function"
    },
    {
      "inputs": [
        {
          "internalType": "address",
          "name": "originalToken",
          "type": "address"
        }
      ],
      "name": "getWrappedToken",
      "outputs": [
        {
          "internalType": "address",
          "name": "",
          "type": "address"
        }
      ],
      "stateMutability": "view",
      "type": "function"
    },
    {
      "inputs": [
        {
          "internalType": "address",
          "name": "token",
          "type": "address"
        }
      ],
      "name": "isTokenSupported",
      "outputs": [
        {
          "internalType": "bool",
          "name": "",
          "type": "bool"
        }
      ],
      "stateMutability": "view",
      "type": "function"
    },
    {
      "inputs": [
        {
          "internalType": "address",
          "name": "",
          "type": "address"
        }
      ],
      "name": "isWrappedToken",
      "outputs": [
        {
          "internalType": "bool",
          "name": "",
          "type": "bool"
        }
      ],
      "stateMutability": "view",
      "type": "function"
    },
    {
      "inputs": [],
      "name": "platformFeePercentage",
      "outputs": [
        {
          "internalType": "uint256",
          "name": "",
          "type": "uint256"
        }
      ],
      "stateMutability": "view",
      "type": "function"
    },
    {
      "inputs": [
        {
          "internalType": "uint256",
          "name": "escrowId",
          "type": "uint256"
        },
        {
          "internalType": "string",
          "name": "reason",
          "type": "string"
        }
      ],
      "name": "raiseDispute",
      "outputs": [],
      "stateMutability": "payable",
      "type": "function"
    },
    {
      "inputs": [
        {
          "internalType": "uint256",
          "name": "escrowId",
          "type": "uint256"
        }
      ],
      "name": "releaseFunds",
      "outputs": [],
      "stateMutability": "nonpayable",
      "type": "function"
    },
    {
      "inputs": [
        {
          "internalType": "address",
          "name": "arbitrator",
          "type": "address"
        }
      ],
      "name": "removeArbitrator",
      "outputs": [],
      "stateMutability": "nonpayable",
      "type": "function"
    },
    {
      "inputs": [
        {
          "internalType": "address",
          "name": "tokenAddress",
          "type": "address"
        }
      ],
      "name": "removeSupportedToken",
      "outputs": [],
      "stateMutability": "nonpayable",
      "type": "function"
    },
    {
      "inputs": [
        {
          "internalType": "uint256",
          "name": "escrowId",
          "type": "uint256"
        },
        {
          "internalType": "uint256",
          "name": "buyerAmount",
          "type": "uint256"
        },
        {
          "internalType": "uint256",
          "name": "sellerAmount",
          "type": "uint256"
        }
      ],
      "name": "resolveDispute",
      "outputs": [],
      "stateMutability": "nonpayable",
      "type": "function"
    },
    {
      "inputs": [
        {
          "internalType": "uint256",
          "name": "escrowId",
          "type": "uint256"
        },
        {
          "internalType": "string",
          "name": "evidenceURL",
          "type": "string"
        }
      ],
      "name": "submitDisputeEvidence",
      "outputs": [],
      "stateMutability": "nonpayable",
      "type": "function"
    },
    {
      "inputs": [
        {
          "internalType": "uint256",
          "name": "",
          "type": "uint256"
        }
      ],
      "name": "supportedTokens",
      "outputs": [
        {
          "internalType": "address",
          "name": "",
          "type": "address"
        }
      ],
      "stateMutability": "view",
      "type": "function"
    },
    {
      "inputs": [
        {
          "internalType": "address",
          "name": "",
          "type": "address"
        }
      ],
      "name": "tokenToWrapper",
      "outputs": [
        {
          "internalType": "address",
          "name": "",
          "type": "address"
        }
      ],
      "stateMutability": "view",
      "type": "function"
    },
    {
      "inputs": [
        {
          "internalType": "address",
          "name": "newAdmin",
          "type": "address"
        }
      ],
      "name": "transferAdmin",
      "outputs": [],
      "stateMutability": "nonpayable",
      "type": "function"
    },
    {
      "inputs": [
        {
          "internalType": "address",
          "name": "wrappedToken",
          "type": "address"
        },
        {
          "internalType": "uint256",
          "name": "amount",
          "type": "uint256"
        }
      ],
      "name": "unwrapToken",
      "outputs": [],
      "stateMutability": "nonpayable",
      "type": "function"
    },
    {
      "inputs": [
        {
          "internalType": "uint256",
          "name": "newFee",
          "type": "uint256"
        }
      ],
      "name": "updateDisputeFee",
      "outputs": [],
      "stateMutability": "nonpayable",
      "type": "function"
    },
    {
      "inputs": [
        {
          "internalType": "address",
          "name": "newCollector",
          "type": "address"
        }
      ],
      "name": "updateFeeCollector",
      "outputs": [],
      "stateMutability": "nonpayable",
      "type": "function"
    },
    {
      "inputs": [
        {
          "internalType": "uint256",
          "name": "newFee",
          "type": "uint256"
        }
      ],
      "name": "updatePlatformFee",
      "outputs": [],
      "stateMutability": "nonpayable",
      "type": "function"
    },
    {
      "inputs": [
        {
          "internalType": "address",
          "name": "",
          "type": "address"
        },
        {
          "internalType": "uint256",
          "name": "",
          "type": "uint256"
        }
      ],
      "name": "userEscrows",
      "outputs": [
        {
          "internalType": "uint256",
          "name": "",
          "type": "uint256"
        }
      ],
      "stateMutability": "view",
      "type": "function"
    },
    {
      "inputs": [
        {
          "internalType": "address",
          "name": "tokenAddress",
          "type": "address"
        },
        {
          "internalType": "uint256",
          "name": "amount",
          "type": "uint256"
        }
      ],
      "name": "wrapToken",
      "outputs": [],
      "stateMutability": "nonpayable",
      "type": "function"
    }
  ],
  "bytecode": "0x60406080815234620002d0576200419490813803806200001f81620002eb565b93843982019160a081840312620002d05780519260209081830151916200004885850162000311565b60608501516001600160401b039590868111620002d05781019380601f86011215620002d0578451968711620002d55760059487861b9085806200008e818501620002eb565b809b81520192820101928311620002d05785809101915b838310620002b557505050506080620000bf910162000311565b916001956000958787556101f48a116200028257662386f26fc1000081106200023e576001600160a01b03938416998a15620001fa578855600255600380546001600160a01b0319908116909a179055600480548a163317815586805260098352888720805460ff191689179055600c5499909590680100000000000000008b1015620001e757888b0180600c558b1015620001d457889a600c89528489200190815416905586995b6200017d575b8851613d5590816200043f8239f35b81518a1015620001ce576200019b84848c841b850101511662000326565b620001a68562000326565b6000198a14620001bb57988701988762000168565b634e487b7160e01b875260118652602487fd5b6200016e565b634e487b7160e01b885260328752602488fd5b634e487b7160e01b885260418752602488fd5b895162461bcd60e51b815260048101859052601560248201527f496e76616c69642066656520636f6c6c6563746f7200000000000000000000006044820152606490fd5b885162461bcd60e51b815260048101849052601360248201527f446973707574652066656520746f6f206c6f77000000000000000000000000006044820152606490fd5b885162461bcd60e51b815260048101849052600c60248201526b08ccaca40e8dede40d0d2ced60a31b6044820152606490fd5b8190620002c28462000311565b8152019101908590620000a5565b600080fd5b634e487b7160e01b600052604160045260246000fd5b6040519190601f01601f191682016001600160401b03811183821017620002d557604052565b51906001600160a01b0382168203620002d057565b803b15620003f9576001600160a01b03166000818152600960205260408120805460ff19166001179055600c5468010000000000000000811015620003e5576001810180600c55811015620003d157600c82527fdf6966c971051c3d54ec59162606531493a51404a002842f56009d7e5cf4a8c70180546001600160a01b031916831790557fea3145306a87baeba6bb1a8b5c8d3744f840a81cb436b3509f64fc978600cdfb9080a2565b634e487b7160e01b82526032600452602482fd5b634e487b7160e01b82526041600452602482fd5b60405162461bcd60e51b815260206004820152601960248201527f41646472657373206973206e6f74206120636f6e7472616374000000000000006044820152606490fdfe608060405260043610156200001357600080fd5b6000803560e01c8063012f52ee146200260257806301fabd7514620025845780630cbab4f714620025525780630f6835b814620024f15780631707904814620024d15780631c98322b14620024ad5780633398b47014620023185780633998a68114620022f95780633fabe74f1462001fee578063460b53e31462001c205780634d68282f1462001a6f57806351d0ea371462001a2e5780635aef573c14620017b75780635ccea85e14620016ff57806364fb065b14620016be578063675ac67a146200169e5780636d69fcaf146200155457806375151b63146200029457806375829def14620014db5780637631919014620013605780637be87b9e1462000eba5780637f944dd01462000e5d5780638e9856f91462000e39578063973ad2701462000dc55780639de2e9d71462000d55578063a4c3b0911462000d05578063a7dc2d781462000255578063aa0b59881462000c70578063b996ec2a14620009be578063c415b95c1462000995578063c6255626146200094d578063c9c31af5146200077a578063cdd78cfc146200075a578063d2c35ce814620006b7578063d3bada991462000570578063d3c7c2c714620004a2578063e018243614620002d5578063e744092e1462000294578063ed80befa1462000255578063edc1f33514620002355763f851a440146200020a57600080fd5b34620002325780600319360112620002325760206001600160a01b0360045416604051908152f35b80fd5b503462000232578060031936011262000232576020600254604051908152f35b503462000232576020366003190112620002325760209060406001600160a01b03918262000282620028e3565b168152600a8452205416604051908152f35b503462000232576020366003190112620002325760ff60406020926001600160a01b03620002c1620028e3565b168152600984522054166040519015158152f35b5034620002325760203660031901126200023257600435620002f662002bf3565b808252600660205260408220906001820160ff815460a01c1660068110156200048e5760010362000464576001600160a01b03808454168033036200043a5760ff600486015460a01c1660038110156200042657620003e157508480808084885416600689015490828215620003d7575bf115620003cc5760066020917fdb19fb28f3e1bd98931a09b28e0c217ab5008bfb3cbb1bdd406d994ad534a735935b7403000000000000000000000000000000000000000060ff60a01b19825416179055855416940154604051908152a36001815580f35b6040513d86823e3d90fd5b506108fc62000367565b817fdb19fb28f3e1bd98931a09b28e0c217ab5008bfb3cbb1bdd406d994ad534a735936200042060069360209560058a01541690858a01549162002c2f565b62000396565b602487634e487b7160e01b81526021600452fd5b60046040517f344fd586000000000000000000000000000000000000000000000000000000008152fd5b60046040517f15b0082a000000000000000000000000000000000000000000000000000000008152fd5b602485634e487b7160e01b81526021600452fd5b503462000232578060031936011262000232576040518091600c549081835260208093018092600c83527fdf6966c971051c3d54ec59162606531493a51404a002842f56009d7e5cf4a8c790835b81811062000552575050508462000509910385620027a6565b60405193838594850191818652518092526040850193925b8281106200053157505050500390f35b83516001600160a01b03168552869550938101939281019260010162000521565b82546001600160a01b031684529286019260019283019201620004f0565b50346200023257620005823662002917565b9080835260066020526040832060018101549060ff8260a01c166006811015620006a3576004036200065f576001600160a01b0380915416331491821562000651575b5050156200060d577f8222627e36f596a4a30a066b96aaa9a09f56a563ba61354deb9030a26824124860405160208152806200060733956020830190620028bc565b0390a380f35b606460405162461bcd60e51b815260206004820152601360248201527f4e6f7420706172747920746f20657363726f77000000000000000000000000006044820152fd5b9091501633143880620005c5565b606460405162461bcd60e51b815260206004820152600e60248201527f4e6f7420696e20646973707574650000000000000000000000000000000000006044820152fd5b602486634e487b7160e01b81526021600452fd5b5034620002325760203660031901126200023257620006d5620028e3565b6001600160a01b0390620006ef8260045416331462002dd8565b1680156200073057806001600160a01b031960035416176003557fe5693914d19c789bdee50a362998c0bc8d035a835f9871da5d51152f0582c34f8280a280f35b60046040517fe6c4247b000000000000000000000000000000000000000000000000000000008152fd5b503462000232578060031936011262000232576020600154604051908152f35b50346200023257602080600319360112620009495760043580835260068252604083206001810160ff815460a01c166006811015620006a35762000464576001600160a01b038083541633036200043a576005830154169182156200091f57604051907fdd62ed3e0000000000000000000000000000000000000000000000000000000082523360048301523060248301528582604481875afa91821562000914578792620008da575b5060060192835480921062000896577fe030e47e27825a2ad1b19e4cf2e70bfbfb3124af275c7727a82b114ba7b29a8593929162000866913090339062002ae9565b7401000000000000000000000000000000000000000060ff60a01b1982541617905554926040519384523393a380f35b6064866040519062461bcd60e51b82526004820152601660248201527f496e73756666696369656e7420616c6c6f77616e6365000000000000000000006044820152fd5b9091508581813d83116200090c575b620008f58183620027a6565b8101031262000908575190600662000824565b8680fd5b503d620008e9565b6040513d89823e3d90fd5b60046040517f86e4353b000000000000000000000000000000000000000000000000000000008152fd5b5080fd5b503462000232576020366003190112620002325760043590600c54821015620002325760206001600160a01b0362000985846200298d565b9190546040519260031b1c168152f35b5034620002325780600319360112620002325760206001600160a01b0360035416604051908152f35b503462000232576020366003190112620002325760606101a0604051620009e58162002788565b83815283602082015283604082015283838201528360808201528360a08201528360c08201528360e0820152836101008201528361012082015283610140820152836101608201528261018082015201526004358152600660205260408120906040519062000a548262002788565b6001600160a01b03835416825260ff60018401546001600160a01b038116602085015260a01c16600681101562000c5c57604083015260028301546060830152600383015460808301526004830154906001600160a01b03821660a0840152600360ff8360a01c16101562000c485750600b62000c449360ff62000b3e9360a01c1660c08501526001600160a01b0360058201541660e08501526006810154610100850152600781015461012085015260088101546101408501526001600160a01b0360098201541661016085015262000b31600a8201620027c9565b61018085015201620027c9565b6101a0820152604051918291602083526001600160a01b0381511660208401526001600160a01b03602082015116604084015262000b85604082015160608501906200287b565b60608101516080840152608081015160a08401526001600160a01b0360a08201511660c084015262000bc060c082015160e085019062002889565b6001600160a01b0360e0820151166101008401526101008101516101208401526101208101516101408401526101408101516101608401526001600160a01b03610160820151166101808401526101808101516101a062000c2f6101c09283838801526101e0870190620028bc565b92015190601f198584030190850152620028bc565b0390f35b80634e487b7160e01b602492526021600452fd5b602482634e487b7160e01b81526021600452fd5b503462000232576020366003190112620002325760043562000c9f6001600160a01b0360045416331462002dd8565b6101f4811162000cdb576020817f45610d581145924dd7090a5017e5f2b1d6f42213bb2e95707ff86846bbfcb1ca92600155604051908152a180f35b60046040517f6d24edae000000000000000000000000000000000000000000000000000000008152fd5b503462000232576040366003190112620002325762000d5262000d27620028e3565b6001600160a01b039062000d418260045416331462002dd8565b602435918060035416911662002c2f565b80f35b503462000232576020366003190112620002325760043562000d846001600160a01b0360045416331462002dd8565b662386f26fc10000811062000cdb576020817febd2ef76d4c4dda1c08a2a2caf331001b99b2ff5b9ed9a467e5c1bdbe397ae6692600255604051908152a180f35b503462000232576020366003190112620002325762000de3620028e3565b6001600160a01b039062000dfd8260045416331462002dd8565b16808252600860205260408220805460ff191690557f715484adb5bc9cc29af577725dbf8486d0b82eca3ba79f65846e92ff38ef32b58280a280f35b50346200023257806003193601126200023257602060405166038d7ea4c680008152f35b503462000232576040366003190112620002325762000e7b620028e3565b6001600160a01b03168152600760205260408120805460243592908310156200023257602062000eac8484620029db565b90546040519160031b1c8152f35b506080366003190112620002325762000ed2620028e3565b6001600160a01b0360243581811681036200135b5767ffffffffffffffff8060643511620013575736602360643501121562001357576064356004013511620013535736602460643560040135606435010111620013535781831615801562001347575b6200131d5766038d7ea4c6800060443510620012f3578181168452600960205260ff60408520541615620012c957808216620012985760443534036200126e575b62000f84600554620029f4565b9283600555838552600660205260408520336001600160a01b031982541617815560018101805485851615600014620012675760015b6006811015620012515760ff60a01b9060a01b16907fffffffffffffffffffffff000000000000000000000000000000000000000000878616911617179055426002820155600581018484166001600160a01b03198254161790556044356006820155620010416064356004013562001037600b84015462002720565b600b840162002a04565b85601f6064356004013511600114620011c157869060643560040135620011b0575b506064356004013560011b906000196064356004013560031b1c191617600b8201555b828416620011a557600486915b01906003811015620004265760ff60a01b1960ff60a01b83549260a01b1691161790553385526007602052620010cd846040872062002a5d565b82811685526007602052620010e6846040872062002a5d565b8260405191818416835260443560208401526060604084015260643560040135606084015260643560040135602460643501608085013786608060643560040135850101521690847f3343cfaebf44f8a4a53ce2da6672b44d01a70f7d4d45c640d2a223d767d139b83392608081601f19601f6064356004013501168101030190a4161562001173575080f35b6040519060443582527fe030e47e27825a2ad1b19e4cf2e70bfbfb3124af275c7727a82b114ba7b29a8560203393a380f35b600460019162001093565b602491506064350101353862001063565b600b820187526020872090875b60046064350135601f1916811062001233575060046064350135601f198116106200120d575b5050600160643560040135811b01600b82015562001086565b602460001960f86064356004013560031b161c19916064350101351690553880620011f4565b909160206001819260248660643501013581550193019101620011ce565b634e487b7160e01b600052602160045260246000fd5b8762000fba565b60046040517fde94576c000000000000000000000000000000000000000000000000000000008152fd5b341562000f775760046040517ff7fbfc5a000000000000000000000000000000000000000000000000000000008152fd5b60046040517f3dd1b305000000000000000000000000000000000000000000000000000000008152fd5b60046040517fc2f5625a000000000000000000000000000000000000000000000000000000008152fd5b60046040517f8386febe000000000000000000000000000000000000000000000000000000008152fd5b50338284161462000f36565b8380fd5b8480fd5b600080fd5b50346200023257602036600319011262000232576200137e620028e3565b6001600160a01b038091620013998260045416331462002dd8565b16808352600960205260ff60408420541615620012c957808352600960205260408320805460ff19169055825b600c805480831015620014d05790849184620013e2856200298d565b949054600395861b1c161462001406575050506200140090620029f4565b620013c6565b93949193909260001991828101908111620014bc57906200143e84620014306200145e946200298d565b905490891b1c16916200298d565b90919082549060031b916001600160a01b03809116831b921b1916179055565b82548015620014a857019262001474846200298d565b81939154921b1b19169055555b7f1cef54ca6e1745ad87fa3077491d9fc42257e9f1a2d7cad58a4e52bd14dfc6268280a280f35b602487634e487b7160e01b81526031600452fd5b602488634e487b7160e01b81526011600452fd5b505050905062001481565b5034620002325760203660031901126200023257620014f9620028e3565b600454906001600160a01b039062001515828416331462002dd8565b1690811562000730576001600160a01b03191681176004557f54e4612788f90384e6843298d7854436f3a585b2c3831ab66abf1de63bfa6c2d8280a280f35b503462000232576020366003190112620002325762001572620028e3565b6001600160a01b036200158b8160045416331462002dd8565b81169081156200073057818352600960205260ff6040842054166200167457803b156200163057818352600960205260408320805460ff19166001179055600c54680100000000000000008110156200161c57906200143e826001620015f59401600c556200298d565b7fea3145306a87baeba6bb1a8b5c8d3744f840a81cb436b3509f64fc978600cdfb8280a280f35b602484634e487b7160e01b81526041600452fd5b606460405162461bcd60e51b815260206004820152601960248201527f41646472657373206973206e6f74206120636f6e7472616374000000000000006044820152fd5b60046040517fc78e82ad000000000000000000000000000000000000000000000000000000008152fd5b503462000232578060031936011262000232576020600554604051908152f35b503462000232576020366003190112620002325760ff60406020926001600160a01b03620016eb620028e3565b168152600b84522054166040519015158152f35b5034620002325760208060031936011262000949576001600160a01b0362001726620028e3565b168252600781526040822060405192838383549182815201908193835284832090835b818110620017a2575050508462001762910385620027a6565b60405193838594850191818652518092526040850193925b8281106200178a57505050500390f35b8351855286955093810193928101926001016200177a565b82548452928601926001928301920162001749565b50620017c33662002917565b90620017ce62002bf3565b80835260209060068252604084209260019384810180549060ff8260a01c16600681101562001a1a57870362000464576001600160a01b0391828454163314158062001a0d575b6200043a57600254341062000cdb5760ff60a01b1974040000000000000000000000000000000000000000911617905560098201906001600160a01b0319913383825416179055600a8301845167ffffffffffffffff8111620019f9576200188a8162001883845462002720565b8462002a04565b8088601f821160011462001997578b916200198b575b50600019600383901b1c191690891b1790555b62093a804201804211620019755742811062001931579183917f1b84372106d77c6daea0dda35bbc0229d10a83f58ec899092884925193682341959360036200192996015534600884015560046200190a62002e90565b93019216908254161790556040519182918683523396830190620028bc565b0390a3815580f35b6064876040519062461bcd60e51b82526004820152601b60248201527f536166654d6174683a206164646974696f6e206f766572666c6f7700000000006044820152fd5b634e487b7160e01b600052601160045260246000fd5b905086015138620018a0565b838c52898c208b935090601f1983168d5b8c828210620019e25750508311620019c8575b5050811b019055620018b3565b88015160001960f88460031b161c191690553880620019bb565b838c015185558e96909401939283019201620019a8565b60248a634e487b7160e01b81526041600452fd5b5082811633141562001815565b602489634e487b7160e01b81526021600452fd5b503462000232576020366003190112620002325760ff60406020926001600160a01b0362001a5b620028e3565b168152600884522054166040519015158152f35b503462000232576020366003190112620002325760043562001a9062002bf3565b808252600660205260408220906001820180549060ff8260a01c166006811015620006a35760010362000464576001600160a01b03918285541633036200043a5760068501549062001af561271062001aec6001548562002f0d565b04809362002d24565b9560ff600482015460a01c16600381101562001a1a5788939291889162001bc65750838080935080928888541682821562001bbc575bf11562001baf5781808092866003541682821562001ba5575bf115620003cc577f6e3c6096795c8298a218b2cfb8bde42726ff7c9a3d27b4d3ba41ab7f74feb5fb916020915b8054907402000000000000000000000000000000000000000060ff60a01b1983161790556040519586521693a36001815580f35b506108fc62001b44565b50604051903d90823e3d90fd5b506108fc62001b2b565b8694509562001c1a9262001c0c602097959360057f6e3c6096795c8298a218b2cfb8bde42726ff7c9a3d27b4d3ba41ab7f74feb5fb9a0192848085541691169062002c2f565b541684600354169062002c2f565b62001b71565b503462000232576040366003190112620002325762001c3e620028e3565b60243562001c4b62002bf3565b6001600160a01b03809216908184526020926009845260ff60408620541615620012c957821562001fc457811562001f9a5762001c8b8230338662002ae9565b828552600a84528060408620541680158062001d4d575b501692833b1562001357576040517f40c10f190000000000000000000000000000000000000000000000000000000081523360048201526024810183905285908181604481838a5af1801562001d425762001d2a575b50507f17720549a07df2925d11553c26f0eda499cd93392a9e4703e1d3f9452f5b284d91604051908152a36001815580f35b62001d35906200275d565b6200135757843862001cf8565b6040513d84823e3d90fd5b90501562001f70576040517f06fdde030000000000000000000000000000000000000000000000000000000081528581600481875afa90811562001f6557869162001f47575b5062001de9602860405180937f57726170706564200000000000000000000000000000000000000000000000008983015262001dd8815180928b868601910162002897565b8101036008810184520182620027a6565b604051907f95d89b410000000000000000000000000000000000000000000000000000000082528682600481885afa9182156200091457879262001f1e575b5062001e7e602160405180947f57000000000000000000000000000000000000000000000000000000000000008a83015262001e6d815180928c868601910162002897565b8101036001810185520183620027a6565b60405191610dab918284019284841067ffffffffffffffff851117620019f9579162001ec085949262001ece9462002f9e8739604084526040840190620028bc565b9189818403910152620028bc565b039086f0801562001f13578116838652600a855260408620816001600160a01b0319825416179055808652600b855260408620600160ff198254161790553862001ca2565b6040513d87823e3d90fd5b62001f3f9192503d8089833e62001f368183620027a6565b81019062002e24565b903862001e28565b62001f5e91503d8088833e62001f368183620027a6565b3862001d93565b6040513d88823e3d90fd5b60046040517f55d5f14e000000000000000000000000000000000000000000000000000000008152fd5b60046040517f21607339000000000000000000000000000000000000000000000000000000008152fd5b60046040517f0c596434000000000000000000000000000000000000000000000000000000008152fd5b50346200023257606036600319011262000232576024356004356044356200201562002bf3565b818452600660205260408420600181019060ff825460a01c1660068110156200042657600403620022cf5760038101544211620022a55760048101546001600160a01b038082163314158062002296575b6200043a576006830154916200208f612710620020866001548662002f0d565b04809462002d24565b6200209b878a62002d7e565b116200226c5760a01c60ff16600381101562001a1a5788939284929091620021da578880158015620021aa575b505086801580156200216f575b505092620020f183949260088594600354169301549062002d7e565b9082821562002165575bf115620003cc575b7405000000000000000000000000000000000000000060ff60a01b19825416179055604051928015158452602084015260408301527f3accdf79205b59d18e690f066707caf6d0ee4d4f59ded4fa88fdec5dde4accd960603393a36001815580f35b506108fc620020fb565b9380809395928193878b5416908390620021a0575bf115620021955783918638620020d5565b6040513d85823e3d90fd5b506108fc62002184565b938080939592819387895416908390620021d0575bf115620021955783918838620020c8565b506108fc620021bf565b92600883946200220685948c6200224f575b8a62002232575b8260058601541683600354169062002c2f565b600354169101549082821562002228575bf162002103576040513d86823e3d90fd5b506108fc62002217565b620022498b84600588015416858d54169062002c2f565b620021f3565b620022668d84600588015416858854169062002c2f565b620021ec565b60046040517fb1741f7e000000000000000000000000000000000000000000000000000000008152fd5b50806004541633141562002066565b60046040517fc28e3a98000000000000000000000000000000000000000000000000000000008152fd5b60046040517fc3b81109000000000000000000000000000000000000000000000000000000008152fd5b5034620002325780600319360112620002325760206040516101f48152f35b503462000232576040366003190112620002325762002336620028e3565b602435906200234462002bf3565b6001600160a01b0380911690818452602090600b825260ff60408620541615620012c957831562001f9a578485600c54905b81811062002452575b5050169283156200091f57823b1562001357576040517f9dc29fac00000000000000000000000000000000000000000000000000000000815233600482015260248101829052858160448183885af1801562001f65576200241a575b5090816200240c7f39e0da7a9816169273e66407b22dba76e40e515e1e683c013bdfea308ef72add93338762002c2f565b604051908152a36001815580f35b94620024497f39e0da7a9816169273e66407b22dba76e40e515e1e683c013bdfea308ef72add9392966200275d565b949091620023db565b83806200245f836200298d565b919054600392831b1c168a52600a8752878260408c20541614620024905750506200248a90620029f4565b62002376565b925092506200249f906200298d565b9054911b1c1638806200237f565b503462000232578060031936011262000232576020604051662386f26fc100008152f35b50346200023257806003193601126200023257602060405162093a808152f35b5034620002325760203660031901126200023257808080806004356001600160a01b03620025258160045416331462002dd8565b6003541682821562002548575bf1156200253c5780f35b604051903d90823e3d90fd5b506108fc62002532565b503462000232576020366003190112620002325760206127106200257b60015460043562002f0d565b04604051908152f35b5034620002325760203660031901126200023257620025a2620028e3565b6001600160a01b0390620025bc8260045416331462002dd8565b1680156200073057808252600860205260408220805460ff191660011790557ffc4dfef69004b5e3aba1eb4a8b1e53b893418fda232d9f60574a6c62f30c449d8280a280f35b503462000232576020366003190112620002325760043581526006602052604090206001600160a01b0380825416906001830154926002810154916003820154906004830154816005850154166006850154906007860154926008870154948060098901541696600a89016200267890620027c9565b98600b016200268790620027c9565b996040519c8d9c8d528c848216906020015260408d019060a01c60ff1690620026b0916200287b565b60608c015260808b0152811660a08a015260c089019060a01c60ff1690620026d89162002889565b60e08801526101008701526101208601526101408501526101608401526101c08061018085015283016200270c91620028bc565b8281036101a084015262000c4491620028bc565b90600182811c9216801562002752575b60208310146200273c57565b634e487b7160e01b600052602260045260246000fd5b91607f169162002730565b67ffffffffffffffff81116200277257604052565b634e487b7160e01b600052604160045260246000fd5b6101c0810190811067ffffffffffffffff8211176200277257604052565b90601f8019910116810190811067ffffffffffffffff8211176200277257604052565b9060405191826000825492620027df8462002720565b9081845260019485811690816000146200285657506001146200280f575b50506200280d92500383620027a6565b565b9093915060005260209081600020936000915b8183106200283d5750506200280d93508201013880620027fd565b8554888401850152948501948794509183019162002822565b9150506200280d94506020925060ff191682840152151560051b8201013880620027fd565b906006821015620012515752565b906003821015620012515752565b60005b838110620028ab5750506000910152565b81810151838201526020016200289a565b90602091620028d78151809281855285808601910162002897565b601f01601f1916010190565b600435906001600160a01b03821682036200135b57565b67ffffffffffffffff81116200277257601f01601f191660200190565b9060406003198301126200135b576004359160243567ffffffffffffffff81116200135b57816023820112156200135b578060040135906200295982620028fa565b92620029696040519485620027a6565b828452602483830101116200135b5781600092602460209301838601378301015290565b600c54811015620029c557600c6000527fdf6966c971051c3d54ec59162606531493a51404a002842f56009d7e5cf4a8c70190600090565b634e487b7160e01b600052603260045260246000fd5b8054821015620029c55760005260206000200190600090565b6000198114620019755760010190565b90601f811162002a1357505050565b600091825260208220906020601f850160051c8301941062002a52575b601f0160051c01915b82811062002a4657505050565b81815560010162002a39565b909250829062002a30565b805468010000000000000000811015620027725762002a8291600182018155620029db565b819291549060031b91821b91600019901b1916179055565b3d1562002aca573d9062002aae82620028fa565b9162002abe6040519384620027a6565b82523d6000602084013e565b606090565b908160209103126200135b575180151581036200135b5790565b909291926040519260208401917f23b872dd0000000000000000000000000000000000000000000000000000000083526001600160a01b039586809216602487015216604485015260648401526064835260a0830183811067ffffffffffffffff8211176200277257600094859485926040525193165af162002b6b62002a9a565b8162002bbf575b501562002b7b57565b606460405162461bcd60e51b815260206004820152601e60248201527f5361666545524332303a207472616e7366657246726f6d206661696c656400006044820152fd5b805180159250821562002bd6575b50503862002b72565b62002beb925060208091830101910162002acf565b388062002bcd565b60026000541462002c05576002600055565b60046040517f3ee5aeb5000000000000000000000000000000000000000000000000000000008152fd5b6040517fa9059cbb00000000000000000000000000000000000000000000000000000000602082019081526001600160a01b0393841660248301526044808301959095529381526000938493909184919062002c8d606482620027a6565b5193165af162002c9c62002a9a565b8162002cf0575b501562002cac57565b606460405162461bcd60e51b815260206004820152601a60248201527f5361666545524332303a207472616e73666572206661696c65640000000000006044820152fd5b805180159250821562002d07575b50503862002ca3565b62002d1c925060208091830101910162002acf565b388062002cfe565b9081811162002d3a578103908111620019755790565b606460405162461bcd60e51b815260206004820152601e60248201527f536166654d6174683a207375627472616374696f6e206f766572666c6f7700006044820152fd5b908101908181116200197557811062002d945790565b606460405162461bcd60e51b815260206004820152601b60248201527f536166654d6174683a206164646974696f6e206f766572666c6f7700000000006044820152fd5b1562002de057565b606460405162461bcd60e51b815260206004820152600a60248201527f4f6e6c792061646d696e000000000000000000000000000000000000000000006044820152fd5b6020818303126200135b5780519067ffffffffffffffff82116200135b570181601f820112156200135b57805162002e5c81620028fa565b9262002e6c6040519485620027a6565b818452602082840101116200135b5762002e8d916020808501910162002897565b90565b600c546000805b82811062002eb1575050506001600160a01b036004541690565b62002ebc816200298d565b6001600160a01b03809254600392831b1c168452600860205260ff60408520541662002ef557505062002eef90620029f4565b62002e97565b9250925062002f04906200298d565b9054911b1c1690565b90811562002f965780820291820480820362001975570362002f2c5790565b608460405162461bcd60e51b815260206004820152602160248201527f536166654d6174683a206d756c7469706c69636174696f6e206f766572666c6f60448201527f77000000000000000000000000000000000000000000000000000000000000006064820152fd5b505060009056fe6080604052346200032b5762000dab803803806200001d8162000330565b9283398101906040818303126200032b5780516001600160401b03908181116200032b57836200004f91840162000356565b91602093848201518381116200032b576200006b920162000356565b825190828211620003155760008054926001958685811c951680156200030a575b88861014620002f6578190601f95868111620002a3575b5088908683116001146200023f57849262000233575b5050600019600383901b1c191690861b1781555b81519384116200021f5784548581811c9116801562000214575b878210146200020057838111620001b8575b50859284116001146200015357839495509262000147575b5050600019600383901b1c191690821b1790555b600380546001600160a01b031916331790556040516109e29081620003c98239f35b01519050388062000111565b9190601f1984169585845280842093905b878210620001a05750508385961062000186575b505050811b01905562000125565b015160001960f88460031b161c1916905538808062000178565b80878596829496860151815501950193019062000164565b8582528682208480870160051c820192898810620001f6575b0160051c019086905b828110620001ea575050620000f9565b838155018690620001da565b92508192620001d1565b634e487b7160e01b82526022600452602482fd5b90607f1690620000e7565b634e487b7160e01b81526041600452602490fd5b015190503880620000b9565b8480528985208994509190601f198416865b8c8282106200028c575050841162000272575b505050811b018155620000cd565b015160001960f88460031b161c1916905538808062000264565b8385015186558c9790950194938401930162000251565b9091508380528884208680850160051c8201928b8610620002ec575b918a91869594930160051c01915b828110620002dd575050620000a3565b8681558594508a9101620002cd565b92508192620002bf565b634e487b7160e01b83526022600452602483fd5b94607f16946200008c565b634e487b7160e01b600052604160045260246000fd5b600080fd5b6040519190601f01601f191682016001600160401b038111838210176200031557604052565b919080601f840112156200032b5782516001600160401b03811162000315576020906200038c601f8201601f1916830162000330565b928184528282870101116200032b5760005b818110620003b457508260009394955001015290565b85810183015184820184015282016200039e56fe608060408181526004918236101561001657600080fd5b600092833560e01c91826306fdde031461057d575081630754617214610555578163095ea7b31461052b57816318160ddd1461050c57816323b872dd146104a8578163313ce5671461048c57816340c10f19146103af57816370a082311461037557816395d89b41146102555781639dc29fac1461012457508063a9059cbb146100f45763dd62ed3e146100a957600080fd5b346100f057806003193601126100f057806020926100c561069c565b6100cd6106b7565b6001600160a01b0391821683526005865283832091168252845220549051908152f35b5080fd5b50346100f057806003193601126100f05760209061011d61011361069c565b60243590336107de565b5160018152f35b839150346100f057826003193601126100f05761013f61069c565b602435906001600160a01b039061015b8260035416331461073b565b1691821561021257828452806020528185852054106101cf577fddf252ad1be2c89b69c2b068fc378daa952ba7f163c4a11628f55a4df523b3ef9184956020928587528084526101ae83838920546106cd565b908688528452818720556101c4826002546106cd565b60025551908152a380f35b606490602086519162461bcd60e51b8352820152601b60248201527f4275726e20616d6f756e7420657863656564732062616c616e636500000000006044820152fd5b606490602086519162461bcd60e51b8352820152601660248201527f4275726e2066726f6d207a65726f2061646472657373000000000000000000006044820152fd5b8383346100f057816003193601126100f05780519082600180549081811c9080831692831561036b575b60209384841081146103585783885290811561033c57506001146102e7575b505050829003601f01601f191682019267ffffffffffffffff8411838510176102d457508291826102d0925282610653565b0390f35b80604186634e487b7160e01b6024945252fd5b8087529192508591837fb10e2d527612073b26eecdfd717e6a320cf44b4afac2b0732d9fcbe2b7fa0cf65b838510610328575050505083010185808061029e565b805488860183015293019284908201610312565b60ff1916878501525050151560051b840101905085808061029e565b60248960228c634e487b7160e01b835252fd5b91607f169161027f565b9050346103ab5760203660031901126103ab5760209282916001600160a01b0361039d61069c565b168252845220549051908152f35b8280fd5b919050346103ab57806003193601126103ab576103ca61069c565b90602435916001600160a01b03906103e78260035416331461073b565b1692831561044a57827fddf252ad1be2c89b69c2b068fc378daa952ba7f163c4a11628f55a4df523b3ef926020926104228896600254610786565b6002558686528084526104388383882054610786565b9087875284528186205551908152a380f35b6020606492519162461bcd60e51b8352820152601460248201527f4d696e7420746f207a65726f20616464726573730000000000000000000000006044820152fd5b5050346100f057816003193601126100f0576020905160128152f35b5050346100f05760603660031901126100f05761011d6020926105046104cc61069c565b91846104d66106b7565b916104e56044358094876107de565b6001600160a01b038516815260058852818120338252885220546106cd565b9033906108ec565b5050346100f057816003193601126100f0576020906002549051908152f35b5050346100f057806003193601126100f05760209061011d61054b61069c565b60243590336108ec565b5050346100f057816003193601126100f0576020906001600160a01b03600354169051908152f35b849084346103ab57826003193601126103ab57828354600181811c90808316928315610649575b60209384841081146103585783885290811561033c57506001146105f457505050829003601f01601f191682019267ffffffffffffffff8411838510176102d457508291826102d0925282610653565b8680529192508591837f290decd9548b62a8d60345a988386fc84ba6bc95484008f6362f93160ef3e5635b838510610635575050505083010185808061029e565b80548886018301529301928490820161061f565b91607f16916105a4565b6020808252825181830181905290939260005b82811061068857505060409293506000838284010152601f8019910116010190565b818101860151848201604001528501610666565b600435906001600160a01b03821682036106b257565b600080fd5b602435906001600160a01b03821682036106b257565b908181116106f75781039081116106e15790565b634e487b7160e01b600052601160045260246000fd5b606460405162461bcd60e51b815260206004820152601e60248201527f536166654d6174683a207375627472616374696f6e206f766572666c6f7700006044820152fd5b1561074257565b606460405162461bcd60e51b815260206004820152600b60248201527f4f6e6c79206d696e7465720000000000000000000000000000000000000000006044820152fd5b908101908181116106e157811061079a5790565b606460405162461bcd60e51b815260206004820152601b60248201527f536166654d6174683a206164646974696f6e206f766572666c6f7700000000006044820152fd5b6001600160a01b038091169182156108a857169182156108645760207fddf252ad1be2c89b69c2b068fc378daa952ba7f163c4a11628f55a4df523b3ef916000848152600483526108338260408320546106cd565b85825260048452604082205585815260406108518382842054610786565b91878152600485522055604051908152a3565b606460405162461bcd60e51b815260206004820152601860248201527f5472616e7366657220746f207a65726f206164647265737300000000000000006044820152fd5b606460405162461bcd60e51b815260206004820152601a60248201527f5472616e736665722066726f6d207a65726f20616464726573730000000000006044820152fd5b6001600160a01b03809116918215610991571691821561094d5760207f8c5be1e5ebec7d5bd14f71427d1e84f3dd0314c0f7b2291e5b200ac8c7c3b925918360005260058252604060002085600052825280604060002055604051908152a3565b606460405162461bcd60e51b815260206004820152601760248201527f417070726f766520746f207a65726f20616464726573730000000000000000006044820152fd5b606460405162461bcd60e51b815260206004820152601960248201527f417070726f76652066726f6d207a65726f2061646472657373000000000000006044820152fdfea164736f6c6343000814000aa164736f6c6343000814000a",
  "linkReferences": {},
  "deployedLinkReferences": {}
}