{
  "_format": "hh-sol-artifact-1",
  "contractName": "CryptoEscrow",
  "sourceName": "contracts/CryptoEscrow.sol",
  "abi": [
    {
      "inputs": [
        {
          "internalType": "uint256",
          "name": "_feePercentage",
          "type": "uint256"
        },
        {
          "internalType": "uint256",
          "name": "_disputeFee",
          "type": "uint256"
        }
      ],
      "stateMutability": "nonpayable",
      "type": "constructor"
    },
    {
      "anonymous": false,
      "inputs": [
        {
          "indexed": true,
          "internalType": "address",
          "name": "selectedArbitrator",
          "type": "address"
        },
        {
          "indexed": true,
          "internalType": "address",
          "name": "disputeInitiator",
          "type": "address"
        },
        {
          "indexed": true,
          "internalType": "address",
          "name": "disputeResponder",
          "type": "address"
        }
      ],
      "name": "ArbitratorSelected",
      "type": "event"
    },
    {
      "anonymous": false,
      "inputs": [
        {
          "indexed": true,
          "internalType": "uint256",
          "name": "escrowId",
          "type": "uint256"
        },
        {
          "indexed": true,
          "internalType": "address",
          "name": "raisedBy",
          "type": "address"
        },
        {
          "indexed": false,
          "internalType": "string",
          "name": "reason",
          "type": "string"
        }
      ],
      "name": "Disputed",
      "type": "event"
    },
    {
      "anonymous": false,
      "inputs": [
        {
          "indexed": true,
          "internalType": "address",
          "name": "previousOwner",
          "type": "address"
        },
        {
          "indexed": true,
          "internalType": "address",
          "name": "newOwner",
          "type": "address"
        }
      ],
      "name": "OwnershipTransferred",
      "type": "event"
    },
    {
      "inputs": [],
      "name": "DISPUTE_TIMEFRAME",
      "outputs": [
        {
          "internalType": "uint256",
          "name": "",
          "type": "uint256"
        }
      ],
      "stateMutability": "view",
      "type": "function"
    },
    {
      "inputs": [],
      "name": "MAX_PLATFORM_FEE",
      "outputs": [
        {
          "internalType": "uint256",
          "name": "",
          "type": "uint256"
        }
      ],
      "stateMutability": "view",
      "type": "function"
    },
    {
      "inputs": [],
      "name": "MIN_DISPUTE_FEE",
      "outputs": [
        {
          "internalType": "uint256",
          "name": "",
          "type": "uint256"
        }
      ],
      "stateMutability": "view",
      "type": "function"
    },
    {
      "inputs": [
        {
          "internalType": "address",
          "name": "",
          "type": "address"
        }
      ],
      "name": "allowedTokens",
      "outputs": [
        {
          "internalType": "bool",
          "name": "",
          "type": "bool"
        }
      ],
      "stateMutability": "view",
      "type": "function"
    },
    {
      "inputs": [
        {
          "internalType": "address",
          "name": "",
          "type": "address"
        }
      ],
      "name": "arbitratorActiveDisputes",
      "outputs": [
        {
          "internalType": "uint256",
          "name": "",
          "type": "uint256"
        }
      ],
      "stateMutability": "view",
      "type": "function"
    },
    {
      "inputs": [
        {
          "internalType": "uint256",
          "name": "",
          "type": "uint256"
        }
      ],
      "name": "arbitratorAddresses",
      "outputs": [
        {
          "internalType": "address",
          "name": "",
          "type": "address"
        }
      ],
      "stateMutability": "view",
      "type": "function"
    },
    {
      "inputs": [
        {
          "internalType": "address",
          "name": "",
          "type": "address"
        }
      ],
      "name": "arbitratorAvailable",
      "outputs": [
        {
          "internalType": "bool",
          "name": "",
          "type": "bool"
        }
      ],
      "stateMutability": "view",
      "type": "function"
    },
    {
      "inputs": [
        {
          "internalType": "address",
          "name": "",
          "type": "address"
        }
      ],
      "name": "arbitratorAvgResponseTime",
      "outputs": [
        {
          "internalType": "uint256",
          "name": "",
          "type": "uint256"
        }
      ],
      "stateMutability": "view",
      "type": "function"
    },
    {
      "inputs": [
        {
          "internalType": "address",
          "name": "",
          "type": "address"
        },
        {
          "internalType": "address",
          "name": "",
          "type": "address"
        }
      ],
      "name": "arbitratorBlacklist",
      "outputs": [
        {
          "internalType": "bool",
          "name": "",
          "type": "bool"
        }
      ],
      "stateMutability": "view",
      "type": "function"
    },
    {
      "inputs": [],
      "name": "arbitratorCount",
      "outputs": [
        {
          "internalType": "uint256",
          "name": "",
          "type": "uint256"
        }
      ],
      "stateMutability": "view",
      "type": "function"
    },
    {
      "inputs": [
        {
          "internalType": "address",
          "name": "",
          "type": "address"
        }
      ],
      "name": "arbitratorLastAssignment",
      "outputs": [
        {
          "internalType": "uint256",
          "name": "",
          "type": "uint256"
        }
      ],
      "stateMutability": "view",
      "type": "function"
    },
    {
      "inputs": [],
      "name": "arbitratorMaxActiveDisputes",
      "outputs": [
        {
          "internalType": "uint256",
          "name": "",
          "type": "uint256"
        }
      ],
      "stateMutability": "view",
      "type": "function"
    },
    {
      "inputs": [],
      "name": "arbitratorMinReputation",
      "outputs": [
        {
          "internalType": "uint256",
          "name": "",
          "type": "uint256"
        }
      ],
      "stateMutability": "view",
      "type": "function"
    },
    {
      "inputs": [
        {
          "internalType": "address",
          "name": "",
          "type": "address"
        }
      ],
      "name": "arbitratorReputation",
      "outputs": [
        {
          "internalType": "uint256",
          "name": "",
          "type": "uint256"
        }
      ],
      "stateMutability": "view",
      "type": "function"
    },
    {
      "inputs": [
        {
          "internalType": "address",
          "name": "",
          "type": "address"
        },
        {
          "internalType": "uint256",
          "name": "",
          "type": "uint256"
        }
      ],
      "name": "arbitratorSpecialization",
      "outputs": [
        {
          "internalType": "uint256",
          "name": "",
          "type": "uint256"
        }
      ],
      "stateMutability": "view",
      "type": "function"
    },
    {
      "inputs": [
        {
          "internalType": "address",
          "name": "",
          "type": "address"
        }
      ],
      "name": "arbitrators",
      "outputs": [
        {
          "internalType": "bool",
          "name": "",
          "type": "bool"
        }
      ],
      "stateMutability": "view",
      "type": "function"
    },
    {
      "inputs": [],
      "name": "disputeFeeFixed",
      "outputs": [
        {
          "internalType": "uint256",
          "name": "",
          "type": "uint256"
        }
      ],
      "stateMutability": "view",
      "type": "function"
    },
    {
      "inputs": [],
      "name": "escrowCount",
      "outputs": [
        {
          "internalType": "uint256",
          "name": "",
          "type": "uint256"
        }
      ],
      "stateMutability": "view",
      "type": "function"
    },
    {
      "inputs": [
        {
          "internalType": "uint256",
          "name": "",
          "type": "uint256"
        }
      ],
      "name": "escrows",
      "outputs": [
        {
          "internalType": "address",
          "name": "buyer",
          "type": "address"
        },
        {
          "internalType": "address",
          "name": "seller",
          "type": "address"
        },
        {
          "internalType": "enum CryptoEscrow.EscrowStatus",
          "name": "status",
          "type": "uint8"
        },
        {
          "internalType": "uint256",
          "name": "createdAt",
          "type": "uint256"
        },
        {
          "internalType": "uint256",
          "name": "disputeExpiry",
          "type": "uint256"
        },
        {
          "internalType": "address",
          "name": "arbitrator",
          "type": "address"
        },
        {
          "internalType": "enum CryptoEscrow.AssetType",
          "name": "primaryAssetType",
          "type": "uint8"
        },
        {
          "internalType": "address",
          "name": "primaryToken",
          "type": "address"
        },
        {
          "internalType": "uint256",
          "name": "primaryAmount",
          "type": "uint256"
        },
        {
          "internalType": "enum CryptoEscrow.AssetType",
          "name": "counterAssetType",
          "type": "uint8"
        },
        {
          "internalType": "address",
          "name": "counterToken",
          "type": "address"
        },
        {
          "internalType": "string",
          "name": "counterCurrency",
          "type": "string"
        },
        {
          "internalType": "uint256",
          "name": "counterAmount",
          "type": "uint256"
        },
        {
          "internalType": "uint256",
          "name": "platformFee",
          "type": "uint256"
        },
        {
          "internalType": "uint256",
          "name": "disputeFee",
          "type": "uint256"
        },
        {
          "internalType": "address",
          "name": "disputeRaisedBy",
          "type": "address"
        },
        {
          "internalType": "string",
          "name": "disputeReason",
          "type": "string"
        }
      ],
      "stateMutability": "view",
      "type": "function"
    },
    {
      "inputs": [],
      "name": "owner",
      "outputs": [
        {
          "internalType": "address",
          "name": "",
          "type": "address"
        }
      ],
      "stateMutability": "view",
      "type": "function"
    },
    {
      "inputs": [],
      "name": "platformFeePercentage",
      "outputs": [
        {
          "internalType": "uint256",
          "name": "",
          "type": "uint256"
        }
      ],
      "stateMutability": "view",
      "type": "function"
    },
    {
      "inputs": [
        {
          "internalType": "uint256",
          "name": "escrowId",
          "type": "uint256"
        },
        {
          "internalType": "string",
          "name": "reason",
          "type": "string"
        }
      ],
      "name": "raiseDispute",
      "outputs": [],
      "stateMutability": "nonpayable",
      "type": "function"
    },
    {
      "inputs": [],
      "name": "renounceOwnership",
      "outputs": [],
      "stateMutability": "nonpayable",
      "type": "function"
    },
    {
      "inputs": [
        {
          "internalType": "address",
          "name": "newOwner",
          "type": "address"
        }
      ],
      "name": "transferOwnership",
      "outputs": [],
      "stateMutability": "nonpayable",
      "type": "function"
    },
    {
      "inputs": [
        {
          "internalType": "address",
          "name": "",
          "type": "address"
        }
      ],
      "name": "wrappedAssets",
      "outputs": [
        {
          "internalType": "address",
          "name": "",
          "type": "address"
        }
      ],
      "stateMutability": "view",
      "type": "function"
    }
  ],
  "bytecode": "0x6080346101c75761147890601f38839003908101601f19168201906001600160401b038211838310176101cc57808391604095869485528339810103126101c757805160209091015160008054336001600160a01b031982168117835585519294929392916001600160a01b03167f8be0079c531659141344cd1fd0a4f28419497f9722a3daafe3b4186f6b6457e08680a36001928380556101f482116101965750662386f26fc10000821061015257600e55600f55731e0125b823dcde430578068532e2dc400c56fa8282526012602052828083209260ff199383858254161790557355d398326f99059ff775485246999027b31979558152818120838582541617905573bb4cdb9cbd36b01bd1cbaebf2de08d9173bc095c8152818120838582541617905573b03b6d3d2ba12fa380ad04a79d80aa58cc693299815220918254161790555161129590816101e38239f35b845162461bcd60e51b815260206004820152601360248201527f446973707574652066656520746f6f206c6f77000000000000000000000000006044820152606490fd5b62461bcd60e51b815260206004820152600c60248201526b08ccaca40e8dede40d0d2ced60a31b6044820152606490fd5b600080fd5b634e487b7160e01b600052604160045260246000fdfe6080604052600436101561001257600080fd5b60003560e01c8063012f52ee14610da95780630899172c14610d675780631707904814610d495780631c98322b14610d27578063238b848614610ced5780633998a68114610cd05780633aa5991614610cb257806340b3a31314610c58578063428ac57f14610c3a57806351d0ea3714610bfb5780635aef573c146104a6578063675ac67a14610488578063715018a61461042f5780638da5cb5b146104065780638e2b331d146103cc578063ada91e4614610391578063b7f9f09c14610352578063cb1f321714610318578063cdd78cfc146102fa578063d6a145e2146102c0578063e744092e14610281578063edc1f33514610263578063f2fde38b1461019a578063f77cc28f1461017c5763fbeff25a1461012f57600080fd5b34610177576040366003190112610177576001600160a01b036101506110c2565b16600052600c60205260406000206024356000526020526020604060002054604051908152f35b600080fd5b34610177576000366003190112610177576020600554604051908152f35b34610177576020366003190112610177576101b36110c2565b6101bb6110d8565b6001600160a01b0390811690811561020f57600054826bffffffffffffffffffffffff60a01b821617600055167f8be0079c531659141344cd1fd0a4f28419497f9722a3daafe3b4186f6b6457e0600080a3005b60405162461bcd60e51b815260206004820152602660248201527f4f776e61626c653a206e6577206f776e657220697320746865207a65726f206160448201526564647265737360d01b6064820152608490fd5b34610177576000366003190112610177576020600f54604051908152f35b34610177576020366003190112610177576001600160a01b036102a26110c2565b166000526012602052602060ff604060002054166040519015158152f35b34610177576020366003190112610177576001600160a01b036102e16110c2565b16600052600a6020526020604060002054604051908152f35b34610177576000366003190112610177576020600e54604051908152f35b34610177576020366003190112610177576001600160a01b036103396110c2565b1660005260086020526020604060002054604051908152f35b34610177576020366003190112610177576001600160a01b036103736110c2565b166000526007602052602060ff604060002054166040519015158152f35b346101775760203660031901126101775760206001600160a01b03806103b56110c2565b166000526013825260406000205416604051908152f35b34610177576020366003190112610177576001600160a01b036103ed6110c2565b1660005260096020526020604060002054604051908152f35b34610177576000366003190112610177576000546040516001600160a01b039091168152602090f35b34610177576000366003190112610177576104486110d8565b600080546001600160a01b0319811682556001600160a01b03167f8be0079c531659141344cd1fd0a4f28419497f9722a3daafe3b4186f6b6457e08280a3005b34610177576000366003190112610177576020601054604051908152f35b346101775760403660031901126101775760243567ffffffffffffffff8111610177573660238201121561017757806004013567ffffffffffffffff8111610b445760405191610500601f8301601f191660200184610f60565b8183523660248383010111610177578160009260246020930183860137830101526004356000526011602052604060002060018060a01b038154163314908115610be4575b5015610bab5760043560005260116020526040600020600181015460ff8160a01c166006811015610b9557600103610b5a5760ff60a01b1916600160a21b176001820155600c810180546001600160a01b0319163317905581519167ffffffffffffffff8311610b44576105bc600d830154610f0a565b601f8111610afd575b50602092601f8111600114610a915780919293600091610a86575b508160011b916000199060031b1c191617600d8301555b62093a804201421161099b574262093a8001600383015581546001600160a01b0316338103610a80575060018201546001600160a01b0316915b60068101546000600254916106458361113d565b926106536040519485610f60565b808452601f196106628261113d565b0160005b818110610a465750506005546000925b82841061081e575b5050505080156107cf576001600160a01b0361069983611164565b51511691608090816106aa82611164565b51015160015b8481106107795788888860048960018060a01b03169182600052600a60205260406000206106de8154611155565b905582600052600b602052426040600020556040519460018060a01b031633847fb3fe975cfae5112360eceea1e00c7a0074c026f52cdd6bc33e6966760aaf6a3b600080a401906bffffffffffffffffffffffff60a01b825416179055602082527f1600fdb27a317e587a0350390fa1bd5da9a413f7d9c126c14802bc3f7f458bbb339280610774600435946020830190611035565b0390a3005b81846107858386611171565b5101511161079c575b61079790611155565b6106b0565b94506001600160a01b0390506107b28583611171565b51511693610797836107c48385611171565b51015191905061078e565b60405162461bcd60e51b815260206004820152602160248201527f4e6f20656c696769626c652061726269747261746f727320617661696c61626c6044820152606560f81b6064820152608490fd5b9091929361082b85611075565b60018060a01b0391549060031b1c169081600052600660205260ff60406000205416158015610a31575b8015610a1d575b8015610a08575b80156109e8575b80156109bc575b6109b15761087f8383611185565b918060005260086020526040600020546028818181020481148215171561099b5782600052600a602052604060002054908188039188831161099b57601e80840293840414908914171561099b576108d79202611130565b601490848281020482148515171561099b576108f591850290611130565b926108ff82611217565b80600a810204600a148115171561099b5761097b94600a610921920290611130565b90826000526008602052604060002054600a602052604060002054906040519461094a86610f44565b8552602085015260408401526060830152608082015261096a8289611171565b526109758188611171565b50611155565b93600a8510156109965761098e90611155565b929190610676565b61067e565b634e487b7160e01b600052601160045260246000fd5b9461098e9150611155565b5081600052600d602052604060002060018060a01b038b1660005260205260ff60406000205416610871565b50600d60205260406000203360005260205260ff6040600020541661086a565b50600760205260ff6040600020541615610863565b50600a60205283604060002054101561085c565b50600860205260406000205460045411610855565b602090604051610a5581610f44565b6000815260008382015260006040820152600060608201526000608082015282828901015201610666565b91610631565b9050820151846105e0565b600d8301600052602060002060005b601f1983168110610ae55750600192939482601f19811610610acc575b5050811b01600d8301556105f7565b84015160001960f88460031b161c191690558480610abd565b83860151825560209586019560019092019101610aa0565b600d83016000526020600020601f850160051c810160208610610b3d575b601f830160051c82018110610b315750506105c5565b60008155600101610b1b565b5080610b1b565b634e487b7160e01b600052604160045260246000fd5b60405162461bcd60e51b81526020600482015260136024820152724e6f7420696e2066756e64656420737461746560681b6044820152606490fd5b634e487b7160e01b600052602160045260246000fd5b60405162461bcd60e51b8152602060048201526011602482015270139bdd0818481c185c9d1a58da5c185b9d607a1b6044820152606490fd5b600101546001600160a01b03163314905082610545565b34610177576020366003190112610177576001600160a01b03610c1c6110c2565b166000526006602052602060ff604060002054166040519015158152f35b34610177576000366003190112610177576020600354604051908152f35b3461017757604036600319011261017757610c716110c2565b6001600160a01b0360243581811692908390036101775716600052600d602052604060002090600052602052602060ff604060002054166040519015158152f35b34610177576000366003190112610177576020600454604051908152f35b346101775760003660031901126101775760206040516101f48152f35b34610177576020366003190112610177576001600160a01b03610d0e6110c2565b16600052600b6020526020604060002054604051908152f35b34610177576000366003190112610177576020604051662386f26fc100008152f35b3461017757600036600319011261017757602060405162093a808152f35b346101775760203660031901126101775760043560025481101561017757610d90602091611075565b905460405160039290921b1c6001600160a01b03168152f35b34610177576020366003190112610177576004356000526011602052604060002060018060a01b0381541690600181015460028201549060038301549060048401549360018060a01b036005820154166006820154600783015494610e1060088501610f82565b600985015496600a86015493600b8701549560ff610e3d600d60018060a01b03600c8c0154169a01610f82565b996040519e8f908152602060018060a01b03831691015260a01c16946006861015610b95578d9c60ff60c08f610f069f94610e9e95610edf9b60408401526060830152608082015260018060a01b03841660a0820152019160a01c16611028565b60e08c01526101008b0152610eba6101208b0160ff8316611028565b60081c6001600160a01b03166101408a01526102206101608a01819052890190611035565b946101808801526101a08701526101c08601526101e0850152838203610200850152611035565b0390f35b90600182811c92168015610f3a575b6020831014610f2457565b634e487b7160e01b600052602260045260246000fd5b91607f1691610f19565b60a0810190811067ffffffffffffffff821117610b4457604052565b90601f8019910116810190811067ffffffffffffffff821117610b4457604052565b9060405191826000825492610f9684610f0a565b9081845260019485811690816000146110055750600114610fc2575b5050610fc092500383610f60565b565b9093915060005260209081600020936000915b818310610fed575050610fc093508201013880610fb2565b85548884018501529485019487945091830191610fd5565b915050610fc094506020925060ff191682840152151560051b8201013880610fb2565b906003821015610b955752565b919082519283825260005b848110611061575050826000602080949584010152601f8019910116010190565b602081830181015184830182015201611040565b6002548110156110ac5760026000527f405787fa12a823e0f2b7631cc41b3ba8828b3321ca811111fa75cd3aa3bb5ace0190600090565b634e487b7160e01b600052603260045260246000fd5b600435906001600160a01b038216820361017757565b6000546001600160a01b031633036110ec57565b606460405162461bcd60e51b815260206004820152602060248201527f4f776e61626c653a2063616c6c6572206973206e6f7420746865206f776e65726044820152fd5b9190820180921161099b57565b67ffffffffffffffff8111610b445760051b60200190565b600019811461099b5760010190565b8051156110ac5760200190565b80518210156110ac5760209160051b010190565b90670de0b6b3a76400008110156111bc575060018060a01b0316600052600c60205260406000206000805260205260406000205490565b678ac7230489e8000011156111f15760018060a01b0316600052600c6020526040600020600160005260205260406000205490565b60018060a01b0316600052600c6020526040600020600260005260205260406000205490565b6001600160a01b0316600090815260096020526040902054610e1081106112595761384081106112535761a8c01161124e57601490565b603290565b50605090565b5060649056fea2646970667358221220aa301b33275c32e61bfd8ee011c2b6a4fe3d3404c945f78eae15ba1a1b37f47464736f6c63430008140033",
  "linkReferences": {},
  "deployedLinkReferences": {}
}