{
  "_format": "hh-sol-artifact-1",
  "contractName": "WrappedToken",
  "sourceName": "contracts/CryptoEscrow.sol",
  "abi": [
    {
      "inputs": [
        {
          "internalType": "string",
          "name": "name_",
          "type": "string"
        },
        {
          "internalType": "string",
          "name": "symbol_",
          "type": "string"
        }
      ],
      "stateMutability": "nonpayable",
      "type": "constructor"
    },
    {
      "anonymous": false,
      "inputs": [
        {
          "indexed": true,
          "internalType": "address",
          "name": "owner",
          "type": "address"
        },
        {
          "indexed": true,
          "internalType": "address",
          "name": "spender",
          "type": "address"
        },
        {
          "indexed": false,
          "internalType": "uint256",
          "name": "value",
          "type": "uint256"
        }
      ],
      "name": "Approval",
      "type": "event"
    },
    {
      "anonymous": false,
      "inputs": [
        {
          "indexed": true,
          "internalType": "address",
          "name": "from",
          "type": "address"
        },
        {
          "indexed": true,
          "internalType": "address",
          "name": "to",
          "type": "address"
        },
        {
          "indexed": false,
          "internalType": "uint256",
          "name": "value",
          "type": "uint256"
        }
      ],
      "name": "Transfer",
      "type": "event"
    },
    {
      "inputs": [
        {
          "internalType": "address",
          "name": "owner",
          "type": "address"
        },
        {
          "internalType": "address",
          "name": "spender",
          "type": "address"
        }
      ],
      "name": "allowance",
      "outputs": [
        {
          "internalType": "uint256",
          "name": "",
          "type": "uint256"
        }
      ],
      "stateMutability": "view",
      "type": "function"
    },
    {
      "inputs": [
        {
          "internalType": "address",
          "name": "spender",
          "type": "address"
        },
        {
          "internalType": "uint256",
          "name": "amount",
          "type": "uint256"
        }
      ],
      "name": "approve",
      "outputs": [
        {
          "internalType": "bool",
          "name": "",
          "type": "bool"
        }
      ],
      "stateMutability": "nonpayable",
      "type": "function"
    },
    {
      "inputs": [
        {
          "internalType": "address",
          "name": "account",
          "type": "address"
        }
      ],
      "name": "balanceOf",
      "outputs": [
        {
          "internalType": "uint256",
          "name": "",
          "type": "uint256"
        }
      ],
      "stateMutability": "view",
      "type": "function"
    },
    {
      "inputs": [
        {
          "internalType": "address",
          "name": "account",
          "type": "address"
        },
        {
          "internalType": "uint256",
          "name": "amount",
          "type": "uint256"
        }
      ],
      "name": "burn",
      "outputs": [],
      "stateMutability": "nonpayable",
      "type": "function"
    },
    {
      "inputs": [],
      "name": "decimals",
      "outputs": [
        {
          "internalType": "uint8",
          "name": "",
          "type": "uint8"
        }
      ],
      "stateMutability": "view",
      "type": "function"
    },
    {
      "inputs": [
        {
          "internalType": "address",
          "name": "account",
          "type": "address"
        },
        {
          "internalType": "uint256",
          "name": "amount",
          "type": "uint256"
        }
      ],
      "name": "mint",
      "outputs": [],
      "stateMutability": "nonpayable",
      "type": "function"
    },
    {
      "inputs": [],
      "name": "minter",
      "outputs": [
        {
          "internalType": "address",
          "name": "",
          "type": "address"
        }
      ],
      "stateMutability": "view",
      "type": "function"
    },
    {
      "inputs": [],
      "name": "name",
      "outputs": [
        {
          "internalType": "string",
          "name": "",
          "type": "string"
        }
      ],
      "stateMutability": "view",
      "type": "function"
    },
    {
      "inputs": [],
      "name": "symbol",
      "outputs": [
        {
          "internalType": "string",
          "name": "",
          "type": "string"
        }
      ],
      "stateMutability": "view",
      "type": "function"
    },
    {
      "inputs": [],
      "name": "totalSupply",
      "outputs": [
        {
          "internalType": "uint256",
          "name": "",
          "type": "uint256"
        }
      ],
      "stateMutability": "view",
      "type": "function"
    },
    {
      "inputs": [
        {
          "internalType": "address",
          "name": "recipient",
          "type": "address"
        },
        {
          "internalType": "uint256",
          "name": "amount",
          "type": "uint256"
        }
      ],
      "name": "transfer",
      "outputs": [
        {
          "internalType": "bool",
          "name": "",
          "type": "bool"
        }
      ],
      "stateMutability": "nonpayable",
      "type": "function"
    },
    {
      "inputs": [
        {
          "internalType": "address",
          "name": "sender",
          "type": "address"
        },
        {
          "internalType": "address",
          "name": "recipient",
          "type": "address"
        },
        {
          "internalType": "uint256",
          "name": "amount",
          "type": "uint256"
        }
      ],
      "name": "transferFrom",
      "outputs": [
        {
          "internalType": "bool",
          "name": "",
          "type": "bool"
        }
      ],
      "stateMutability": "nonpayable",
      "type": "function"
    }
  ],
  "bytecode": "0x6080604052346200032b5762000dab803803806200001d8162000330565b9283398101906040818303126200032b5780516001600160401b03908181116200032b57836200004f91840162000356565b91602093848201518381116200032b576200006b920162000356565b825190828211620003155760008054926001958685811c951680156200030a575b88861014620002f6578190601f95868111620002a3575b5088908683116001146200023f57849262000233575b5050600019600383901b1c191690861b1781555b81519384116200021f5784548581811c9116801562000214575b878210146200020057838111620001b8575b50859284116001146200015357839495509262000147575b5050600019600383901b1c191690821b1790555b600380546001600160a01b031916331790556040516109e29081620003c98239f35b01519050388062000111565b9190601f1984169585845280842093905b878210620001a05750508385961062000186575b505050811b01905562000125565b015160001960f88460031b161c1916905538808062000178565b80878596829496860151815501950193019062000164565b8582528682208480870160051c820192898810620001f6575b0160051c019086905b828110620001ea575050620000f9565b838155018690620001da565b92508192620001d1565b634e487b7160e01b82526022600452602482fd5b90607f1690620000e7565b634e487b7160e01b81526041600452602490fd5b015190503880620000b9565b8480528985208994509190601f198416865b8c8282106200028c575050841162000272575b505050811b018155620000cd565b015160001960f88460031b161c1916905538808062000264565b8385015186558c9790950194938401930162000251565b9091508380528884208680850160051c8201928b8610620002ec575b918a91869594930160051c01915b828110620002dd575050620000a3565b8681558594508a9101620002cd565b92508192620002bf565b634e487b7160e01b83526022600452602483fd5b94607f16946200008c565b634e487b7160e01b600052604160045260246000fd5b600080fd5b6040519190601f01601f191682016001600160401b038111838210176200031557604052565b919080601f840112156200032b5782516001600160401b03811162000315576020906200038c601f8201601f1916830162000330565b928184528282870101116200032b5760005b818110620003b457508260009394955001015290565b85810183015184820184015282016200039e56fe608060408181526004918236101561001657600080fd5b600092833560e01c91826306fdde031461057d575081630754617214610555578163095ea7b31461052b57816318160ddd1461050c57816323b872dd146104a8578163313ce5671461048c57816340c10f19146103af57816370a082311461037557816395d89b41146102555781639dc29fac1461012457508063a9059cbb146100f45763dd62ed3e146100a957600080fd5b346100f057806003193601126100f057806020926100c561069c565b6100cd6106b7565b6001600160a01b0391821683526005865283832091168252845220549051908152f35b5080fd5b50346100f057806003193601126100f05760209061011d61011361069c565b60243590336107de565b5160018152f35b839150346100f057826003193601126100f05761013f61069c565b602435906001600160a01b039061015b8260035416331461073b565b1691821561021257828452806020528185852054106101cf577fddf252ad1be2c89b69c2b068fc378daa952ba7f163c4a11628f55a4df523b3ef9184956020928587528084526101ae83838920546106cd565b908688528452818720556101c4826002546106cd565b60025551908152a380f35b606490602086519162461bcd60e51b8352820152601b60248201527f4275726e20616d6f756e7420657863656564732062616c616e636500000000006044820152fd5b606490602086519162461bcd60e51b8352820152601660248201527f4275726e2066726f6d207a65726f2061646472657373000000000000000000006044820152fd5b8383346100f057816003193601126100f05780519082600180549081811c9080831692831561036b575b60209384841081146103585783885290811561033c57506001146102e7575b505050829003601f01601f191682019267ffffffffffffffff8411838510176102d457508291826102d0925282610653565b0390f35b80604186634e487b7160e01b6024945252fd5b8087529192508591837fb10e2d527612073b26eecdfd717e6a320cf44b4afac2b0732d9fcbe2b7fa0cf65b838510610328575050505083010185808061029e565b805488860183015293019284908201610312565b60ff1916878501525050151560051b840101905085808061029e565b60248960228c634e487b7160e01b835252fd5b91607f169161027f565b9050346103ab5760203660031901126103ab5760209282916001600160a01b0361039d61069c565b168252845220549051908152f35b8280fd5b919050346103ab57806003193601126103ab576103ca61069c565b90602435916001600160a01b03906103e78260035416331461073b565b1692831561044a57827fddf252ad1be2c89b69c2b068fc378daa952ba7f163c4a11628f55a4df523b3ef926020926104228896600254610786565b6002558686528084526104388383882054610786565b9087875284528186205551908152a380f35b6020606492519162461bcd60e51b8352820152601460248201527f4d696e7420746f207a65726f20616464726573730000000000000000000000006044820152fd5b5050346100f057816003193601126100f0576020905160128152f35b5050346100f05760603660031901126100f05761011d6020926105046104cc61069c565b91846104d66106b7565b916104e56044358094876107de565b6001600160a01b038516815260058852818120338252885220546106cd565b9033906108ec565b5050346100f057816003193601126100f0576020906002549051908152f35b5050346100f057806003193601126100f05760209061011d61054b61069c565b60243590336108ec565b5050346100f057816003193601126100f0576020906001600160a01b03600354169051908152f35b849084346103ab57826003193601126103ab57828354600181811c90808316928315610649575b60209384841081146103585783885290811561033c57506001146105f457505050829003601f01601f191682019267ffffffffffffffff8411838510176102d457508291826102d0925282610653565b8680529192508591837f290decd9548b62a8d60345a988386fc84ba6bc95484008f6362f93160ef3e5635b838510610635575050505083010185808061029e565b80548886018301529301928490820161061f565b91607f16916105a4565b6020808252825181830181905290939260005b82811061068857505060409293506000838284010152601f8019910116010190565b818101860151848201604001528501610666565b600435906001600160a01b03821682036106b257565b600080fd5b602435906001600160a01b03821682036106b257565b908181116106f75781039081116106e15790565b634e487b7160e01b600052601160045260246000fd5b606460405162461bcd60e51b815260206004820152601e60248201527f536166654d6174683a207375627472616374696f6e206f766572666c6f7700006044820152fd5b1561074257565b606460405162461bcd60e51b815260206004820152600b60248201527f4f6e6c79206d696e7465720000000000000000000000000000000000000000006044820152fd5b908101908181116106e157811061079a5790565b606460405162461bcd60e51b815260206004820152601b60248201527f536166654d6174683a206164646974696f6e206f766572666c6f7700000000006044820152fd5b6001600160a01b038091169182156108a857169182156108645760207fddf252ad1be2c89b69c2b068fc378daa952ba7f163c4a11628f55a4df523b3ef916000848152600483526108338260408320546106cd565b85825260048452604082205585815260406108518382842054610786565b91878152600485522055604051908152a3565b606460405162461bcd60e51b815260206004820152601860248201527f5472616e7366657220746f207a65726f206164647265737300000000000000006044820152fd5b606460405162461bcd60e51b815260206004820152601a60248201527f5472616e736665722066726f6d207a65726f20616464726573730000000000006044820152fd5b6001600160a01b03809116918215610991571691821561094d5760207f8c5be1e5ebec7d5bd14f71427d1e84f3dd0314c0f7b2291e5b200ac8c7c3b925918360005260058252604060002085600052825280604060002055604051908152a3565b606460405162461bcd60e51b815260206004820152601760248201527f417070726f766520746f207a65726f20616464726573730000000000000000006044820152fd5b606460405162461bcd60e51b815260206004820152601960248201527f417070726f76652066726f6d207a65726f2061646472657373000000000000006044820152fdfea164736f6c6343000814000a",
  "linkReferences": {},
  "deployedLinkReferences": {}
}