{
  "_format": "hh-sol-artifact-1",
  "contractName": "Escrow",
  "sourceName": "contracts/BSCEscrow.sol",
  "abi": [
    {
      "inputs": [
        {
          "internalType": "address",
          "name": "_platformToken",
          "type": "address"
        },
        {
          "internalType": "uint256",
          "name": "_platformFee",
          "type": "uint256"
        }
      ],
      "stateMutability": "nonpayable",
      "type": "constructor"
    },
    {
      "anonymous": false,
      "inputs": [
        {
          "indexed": true,
          "internalType": "bytes32",
          "name": "txId",
          "type": "bytes32"
        }
      ],
      "name": "DisputeInitiated",
      "type": "event"
    },
    {
      "anonymous": false,
      "inputs": [
        {
          "indexed": true,
          "internalType": "bytes32",
          "name": "txId",
          "type": "bytes32"
        },
        {
          "indexed": true,
          "internalType": "address",
          "name": "initiator",
          "type": "address"
        },
        {
          "indexed": true,
          "internalType": "address",
          "name": "counterparty",
          "type": "address"
        }
      ],
      "name": "EscrowCreated",
      "type": "event"
    },
    {
      "anonymous": false,
      "inputs": [
        {
          "indexed": true,
          "internalType": "bytes32",
          "name": "txId",
          "type": "bytes32"
        }
      ],
      "name": "FundsDeposited",
      "type": "event"
    },
    {
      "anonymous": false,
      "inputs": [
        {
          "indexed": true,
          "internalType": "bytes32",
          "name": "txId",
          "type": "bytes32"
        }
      ],
      "name": "FundsRefunded",
      "type": "event"
    },
    {
      "anonymous": false,
      "inputs": [
        {
          "indexed": true,
          "internalType": "bytes32",
          "name": "txId",
          "type": "bytes32"
        }
      ],
      "name": "FundsReleased",
      "type": "event"
    },
    {
      "inputs": [],
      "name": "admin",
      "outputs": [
        {
          "internalType": "address",
          "name": "",
          "type": "address"
        }
      ],
      "stateMutability": "view",
      "type": "function"
    },
    {
      "inputs": [
        {
          "internalType": "address",
          "name": "_counterparty",
          "type": "address"
        },
        {
          "internalType": "address",
          "name": "_token",
          "type": "address"
        },
        {
          "internalType": "uint256",
          "name": "_amount",
          "type": "uint256"
        },
        {
          "internalType": "string",
          "name": "_terms",
          "type": "string"
        },
        {
          "internalType": "string",
          "name": "_releaseConditions",
          "type": "string"
        }
      ],
      "name": "createEscrow",
      "outputs": [
        {
          "internalType": "bytes32",
          "name": "",
          "type": "bytes32"
        }
      ],
      "stateMutability": "nonpayable",
      "type": "function"
    },
    {
      "inputs": [
        {
          "internalType": "bytes32",
          "name": "_txId",
          "type": "bytes32"
        }
      ],
      "name": "depositFunds",
      "outputs": [],
      "stateMutability": "nonpayable",
      "type": "function"
    },
    {
      "inputs": [
        {
          "internalType": "bytes32",
          "name": "_txId",
          "type": "bytes32"
        }
      ],
      "name": "initiateDispute",
      "outputs": [],
      "stateMutability": "nonpayable",
      "type": "function"
    },
    {
      "inputs": [],
      "name": "platformFee",
      "outputs": [
        {
          "internalType": "uint256",
          "name": "",
          "type": "uint256"
        }
      ],
      "stateMutability": "view",
      "type": "function"
    },
    {
      "inputs": [],
      "name": "platformToken",
      "outputs": [
        {
          "internalType": "address",
          "name": "",
          "type": "address"
        }
      ],
      "stateMutability": "view",
      "type": "function"
    },
    {
      "inputs": [
        {
          "internalType": "bytes32",
          "name": "_txId",
          "type": "bytes32"
        }
      ],
      "name": "refundFunds",
      "outputs": [],
      "stateMutability": "nonpayable",
      "type": "function"
    },
    {
      "inputs": [
        {
          "internalType": "bytes32",
          "name": "_txId",
          "type": "bytes32"
        }
      ],
      "name": "releaseFunds",
      "outputs": [],
      "stateMutability": "nonpayable",
      "type": "function"
    },
    {
      "inputs": [
        {
          "internalType": "bytes32",
          "name": "_txId",
          "type": "bytes32"
        },
        {
          "internalType": "bool",
          "name": "_releaseToCounterparty",
          "type": "bool"
        }
      ],
      "name": "resolveDispute",
      "outputs": [],
      "stateMutability": "nonpayable",
      "type": "function"
    },
    {
      "inputs": [
        {
          "internalType": "bytes32",
          "name": "",
          "type": "bytes32"
        }
      ],
      "name": "transactions",
      "outputs": [
        {
          "internalType": "address",
          "name": "initiator",
          "type": "address"
        },
        {
          "internalType": "address",
          "name": "counterparty",
          "type": "address"
        },
        {
          "internalType": "address",
          "name": "token",
          "type": "address"
        },
        {
          "internalType": "uint256",
          "name": "amount",
          "type": "uint256"
        },
        {
          "internalType": "enum Escrow.Status",
          "name": "status",
          "type": "uint8"
        },
        {
          "internalType": "string",
          "name": "terms",
          "type": "string"
        },
        {
          "internalType": "string",
          "name": "releaseConditions",
          "type": "string"
        }
      ],
      "stateMutability": "view",
      "type": "function"
    }
  ],
  "bytecode": "0x60806040523480156200001157600080fd5b506040516200279d3803806200279d83398181016040528101906200003791906200016d565b33600160006101000a81548173ffffffffffffffffffffffffffffffffffffffff021916908373ffffffffffffffffffffffffffffffffffffffff16021790555081600260006101000a81548173ffffffffffffffffffffffffffffffffffffffff021916908373ffffffffffffffffffffffffffffffffffffffff160217905550806003819055505050620001b4565b600080fd5b600073ffffffffffffffffffffffffffffffffffffffff82169050919050565b6000620000fa82620000cd565b9050919050565b6200010c81620000ed565b81146200011857600080fd5b50565b6000815190506200012c8162000101565b92915050565b6000819050919050565b620001478162000132565b81146200015357600080fd5b50565b60008151905062000167816200013c565b92915050565b60008060408385031215620001875762000186620000c8565b5b600062000197858286016200011b565b9250506020620001aa8582860162000156565b9150509250929050565b6125d980620001c46000396000f3fe608060405234801561001057600080fd5b506004361061009e5760003560e01c80639fd70182116100665780639fd701821461014b578063c92ee04314610167578063d1b812cd14610183578063d9ee42d0146101a1578063f851a440146101d15761009e565b806326232a2e146100a357806343a0e3e6146100c1578063642f2eaf146100dd5780637b2e941e14610113578063945ce82d1461012f575b600080fd5b6100ab6101ef565b6040516100b8919061165f565b60405180910390f35b6100db60048036038101906100d691906116fc565b6101f5565b005b6100f760048036038101906100f2919061173c565b6105cb565b60405161010a97969594939291906118b1565b60405180910390f35b61012d6004803603810190610128919061173c565b61078a565b005b6101496004803603810190610144919061173c565b6109a2565b005b6101656004803603810190610160919061173c565b610e6c565b005b610181600480360381019061017c919061173c565b6110f9565b005b61018b611386565b604051610198919061192e565b60405180910390f35b6101bb60048036038101906101b69190611ad6565b6113ac565b6040516101c89190611b98565b60405180910390f35b6101d9611620565b6040516101e6919061192e565b60405180910390f35b60035481565b600160009054906101000a900473ffffffffffffffffffffffffffffffffffffffff1673ffffffffffffffffffffffffffffffffffffffff163373ffffffffffffffffffffffffffffffffffffffff1614610285576040517f08c379a000000000000000000000000000000000000000000000000000000000815260040161027c90611bff565b60405180910390fd5b600080600084815260200190815260200160002090506004808111156102ae576102ad6117aa565b5b8160040160009054906101000a900460ff1660048111156102d2576102d16117aa565b5b14610312576040517f08c379a000000000000000000000000000000000000000000000000000000000815260040161030990611c6b565b60405180910390fd5b60008160020160009054906101000a900473ffffffffffffffffffffffffffffffffffffffff1690508215610485578073ffffffffffffffffffffffffffffffffffffffff1663a9059cbb8360010160009054906101000a900473ffffffffffffffffffffffffffffffffffffffff1684600301546040518363ffffffff1660e01b81526004016103a4929190611c8b565b6020604051808303816000875af11580156103c3573d6000803e3d6000fd5b505050506040513d601f19601f820116820180604052508101906103e79190611cc9565b610426576040517f08c379a000000000000000000000000000000000000000000000000000000000815260040161041d90611d42565b60405180910390fd5b60028260040160006101000a81548160ff0219169083600481111561044e5761044d6117aa565b5b0217905550837f8f8f95a049e629b79f711200473086f0587d1c605ce1887462a8bd2aac5ab7c060405160405180910390a26105c5565b8073ffffffffffffffffffffffffffffffffffffffff1663a9059cbb8360000160009054906101000a900473ffffffffffffffffffffffffffffffffffffffff1684600301546040518363ffffffff1660e01b81526004016104e8929190611c8b565b6020604051808303816000875af1158015610507573d6000803e3d6000fd5b505050506040513d601f19601f8201168201806040525081019061052b9190611cc9565b61056a576040517f08c379a000000000000000000000000000000000000000000000000000000000815260040161056190611d42565b60405180910390fd5b60038260040160006101000a81548160ff02191690836004811115610592576105916117aa565b5b0217905550837f0fd9abd970f9f253e6993ac47df19c0e576970f68c36f59db3c54de109049f8f60405160405180910390a25b50505050565b60006020528060005260406000206000915090508060000160009054906101000a900473ffffffffffffffffffffffffffffffffffffffff16908060010160009054906101000a900473ffffffffffffffffffffffffffffffffffffffff16908060020160009054906101000a900473ffffffffffffffffffffffffffffffffffffffff16908060030154908060040160009054906101000a900460ff169080600501805461067990611d91565b80601f01602080910402602001604051908101604052809291908181526020018280546106a590611d91565b80156106f25780601f106106c7576101008083540402835291602001916106f2565b820191906000526020600020905b8154815290600101906020018083116106d557829003601f168201915b50505050509080600601805461070790611d91565b80601f016020809104026020016040519081016040528092919081815260200182805461073390611d91565b80156107805780601f1061075557610100808354040283529160200191610780565b820191906000526020600020905b81548152906001019060200180831161076357829003601f168201915b5050505050905087565b600080600083815260200190815260200160002090503373ffffffffffffffffffffffffffffffffffffffff168160000160009054906101000a900473ffffffffffffffffffffffffffffffffffffffff1673ffffffffffffffffffffffffffffffffffffffff16148061084d57503373ffffffffffffffffffffffffffffffffffffffff168160010160009054906101000a900473ffffffffffffffffffffffffffffffffffffffff1673ffffffffffffffffffffffffffffffffffffffff16145b61088c576040517f08c379a000000000000000000000000000000000000000000000000000000000815260040161088390611e0e565b60405180910390fd5b600060048111156108a05761089f6117aa565b5b8160040160009054906101000a900460ff1660048111156108c4576108c36117aa565b5b14806109055750600160048111156108df576108de6117aa565b5b8160040160009054906101000a900460ff166004811115610903576109026117aa565b5b145b610944576040517f08c379a000000000000000000000000000000000000000000000000000000000815260040161093b90611e7a565b60405180910390fd5b60048160040160006101000a81548160ff0219169083600481111561096c5761096b6117aa565b5b0217905550817f17d8c8d26830b7719e5c438d5df22896df532918de08eb6c221bc9d7bfa6598e60405160405180910390a25050565b600080600083815260200190815260200160002090503373ffffffffffffffffffffffffffffffffffffffff168160000160009054906101000a900473ffffffffffffffffffffffffffffffffffffffff1673ffffffffffffffffffffffffffffffffffffffff1614610a4a576040517f08c379a0000000000000000000000000000000000000000000000000000000008152600401610a4190611ee6565b60405180910390fd5b60006004811115610a5e57610a5d6117aa565b5b8160040160009054906101000a900460ff166004811115610a8257610a816117aa565b5b14610ac2576040517f08c379a0000000000000000000000000000000000000000000000000000000008152600401610ab990611e7a565b60405180910390fd5b60008160020160009054906101000a900473ffffffffffffffffffffffffffffffffffffffff16905060006127106003548460030154610b029190611f35565b610b0c9190611fa6565b90506000818460030154610b209190611fd7565b9050808373ffffffffffffffffffffffffffffffffffffffff1663dd62ed3e33306040518363ffffffff1660e01b8152600401610b5e92919061200b565b602060405180830381865afa158015610b7b573d6000803e3d6000fd5b505050506040513d601f19601f82011682018060405250810190610b9f9190612049565b1015610be0576040517f08c379a0000000000000000000000000000000000000000000000000000000008152600401610bd7906120c2565b60405180910390fd5b8273ffffffffffffffffffffffffffffffffffffffff166323b872dd333087600301546040518463ffffffff1660e01b8152600401610c21939291906120e2565b6020604051808303816000875af1158015610c40573d6000803e3d6000fd5b505050506040513d601f19601f82011682018060405250810190610c649190611cc9565b610ca3576040517f08c379a0000000000000000000000000000000000000000000000000000000008152600401610c9a90611d42565b60405180910390fd5b600082118015610d245750600260009054906101000a900473ffffffffffffffffffffffffffffffffffffffff1673ffffffffffffffffffffffffffffffffffffffff168460020160009054906101000a900473ffffffffffffffffffffffffffffffffffffffff1673ffffffffffffffffffffffffffffffffffffffff16145b15610e0b578273ffffffffffffffffffffffffffffffffffffffff166323b872dd33600160009054906101000a900473ffffffffffffffffffffffffffffffffffffffff16856040518463ffffffff1660e01b8152600401610d88939291906120e2565b6020604051808303816000875af1158015610da7573d6000803e3d6000fd5b505050506040513d601f19601f82011682018060405250810190610dcb9190611cc9565b610e0a576040517f08c379a0000000000000000000000000000000000000000000000000000000008152600401610e0190612165565b60405180910390fd5b5b60018460040160006101000a81548160ff02191690836004811115610e3357610e326117aa565b5b0217905550847f3bf97cdcb3ec3457f6b26a0ce2f2c1b96e97d519e51ef0f6aadec6a0f9335ab660405160405180910390a25050505050565b600080600083815260200190815260200160002090503373ffffffffffffffffffffffffffffffffffffffff168160000160009054906101000a900473ffffffffffffffffffffffffffffffffffffffff1673ffffffffffffffffffffffffffffffffffffffff1614610f14576040517f08c379a0000000000000000000000000000000000000000000000000000000008152600401610f0b906121d1565b60405180910390fd5b60016004811115610f2857610f276117aa565b5b8160040160009054906101000a900460ff166004811115610f4c57610f4b6117aa565b5b14610f8c576040517f08c379a0000000000000000000000000000000000000000000000000000000008152600401610f8390611e7a565b60405180910390fd5b60008160020160009054906101000a900473ffffffffffffffffffffffffffffffffffffffff1690508073ffffffffffffffffffffffffffffffffffffffff1663a9059cbb8360000160009054906101000a900473ffffffffffffffffffffffffffffffffffffffff1684600301546040518363ffffffff1660e01b8152600401611018929190611c8b565b6020604051808303816000875af1158015611037573d6000803e3d6000fd5b505050506040513d601f19601f8201168201806040525081019061105b9190611cc9565b61109a576040517f08c379a000000000000000000000000000000000000000000000000000000000815260040161109190611d42565b60405180910390fd5b60038260040160006101000a81548160ff021916908360048111156110c2576110c16117aa565b5b0217905550827f0fd9abd970f9f253e6993ac47df19c0e576970f68c36f59db3c54de109049f8f60405160405180910390a2505050565b600080600083815260200190815260200160002090503373ffffffffffffffffffffffffffffffffffffffff168160010160009054906101000a900473ffffffffffffffffffffffffffffffffffffffff1673ffffffffffffffffffffffffffffffffffffffff16146111a1576040517f08c379a00000000000000000000000000000000000000000000000000000000081526004016111989061223d565b60405180910390fd5b600160048111156111b5576111b46117aa565b5b8160040160009054906101000a900460ff1660048111156111d9576111d86117aa565b5b14611219576040517f08c379a000000000000000000000000000000000000000000000000000000000815260040161121090611e7a565b60405180910390fd5b60008160020160009054906101000a900473ffffffffffffffffffffffffffffffffffffffff1690508073ffffffffffffffffffffffffffffffffffffffff1663a9059cbb8360010160009054906101000a900473ffffffffffffffffffffffffffffffffffffffff1684600301546040518363ffffffff1660e01b81526004016112a5929190611c8b565b6020604051808303816000875af11580156112c4573d6000803e3d6000fd5b505050506040513d601f19601f820116820180604052508101906112e89190611cc9565b611327576040517f08c379a000000000000000000000000000000000000000000000000000000000815260040161131e90611d42565b60405180910390fd5b60028260040160006101000a81548160ff0219169083600481111561134f5761134e6117aa565b5b0217905550827f8f8f95a049e629b79f711200473086f0587d1c605ce1887462a8bd2aac5ab7c060405160405180910390a2505050565b600260009054906101000a900473ffffffffffffffffffffffffffffffffffffffff1681565b60008033878787426040516020016113c89594939291906122c6565b6040516020818303038152906040528051906020012090506040518060e001604052803373ffffffffffffffffffffffffffffffffffffffff1681526020018873ffffffffffffffffffffffffffffffffffffffff1681526020018773ffffffffffffffffffffffffffffffffffffffff16815260200186815260200160006004811115611459576114586117aa565b5b81526020018581526020018481525060008083815260200190815260200160002060008201518160000160006101000a81548173ffffffffffffffffffffffffffffffffffffffff021916908373ffffffffffffffffffffffffffffffffffffffff16021790555060208201518160010160006101000a81548173ffffffffffffffffffffffffffffffffffffffff021916908373ffffffffffffffffffffffffffffffffffffffff16021790555060408201518160020160006101000a81548173ffffffffffffffffffffffffffffffffffffffff021916908373ffffffffffffffffffffffffffffffffffffffff1602179055506060820151816003015560808201518160040160006101000a81548160ff02191690836004811115611584576115836117aa565b5b021790555060a082015181600501908161159e91906124d1565b5060c08201518160060190816115b491906124d1565b509050508673ffffffffffffffffffffffffffffffffffffffff163373ffffffffffffffffffffffffffffffffffffffff16827f31b3b87ae838af4ee551b58506f97cf6db273eca81eef13801647294fb7e3ced60405160405180910390a48091505095945050505050565b600160009054906101000a900473ffffffffffffffffffffffffffffffffffffffff1681565b6000819050919050565b61165981611646565b82525050565b60006020820190506116746000830184611650565b92915050565b6000604051905090565b600080fd5b600080fd5b6000819050919050565b6116a18161168e565b81146116ac57600080fd5b50565b6000813590506116be81611698565b92915050565b60008115159050919050565b6116d9816116c4565b81146116e457600080fd5b50565b6000813590506116f6816116d0565b92915050565b6000806040838503121561171357611712611684565b5b6000611721858286016116af565b9250506020611732858286016116e7565b9150509250929050565b60006020828403121561175257611751611684565b5b6000611760848285016116af565b91505092915050565b600073ffffffffffffffffffffffffffffffffffffffff82169050919050565b600061179482611769565b9050919050565b6117a481611789565b82525050565b7f4e487b7100000000000000000000000000000000000000000000000000000000600052602160045260246000fd5b600581106117ea576117e96117aa565b5b50565b60008190506117fb826117d9565b919050565b600061180b826117ed565b9050919050565b61181b81611800565b82525050565b600081519050919050565b600082825260208201905092915050565b60005b8381101561185b578082015181840152602081019050611840565b60008484015250505050565b6000601f19601f8301169050919050565b600061188382611821565b61188d818561182c565b935061189d81856020860161183d565b6118a681611867565b840191505092915050565b600060e0820190506118c6600083018a61179b565b6118d3602083018961179b565b6118e0604083018861179b565b6118ed6060830187611650565b6118fa6080830186611812565b81810360a083015261190c8185611878565b905081810360c08301526119208184611878565b905098975050505050505050565b6000602082019050611943600083018461179b565b92915050565b61195281611789565b811461195d57600080fd5b50565b60008135905061196f81611949565b92915050565b61197e81611646565b811461198957600080fd5b50565b60008135905061199b81611975565b92915050565b600080fd5b600080fd5b7f4e487b7100000000000000000000000000000000000000000000000000000000600052604160045260246000fd5b6119e382611867565b810181811067ffffffffffffffff82111715611a0257611a016119ab565b5b80604052505050565b6000611a1561167a565b9050611a2182826119da565b919050565b600067ffffffffffffffff821115611a4157611a406119ab565b5b611a4a82611867565b9050602081019050919050565b82818337600083830152505050565b6000611a79611a7484611a26565b611a0b565b905082815260208101848484011115611a9557611a946119a6565b5b611aa0848285611a57565b509392505050565b600082601f830112611abd57611abc6119a1565b5b8135611acd848260208601611a66565b91505092915050565b600080600080600060a08688031215611af257611af1611684565b5b6000611b0088828901611960565b9550506020611b1188828901611960565b9450506040611b228882890161198c565b935050606086013567ffffffffffffffff811115611b4357611b42611689565b5b611b4f88828901611aa8565b925050608086013567ffffffffffffffff811115611b7057611b6f611689565b5b611b7c88828901611aa8565b9150509295509295909350565b611b928161168e565b82525050565b6000602082019050611bad6000830184611b89565b92915050565b7f4f6e6c792061646d696e00000000000000000000000000000000000000000000600082015250565b6000611be9600a8361182c565b9150611bf482611bb3565b602082019050919050565b60006020820190508181036000830152611c1881611bdc565b9050919050565b7f4e6f742064697370757465640000000000000000000000000000000000000000600082015250565b6000611c55600c8361182c565b9150611c6082611c1f565b602082019050919050565b60006020820190508181036000830152611c8481611c48565b9050919050565b6000604082019050611ca0600083018561179b565b611cad6020830184611650565b9392505050565b600081519050611cc3816116d0565b92915050565b600060208284031215611cdf57611cde611684565b5b6000611ced84828501611cb4565b91505092915050565b7f5472616e73666572206661696c65640000000000000000000000000000000000600082015250565b6000611d2c600f8361182c565b9150611d3782611cf6565b602082019050919050565b60006020820190508181036000830152611d5b81611d1f565b9050919050565b7f4e487b7100000000000000000000000000000000000000000000000000000000600052602260045260246000fd5b60006002820490506001821680611da957607f821691505b602082108103611dbc57611dbb611d62565b5b50919050565b7f4f6e6c7920706172746965732063616e20646973707574650000000000000000600082015250565b6000611df860188361182c565b9150611e0382611dc2565b602082019050919050565b60006020820190508181036000830152611e2781611deb565b9050919050565b7f496e76616c696420737461747573000000000000000000000000000000000000600082015250565b6000611e64600e8361182c565b9150611e6f82611e2e565b602082019050919050565b60006020820190508181036000830152611e9381611e57565b9050919050565b7f4f6e6c7920696e69746961746f722063616e206465706f736974000000000000600082015250565b6000611ed0601a8361182c565b9150611edb82611e9a565b602082019050919050565b60006020820190508181036000830152611eff81611ec3565b9050919050565b7f4e487b7100000000000000000000000000000000000000000000000000000000600052601160045260246000fd5b6000611f4082611646565b9150611f4b83611646565b9250828202611f5981611646565b91508282048414831517611f7057611f6f611f06565b5b5092915050565b7f4e487b7100000000000000000000000000000000000000000000000000000000600052601260045260246000fd5b6000611fb182611646565b9150611fbc83611646565b925082611fcc57611fcb611f77565b5b828204905092915050565b6000611fe282611646565b9150611fed83611646565b925082820190508082111561200557612004611f06565b5b92915050565b6000604082019050612020600083018561179b565b61202d602083018461179b565b9392505050565b60008151905061204381611975565b92915050565b60006020828403121561205f5761205e611684565b5b600061206d84828501612034565b91505092915050565b7f496e73756666696369656e7420616c6c6f77616e636500000000000000000000600082015250565b60006120ac60168361182c565b91506120b782612076565b602082019050919050565b600060208201905081810360008301526120db8161209f565b9050919050565b60006060820190506120f7600083018661179b565b612104602083018561179b565b6121116040830184611650565b949350505050565b7f466565207472616e73666572206661696c656400000000000000000000000000600082015250565b600061214f60138361182c565b915061215a82612119565b602082019050919050565b6000602082019050818103600083015261217e81612142565b9050919050565b7f4f6e6c7920696e69746961746f722063616e20726566756e6400000000000000600082015250565b60006121bb60198361182c565b91506121c682612185565b602082019050919050565b600060208201905081810360008301526121ea816121ae565b9050919050565b7f4f6e6c7920636f756e74657270617274792063616e2072656c65617365000000600082015250565b6000612227601d8361182c565b9150612232826121f1565b602082019050919050565b600060208201905081810360008301526122568161221a565b9050919050565b60008160601b9050919050565b60006122758261225d565b9050919050565b60006122878261226a565b9050919050565b61229f61229a82611789565b61227c565b82525050565b6000819050919050565b6122c06122bb82611646565b6122a5565b82525050565b60006122d2828861228e565b6014820191506122e2828761228e565b6014820191506122f2828661228e565b60148201915061230282856122af565b60208201915061231282846122af565b6020820191508190509695505050505050565b60008190508160005260206000209050919050565b60006020601f8301049050919050565b600082821b905092915050565b6000600883026123877fffffffffffffffffffffffffffffffffffffffffffffffffffffffffffffffff8261234a565b612391868361234a565b95508019841693508086168417925050509392505050565b6000819050919050565b60006123ce6123c96123c484611646565b6123a9565b611646565b9050919050565b6000819050919050565b6123e8836123b3565b6123fc6123f4826123d5565b848454612357565b825550505050565b600090565b612411612404565b61241c8184846123df565b505050565b5b8181101561244057612435600082612409565b600181019050612422565b5050565b601f8211156124855761245681612325565b61245f8461233a565b8101602085101561246e578190505b61248261247a8561233a565b830182612421565b50505b505050565b600082821c905092915050565b60006124a86000198460080261248a565b1980831691505092915050565b60006124c18383612497565b9150826002028217905092915050565b6124da82611821565b67ffffffffffffffff8111156124f3576124f26119ab565b5b6124fd8254611d91565b612508828285612444565b600060209050601f83116001811461253b5760008415612529578287015190505b61253385826124b5565b86555061259b565b601f19841661254986612325565b60005b828110156125715784890151825560018201915060208501945060208101905061254c565b8683101561258e578489015161258a601f891682612497565b8355505b6001600288020188555050505b50505050505056fea2646970667358221220a216b5beb6aaebe929d781560b613c7afabf652c3f73d6708c6b15f4df22105964736f6c63430008140033",
  "linkReferences": {},
  "deployedLinkReferences": {}
}