{
  "_format": "hh-sol-artifact-1",
  "contractName": "FiatEscrow",
  "sourceName": "contracts/FiatEscrow.sol",
  "abi": [
    {
      "inputs": [
        {
          "internalType": "address",
          "name": "initialArbitrator",
          "type": "address"
        },
        {
          "internalType": "uint256",
          "name": "initialFeePercentage",
          "type": "uint256"
        },
        {
          "internalType": "uint256",
          "name": "initialDisputeFee",
          "type": "uint256"
        }
      ],
      "stateMutability": "nonpayable",
      "type": "constructor"
    },
    {
      "anonymous": false,
      "inputs": [
        {
          "indexed": false,
          "internalType": "uint256",
          "name": "tradeId",
          "type": "uint256"
        }
      ],
      "name": "CollateralLocked",
      "type": "event"
    },
    {
      "anonymous": false,
      "inputs": [
        {
          "indexed": false,
          "internalType": "uint256",
          "name": "tradeId",
          "type": "uint256"
        }
      ],
      "name": "DisputeRaised",
      "type": "event"
    },
    {
      "anonymous": false,
      "inputs": [
        {
          "indexed": false,
          "internalType": "uint256",
          "name": "tradeId",
          "type": "uint256"
        },
        {
          "indexed": false,
          "internalType": "bool",
          "name": "buyerWins",
          "type": "bool"
        }
      ],
      "name": "DisputeResolved",
      "type": "event"
    },
    {
      "anonymous": false,
      "inputs": [
        {
          "indexed": true,
          "internalType": "address",
          "name": "previousOwner",
          "type": "address"
        },
        {
          "indexed": true,
          "internalType": "address",
          "name": "newOwner",
          "type": "address"
        }
      ],
      "name": "OwnershipTransferred",
      "type": "event"
    },
    {
      "anonymous": false,
      "inputs": [
        {
          "indexed": false,
          "internalType": "uint256",
          "name": "tradeId",
          "type": "uint256"
        }
      ],
      "name": "TradeCancelled",
      "type": "event"
    },
    {
      "anonymous": false,
      "inputs": [
        {
          "indexed": false,
          "internalType": "uint256",
          "name": "tradeId",
          "type": "uint256"
        }
      ],
      "name": "TradeCompleted",
      "type": "event"
    },
    {
      "anonymous": false,
      "inputs": [
        {
          "indexed": false,
          "internalType": "uint256",
          "name": "tradeId",
          "type": "uint256"
        },
        {
          "indexed": false,
          "internalType": "address",
          "name": "buyer",
          "type": "address"
        },
        {
          "indexed": false,
          "internalType": "address",
          "name": "seller",
          "type": "address"
        }
      ],
      "name": "TradeCreated",
      "type": "event"
    },
    {
      "inputs": [
        {
          "internalType": "address",
          "name": "newArbitrator",
          "type": "address"
        }
      ],
      "name": "addArbitrator",
      "outputs": [],
      "stateMutability": "nonpayable",
      "type": "function"
    },
    {
      "inputs": [
        {
          "internalType": "address",
          "name": "",
          "type": "address"
        }
      ],
      "name": "allowedTokens",
      "outputs": [
        {
          "internalType": "bool",
          "name": "",
          "type": "bool"
        }
      ],
      "stateMutability": "view",
      "type": "function"
    },
    {
      "inputs": [],
      "name": "arbitrator",
      "outputs": [
        {
          "internalType": "address",
          "name": "",
          "type": "address"
        }
      ],
      "stateMutability": "view",
      "type": "function"
    },
    {
      "inputs": [
        {
          "internalType": "address",
          "name": "",
          "type": "address"
        }
      ],
      "name": "arbitrators",
      "outputs": [
        {
          "internalType": "bool",
          "name": "",
          "type": "bool"
        }
      ],
      "stateMutability": "view",
      "type": "function"
    },
    {
      "inputs": [
        {
          "internalType": "uint256",
          "name": "tradeId",
          "type": "uint256"
        }
      ],
      "name": "cancelTrade",
      "outputs": [],
      "stateMutability": "nonpayable",
      "type": "function"
    },
    {
      "inputs": [
        {
          "internalType": "address",
          "name": "token",
          "type": "address"
        },
        {
          "internalType": "address",
          "name": "seller",
          "type": "address"
        },
        {
          "internalType": "uint256",
          "name": "collateralAmount",
          "type": "uint256"
        },
        {
          "internalType": "string",
          "name": "fiatCurrency",
          "type": "string"
        },
        {
          "internalType": "uint256",
          "name": "fiatAmount",
          "type": "uint256"
        }
      ],
      "name": "createTrade",
      "outputs": [
        {
          "internalType": "uint256",
          "name": "",
          "type": "uint256"
        }
      ],
      "stateMutability": "nonpayable",
      "type": "function"
    },
    {
      "inputs": [],
      "name": "disputeFeeFixed",
      "outputs": [
        {
          "internalType": "uint256",
          "name": "",
          "type": "uint256"
        }
      ],
      "stateMutability": "view",
      "type": "function"
    },
    {
      "inputs": [
        {
          "internalType": "uint256",
          "name": "tradeId",
          "type": "uint256"
        }
      ],
      "name": "lockCollateral",
      "outputs": [],
      "stateMutability": "nonpayable",
      "type": "function"
    },
    {
      "inputs": [],
      "name": "owner",
      "outputs": [
        {
          "internalType": "address",
          "name": "",
          "type": "address"
        }
      ],
      "stateMutability": "view",
      "type": "function"
    },
    {
      "inputs": [],
      "name": "platformFeePercentage",
      "outputs": [
        {
          "internalType": "uint256",
          "name": "",
          "type": "uint256"
        }
      ],
      "stateMutability": "view",
      "type": "function"
    },
    {
      "inputs": [
        {
          "internalType": "uint256",
          "name": "tradeId",
          "type": "uint256"
        }
      ],
      "name": "raiseDispute",
      "outputs": [],
      "stateMutability": "nonpayable",
      "type": "function"
    },
    {
      "inputs": [
        {
          "internalType": "uint256",
          "name": "tradeId",
          "type": "uint256"
        }
      ],
      "name": "releaseCollateral",
      "outputs": [],
      "stateMutability": "nonpayable",
      "type": "function"
    },
    {
      "inputs": [
        {
          "internalType": "address",
          "name": "arbitratorToRemove",
          "type": "address"
        }
      ],
      "name": "removeArbitrator",
      "outputs": [],
      "stateMutability": "nonpayable",
      "type": "function"
    },
    {
      "inputs": [],
      "name": "renounceOwnership",
      "outputs": [],
      "stateMutability": "nonpayable",
      "type": "function"
    },
    {
      "inputs": [
        {
          "internalType": "uint256",
          "name": "tradeId",
          "type": "uint256"
        },
        {
          "internalType": "bool",
          "name": "buyerWins",
          "type": "bool"
        }
      ],
      "name": "resolveDispute",
      "outputs": [],
      "stateMutability": "nonpayable",
      "type": "function"
    },
    {
      "inputs": [
        {
          "internalType": "address",
          "name": "token",
          "type": "address"
        },
        {
          "internalType": "bool",
          "name": "allowed",
          "type": "bool"
        }
      ],
      "name": "setAllowedToken",
      "outputs": [],
      "stateMutability": "nonpayable",
      "type": "function"
    },
    {
      "inputs": [],
      "name": "tradeCounter",
      "outputs": [
        {
          "internalType": "uint256",
          "name": "",
          "type": "uint256"
        }
      ],
      "stateMutability": "view",
      "type": "function"
    },
    {
      "inputs": [
        {
          "internalType": "uint256",
          "name": "",
          "type": "uint256"
        }
      ],
      "name": "trades",
      "outputs": [
        {
          "internalType": "address",
          "name": "token",
          "type": "address"
        },
        {
          "internalType": "address",
          "name": "buyer",
          "type": "address"
        },
        {
          "internalType": "address",
          "name": "seller",
          "type": "address"
        },
        {
          "internalType": "uint256",
          "name": "collateralAmount",
          "type": "uint256"
        },
        {
          "internalType": "uint256",
          "name": "platformFee",
          "type": "uint256"
        },
        {
          "internalType": "uint256",
          "name": "disputeFee",
          "type": "uint256"
        },
        {
          "internalType": "enum FiatEscrow.FiatEscrowStatus",
          "name": "status",
          "type": "uint8"
        },
        {
          "internalType": "string",
          "name": "fiatCurrency",
          "type": "string"
        },
        {
          "internalType": "uint256",
          "name": "fiatAmount",
          "type": "uint256"
        }
      ],
      "stateMutability": "view",
      "type": "function"
    },
    {
      "inputs": [
        {
          "internalType": "address",
          "name": "newOwner",
          "type": "address"
        }
      ],
      "name": "transferOwnership",
      "outputs": [],
      "stateMutability": "nonpayable",
      "type": "function"
    },
    {
      "inputs": [
        {
          "internalType": "uint256",
          "name": "newFeePercentage",
          "type": "uint256"
        },
        {
          "internalType": "uint256",
          "name": "newDisputeFee",
          "type": "uint256"
        }
      ],
      "name": "updateFees",
      "outputs": [],
      "stateMutability": "nonpayable",
      "type": "function"
    }
  ],
  "bytecode": "0x6080346101bb57601f611a7138819003918201601f191683019291906001600160401b038411838510176101c05781606092849260409687528339810103126101bb5780516001600160a01b0390818116908190036101bb578360208401519301519060009283549060018060a01b031991338382161786558751913391167f8be0079c531659141344cd1fd0a4f28419497f9722a3daafe3b4186f6b6457e08780a36001805582156101795750606485116101355791816001949287946003541617600355825260086020528282209460ff19958587825416179055600455600555731e0125b823dcde430578068532e2dc400c56fa828152600760205281812083858254161790557355d398326f99059ff775485246999027b3197955815220918254161790555161189a90816101d78239f35b855162461bcd60e51b815260206004820152601760248201527f4665652070657263656e7461676520746f6f20686967680000000000000000006044820152606490fd5b62461bcd60e51b815260206004820152601a60248201527f496e76616c69642061726269747261746f7220616464726573730000000000006044820152606490fd5b600080fd5b634e487b7160e01b600052604160045260246000fdfe6080604052600436101561001257600080fd5b60003560e01c806301fabd751461164357806309ec6cc71461144d5780631e6c598e146112bc57806334b25ee214610eab57806339007b7714610bca57806351d0ea3714610b8b578063660d15b514610b6d5780636cc6cde114610b445780636db7943714610ad0578063715018a614610a775780638aaa228414610a245780638da5cb5b146109fb578063973ad2701461099d578063a5c1674e146108bd578063c96068ce14610408578063cdd78cfc146103ea578063e2233cbd14610223578063e744092e146101e4578063edc1f335146101c65763f2fde38b146100f857600080fd5b346101c15760203660031901126101c1576101116116d3565b610119611754565b6001600160a01b0390811690811561016d57600054826bffffffffffffffffffffffff60a01b821617600055167f8be0079c531659141344cd1fd0a4f28419497f9722a3daafe3b4186f6b6457e0600080a3005b60405162461bcd60e51b815260206004820152602660248201527f4f776e61626c653a206e6577206f776e657220697320746865207a65726f206160448201526564647265737360d01b6064820152608490fd5b600080fd5b346101c15760003660031901126101c1576020600554604051908152f35b346101c15760203660031901126101c1576001600160a01b036102056116d3565b166000526007602052602060ff604060002054166040519015158152f35b346101c1576020806003193601126101c1576004359061024161180e565b6000828152600682526040902060018101546001600160a01b03939190841633036103af57600681019360ff855416916006831015610399576064859261028a600095156117ac565b6102ab6102a060038501546004860154906117e9565b6005850154906117e9565b9254169160405194859384926323b872dd60e01b845233600485015230602485015260448401525af190811561038d57600091610360575b5015610323577f1df9ce9caeb0a377f930b1f6b97d4292f57ad0e6f6b74270a81d403910ac5c3f92600160ff19825416179055604051908152a160018055005b60405162461bcd60e51b8152600481018390526015602482015274151bdad95b881d1c985b9cd9995c8819985a5b1959605a1b6044820152606490fd5b6103809150833d8511610386575b6103788183611723565b8101906117f6565b846102e3565b503d61036e565b6040513d6000823e3d90fd5b634e487b7160e01b600052602160045260246000fd5b60405162461bcd60e51b81526004810184905260136024820152724f6e6c792062757965722063616e206c6f636b60681b6044820152606490fd5b346101c15760003660031901126101c1576020600454604051908152f35b346101c15760a03660031901126101c1576104216116d3565b6024356001600160a01b03811681036101c15760643567ffffffffffffffff81116101c157366023820112156101c157806004013567ffffffffffffffff8111610797576040519161047d601f8301601f191660200184611723565b81835236602483830101116101c1578160009260246020930183860137830101526001600160a01b03831660009081526007602052604090205460ff1615610884576044351561083f576001600160a01b03821615610801576001600160a01b03821633146107c357600454906044358083020482036107ad576002549060001982146107ad5760018201600255600554604051958661012081011067ffffffffffffffff61012089011117610797576001946064916101208901604052868060a01b03168852336020890152858060a01b038716604089015260443560608901526044350204608087015260a0860152600060c086015260e0850152608435610100850152016000526006602052604060002060018060a01b038351166bffffffffffffffffffffffff60a01b90818354161782556001820160018060a01b0360208601511682825416179055600282019060018060a01b0360408601511690825416179055606083015160038201556080830151600482015560a083015160058201556006810160c084015160068110156103995760ff80198354169116179055600781019260e081015193845167ffffffffffffffff81116107975761064682546116e9565b95601f871161074f575b602096508690601f83116001146106e25791806101009492600896946000926106d7575b50508160011b916000199060031b1c19161790555b01519101557f9cf777ef8d920853772227176d5a18d6b577d1644b2b02949641f93317a21b2560606002549260405190848252338683015260018060a01b03166040820152a1604051908152f35b015190508980610674565b90601f1983169184600052886000209260005b81811061073857509260019285926008989661010098961061071f575b505050811b019055610689565b015160001960f88460031b161c19169055898080610712565b92938a6001819287860151815501950193016106f5565b826000526020600020601f830160051c8101976020841061078d575b601f0160051c01965b8781106107815750610650565b60008155600101610774565b909750879061076b565b634e487b7160e01b600052604160045260246000fd5b634e487b7160e01b600052601160045260246000fd5b60405162461bcd60e51b815260206004820152601660248201527529b2b63632b91031b0b73737ba10313290313abcb2b960511b6044820152606490fd5b60405162461bcd60e51b8152602060048201526016602482015275496e76616c69642073656c6c6572206164647265737360501b6044820152606490fd5b60405162461bcd60e51b815260206004820152601b60248201527f436f6c6c61746572616c206d75737420626520706f73697469766500000000006044820152606490fd5b60405162461bcd60e51b8152602060048201526011602482015270151bdad95b881b9bdd08185b1b1bddd959607a1b6044820152606490fd5b346101c15760203660031901126101c15760043560008181526006602052604090206001810154336001600160a01b039182161490811561098d575b5015610956576006019081549060ff821692600684101561039957600360209361094660017f04901f83201c8724eadf084436db8aa391820bae6d11f9f78a17edb6f2eef3cf97146117ac565b60ff1916179055604051908152a1005b60405162461bcd60e51b815260206004820152600f60248201526e139bdd081c185c9d1a58da5c185b9d608a1b6044820152606490fd5b90506002820154163314836108f9565b346101c15760203660031901126101c1576109b66116d3565b6109be611754565b6001600160a01b039081166000818152600860205260409020805460ff19169055600354918216146109ec57005b6001600160a01b031916600355005b346101c15760003660031901126101c1576000546040516001600160a01b039091168152602090f35b346101c15760403660031901126101c157610a3d6116d3565b610a45611745565b90610a4e611754565b60018060a01b0316600052600760205260406000209060ff801983541691151516179055600080f35b346101c15760003660031901126101c157610a90611754565b600080546001600160a01b0319811682556001600160a01b03167f8be0079c531659141344cd1fd0a4f28419497f9722a3daafe3b4186f6b6457e08280a3005b346101c15760403660031901126101c157600435610aec611754565b60648111610aff57600455602435600555005b60405162461bcd60e51b815260206004820152601760248201527f4665652070657263656e7461676520746f6f20686967680000000000000000006044820152606490fd5b346101c15760003660031901126101c1576003546040516001600160a01b039091168152602090f35b346101c15760003660031901126101c1576020600254604051908152f35b346101c15760203660031901126101c1576001600160a01b03610bac6116d3565b166000526008602052602060ff604060002054166040519015158152f35b346101c1576020806003193601126101c15760043590610be861180e565b816000526006815260406000209160018060a01b038060028501541690813303610e6657600685019460ff8654166006811015610399576001610c2b91146117ac565b8054600382015460405163a9059cbb60e01b8082526001600160a01b0396909616600482015260248101919091529086908290604490829060009088165af190811561038d57600091610e49575b5015610e12578054600080546004808501546040518881529287166001600160a01b03169183019190915260248201529187918391604491839188165af190811561038d57600091610df5575b5015610dba57805460018201546005909201546040519485529183166001600160a01b0316600485015260248401919091528491839116816000816044810103925af190811561038d57600091610d9d575b5015610d58577f60f91a26281f20fb528663f4da55773c83e2ee8a7a5dddb6d1753749e81dc49b92600260ff19825416179055604051908152a160018055005b60405162461bcd60e51b815260048101839052601960248201527f44697370757465206665652072657475726e206661696c6564000000000000006044820152606490fd5b610db49150833d8511610386576103788183611723565b84610d18565b60405162461bcd60e51b8152600481018690526013602482015272119959481d1c985b9cd9995c8819985a5b1959606a1b6044820152606490fd5b610e0c9150863d8811610386576103788183611723565b87610cc6565b60405162461bcd60e51b815260048101869052600f60248201526e151c985b9cd9995c8819985a5b1959608a1b6044820152606490fd5b610e609150863d8811610386576103788183611723565b87610c79565b60405162461bcd60e51b815260048101859052601760248201527f4f6e6c792073656c6c65722063616e2072656c656173650000000000000000006044820152606490fd5b346101c15760403660031901126101c157600435610ec7611745565b336000526020906008825260ff604060002054161561127757610ee861180e565b82600052600682526040600020600681019060ff8254166006811015610399576003036112415782156110ee57610f748460018060a01b03808454169060018501541690610f3f60038601546005870154906117e9565b60405163a9059cbb60e01b81526001600160a01b03909316600484015260248301529092839190829060009082906044820190565b03925af190811561038d576000916110d1575b50156110965783610fd7915b80546000805460049384015460405163a9059cbb60e01b81526001600160a01b03928316958101959095526024850152929485939092169183919082906044820190565b03925af190811561038d57600091611079575b501561103457917f5a87909bff68caaaaf0b3fd9c74eeccc928832f879315e5c6fb7a73612f26c0c9391604093600460ff198254161790558351928352151590820152a160018055005b60405162461bcd60e51b815260048101849052601c60248201527f506c6174666f726d20666565207472616e73666572206661696c6564000000006044820152606490fd5b6110909150843d8611610386576103788183611723565b85610fea565b60405162461bcd60e51b8152600481018590526013602482015272109d5e595c881c99599d5b990819985a5b1959606a1b6044820152606490fd5b6110e89150853d8711610386576103788183611723565b86610f87565b80546002820154600383015460405163a9059cbb60e01b8082526001600160a01b0393841660048301526024820192909252909287908290604490829060009087165af190811561038d57600091611224575b50156111e757825460058401546040519384523360048501526024840152869183916044918391600091165af190811561038d576000916111ca575b501561118d5783610fd791610f93565b60405162461bcd60e51b8152600481018590526015602482015274105c989a5d1c985d1bdc881999594819985a5b1959605a1b6044820152606490fd5b6111e19150853d8711610386576103788183611723565b8661117d565b60405162461bcd60e51b815260048101879052601560248201527414d95b1b195c881c185e5b595b9d0819985a5b1959605a1b6044820152606490fd5b61123b9150873d8911610386576103788183611723565b88611141565b60405162461bcd60e51b815260048101859052600e60248201526d4e6f7420696e206469737075746560901b6044820152606490fd5b60405162461bcd60e51b815260048101839052601960248201527f4e6f7420617574686f72697a65642061726269747261746f72000000000000006044820152606490fd5b346101c1576020806003193601126101c15760043560005260068152604060002060018060a01b0390818154169260019183838201541693600282015416600382015460048301549060058401549260ff600686015416946007810160405198899160009181549161132d836116e9565b928386528c83821691826000146114275750506001146113e3575b5050506008929161135a91038a611723565b015497604051998a52868a015260408901526060880152608087015260a08601526006811015610399579084929160c0840152610120918260e08501528051809385015260005b8381106113cb57505050610140926000848385010152610100830152601f80199101168101030190f35b818101830151878201610140015286945082016113a1565b8b935060009291925282600020916000925b82841061140d575050508201018161135a6008611348565b84929582958583549201015201910190928a928c946113f5565b60ff19168782015293151560051b8601909301935084925061135a915060089050611348565b346101c1576020806003193601126101c1576004359061146b61180e565b6000828152600682526040902060018101546001600160a01b0393919084163381900361160657600682019460ff86541660068110158061039957811580156115f9575b156115c457610399576001146114fd575b5050507f4e02dcf02d8510f6c8a6878a3c54ae6e2bfbf552df29221d7a1eed173a6b1ae792600560ff19825416179055604051908152a160018055005b9184916115519361151a6102a060038501546004860154906117e9565b92541690600060405180968195829463a9059cbb60e01b84526004840160209093929193604081019460018060a01b031681520152565b03925af190811561038d576000916115a7575b5015611572578380806114c0565b60405162461bcd60e51b815260048101839052600d60248201526c1499599d5b990819985a5b1959609a1b6044820152606490fd5b6115be9150833d8511610386576103788183611723565b84611564565b60405162461bcd60e51b815260048101889052600d60248201526c10d85b9b9bdd0818d85b98d95b609a1b6044820152606490fd5b50506000600182146114af565b60405162461bcd60e51b815260048101859052601560248201527413db9b1e48189d5e595c8818d85b8818d85b98d95b605a1b6044820152606490fd5b346101c15760203660031901126101c15761165c6116d3565b611664611754565b6001600160a01b0316801561168e576000908152600860205260409020805460ff19166001179055005b60405162461bcd60e51b815260206004820152601a60248201527f496e76616c69642061726269747261746f7220616464726573730000000000006044820152606490fd5b600435906001600160a01b03821682036101c157565b90600182811c92168015611719575b602083101461170357565b634e487b7160e01b600052602260045260246000fd5b91607f16916116f8565b90601f8019910116810190811067ffffffffffffffff82111761079757604052565b6024359081151582036101c157565b6000546001600160a01b0316330361176857565b606460405162461bcd60e51b815260206004820152602060248201527f4f776e61626c653a2063616c6c6572206973206e6f7420746865206f776e65726044820152fd5b156117b357565b60405162461bcd60e51b815260206004820152600e60248201526d496e76616c69642073746174757360901b6044820152606490fd5b919082018092116107ad57565b908160209103126101c1575180151581036101c15790565b60026001541461181f576002600155565b60405162461bcd60e51b815260206004820152601f60248201527f5265656e7472616e637947756172643a207265656e7472616e742063616c6c006044820152606490fdfea2646970667358221220cffb3a2f077f2088cbc8024ad3ef1cb9d7731e5a2f3448728ed3176672660f1864736f6c63430008140033",
  "linkReferences": {},
  "deployedLinkReferences": {}
}